:10000000F01F001049070000AD440000AD4400009F
:10001000AD440000AD440000AD440000AD4400001C
:10002000AD440000AD440000AD440000AD4400000C
:10003000AD440000AD440000AD440000AD440000FC
:10004000E5040000AD440000AD440000AD440000F4
:10005000AD440000AD440000AD440000AD440000DC
:10006000AD440000AD440000AD440000AD440000CC
:10007000AD4400006929000079130000AD44000080
:1000800089140000AD440000AD440000AD44000000
:10009000AD440000F5150000AD440000AD44000083
:1000A000AD440000AD440000AD440000AD4400008C
:1000B000AD440000AD440000AD440000AD4400007C
:1000C000DC490000000000109000000090000010CB
:1000D0006800000070B50F4B0F498B420BD2002215
:1000E0001C685D689868904203D9165956510432CD
:1000F000F9E70C33F1E7002008498B4209D20022CE
:100100001D685C68944202D950510432FAE7083302
:10011000F3E770BDC0000000CC000000D400000078
:1001200010B5FFF7D7FF04F005FABFF34F8F034A6E
:10013000034BDA60BFF34F8FFEE7C0460400FA05B9
:1001400000ED00E0FFFFFFFFFFFFFFFFFFFFFFFFEE
:10015000FFFFFFFFFFFFFFFFFFFFFFFFFFFFFFFFAF
:10016000FFFFFFFFFFFFFFFFFFFFFFFFFFFFFFFF9F
:10017000FFFFFFFFFFFFFFFFFFFFFFFFFFFFFFFF8F
:10018000FFFFFFFFFFFFFFFFFFFFFFFFFFFFFFFF7F
:10019000FFFFFFFFFFFFFFFFFFFFFFFFFFFFFFFF6F
:1001A000FFFFFFFFFFFFFFFFFFFFFFFFFFFFFFFF5F
:1001B000FFFFFFFFFFFFFFFFFFFFFFFFFFFFFFFF4F
:1001C000FFFFFFFFFFFFFFFFFFFFFFFFFFFFFFFF3F
:1001D000FFFFFFFFFFFFFFFFFFFFFFFFFFFFFFFF2F
:1001E000FFFFFFFFFFFFFFFFFFFFFFFFFFFFFFFF1F
:1001F000FFFFFFFFFFFFFFFFFFFFFFFFFFFFFFFF0F
:10020000FFFFFFFFFFFFFFFFFFFFFFFFFFFFFFFFFE
:10021000FFFFFFFFFFFFFFFFFFFFFFFFFFFFFFFFEE
:10022000FFFFFFFFFFFFFFFFFFFFFFFFFFFFFFFFDE
:10023000FFFFFFFFFFFFFFFFFFFFFFFFFFFFFFFFCE
:10024000FFFFFFFFFFFFFFFFFFFFFFFFFFFFFFFFBE
:10025000FFFFFFFFFFFFFFFFFFFFFFFFFFFFFFFFAE
:10026000FFFFFFFFFFFFFFFFFFFFFFFFFFFFFFFF9E
:10027000FFFFFFFFFFFFFFFFFFFFFFFFFFFFFFFF8E
:10028000FFFFFFFFFFFFFFFFFFFFFFFFFFFFFFFF7E
:10029000FFFFFFFFFFFFFFFFFFFFFFFFFFFFFFFF6E
:1002A000FFFFFFFFFFFFFFFFFFFFFFFFFFFFFFFF5E
:1002B000FFFFFFFFFFFFFFFFFFFFFFFFFFFFFFFF4E
:1002C000FFFFFFFFFFFFFFFFFFFFFFFFFFFFFFFF3E
:1002D000FFFFFFFFFFFFFFFFFFFFFFFFFFFFFFFF2E
:1002E000FFFFFFFFFFFFFFFFFFFFFFFFFFFFFFFF1E
:1002F000FFFFFFFFFFFFFFFFFFFFFFFFFFFFFFFF0E
:100300000823B0B5374C86B000AF21000722F8189B
:1003100004F004F910230025E11D0722F81804F069
:10032000FDF8314BBD801A78304CAA4204D0280029
:100330001D7002F037F925602368042B24D81800BB
:1003400004F0DCF9030309101700002201332360D5
:10035000110048232DE0032323600533F9180722F9
:10036000533326E0042323600C33F91807224B3360
:100370001FE01F4D2B68002B02DC01F07BFD286085
:100380002B68002B06DC2368002201332360110058
:1003900001230EE0E72B02DDE83B2B6004E00023A5
:1003A0002B602368013323602B680222BB80462325
:1003B000391D10006C460930C008C000201A85465F
:1003C0006C4623700023951C6370994202D0A01CD8
:1003D00004F0A4F82100280000F01EFEBD4606B07F
:1003E000B0BDC0461C470000000000109400001083
:1003F000980000107FB5060000F0EEF90400082018
:10040000A369034202D1012100F022FA002102ABCC
:100410000A00009303200B00029102F09DFE204889
:1004200003F008FF029B6289C51AA3891B041343CA
:1004300003D0002D0FDB9D4210DAA48801F01AFDD5
:1004400060430130854202DD012C00DD013C2000CB
:1004500000F0B8FF09E00121902002E08420012192
:10046000800000F0F5F900F0D9FF00F001FE002E49
:1004700003D13100052000F003FE00F009FE012148
:10048000039003A801F05AFD012804D0882001211F
:10049000400000F0DDF9039B18B201F047F87FBD82
:1004A0000040054010B501240021022000F0E8FDC5
:1004B00002F05EF800F078FF00F01CFA00F094FD06
:1004C000064B1C70FFF71CFF00F08AF9002804D0CF
:1004D000034B20001C6003F027FF10BD000000103C
:1004E00000E100E010B5012003F028FF00F078F9EA
:1004F000002806D00420012100F0AAF9012000F014
:1005000061FF10BD10B5002801D0142000E00120CB
:1005100000F0CAFF10BDFFFF012210B5024B1420EE
:100520001A7000F0C1FF10BD90000010012210B53C
:10053000024B14201A7000F0B7FF10BD910000109C
:1005400030B51500094C0100A544094C6A4623004A
:10055000084803F039FC23002A002100684603F014
:100560001FF9C000044B9D4430BDC046FCFBFFFF9B
:10057000FE0300000040034004040000072307318D
:1005800070B5CD17064C2B405918C910230003F045
:1005900055F9A04201D0002000E0024870BDC046DD
:1005A000FE030000ED1F0000F0B589B0FFF77AFFF1
:1005B00003F084FD04000120022C03D02000FF384A
:1005C0004342584100F070FF0125FF2C11D0A51EB9
:1005D0006B425D41012C09D0032C0AD100F000F9D7
:1005E000002806D00121042000F032F90020FFF796
:1005F00001FF03F035FF00244E4B1A78002A20D06B
:100600004D4C002220001A7044304432210002F088
:1006100071F9002814D0260004AF443639003000A8
:1006200002F0E8F800280BD03B78042BF3D103A9A3
:10063000300002F08FF90100039800F0EDFCEAE7CA
:1006400001243E4B1A78002A06D0002201241A7099
:1006500001F082FFFFF754FE00F0F8FE002802D000
:100660000120FFF7C7FE364803F0ABFCC30601D5F7
:1006700003F0F6FE00F040FF0028BDD000230193F8
:100680009C4200D1019500F0ABF8070000F0B4F8EF
:10069000060000F0BFF80500002F03D1002E01D1A5
:1006A00000282FD0012003F033FD03F075FD040076
:1006B000002003F02DFDA30603D50121802000F0CA
:1006C000C7F800F0AFF8040000F05EF81D48012103
:1006D00003F076FB01F032FF012000F0E5FE002F71
:1006E00003D0012003F01EFD03E0002E01D1002DF8
:1006F00015D0200003F0D2FC032403F081F9FFF7AA
:10070000D1FE5BE700F08EF800F03EF80D480121C5
:1007100003F056FB01F012FF012000F0C5FE019B23
:10072000002B03D0FA20C00003F052FA03F0E6FCDD
:10073000FEE7C04690000010F80000109100001085
:10074000008005400040034010B5084803F00CFA53
:1007500003F056F9A022D2055368002BFCD01920D3
:1007600003F088FEFFF7B6FCFFF71EFF80841E0033
:100770000020012202339A424041C0B2934202D982
:10078000019B009A1A60704710B588B000F0C0FE57
:1007900001F038FB02F0BAFB6A4604210C48202322
:1007A00003F012FB0B4C20226946200003F0C6FE2A
:1007B000002805D0202322000421054803F02CFB4B
:1007C000200001222030002103F0B6FC08B010BD4B
:1007D00000400340540100100048704754010010CD
:1007E000044B98691E231840023843425841C0B256
:1007F0007047C046540100100C22054B0020996937
:10080000114203D09B6901301B0998437047C046D1
:1008100054010010024B9869C005C00F7047C046D4
:1008200054010010024B98690006C00F7047C04683
:1008300054010010054B5A8A12B2824200DD5882E0
:100840009A8A12B2904200DD9882704754010010DB
:10085000F7B50700154D0600AB699F430E231F42F5
:1008600002D001226B1CDA77002900D03E00002460
:10087000002E13D001231E420CD0631F012B04D87D
:1008800000230422019301A901E0002211002000AD
:1008900002F086FB0134E4B27608E9E7AB69380080
:1008A0003B43AB6100F0A4FEF7BDC046540100100D
:1008B00010B5011E0C4C04D12022200003F036FE9E
:1008C00006E01222200003F029FE0023A361E36169
:1008D000064B01206382064BA38202F0C7FA012176
:1008E0000800FFF7B5FF10BD54010010FF7F0000A6
:1008F0000080FFFF73B5042301AA0021254803F0FF
:1009000063FA254A019B1168244D8B4217D00024BD
:10091000042300211F4803F07FFA20230022042132
:100920001C4803F081FA01F045F9002001F0B4FA07
:100930000020FFF7BDFF6B1CDC7701261FE02023A2
:100940002A000421134803F03FFA01F033F9002094
:1009500002F08CFA28000122203000216C1C03F0E8
:1009600003FCFFF749FF002805D0E37F002B04D1EB
:100970009126012403E00126FBE70126340028002C
:100980001C3000F0BFFD30000121FFF761FF2000A7
:1009900076BDC04600400340040000105401001022
:1009A000F0B585B0029015000B9C9A1C0CD05A1C17
:1009B00015D10022514B1A60514B1A60514B1978D6
:1009C00021705978617008E04C4B4D4A1C6000233F
:1009D00013600922E37123724A4B1A8087E0CA43ED
:1009E000D2171540E278A77812023A43160022790E
:1009F0001204324366793606300010430200029E2C
:100A0000F2400126B446324271D03D4E67783268DA
:100A10003F026244326026783E43B24267DD62465E
:100A2000A679324001925200B70700D50432770709
:100A3000FF0FD219360702D5002D00D05219314EC2
:100A40003788BA180392DC22FF329446039A624533
:100A500044DC207AE27900020243013292B2E27170
:100A6000120A2272019A002A07D0244A1268D3552A
:100A7000D2191B0A023753703780A3799B0710D510
:100A8000204F1E4B3A881B680A9898549B18000AFE
:100A900058700A980432000C98700A983A80000E38
:100AA000D870A3795B0708D56F46164A1348138898
:100AB00000683F7AC75401331380A3791B0716D50A
:100AC000002D14D00D4A338812680F48D2182B001D
:100AD00003F07AF933885D19358008E080230343F9
:100AE000190AA370E170190C1B0E21716371A079B2
:100AF000C043C0B2C00905B0F0BDC046A800001098
:100B0000A00000109C0000100040034013B50B4BE8
:100B100004000193FFF764FE00280DD0012104209A
:100B2000FFF796FE012000F04DFC002301AA0421EE
:100B30002000019301F0DCFF019816BD0F000100B9
:100B4000F0B591B00390FFF747FE2827050006ACEB
:100B50003A000021200003F0E9FC2B6802A9636041
:100B6000AB88002623812B89EA881B0413431A22B1
:100B7000521813801B0C5380AB896A891B041343E2
:100B80001E22521813801B0C5380EB8963822B8A20
:100B9000A3826B8AE382AB8A2383AB69E36101F0B2
:100BA00069F905AB60833200310000930320330004
:100BB000059602F0D1FA059B0648236203F03AFB42
:100BC000220060623900039801F092FF300011B0FA
:100BD000F0BDC04600400540F8B5060014000729E6
:100BE00033D1637812781B02194D13432B80E278BE
:100BF000A0782379120202431B0413431A0063797D
:100C00001B06134300D1134B6B801B0CAB80A379E5
:100C10001148AB7102F0B8F9012107006078237820
:100C2000000218432A00494202F02EFA380002F06E
:100C3000ABF9637822781B021343298830002B809C
:100C40002A0001F055FF002000E00448F8BDC0462E
:100C500078010010FFFF7F00A10900000D000100D6
:100C600013B5040001290DD11078831E052B0BD874
:100C700000F006FA01AA01900421200001F038FFDB
:100C8000002002E0014800E0014816BD0D0001000F
:100C90000E00010037B505001400122953D1537816
:100CA0001078A1781B02034309041A000B00E178B5
:100CB00013430906194300D10131244803F0C6FA51
:100CC00000F0ACFB002301AA04212800019301F0ED
:100CD0000FFF012001F0E0F800F01CFC2000FFF7FE
:100CE000E7FD637922791B0213432AD002200121F8
:100CF000FFF7AEFDE279A079237A120202431B04CA
:100D000013431A00637A1B061343013305D10120F4
:100D10000F4B186003F008FB13E004200121FFF7DC
:100D200097FDE279A079237A120202431B04134350
:100D30001A00637A01201B06134300D0180000F04C
:100D400041FB002000E003483EBDC0460040054096
:100D500000E100E00D000100F0B50B7889B00290D1
:100D60000091614C022B03D1020060485B3007E028
:100D70000A2B01D0237806E05C48029A00996B3078
:100D800003F0CCFB012301932378002B00D1A8E0D2
:100D900000232370564C554F2600390080227836A8
:100DA00078319200300001F01FFC009B03971B7804
:100DB0002500482B7BD105AC473B23714D4B2100CF
:100DC0003000059301F035FC00280AD00399102269
:100DD0005B31300001F037FC002802D0300001F018
:100DE00051FC01232371444B04A8059300F0E4F95E
:100DF000049B0700002B11DD2E0078362100300007
:100E000001F00EFC002809D0049A3900300001F0EE
:100E10001AFC002802D0300001F034FC04A800F0D5
:100E200015FA049B0700002B11DD2E00783605A96A
:100E3000300001F0F5FB002809D0049A3900300099
:100E400001F001FC002802D0300001F01BFC04A8D6
:100E500000F058FA049B0700002B11DD2E007836B5
:100E600005A9300001F0DCFB002809D0049A390004
:100E7000300001F0E8FB002802D0300001F002FC55
:100E800001232E00237178361C4B2100300005937E
:100E900001F0CFFB00280AD003990A226B31300001
:100EA00001F0D1FB002802D0300001F0EBFB002361
:100EB0002C0005A90B717834104B2000059301F02C
:100EC000B8FB002809D0029A0099200001F0BBFB72
:100ED000002802D0200001F0D5FB2800783001F076
:100EE000E3FB019809B0F0BDA4000010F802001067
:100EF000F804001008000010540000102A470000F9
:100F0000F8B506001700022922D100247B78127858
:100F1000104D1B021343AB802C60E81D03222100FF
:100F200003F004FB78783B780002184301F04CF999
:100F3000A04205D02800E8210A3001F097F94400CA
:100F400021006310AB710A312A00300001F0D0FD9E
:100F50000148F8BD780100100D00010070B50600D1
:100F6000042926D11378012B25D15478002C24D1C3
:100F7000134D2C6013782B7153786B71D378917863
:100F80001B020B43EB80D07893780002184301F0EA
:100F90001BF9002805D02800E821083001F066F987
:100FA00044002100300008312A0001F0A1FD00209A
:100FB00004E0044802E0044800E0044870BDC04674
:100FC000780100100D0001000E000100100001006A
:100FD00010B501240B2804D1FFF70EFC4440E0B209
:100FE00000E0200010BDFFFF37B501F069FD0225CC
:100FF000084801F077FD002301AC28002100637050
:10100000257001F0A3FE0A2328002100237001F0BF
:101010009DFE37BD590D0000012210B5024B1A701C
:1010200001F094FE10BDC046A400001007B50C49A5
:101030008A4202DB0B498A4200DD0A000A490A6043
:10104000002B0CD011B20023013200D1074B0093CA
:101050006B466A4699805020062101F049FD07BD84
:1010600070FEFFFF52030000580000100E00010048
:10107000014A024B1A6070475303000058000010E9
:1010800010B50B000022022100F0EEFA10BDFFFFA8
:1010900010B5802464000021034803F0A9F9204220
:1010A000F9D1024B186810BD00000640580000102E
:1010B00070B50600881A0D0001302021140003F0DD
:1010C00035FA30232B702D1B002C0EDD002E0CDD8D
:1010D00030000A2103F09CFA3031295530000A21F2
:1010E00003F096FA013C0600EEE770BDF8B5050086
:1010F0000C000127002801DA002745420A212800B8
:1011000003F086FA012208002100FFF7D1FF2E220A
:10111000631E1A700A21A61E280003F079FA032222
:101120003100FFF7C5FF002F02D12D23043C2370AF
:10113000F8BDFFFFF7B5040001911700B3281BDDD0
:10114000164B984206DC3C2103F062FA07260400A5
:10115000134D13E0134B984207DCE121090103F022
:1011600057FA05260400104D08E0104903F050FA24
:10117000042604000E4D01E007260E4D380007221C
:10118000202103F0D3F932002900380003F0C6F91A
:10119000032201992000FFF78BFFF7BD2F2A0000E3
:1011A0009C4900007FF403002E470000805101009D
:1011B000AC490000A4490000F0B585B00700FFF776
:1011C0000BFB0425012381690A00EA401A4202D17F
:1011D000013D002DF8D100F04DFE194C2E220021CA
:1011E0000600200003F0A2F9164BAA00D1582000F7
:1011F00003F0C2F9032D04D0042D1CD121000D31C0
:1012000015E0002103AB0A00009328000B000391B6
:1012100001F0A2FF0C4803F00DF822002100039B0F
:101220000E311032C01AFFF785FF21001D31052253
:101230003000FFF73DFF2E2320003B6005B0F0BDDE
:101240009C0500104049000000400540F0B587B003
:1012500000250600FFF7C0FA04AB2A00290000931E
:1012600007002B000320049501F076FFA122234CF8
:1012700029002E345200200003F058F9356005355E
:10128000EBB203930123AB40BA691A422FD0336803
:10129000002B02DD0A22631E1A70049BE8B205933C
:1012A00005AB009300231A00190001F055FF144B01
:1012B000AA00D158200003F05FF9052D07D1049A48
:1012C000059B2100981A22002431263209E0EBB256
:1012D000062B08D1049A059B2100981A220023317D
:1012E0002532FFF727FF33682E342E333360013564
:1012F0000C2DC5D101482E3007B0F0BD9C05001063
:1013000040490000F8B50600FFF766FA174C0500E3
:10131000270070373B220021380003F007F9122321
:10132000EA5E14216B5E9A4210DA1149380003F02C
:1013300023F921001223E85E9931FFF7D7FE21003F
:101340001423E85EA931FFF7D1FE03E00949380014
:1013500003F012F9FFF79CFE210025008931FFF709
:10136000C5FE3B23703528003360F8BD9C06001095
:10137000344700007047000070B5094802F082FF52
:10138000012405000100064802F08AFF254205D02D
:101390002100034802F040FF024B1C7070BDC046A4
:1013A00000400540AD00001010B50121034802F0D7
:1013B0005BFF8022024BD2011A6010BD0040054045
:1013C00000E100E010B500210400114802F016FF12
:1013D0000022104B1A70944200DC012403210C48B7
:1013E00002F00CFF21000A4802F016FF80204001A5
:1013F00002F09AFF8020400102F0A0FF8022064BFD
:10140000D2011A600121024802F02EFF10BDC04631
:1014100000400540AD00001000E100E010B5084CB0
:101420000021200002F0EAFE8022064BD201DA679A
:101430000021200002F018FF0022034B1A7010BD9B
:101440000040054004E100E0AD000010014B1878B9
:10145000C0B27047AD00001001228021074810B5CE
:101460004368490293434360054BD967026002F029
:101470007EFF0022034B1A7010BDC04600C0004022
:1014800004E100E0AC00001010B50124044B1A6820
:10149000224204D01C60FFF7DFFF024B1C7010BD1E
:1014A00000C00040AC000010802110B549000400CD
:1014B0000E4802F057FFFFF7CFFF02F05FFB002C52
:1014C00002DD6043400B01E0C00C0130074B084ACD
:1014D000DA60986101205969064A01435961802107
:1014E000490211605A6802435A6010BD00C00040B2
:1014F000FF1F000000E100E0014B1878C0B2704708
:10150000AC000010014B18607047C046B0000010DE
:101510007047FFFF044B1B68002B03D0FC22197897
:101520000A401A707047C046B000001030B52C4B0E
:1015300087B00500984251D0FFF77CF9FFF74CF9CE
:101540000E23C25E1021435E9A4247DA254C954233
:101550000ADA01252368402019782940FFF778F935
:10156000226813782B4335E09D420BDD2368202051
:1015700019788907C90FFFF76BF9022122681378E0
:101580000B4327E023681B78DA0702D49B0723D498
:101590001CE0062001230F255B42049300236D44C9
:1015A0002B702A00009304A901F0E1FD049B002B9D
:1015B0000CDB2B78002B09D00B4802F03BFE2B787C
:1015C000059005AA0499094802F026FCFC2322682C
:1015D00011780B40137001E00520DBE707B030BD48
:1015E00053030000B00000100040054000400340DD
:1015F0007047FFFF70B5144802F014FF134B1449F5
:101600005843144B144CC01803F002F82578060018
:10161000EDB2022D03D10A2102F008FF060080225C
:101620000E4B9203DA67084802F0C6FE064802F045
:10163000D6FE21780A4B3200C9B21B68FFF7F6FCD0
:101640000022084B1A7070BD000006403E080000E2
:101650004D08000050000400B400001004E100E058
:10166000B8000010B5000010F7B50193254B150028
:101670001A7800900C001F000126002A3FD1224852
:101680001E7002F081FE00991F4802F0A0FE002D9E
:101690000CD11E4B019A1C701D4B31001A481A6068
:1016A00002F0DAFE80221B4B92031A6000261648D5
:1016B00002F099FEB54223D08025AD0000211248EA
:1016C00002F096FE2842F9D00F4802F0ABFE124B12
:1016D00012495843124BC01802F09AFF0600022C20
:1016E00003D10A2102F0A2FE060080220D4B9203D4
:1016F000DA67054802F060FE00233B7000E07642A6
:101700003000FEBDB500001000000640B40000101F
:10171000B800001000E100E03E0800004D080000A5
:101720005000040004E100E00022054B1A605A60FA
:101730001A72013A1A61DA605A619A617047C046BA
:1017400048070010F7B5012408269440B61A370060
:10175000013C4D07E4B26D1A009401950D78009C90
:101760009540AC4605782540644625430570BB424C
:1017700003DD0D78013035410570019C013165189C
:101780000837ED00AB42E9DC0949D2180A4004D51C
:101790000823013A5B421A430132FF239340DB43A3
:1017A000DBB2002B02D0027813400370F7BDC046B5
:1017B00007000080F7B508250126AF1ABE40013E9C
:1017C000F4B201940C78AE1A1441E4B20470B3423E
:1017D0001FDD4E78BE40B446019E34406646344319
:1017E0000470AB4211DC0D4A1A4004D50823013ABB
:1017F0005B421A430132FF239340DB43DBB2002BF1
:101800000AD002781340037006E001300131083538
:10181000D8E7AB42FADCE6E7F7BDC0460700008038
:1018200070B5104E0100F56900202B685C03240F91
:10183000032C16DC0B23072230005C4313342240B8
:101840002030E4100019FFF77DFF0F2128684303C3
:101850001B0F01330B40DA03034B034001201343FA
:101860002B6070BD48070010FF7FF8FFF8B504003B
:1018700008001249CD692B685A03120FA24214DDE9
:101880000B2363430E4A13331A4004D50826013A4A
:101890007642324301320726DF173E40F318DB1051
:1018A0002031C9180B23FFF785FF2B6801205B034C
:1018B0001B0F9C4200DB0020C0B2F8BD480700109F
:1018C0000700008000221000074B10B5996A5C6881
:1018D0008901A24207DA054BC018535A2F335B1116
:1018E0009B00D218F5E710BD48070010E702000082
:1018F000104B026810B500249A4218D10E4B826832
:101900009A4214D143680D4A134210D1A34206D023
:101910000B4A0C48926A9201D218824207D80029D9
:1019200004DB581A42424241D4B200E001242000B4
:1019300010BDC046FFFF0000FFFFFF7F0380FFFFD9
:1019400048070010FF77000030B593B06B46194D83
:10195000194C2A8820001A80AA8818495A806A4699
:10196000042302F059FA6B461B8801AADB4313805B
:101970006B465B882000DB4311495380042302F04F
:101980004BFA2B6802AAD917C905C90DC918A82393
:101990004912DB008901C9182000402302F014FA23
:1019A000E021402302AA0901200002F035FA13B019
:1019B00030BDC0464807001000400340780E0000CC
:1019C0007C0E0000F8B5072304001C401500A21887
:1019D000D2180E00D1170B4069469B18DB10DA1D98
:1019E000D208D2008A1A00AF9546A822C108D200B8
:1019F000891806486A4602F0E7F92B00694630006C
:101A00002200FFF7D7FEBD46F8BDC04600400340A8
:101A1000F7B51A4D00AF39601600054004D508230C
:101A2000013D5B421D4301350722A823C417144022
:101A30002418DB00E410E418AB199B18D9170A40EE
:101A4000D3186A46DB107B600733DB08DB00D31A50
:101A50009D4621006A460123094802F0B5F933008A
:101A60002A0039686846FFF76DFE7B686A462100E8
:101A7000034802F0D1F9BD46F7BDC046070000801B
:101A8000004003401FB5074B01A90193064B5A685C
:101A900018680292054A03926022FFF7B9FF05B069
:101AA00000BDC046FFFF000048070010FFFFFF7F9A
:101AB000F8B50600144DAB6A980180194478037894
:101AC00024021C43114B9C4201D100201BE0AB6956
:101AD0009E4214D02B000E4F02302C33BC4207D153
:101AE00001000C4A180002F019FD8020C0000AE035
:101AF0001A002100FEF742FDB842E6D1AE61200097
:101B00002F3040118000F8BD48070010FFFF000093
:101B1000ED1F0000FE03000037B5058804000B210F
:101B2000280002F078FD002089B2814238D11D4B97
:101B30009D4235D804236A461B491C4802F044F9EB
:101B40006B461B886A46DB439BB21380528869460A
:101B5000D24392B24A802188994203D163880120FE
:101B600093421DD0A8211148042301AAC90002F004
:101B70002BF90198002811D16B460D4A1B8893421E
:101B800009D16A4652889A4205D12388002B02D196
:101B90006088434258410123184001E00020FAE7E1
:101BA0003EBDC0469C4500007C0E00000040034046
:101BB000FFFF0000874A884BF0B5D31A874C3F22BD
:101BC000250087492035CB183F33D9170A40D31851
:101BD0009B1197B0A362FFF7A7FD28000222032103
:101BE00002F0C2FAE561258C26006D046D0C03D16C
:101BF000236A5B031B0F11D0336A5B031B0F042B9B
:101C00000BDC0B21280002F003FD002905D1754BE8
:101C1000EA0FAB424A41150000E00025042302AA66
:101C20007149724802F0D0F802A8FFF775FF04006E
:101C3000002D02D1002C2CD015E0F3696022188809
:101C400003A94004400CFFF7BDFE002C02D002ABFC
:101C5000598801E00121494203A8FFF749FE002805
:101C600000D0A2E0E6E7F26902AB188813884004CE
:101C7000DB0B400CDB030343138003A96022FFF757
:101C8000A1FE02AB598803A8FFF732FE002800D05E
:101C90008BE0F369564D019306AF02233A00290009
:101CA000524802F091F83A88524B00269A422ED1BF
:101CB000290002233A0008394C4802F085F83A8896
:101CC000531C1340B34222D11900002A04D0531EE2
:101CD0001A4001310123F8E7002B01D006AB1A802E
:101CE000454B0026EB18DB005B1818000B21009316
:101CF00002F091FCB1420AD1602203A90098FFF7DB
:101D000061FE012103A84942FFF7F2FD0600023DF2
:101D1000002E08D1394B9D42BED10C22310003A8C0
:101D200002F004FC0096009B2C4F5B045A0C019BB4
:101D30001B88DB0BDB031343019A1380FB691E88AE
:101D40007604760C31D1002C28D0E02102AB1D881E
:101D500006AA4023090125483D6002F035F8A82372
:101D60006D12AD01DB00E91806AA40231F4802F0FE
:101D700053F840353B68ED009D4202DA0B3B0126EB
:101D8000FAE7164A002E00D0136002AB5B8853605E
:101D9000D2691B4B11680B40136018E03C607C60FB
:101DA0001968174A0A401A6011E00C4AD3691B8867
:101DB0005B045B0C1360049B5360002C01D1FFF7A4
:101DC000C3FD0121094801F0FBFF17B0F0BDFFF78B
:101DD00059FEF2E7DC49000000000010480700103F
:101DE000900000109C450000780E00000040034069
:101DF000F30D0000FFFF0000B6FAFF1F47050000CB
:101E0000FF7FF8FF174B37B51B78002B01D0FFF78A
:101E100039FE01AD04232A001349144801F0D4FF10
:101E20002800FFF779FE124C002804D02B88226886
:101E3000D31A2B2B01D9FFF787FD01210B4801F0A5
:101E4000BFFF20002368E1695B045A0C0B88203037
:101E5000DB0BDB0313430B800222032102F06CF93E
:101E600037BDC046BC000010780E000000400340A3
:101E700048070010074B10B5DA6918680B21146881
:101E800002F0C6FB6403240F2418FFF71BFD201883
:101E900010BDC0464807001030B5234C234BE26903
:101EA00085B0116805000B40136000210C2201A8C9
:101EB00002F03CFB602201A92068FFF7A9FD042382
:101EC00000221B491B4801F0AFFF002D28D0E02362
:101ED000A06AFF33984223DC174A830193421FD83C
:101EE0001968013101D10433F8E700091D2101F01F
:101EF000D9FF021E14D1A06A04000F342409210165
:101F0000814204D972B6013901F0F0FF62B61D2C8E
:101F100006D872B600221D21200001F0D5FF62B65E
:101F2000FFF702FC05B030BD48070010FF7FF8FF47
:101F3000780E000000400340FC7700000023F0B55D
:101F40008FB0079103900193019B079A934200DBA6
:101F50001BE10398FFF764FC051E00D00EE108ABFF
:101F60006C00E1182800FFF781FC6B1C049300282B
:101F700001D0049DF3E70600039B08AA1B88A35227
:101F8000834C0B21206802F043FB824B984200D027
:101F9000B6E0A36A0593E023059AFF339A4200DD79
:101FA000AEE0E13BFF3BA36163687B4D1C00029305
:101FB0002C4004D54025013C6D4225436C1C744DDA
:101FC00022002C35FF21280002F0B0FAA8202D199C
:101FD000AC1C22007149C000FEF7B2FA704B421EE1
:101FE0009A4207D9A8216F486F4B2200C90001F01F
:101FF000EBFE6A48C21DD2100312023228706B70C9
:10200000AA183F24FF25624F684BD11A3F23214273
:1020100002D015700132F7E72F3040117968800047
:1020200041180691B96A0698890109186048013972
:10203000814265D80299CD171D406D180599AD11E3
:102040006D185A49E8175C1AA218D4171C40A41836
:10205000A4112A19013A303BD117194018408918A8
:1020600040190911001101F01DFF031E48D1AA01FA
:1020700002921500A40172B64C482200290001F01A
:1020800047FF62B600283BD1484B0299FA6A591AB9
:102090000298281A1818013205D1002C03D00435F3
:1020A000043C6A58F4E772B600232200290001F0CC
:1020B00043FF62B6002823D1354C237A256820607F
:1020C000022B0ED13B4BE2689A4209DC03232372B8
:1020D000FFF7F8FB384BC01863682061E36000E04D
:1020E000E0602B4B069A5A60FFF72EFC0C22002171
:1020F0000BA802F01BFA60220BA92800FFF788FC4E
:10210000234C2E4B206898420DDC08AB7100C91897
:102110000B22FFF77DFC236801360B332360049B01
:10212000B34200DD2CE7264AF31711789B1BDB0F27
:102130000B431370002E28D03500154C214BE2695B
:1021400011680B401360049B9D4206DA680008ABDF
:10215000C018FFF765FB0135F5E7237A012B0DD198
:10216000E068B04201DB801B07E0022323720B23EF
:10217000301A5B4258432368C018E060019B01336A
:102180000193039B02330393DEE601980FB0F0BD89
:1021900048070010E70200003F000080ED1F00002C
:1021A000EB1F000000400340FE0300007407001016
:1021B000FF770000EC1F000019FDFFFF9B450000AA
:1021C000BC000010FF7FF8FF0122F8B50023254C6A
:1021D0005242060023722261E26018009E4240DBF8
:1021E000A16A1D0089018C4611006768BB4210DAA4
:1021F0001D4A1900A81862469A5A2F3252119200AD
:102200009A18AE4201DB864208DB13002A00050063
:10221000ECE7B24208DCB54206DD00E02A00032309
:1022200022612372E16018E00B21731B4B4320688D
:10223000834204DA022226612272E3600DE002F09A
:10224000E7F9E36945191B68701B5B031B0F984294
:1022500003DA012326612372E06020696661C043CE
:10226000C00FF8BD48070010E7020000F0B50025D8
:10227000574B87B01A6900900E00AA4200DAA4E01A
:102280001A7A032A59D1D868FFF712FC504B041E62
:1022900008D1DA6859688A424FDB02221A7200229A
:1022A000DA604AE0B542F4DADA68596803928A42A1
:1022B000EFDA474B1A695B6901920199454A8C46EE
:1022C0000293624404921300029A934226DB019A1D
:1022D000029B9B1A0B2253433F4A1A4004D5082104
:1022E000013A49420A430132394FD817390084462E
:1022F0002C310591072061460840C3180599DB1071
:10230000C918009B680018180B23FFF753FA029BAB
:10231000013501337B61AE42CBD135002C4A049BA1
:1023200051698B4207DA2D49039B8C46E418019BC7
:10233000D46063441361D068A6E7254C237A022B4E
:102340001FD1B54208DBE3682268934219DB012301
:1023500023720023E36014E0E06823689842F2DA15
:10236000009B690059180B22FFF72CFB23690135EC
:1023700001332361E3680B33E36063690133636115
:10238000DFE7237A012B14D1B54212DAE768009B0C
:10239000690059183800FFF769FA002809D0236945
:1023A000013701332361636901350133E7606361FC
:1023B000EAE70021009B8D4207DD00201A5E013113
:1023C000520552151A800233F5E7280007B0F0BD18
:1023D00048070010E602000007000080E702000046
:1023E00010B5104B1049CA1A8B4209D01C78032C27
:1023F00001D00133F7E70D498B4202D100200FE0F5
:10240000002259780160FF2901D0981C08E0032AB6
:10241000F4DD9A7812020260D9780A430260181D2E
:1024200010BDC0460881054000830540FF8205407D
:102430000023084A10B5084C1370084A20000221F6
:10244000136001F0EFFDA1212000490001F0BCFD67
:1024500010BDC046BD00001000800540C400001043
:10246000F0B5002585B002930AAB40CB03920A7900
:102470001B7804000F000192AB4203D0086802F001
:102480009DF805000121019BAE19594003235943D2
:1024900063687618F618802300209B009E4236DC85
:1024A000A3689E4233DC6B461B7966606375019EB0
:1024B000237D3601DB013343029E22683343E06013
:1024C00022611370029BD61C012B05D16B461B7A2F
:1024D00053706B1C937001E055709070039B7618DD
:1024E000032B04D151333370153B2B4005E0039B84
:1024F000062B04D14F3333703B7A737002362A00B7
:102500003968300002F00AF801207519256005B01D
:10251000F0BDFFFF10B5074C200001F059FD8823E6
:10252000984381B2200001F04FFD0122024B52423C
:102530001A6010BD00800540C800001010B50021D1
:10254000034801F041FD8022024B9201DA6710BD81
:102550000080054004E100E010B50C220249034868
:1025600001F0DCFF10BDC046B44900000081054009
:102570000122084B10B552421A60FFF759FFFFF7CE
:10258000EBFF0549054801F02BFD8022044B920129
:102590001A6010BDC8000010FF0100000080054057
:1025A00000E100E001220D4B10B51A700C4B1860D1
:1025B000002811D002210B4801F034FD094801F038
:1025C0000BFD842301000748194001F009FDC521D6
:1025D0000448490001F0F8FC10BDC046BD000010E1
:1025E000C40000100080054070B50D001E000023DF
:1025F00082600361C3608675084904000C222800CC
:1026000001F08CFF0C21002E00D002394B1C6360BE
:10261000012369182160237570BDC046B4490000CC
:1026200007B50123052201930092023AFFF718FF34
:102630000EBD012307B50193023300930422013B31
:10264000FFF70EFF0EBD436870B5D318150080224A
:10265000040092000020934213DCA268934210DC35
:10266000E268667DAA18864201D0FF2A09DC636011
:10267000E26020682A0001F051FF012023685D1903
:10268000256070BD0369C1689A785218417D0029A0
:1026900001D09A7004E09970D970111219715A71B1
:1026A000002303757047FFFFF7B54568837D06007B
:1026B0002C00002B03D00B3C032C04DC2EE00D3C43
:1026C000032C00DC80E04021326913780B43137047
:1026D000092332685B1BD318B27D002A11D0FE2C6F
:1026E0001CDD0022C1310235FF3110008D4270DC4B
:1026F000B275991C181D220001F014FF33680233D3
:102700000BE0FE2C0ADC0122191DB275981C220078
:1027100001F008FF3368023D023B336033685A1C06
:102720003260FE221A7033685F1B2A4B1A780193BD
:10273000002300939A4206D00322AB1ED9170A4009
:10274000D3189B10009303231D4201D09D430435F1
:10275000019B37601B787560002B15D11E4B1A68E2
:10276000013211D01A68AA420ED21B681B489B087E
:102770009B00DA591A4B1A6001F02AFC88210843A1
:1027800081B2164801F020FC2A003900154801F0FA
:10279000C5FE019B1B78002B02D00098FFF702FFBB
:1027A00022021149FE2C07DDFF231B041A402306D9
:1027B0000E4C1C43144304E00D4B086803401A43BD
:1027C00014000C60012004E0092302685B1BD3188D
:1027D00099E7FEBDBD000010C80000100080054054
:1027E000C0000010008105400881054003FF000083
:1027F000FF00FFFF0023F7B542684B608B600400C9
:10280000C3609A4273D008251027006820610378BE
:102810001D401F409C469B06DB0F0B733B005E1E5A
:10282000B3419E009B1B2E00009575426E410733FD
:102830009B1B9A425BDBD31A019346788278C31CB8
:10284000002F09D1C77812063F043A43831D477908
:1028500000793A430002024300270098B84201D0B1
:102860001F7801339019019DC01985423FDB281A5A
:1028700060606546072005402800042D37D801F028
:102880003DFF03082636280032433A432FD10A7011
:1028900028E0012E2BD1009D581C1B78002D00D064
:1028A000C019013A542B0CD1513B0B700378DD0950
:1028B0001DD13F351D40013048608D60521B4319CA
:1028C00010E0552B13D14F3B0B70431C0AE0042042
:1028D00000E005204B6008708E6000999B1900296C
:1028E00000D0DB199B182360E260012000E000208B
:1028F000FEBDFFFFF0B587B0040001A80D00160073
:10290000FFF76EFD011E21D0019A114B87180020A0
:102910009F421BD8B24219DCA6602560626001307C
:10292000002A11D0280001F0F9FD66682568636867
:10293000002B06DD02A92000FFF75CFF0028F6D17E
:1029400000E00120666025600023E36007B0F0BD71
:10295000FF820540C3680B60002B03D00368C0688A
:10296000181A00E018007047F0B5414D87B02800F4
:1029700001F032FB0600280001F023FB3100029039
:1029800028002C6A01F02CFB3A4BA4B21A7803936E
:10299000002A19D008232340019302D0FFF748FDF5
:1029A00012E0230610D5344F3968062905D92800CE
:1029B00001F038FB019B3B6006E0852128004900BF
:1029C00001F002FBFDF7B2FD039B1D78EDB2002D77
:1029D00033D14023234003D1E405E40D1D0014E06E
:1029E000FFF798FDF823FF331C40244B1B88032B73
:1029F0000BD005A8FFF7F4FC002806D00125059BA5
:102A00001F4A9B18C0181F4B186023070BD51D4B7E
:102A10001A68013207D01B681B4A9B081B491268C1
:102A20009B005B181A60C1235B001C4201D0FFF7BA
:102A300071FD002D01D0FDF76FFD80235B00B20713
:102A40000AD51E4202D0029BDB0607D5104B01209F
:102A50001A78002A0AD106E01E4207D00C4B1A78D9
:102A6000002A03D000201870FDF74CFD07B0F0BD20
:102A700000800540BD000010C40000100881054022
:102A8000007FFABFC8000010C000001000810540A0
:102A9000CC00001070B50024049DAC420CDAE500B7
:102AA0005D192E78864204D16D68002D01D0A847AB
:102AB00003E00134E4B2EFE7004870BD0700010015
:102AC000044B054A1360054A1360054A136000224F
:102AD0001A70704788050010DC000010D00000104C
:102AE000D8000010014B18607047C046D400001099
:102AF000F0B587B000AF796111006A4604007B69C8
:102B00009D1C0933DB08DB00D31A9D46981C7A69AB
:102B1000FB6001F003FDFB68FA681C700123537031
:102B2000304B1B68002B02D1142D06DD56E06946A0
:102B3000280098470028F7D050E02B4B00211B6855
:102B40002A4CBB6014339C462268681C13183961F8
:102B50009C4502D263469B1A3B61254B14211B689E
:102B60009A4200D2002100267E603E69301810187B
:102B700038603E68581886420DD31878FF2805D073
:102B800001301B189C4503D8143B00E0BB6814219E
:102B900001207860EDE77968002901D014490B60C5
:102BA0003B69124E002B03DDFF231370BB683360BB
:102BB00020682A000570F968013001F0AFFC7B69DC
:102BC00022680333D318084A2360126811001431B5
:102BD0008B4200D32260002233681A70BD4607B0D2
:102BE000F0BDC046D4000010DC000010D80000107A
:102BF000D00000107FB5082500212A00060002A899
:102C000001F094FC0B4B029301F084FB2840041E5E
:102C10000DD10121084801F0D3F8084B02941B683C
:102C200002AA2900300001930393FFF761FF029885
:102C300004B070BD0F00010000400340D40F00300D
:102C40007FB50024082601AA042105000194FFF79E
:102C50004FFF3200210002A801F068FC00F068FE7E
:102C600002AA039031002800FFF742FF200004B0C1
:102C700070BDFFFF13B5040008236A4605490648E6
:102C800001F0A2F820006A460821FFF731FF00207A
:102C900016BDC0469C0F0000004003401FB5040055
:102CA000684601F0D1F820006A461021FFF720FFA6
:102CB000002004B010BDFFFF30B50E2485B0050024
:102CC00022000021684601F031FC6A460B4B53801C
:102CD000132393800D3BD380053B138101F03AFB16
:102CE0000A236B441880000C58806A462800210093
:102CF000FFF7FEFE002005B030BDC046FB07000018
:102D000013B50F4C23681B78FF2B02D10D4B1B68AA
:102D1000236023681978002906D10B4B01AA0431DE
:102D20000193FFF7E5FE09E0DA1C58780239FFF756
:102D3000DFFE226813780133D3182360002016BD0C
:102D4000D0000010DC0000100B0001007FB500284F
:102D500024D0002924D00C78012822DD861E8D1C69
:102D60002A0031002000FEF733F900281BD03F2C49
:102D700003D8062300930D4B02E0072300930C4B6E
:102D80002A0031002000FFF785FE00280DD00390B7
:102D900003AA04212000FFF7ABFE06E0040000E0D8
:102DA0000C000448F3E70448F1E77FBD5C00001025
:102DB0001C0000100D0001000F000100F0B587B0ED
:102DC0000290284801934378039101781B020B433A
:102DD00000921A000027837880241B041343C278D2
:102DE0003D0012061A4316001E4B9A7ADB7A1B022C
:102DF00013439C4233DA052304AA21001A4800F049
:102E0000E3FF049B039A1B0AF61804AB1B7893425A
:102E10001FD1009B002B09D004AB1B79002B01D0E4
:102E2000631D01E001235B42009A1360019B002BAC
:102E300003D004AB1B79019A13700C9B002B00D0BC
:102E40001F600D9B002B00D01E60029B0125002BF4
:102E500005D104AB1B7901370533E418C4E728001A
:102E600007B0F0BDE00000100040034070B500283E
:102E700006D098230022DB0080211F4800F0D4FFF9
:102E80001E4C0C2322001E491B4800F09DFF637856
:102E90002178A5781B020B432D041A002B00E5783E
:102EA00013432D061D4318D1164801F0C3F9FF2323
:102EB0000100020A060C19401A403340A370A371A6
:102EC0008023000E5B4221706270E070217162719C
:102ED000E07125726572A372E572E37AA27A1B0231
:102EE0001343803B084A9BB2934204D980235B4240
:102EF000A3720023E37270BD00400340E0000010A5
:102F00003405000000400540B304000030B585B032
:102F100001AC0C2322001949194800F055FF194A49
:102F2000517815789378090229431B040B43190043
:102F3000D3781B060B4301998B4214D15179157933
:102F40009379090229431B040B431900D3791B060B
:102F50000B4361688B4206D1D37A917A60891B0258
:102F60000B43984204D00C230449054800F054FF59
:102F70000121034800F024FF05B030BD34050000F6
:102F800000400340E0000010034B021E186800D10F
:102F9000024A1A607047C0468C000010710700009A
:102FA0000B00F0B514005A1E9341002787B0324D34
:102FB000019103905B421C40EB7AAA7A1B021343F7
:102FC00005331B192D49DA0F99427A41D2B2029288
:102FD0008B424EDC2A4801F02DF90522060039000B
:102FE00004A801F0A3FA6A46127B04AB1A701C71A4
:102FF0006A792B79A87912021A43000411000200A1
:10300000EB790A431B06134318006B7A297A1B02DB
:103010000B43049A1B1A9B19D2B21B02134304934D
:10302000E97AAB7A0902194304AA052315482F72DD
:103030006F7200F0F1FEBC4209D0E97AAB7A090266
:10304000194305312300019A0E4800F0E5FE0A4BB2
:10305000DA7A997A12020A4305321419A4B2320AB2
:103060009C721E71240A5A71320C360EDC729A71EF
:10307000DE71029807B0F0BDE000001033050000DB
:103080000040054000400340F0B5002489B02F4BBC
:10309000019200941D68059102230121049003927E
:1030A0005B42220049422000A8470700284826002A
:1030B000437801781B020B431A00837825001B0418
:1030C0001343C278803412061A430292002F2FD085
:1030D0001F4B9A7ADB7A1B0213439C4228DA0523A2
:1030E00006AA21001B4800F06FFE069B029A1B0AED
:1030F000D3180293049B9D4214D3059B9D4211D883
:10310000124B611D1F6804AB1A7B187A002A01D18B
:1031100001214942039B01360193029B00932B003E
:10312000B847070006AB1B7901350533E418CDE736
:103130000020039B00900193044B02001C680123B4
:103140005B421900A047300009B0F0BD8C000010B0
:10315000E00000100040034013B5049C009301946C
:1031600013000A0001000120FFF728FE16BD13B569
:10317000049C0093019413000A0001000020FFF753
:103180001DFE16BDF0B50F2901D919482FE00288A0
:10319000002A06D10123047B4D1EAB409C42F4DB88
:1031A00000E0002201241300A4468A421EDA067BB6
:1031B000002E0FD10788002FE7D045886C1CA4B2E1
:1031C000448045196D7BC572A74201D146800680B7
:1031D00080240473047BC57A5B009BB2254201D036
:1031E00065462B43640804730132DEE71800F0BD26
:1031F000FFFF0000842210B5D200040000210D3032
:1032000001F094F90023A372238063802373E37297
:10321000A380E380238110BD70B505001E00002847
:1032200018D0002916D0002B14D020240088241A8E
:1032300002D11C6001200FE0944200D9140028182C
:103240000D30220001F06AF92B8800201B192B8019
:10325000346001E00120404270BDFFFFF0B585B051
:1032600004000F0001921D00002800D1A6E00029F3
:1032700000D1A3E0002B00D1A0E000232B60A67AB0
:10328000062E00D99CE0300001F038FA04122E3AE4
:103290004A4C590001212000FFF774FF4A4A0023DD
:1032A000904200D17EE0431E98410222131A79E039
:1032B000019B2A68934201D8012373E00821200072
:1032C000FFF760FF404B9842F6D02389C0B25A1CEA
:1032D0009B059B0DE3182D33228118702B685A1C17
:1032E0002A60F85400235DE002212000FFF74AFF26
:1032F000354A0223904255D00002E080013351E06C
:1033000008212000FFF73EFF2F4A0323904249D0B7
:10331000E388184300230130A380E080053341E0B7
:1033200004233FE004212000FFF72CFF264A052359
:10333000904237D0A38818430130A08031E0019B30
:103340002A689B1A2DD0A2880093934200D900923C
:103350002D229446E288A44403920022009B9A42C4
:1033600019D0218903980132091A60468905890D0F
:10337000435C286802936B461B7A411C29603B54CE
:103380006B46614620891B7A8005800D0B5421898C
:1033900001312181E2E7A3889A1A92B2A280131E1A
:1033A00000D00623A372A37AB34200D067E7019B43
:1033B0002868C01A4242424150B203E0012000E0B6
:1033C0000220404205B0F0BDFFFF000000B5031E23
:1033D0000FD0827A0120052A0DD810001B8801F039
:1033E0008DF90303030303031800431E984140B201
:1033F00001E00120404200BDF7B5082914D1847BCB
:10340000802C11D1996818680B685C1C0C60C25440
:103410001CE001258D40847B2A4202D0457B254358
:103420004573640804D0847301394C1CF1D10DE05C
:10343000802585731D6801959D682F002D686E1C81
:103440003E60467B019F7E554473EDE7F7BD70B546
:10345000847A05000B000289082C04D9083C22411B
:103460000824D2B202E0002C07D0D2B221002800FA
:10347000FFF7C2FFAB7A1B1BAB72200070BD80222E
:1034800010B51201040000210F3001F04FF80023A5
:103490008022238023736380E372A2736373A3800B
:1034A0002381A37210BDF7B504001F00002828D0A7
:1034B000002926D0002B24D0C37ADB0723D4037B3A
:1034C000002B20D180250088ED002D1AADB22E00F2
:1034D000954200D91600B3B201938023DB00C018D7
:1034E00080B2201832000F3001F018F83E602388B7
:1034F000019A0020D3182380954206D1012323731B
:1035000003E0012000E002204042FEBDF0B58FB094
:10351000040004921D00002800D121E1002900D1FF
:103520001EE1002B00D11BE1002A00D11AE100238B
:103530000B912B600C920D95237B0193092B00D9E5
:1035400010E1180001F0E2F81101D4000A0079003E
:103550009900AD00C100D700EE0011010122E37A0D
:10356000678813402188002B00D10F328A1A073355
:10357000974200DDBDE08023DB00FB189BB2069381
:103580001023C91B00930F2901DC8BB20093230089
:103590000F330593059A00219446069B744A6344B1
:1035A0000293744B0792FB183AB21BB20992099A24
:1035B0009A1A2FD4059AD018029A465C525C964209
:1035C00024D1029A0678127896421FD1029A0130CD
:1035D000013203920122009E96420BD906780130F7
:1035E000B446039E36780896039E01360396089EDD
:1035F000B44502D0914203D308E0013292B2EAE727
:1036000099B207910099914203D01100013B1BB27E
:10361000CDE70099012906D9079A069B9B1A544ABF
:103620009BB2934205D17B1C63800023A3800333AC
:103630005FE0E380A18003235BE00D9B1A680C9B95
:103640000093009903238A4253D2A388002B07D109
:1036500001220BAB11002000FFF7CEFE042348E04F
:103660000BAB002201212000FFF7C6FEE388013BDF
:1036700023810A23A372053B3BE00D9B1A680C9B38
:103680000093009904238A4233D26388394A08217F
:103690009B189BB2E318DA7B20000BABFFF7ACFE64
:1036A00026E00D9B0C9A1B680092934201D30523E0
:1036B0001FE00BA92000FFF7CAFE0028F7D1A3885E
:1036C000013B23810423A37205E00D9B0C9A1B6828
:1036D0000092934201D306230BE00BA92000FFF7D1
:1036E000B6FE0028F7D16288A388A080D318638033
:1036F0000223237328E0802366881B019A1B802302
:103700002000DB00991B89B2591A611892B20F315F
:103710000F3000F007FF0022238862809E1B268066
:10372000227311E0A27B0923802A0BD00D990C98FB
:103730000A68013B824205D2501C0B9B0860617BEA
:1037400099540923237310E0237B019A934200D0FC
:10375000F2E6049B2A68934200D0EDE6012005E0E2
:10376000012000E00220404200E000200FB0F0BD48
:10377000FFFF0000FF03000000280DD00122C37AE4
:103780001343C372037B002B00D10273007B093803
:10379000431E984140B201E0012040427047FFFFC4
:1037A000F0B5244C1F00A544019004A80D0016009C
:1037B000FFF765FE00230093002D2EDD00232A0075
:1037C0000293019902AB04A8FFF76DFE4442444105
:1037D000029B019AE4B2D2180192ED1A06D104A814
:1037E000FFF7CAFF0138434243411C4000233A001F
:1037F0000393310003AB04A8FFF788FE039B009AF4
:10380000F618D218FF1A0092012801D1002BEDDC26
:10381000434258410440CFD100E0012404A8FFF7FF
:10382000ABFF002802D10098002C00D10020024BF1
:103830009D44F0BDDCF7FFFF24080000F0B5264CE6
:103840001F00A544019004A80D001600FFF7D2FC4C
:1038500000230093002D31DD00232A0002930199FB
:1038600002AB04A8FFF7D8FC44424441029B019AF2
:10387000E4B2D2180192ED1A06D104A8FFF7A6FD12
:103880000138434243411C4000233A000393310076
:1038900003AB04A8FFF7E2FC039A009BB6189B1841
:1038A0000093BF1A0023012801D19A42ECDC0122C7
:1038B000C0B282425B411C40CCD100E0012404A88C
:1038C000FFF784FD002802D10098002C00D10020D1
:1038D000024B9D44F0BDC046BCFBFFFF440400000A
:1038E00010B50400002917DD01394A07FF234905F7
:1038F000100C0A0048211B041A4002430A430B48DB
:10390000210000F04BFB0123A0208021A340C00533
:1039100009024258134307E00122A0208021A2405F
:10392000C005090243589343435010BD0040044072
:10393000F0B50A2187B02F4800F024FB0B2102903C
:103940002C4800F01FFB039000F042FC0490002084
:1039500000F032FC0026284B0325F45C0A202300EB
:103960002B4019000193FFF7BBFFA3082B40190060
:103970000B201F00FFF7B4FF012000F0C9FB0A2055
:1039800000F026F900F008FC0590002000F0C0FBD4
:1039900000210A20FFF7A4FF00210B20FFF7A0FF62
:1039A000059B9B0610D5019A144B9100BA00C9588B
:1039B000D2588A1821090D40AD00A409E958A40085
:1039C000E3585218D41804E001360A2EC3D101245A
:1039D0006442029A0A21074800F0E0FA039A0B2198
:1039E000044800F0DBFA049800F0E6FB200007B082
:1039F000F0BDC04600400440C0490000CC49000072
:103A000010B52F4800F0B8FAA020C00500F017FA52
:103A1000102200212A4800F0C1FA0822012128487A
:103A200000F0BCFA08220221254800F0B7FA08226B
:103A30000321234800F0B2FA08220421204800F0B4
:103A4000ADFA082205211E4800F0A8FA0822062136
:103A50001B4800F0A3FA08220721194800F09EFA3B
:103A600008221748110000F099FA10220921144881
:103A700000F094FA134B144A1B68934202D0134A85
:103A8000934206D108220A210D4800F087FA082245
:103A900005E00A220A48110000F080FA0A220B21F0
:103AA000074800F07BFA0A4800F0A2FB094800F042
:103AB0004DF9094800F0A4FA00F020F810BDC04606
:103AC00000400440FC0200002143658765872143D4
:103AD000004005400040034000800540C30707D573
:103AE0008023A022C90119408133FF33D205D15070
:103AF000704710B50021FFF7F1FF10BD10B500228F
:103B00000721074800F04AFAA02180228020C90539
:103B100012028B5803438B507F38FFF7EAFF10BD2A
:103B20000040044010B5802800DD802000234010B4
:103B300001D00133FBE70E24054A5B005062116A95
:103B40002340A1430B43136201235062536210BD13
:103B5000008004400120034B1B6A1B075B0F984049
:103B60007047C0460080044010B50100024800F0D4
:103B70004FFDFFF7D7FF10BD00127A0010B5FFF719
:103B8000E9FF0100014800F043FD10BD00127A007A
:103B900010B50400FFF7F2FFFA2301009B0008486C
:103BA0005C4300F035FD0100200000F034FD02B45C
:103BB000E138FF38011C0339FDDC02BC10BDC046F2
:103BC00000CA9A3B10B5002801D0FFF7E1FF10BDF5
:103BD00070B5FA2504002D01AC4205DD0548FFF75C
:103BE000D7FF054BE418F7E7FA2080006043FFF7A2
:103BF000E9FF70BD00093D0060F0FFFFFF2802DC17
:103C0000022803DD00E0FF20FE23184000220121EE
:103C1000034B1860034B1A6019601A607047C04666
:103C2000D8800440D48004400349044ACB6F10403C
:103C30001843C8677047C04604800440FCBF1D009D
:103C40000349044ACB6F10408343CB677047C0469B
:103C500004800440FCBF1D0003231840054B0121D4
:103C60001A00D03210600022D4331A6019601A6032
:103C70007047C046008004400F4A10B51368002BFF
:103C800019DBC0215B1089055B005B180021101D4A
:103C9000085A585202314029F9D1084B08483C399A
:103CA0001950FE2406202401186018590842FCD03F
:103CB00001235B42136010BDF40B00100040034071
:103CC000E80F0000F7B506000F0015000193002D66
:103CD00039DD1D4C2368002B0DDA3F23F117194005
:103CE000C0238919891189019B052160201DC918EC
:103CF000402200F013FC23680024F31A3F2B17D84E
:103D000040222C00D21A954200DD1400019A002AAC
:103D100007D00D4A3978101DC018220000F006FCAB
:103D200006E0094A3900101DC018220000F0F6FB19
:103D3000019B3619002B00D13F192D1B002DC6DD2C
:103D4000FFF79AFFC3E7F7BDF40B0010C02010B5D2
:103D50004003FFF769FF042000F0B0FA082000F0EC
:103D6000C1FA6420FFF72EFF042000F0B1FAFFF73C
:103D700005FF084B0849C01800F04AFC013800282C
:103D800000DC01200122054B52425861044B1A60AD
:103D900010BDC046D7B80500D8B8050000400340A4
:103DA000F40B001010B5FFF767FF042000F086FA4F
:103DB000082000F0A3FAC0204003FFF741FF10BD28
:103DC00010B5FFF759FF10BD70B51C00C0231500DA
:103DD0009B050E002200C918280000F09FFB0D4B28
:103DE0001868002814DB191D864206DD301A0918F0
:103DF000443399420CD2280001E0801B28182C196A
:103E0000844205D9221A402A00DD402200F086FBB8
:103E100070BDC046F40B001010B5080011001A0068
:103E20000023FFF74FFF10BD13B514001A006B46B7
:103E30000800D91D01230C70FFF744FF13BD10B516
:103E40004020FFF7F1FE10BD30B589B014220021EB
:103E5000040003A800F06AFBFF230393C53B029311
:103E600000F058FA0025030703D40C48FFF79AFF27
:103E7000013503A902A80A4B9847002D02D0074834
:103E8000FFF764FF049B2360059B6360069B01931F
:103E9000A360079BE36009B030BDC046004003400B
:103EA000F11FFF1F1FB5FF230093CD3B019302902D
:103EB000039101A86946034B9847009BD8B205B00F
:103EC00000BDC046F11FFF1F7FB5FF230193CB3B11
:103ED00002930390049102A8059201A9024B98470E
:103EE000019BD8B207B000BDF11FFF1F7FB5FF23B4
:103EF0000193C43B02930390049102A8059201A987
:103F0000024B9847019BD8B207B000BDF11FFF1FBD
:103F100010B5FF2486B00094CC3C02910390059329
:103F200001A8019404926946024B9847009BD8B2BD
:103F300006B010BDF11FFF1FF0B587B007000E00DF
:103F400015000021082268461C0000F0EFFAFF234C
:103F50000093C73B0293039704960595694602A810
:103F6000044B9847002C01D0019B2360009BD8B2E2
:103F700007B0F0BDF11FFF1F802010B5C002FFF792
:103F800053FE10BD890008580002000A7047043033
:103F9000C36F090109098B43C367704770B50600F9
:103FA0000D0014000B2907D9012A05D10B001100BF
:103FB0000C3B9940FFF7EBFF2402AD00240AAC5103
:103FC00070BD4068C0B27047C905C90D81617047B6
:103FD0008069C005C00D7047C069C005C00D70473D
:103FE000082330B5054CC56922682B40C905C90DA9
:103FF000134323604162416230BDC046EC000010B3
:10400000030070B5FE22002504000448FC335A600A
:1040100003498561FFF7E4FF256070BD008005401E
:10402000FF010000043101617047FFFFF8B50C4B40
:1040300004000F001500984202D190231B011F437A
:10404000084E22003100084800F054FA0300BB4338
:104050002B4331002200044800F03DFAF8BDC04671
:1040600000800340F00000102080034010B51400D1
:10407000902212010A43024305490648FFF7D6FF82
:104080000421054A13698B431C43146110BDC046CB
:10409000FF3FF1FF0080034000ED00E001214140BF
:1040A00010B5490304220220FFF7E0FF30BF0022D1
:1040B00011001000FFF7DAFF10BDFFFF10B50B4C29
:1040C0000B4A21000B4800F015FA902380221B01B7
:1040D00003401201FF20934206D1074A2100054800
:1040E00000F008FAC006800F10BDC046F0000010B6
:1040F000008003402080034018800340802110B5D9
:10410000C9010A000148FFF791FF10BD008003407C
:10411000802110B5C20309020148FFF787FF10BDD7
:1041200000800340802110B5C20409030148FFF755
:104130007DFF10BD00800340F8B5170000258C00FE
:10414000061BBD4209DA054B0549E21805483359FB
:1041500000F0C1F901350434F3E7F8BD04800340F1
:10416000F000001020800340F8B5170000258C00F7
:10417000061BBD4209DA054B0549E218054800F067
:10418000B9F9013530510434F3E7F8BD0480034038
:10419000F00000102080034010B5044A044905488F
:1041A00000F0A8F9A023184010BDC04618800340B5
:1041B000F0000010208003400122802110B5424011
:1041C000520389010148FFF731FF10BD0080034011
:1041D00010B5044A0449054800F08CF9430B01204E
:1041E000984310BD00800340F00000102080034081
:1041F000802010B5C000FFF717FD10BD072310B5D4
:1042000002000B400248034900F065F910BDC046AA
:1042100024400540F4000010020010B50B021B0AF8
:104220000C320249024800F056F910BDF4000010AB
:1042300024400540020010B530320249024800F027
:1042400059F910BDF400001024400540020010B5DB
:104250000B0030320249034800F03DF910BDC04662
:10426000F4000010244005400200012310B50B406B
:1042700014320249024800F02EF910BDF40000107B
:1042800024400540020010B518320349034800F0ED
:1042900031F90123184010BDF400001024400540FE
:1042A0000200012310B50B4020320249024800F001
:1042B00012F910BDF4000010244005400F220349FC
:1042C00010404B6883434B607047C04600800440F9
:1042D0000F22034910404B68184348607047C0469E
:1042E000008004408E213F2210B5034C89006358A2
:1042F00010408343635010BD008004408E213F2254
:1043000010B5034C8900635810401843605010BD2D
:10431000008004408E23034A9B00D058FA3BFF3BA9
:1043200018407047008004408123034AC004C00C39
:104330009B00D0507047C046008004408223044A4E
:10434000C0049B00C00CD050D1588143D15070475D
:1043500000800440FD23024A9B00D0587047C046AD
:104360000080044010B50800FFF75EFC10BD00227D
:104370004368426001328260013242608268002AF2
:10438000FCD143607047FFFF10B504000220FFF727
:10439000A9FF80204001FFF747FC002323606362F0
:1043A000073323630833E36080231B02E361014B7F
:1043B000236210BDFF7F0000002310B54362802000
:1043C0004001FFF73DFC0220FFF798FF10BD0E22D1
:1043D000C3684900114093431943C1607047C068E6
:1043E0000007400F704701220368134303607047C2
:1043F00070B580250268836A6D0012022A405B0254
:104400006D192B4013431A001F23060080681840C3
:1044100003001343002903D0B2681206520F0A703A
:1044200098B270BD406800B27047FFFF0A2358433E
:10443000084B10B5C0184143002902DD4131FF315E
:1044400001E04139FF390800A021890000F0E0F8BF
:1044500010BDC0462055FDFF07231940416270473B
:1044600072B6AA22024B9A60553A9A6062B67047B9
:104470000040004010B504000020FFF7EDFBFE20D7
:10448000FFF7BCFB80200001FFF7CEFB03210548AE
:10449000054B604358601A680A431A60FFF7E0FF53
:1044A00010BDC046C21E000000400040BFF34F8F49
:1044B000024A034BDA60BFF34F8FFEE70400FA05B0
:1044C00000ED00E0A42301220168114202D1013B6A
:1044D000002BF9D17047F8B50D0016001F0004003D
:1044E000FFF7F0FF2B68200001332B603760FFF7E8
:1044F000E9FFF8BDF8B506000C0015000B680133A4
:104500000B603000FFF7DEFF300027682B68FFF7F5
:10451000D9FF286823689F42F3D1F8BD10B500F099
:10452000B4F810BD10B500F0C6F810BD10B500F01D
:10453000D0F810BD10B5FCF737F810BD03000B43E1
:1045400030B59B0709D1032A07D903680C68A34239
:1045500003D104300431043AF5E70024A24208D024
:10456000035D651C0C5DA34201D0181B02E02C000A
:10457000F4E7002030BDFFFF03000B4330B59B077D
:1045800011D103000B4D0A680B4C141994432C42B3
:1045900002D104C30431F6E7D1B219700133002906
:1045A00007D01212F8E70023CA5CC2540133002A74
:1045B000FAD130BD80808080FFFEFEFE032210B560
:1045C000431C104206D00130411E09780029F8D161
:1045D000C01A18E00C4C02680C4951189143214252
:1045E00001D10430F7E7D4B2411C002C0AD0FF24DB
:1045F0002402811C224205D0FF242404C11C224233
:1046000000D0011DC81A10BD80808080FFFEFEFE14
:1046100003000B4321D4002931D00122D207030922
:1046200001E0090112099942FBD9430801E0490060
:1046300052089942FBD900E04908401A07D3524179
:10464000FAD301461046704749084018F7D292182D
:10465000FAD34018014610467047CB0F00D04942AC
:10466000021000D54042534008B5FFF7D4FF0CBC00
:10467000521000D34042002A00D549421847F44660
:10468000002000F001F8604770478446830708D196
:104690008B0706D1131F04D304C904C0043BFBD20B
:1046A0001A1D524205D0891A801A8B5C835401323C
:1046B000FBD160467047884207D98B18834204D9E2
:1046C000013A8B5C8354FBD1704700B5FFF7DDFFE7
:1046D00000BD8446043A09D3830707D109060B0AB3
:1046E00019430B0C1943043A02C0FCD2043203D024
:1046F00001700130013AFBD1604670478C4671462B
:104700000139095C49008E44614670478C46411E60
:104710007144095A49008E446146704700009FFF6A
:104720007F00070000600000000F6E2F7000686FB0
:104730007572730043757272656E742074656D7066
:10474000657261747572653A205F5F5F2E5F430A20
:104750004D696E696D756D3A205F5F5F2E5F430A2C
:104760004D6178696D756D3A205F5F5F2E5F430024
:1047700043757272656E742074656D7065726174D4
:104780007572653A205F5F5F2E5F4300456D707400
:10479000792E204E6F742079657420636F6E666980
:1047A00067757265642E00456D7074792E20436FB5
:1047B0006E6669677572656420627574206E6F74C9
:1047C0002079657420737461727465642E0052756B
:1047D0006E6E696E672E204E6F2073616D706C6512
:1047E0002074616B656E207965742E0052756E6E53
:1047F000696E6720666F72205F5F5F205F5F5F5F3B
:104800005F5F5F2E205F5F5F5F5F2073616D706C25
:104810006573206C6F676765642E0053746F7070EA
:1048200065642E205F5F5F5F5F2073616D706C65F4
:1048300073206C6F676765642E00414C4552543A93
:10484000206669727374206869676820657863758B
:104850007273696F6E206166746572205F5F5F209E
:104860005F5F5F5F5F5F2E00414C4552543A2066A8
:1048700069727374206C6F772065786375727369E1
:104880006F6E206166746572205F5F5F205F5F5F9F
:104890005F5F5F2E00414C4552543A206261747450
:1048A00065727920697320656D7074792E00414CB2
:1048B0004552543A206E6F207370616365206C65B9
:1048C000667420666F722073746F72696E672073EE
:1048D000616D706C65732E00414C4552543A2073E3
:1048E000746F7070656420616674657220746865A9
:1048F00020636F6E666967757265642074696D65A3
:104900002E00414C4552543A206C61737420493258
:104910004320616363657373206661696C65642E0F
:1049200000414C4552543A206C61737420535049F5
:1049300020616363657373206661696C65642E0032
:104940008C470000A7470000CE470000EC4700005E
:104950001B4800003A4800006848000095480000E5
:10496000AE480000D848000002490000214900007C
:104970000000000000000000000000000000000037
:104980000000000000000000000000000000000027
:104990000000000000000000000000006D696E755E
:1049A000746573007365636F6E647300646179731B
:1049B00000FFFFFF0103E80E46FD010003000000B9
:1049C000000102030506070A0B0FFFFF00000000AD
:0C49D000C10200000F03000044030000BF
:1049DC0001FFFFFFEB828E5F742F64656D6F2E6E8F
:1049EC0068732E6E787000000000FFFF4600000018
:1049FC00010F000048000000410B000049000000BE
:104A0C00950C000050000000610C00005A000000E2
:104A1C000D0B00005B000000D90B00005E000000D5
:104A2C005D0F0000656E00FF5303000001000000E5
:104A3C00012D000002000000B92C0000090000004C
:104A4C009D2C00000A000000752C00000B000000DB
:104A5C00412C00000C000000F52B00007107000039
:0400000300000749A9
:00000001FF
