:10000000F01F00102101000029080000290800004D
:10001000290800002908000029080000290800001C
:10002000290800002908000029080000290800000C
:1000300029080000290800002908000029080000FC
:1000400029080000290800002908000029080000EC
:1000500029080000290800002908000029080000DC
:1000600029080000290800002908000029080000CC
:1000700029080000290800002908000029080000BC
:1000800029080000290800002908000029080000AC
:10009000290800002908000029080000290800009C
:1000A000290800002908000029080000290800008C
:1000B000290800002908000029080000290800007C
:1000C00028090000000000100400000004000010D7
:1000D0000800000070B50F4B0F498B420BD2002275
:1000E0001C685D689868904203D9165956510432CD
:1000F000F9E70C33F1E7002008498B4209D20022CE
:100100001D685C68944202D950510432FAE7083302
:10011000F3E770BDC0000000CC000000D400000078
:1001200010B5FFF7D7FF00F0B7FBBFF34F8F034ABF
:10013000034BDA60BFF34F8FFEE7C0460400FA05B9
:1001400000ED00E0FFFFFFFFFFFFFFFFFFFFFFFFEE
:10015000FFFFFFFFFFFFFFFFFFFFFFFFFFFFFFFFAF
:10016000FFFFFFFFFFFFFFFFFFFFFFFFFFFFFFFF9F
:10017000FFFFFFFFFFFFFFFFFFFFFFFFFFFFFFFF8F
:10018000FFFFFFFFFFFFFFFFFFFFFFFFFFFFFFFF7F
:10019000FFFFFFFFFFFFFFFFFFFFFFFFFFFFFFFF6F
:1001A000FFFFFFFFFFFFFFFFFFFFFFFFFFFFFFFF5F
:1001B000FFFFFFFFFFFFFFFFFFFFFFFFFFFFFFFF4F
:1001C000FFFFFFFFFFFFFFFFFFFFFFFFFFFFFFFF3F
:1001D000FFFFFFFFFFFFFFFFFFFFFFFFFFFFFFFF2F
:1001E000FFFFFFFFFFFFFFFFFFFFFFFFFFFFFFFF1F
:1001F000FFFFFFFFFFFFFFFFFFFFFFFFFFFFFFFF0F
:10020000FFFFFFFFFFFFFFFFFFFFFFFFFFFFFFFFFE
:10021000FFFFFFFFFFFFFFFFFFFFFFFFFFFFFFFFEE
:10022000FFFFFFFFFFFFFFFFFFFFFFFFFFFFFFFFDE
:10023000FFFFFFFFFFFFFFFFFFFFFFFFFFFFFFFFCE
:10024000FFFFFFFFFFFFFFFFFFFFFFFFFFFFFFFFBE
:10025000FFFFFFFFFFFFFFFFFFFFFFFFFFFFFFFFAE
:10026000FFFFFFFFFFFFFFFFFFFFFFFFFFFFFFFF9E
:10027000FFFFFFFFFFFFFFFFFFFFFFFFFFFFFFFF8E
:10028000FFFFFFFFFFFFFFFFFFFFFFFFFFFFFFFF7E
:10029000FFFFFFFFFFFFFFFFFFFFFFFFFFFFFFFF6E
:1002A000FFFFFFFFFFFFFFFFFFFFFFFFFFFFFFFF5E
:1002B000FFFFFFFFFFFFFFFFFFFFFFFFFFFFFFFF4E
:1002C000FFFFFFFFFFFFFFFFFFFFFFFFFFFFFFFF3E
:1002D000FFFFFFFFFFFFFFFFFFFFFFFFFFFFFFFF2E
:1002E000FFFFFFFFFFFFFFFFFFFFFFFFFFFFFFFF1E
:1002F000FFFFFFFFFFFFFFFFFFFFFFFFFFFFFFFF0E
:1003000070B52F4800F026FAA020C00500F0E6F9ED
:100310002C4800F01DF900F08DF8072000F080F85F
:10032000FA20400000F0DCF8072000F07EF8002200
:10033000E82311001B01234800F0C2F900212148E5
:1003400000F034F9072000F06BF8FA20400000F0CC
:10035000C7F8072000F069F81B4A1C4B1C4CD31A45
:100360003F22E3183F33DC171440E418A41120099E
:100370001D2100F0B9F9021E14D125000F352D09F9
:1003800029018C4205D272B60139200000F0D0F963
:1003900062B61D2D06D872B600221D21280000F07D
:1003A000B5F962B6072000F03BF8FA20000100F032
:1003B00097F8072000F039F800F00CFAFEE7C04685
:1003C00000400440004003402809000000000010E5
:1003D00004000010F7B58C46002501260F4B0133B1
:1003E00002002A41324214D0A0215A1E1278C905B7
:1003F00012045218019262462A415C78324037005A
:10040000121B5442624119788F408A400199BF0003
:100410007A5001350433032DE2D1F7BD1A090000EB
:1004200010B50100FFF7D6FF10BD10B50021FFF792
:10043000D1FF10BD70B580260D4D36026C1C0D35F8
:10044000A17800220B4800F092F9A022631E1B78CD
:10045000D2051B049B18012220789959824004344C
:100460000A439A51AC42EBD10720FFF7DEFF70BD83
:100470001A090000004004400120034B1B6A1B07BF
:100480005B0F98407047C0460080044010B5FFF7EE
:10049000F3FF0100014800F003FA10BD00127A00DA
:1004A00010B50400FFF7F2FFFA2301009B00084893
:1004B0005C4300F0F5F90100200000F0F4F902B40B
:1004C000E138FF38011C0339FDDC02BC10BDC04619
:1004D00000CA9A3B10B5002801D0FFF7E1FF10BD1C
:1004E00070B5FA2504002D01AC4205DD0548FFF783
:1004F000D7FF054BE418F7E7FA2080006043FFF7C9
:10050000E9FF70BD00093D0060F0FFFF0349044AA8
:10051000CB6F10401843C8677047C0460480044042
:10052000FCBF1D0070B5FE2500240126074B2D01E0
:100530001A78002A05D014003200415989088A43EC
:10054000F7E7002C00D01A7070BDC0460400001000
:10055000002210B50400C020104B40031A70104B4D
:10056000013A1A60FFF7D2FF042000F03DF908209D
:1005700000F04EF96420FFF7ADFF042000F03EF9D3
:10058000FFF784FF074B0849C01800F089F90138CC
:10059000002800DC0120606110BDC046040000108E
:1005A00000000010D7B80500D8B805000A4B10B5F8
:1005B0001A6801320AD00424084A845006220260D4
:1005C000074A033C1470012252421A60002901D0EC
:1005D000FFF7A8FF10BDC04600000010E80F0000A4
:1005E00004000010F0B587B01F000CAB1B78CC0FD7
:1005F0000493C023641864109B056400E41801266A
:100600000B00334003936B461B7B029201930090D7
:100610000D00FFF787FF284B1A680593531C0FD076
:100620003F23E9170B405D19AD11AA4204D1039B8A
:10063000002B01D1374203D001210098FFF7B6FF0C
:10064000FF26029D002F2BDD019A2B78002A03D074
:1006500022881B0232400AE0012F06D06A78013F4F
:10066000120213432380013503E02288B24313436F
:100670002380049B013F02340135002B00D0029DF2
:100680003F231C4209D1002F07D002220A4B5242BD
:10069000012100981A60FFF789FF00230193D1E739
:1006A000064BE4183F23E21713401C19059BA411C5
:1006B0001C6007B0F0BDC04600000010FEFFFFCF79
:1006C00030B514000E2285B025026A442C431480F4
:1006D00001240094FFF786FF05B030BD10B540201F
:1006E000FFF714FF10BDFFFF1FB5FF230093CD3BA5
:1006F00001930290039101A86946034B9847009B20
:10070000D8B205B000BDC046F11FFF1F7FB5FF2363
:100710000193CB3B02930390049102A8059201A997
:10072000024B9847019BD8B207B000BDF11FFF1FD5
:100730007FB5FF230193C43B02930390049102A869
:10074000059201A9024B9847019BD8B207B000BDA2
:10075000F11FFF1F802010B5C002FFF7D7FE10BDAC
:100760000430C36F090109098B43C367704770B533
:1007700006000D0014000B2907D9012A05D10B0032
:1007800011000C3B9940FFF7EBFF2402AD00240A57
:10079000AC5170BDF8B50C4B04000F001500984229
:1007A00002D190231B011F43084E2200310008484C
:1007B00000F05EF80300BB432B43310022000448E5
:1007C00000F047F8F8BDC046008003400800001064
:1007D00020800340802110B5C9010A000148FFF7BD
:1007E000D9FF10BD008003400F22034910404B6821
:1007F00083434B607047C046008004400F2203498A
:1008000010404B68184348607047C0460080044061
:100810008E213F2210B5034C89006358104083435A
:10082000635010BD00800440BFF34F8F024A034B5A
:10083000DA60BFF34F8FFEE70400FA0500ED00E039
:10084000A42301220168114202D1013B002BF9D1FE
:100850007047F8B50D0016001F000400FFF7F0FF09
:100860002B68200001332B603760FFF7E9FFF8BDEC
:10087000F8B506000C0015000B6801330B60300062
:10088000FFF7DEFF300027682B68FFF7D9FF2868E5
:1008900023689F42F3D1F8BD10B5FFF731FD10BDBD
:1008A00003000B4321D4002931D00122D2070309D0
:1008B00001E0090112099942FBD9430801E049000E
:1008C00052089942FBD900E04908401A07D3524127
:1008D000FAD301461046704749084018F7D29218DB
:1008E000FAD34018014610467047CB0F00D049425A
:1008F000021000D54042534008B5FFF7D4FF0CBCAE
:10090000521000D34042002A00D549421847F4460D
:10091000002000F001F86047704700030003000763
:08092000010700080108FFFFB8
:04092800FFFFFFFFCF
:0400000300000121D7
:00000001FF
