:10000000F01F001025010000E91C0000E91C0000A1
:10001000E91C0000E91C0000E91C0000E91C0000CC
:10002000E91C0000E91C0000E91C0000E91C0000BC
:10003000E91C0000E91C0000E91C0000E91C0000AC
:10004000E91C0000E91C0000E91C0000E91C00009C
:10005000E91C0000E91C0000E91C0000E91C00008C
:10006000E91C0000E91C0000E91C0000E91C00007C
:10007000E91C0000011D0000E91C0000E91C000053
:1000800059070000E91C0000E91C0000E91C000001
:10009000E91C0000E91C0000E91C0000E91C00004C
:1000A000E91C0000E91C0000E91C0000E91C00003C
:1000B000E91C0000E91C0000E91C0000E91C00002C
:1000C0000023000000000010A8000000A80000109D
:1000D0009400000070B501F047FE0F4B0F498B42B2
:1000E0000BD200221C685D689868904203D91659AB
:1000F00056510432F9E70C33F1E7002008498B42EE
:1001000009D200221D685C68944202D95051043221
:10011000FAE70833F3E770BDC0000000CC00000030
:10012000D400000010B5FFF7D5FF01F05DFFBFF36D
:100130004F8F034A034BDA60BFF34F8FFEE7C04691
:100140000400FA0500ED00E0FFFFFFFFFFFFFFFFE7
:10015000FFFFFFFFFFFFFFFFFFFFFFFFFFFFFFFFAF
:10016000FFFFFFFFFFFFFFFFFFFFFFFFFFFFFFFF9F
:10017000FFFFFFFFFFFFFFFFFFFFFFFFFFFFFFFF8F
:10018000FFFFFFFFFFFFFFFFFFFFFFFFFFFFFFFF7F
:10019000FFFFFFFFFFFFFFFFFFFFFFFFFFFFFFFF6F
:1001A000FFFFFFFFFFFFFFFFFFFFFFFFFFFFFFFF5F
:1001B000FFFFFFFFFFFFFFFFFFFFFFFFFFFFFFFF4F
:1001C000FFFFFFFFFFFFFFFFFFFFFFFFFFFFFFFF3F
:1001D000FFFFFFFFFFFFFFFFFFFFFFFFFFFFFFFF2F
:1001E000FFFFFFFFFFFFFFFFFFFFFFFFFFFFFFFF1F
:1001F000FFFFFFFFFFFFFFFFFFFFFFFFFFFFFFFF0F
:10020000FFFFFFFFFFFFFFFFFFFFFFFFFFFFFFFFFE
:10021000FFFFFFFFFFFFFFFFFFFFFFFFFFFFFFFFEE
:10022000FFFFFFFFFFFFFFFFFFFFFFFFFFFFFFFFDE
:10023000FFFFFFFFFFFFFFFFFFFFFFFFFFFFFFFFCE
:10024000FFFFFFFFFFFFFFFFFFFFFFFFFFFFFFFFBE
:10025000FFFFFFFFFFFFFFFFFFFFFFFFFFFFFFFFAE
:10026000FFFFFFFFFFFFFFFFFFFFFFFFFFFFFFFF9E
:10027000FFFFFFFFFFFFFFFFFFFFFFFFFFFFFFFF8E
:10028000FFFFFFFFFFFFFFFFFFFFFFFFFFFFFFFF7E
:10029000FFFFFFFFFFFFFFFFFFFFFFFFFFFFFFFF6E
:1002A000FFFFFFFFFFFFFFFFFFFFFFFFFFFFFFFF5E
:1002B000FFFFFFFFFFFFFFFFFFFFFFFFFFFFFFFF4E
:1002C000FFFFFFFFFFFFFFFFFFFFFFFFFFFFFFFF3E
:1002D000FFFFFFFFFFFFFFFFFFFFFFFFFFFFFFFF2E
:1002E000FFFFFFFFFFFFFFFFFFFFFFFFFFFFFFFF1E
:1002F000FFFFFFFFFFFFFFFFFFFFFFFFFFFFFFFF0E
:1003000010B501F0CDFD00F069F800F00FFC0023FE
:10031000304C237001F0E6FBFF2804D101F028FCEB
:10032000830704D41BE0022806D10123237000F0C8
:10033000B5FA2378002B03D000F066FC002323706D
:1003400000F0FEFB00F04CF800F004FC11281AD07D
:100350000021214801F022FC01F0E4FBFEE701202E
:1003600001F017FE642001F0D7F9012001F016FE1C
:10037000FA20000101F0D0F900F0ECFB1128DFD1E8
:1003800000F036FCDCE700F0F1FB0400002112482D
:1003900001F004FC0121104801F03AFC01210E4853
:1003A00001F044FC03210C4801F0F8FB21000A484D
:1003B00001F002FC012001F0C1FB01F0C9FB0400C7
:1003C000002001F0BBFBA006C00F01F079FB00206C
:1003D00010BDC046A8000010004005407047FFFF58
:1003E00010B50121014801F069FA10BD0040034039
:1003F00070B50500080011001A0004AB1B78002B33
:1004000003D0069B00F014FB05E0059B069C1B1B1C
:10041000013300F027FB040001F02AFE1F2169438D
:10042000CE31431C2200FF31034801F073FA012151
:10043000014801F043FA70BD004003401F235843B8
:10044000014BC0187047C046CD01003070B50D009B
:1004500016006A24012805D0041E03D01A2402289D
:1004600000D00A4CC0239B0532002900E01801F09F
:10047000BFFD002809D02100054833002A0001F003
:1004800049FA0121024801F019FA70BD0A0600007C
:100490000040034010B513000C006A21012805D06C
:1004A000011E03D01A21022800D00349220003486C
:1004B00001F008FA10BDC0460A06000000400340E3
:1004C000092358430A00010010B5054C9231200061
:1004D00001F020FA0121200001F0F0F910BDC04622
:1004E000004003400048704792000030A22230B51F
:1004F000D3B00D0004005200002101A801F070FDEE
:10050000002D0BD1FFF7EEFF050000F03BFB0923A8
:10051000434329001A0001A801F05AFDA22120003E
:1005200001AA490000F0B2FF002053B030BDFFFF28
:1005300013B50400002907D100F012FB0190074811
:1005400001F048FB009002E000230193009320009B
:100550006A46082100F09AFF002016BD00400540C1
:1005600010B5040092B0002905D148226946022046
:10057000FFF790FF02E0002300931193009B002BF4
:1005800004D14022FF2101A801F02AFD20006A4683
:10059000482100F07BFF002012B010BD13B50B0006
:1005A0001100094A04000192482B05D11A000220CB
:1005B000FFF74CFF00230193200001AA042100F063
:1005C00065FF002016BDC0460D00010037B5074B82
:1005D00005000C1E019302D100F00AFB01942800D3
:1005E00001AA042100F052FF00203EBD0D000100D1
:1005F0007FB58022124C05000123920020000E00DE
:10060000104900F005FD0022FF200F4B01A90193C6
:10061000EB0FA842534120000B718A6000F01DFDD2
:10062000002D04D02A003100200000F021FD200020
:1006300000F04EFD200000F05DFD012004B070BD13
:100640003C0300103C010010CC21000037B5002312
:100650001400082900D0124B01AA0421019300F0D4
:1006600015FF019B002B19D163792079A1791B0219
:10067000034309041A000B00E179134309061943E7
:1006800063782578A0781B022B4300041A0003002E
:10069000E07813430006184300F080FA00203EBDC6
:1006A0000D00010070B580250D4C6D002900200063
:1006B00001F008FB01F006F8000A0138E060A561CE
:1006C0006369FF3D2B436361200001F000FB802242
:1006D000636852022B436360024B1A6070BDC046D0
:1006E00000C0004000E100E010B5002805D0012165
:1006F000034A53688B43536001E0FFF7D3FF10BDFB
:1007000000C0004070B5124C80222000114986B014
:1007100018309200183100F0F7FD2600002814D0A0
:10072000340002AD18342900200000F06DFD0028CF
:100730000BD02B78042BF3D101A9200000F014FE7C
:100740000100019800F08EFFEAE706B070BDC046D8
:100750003C0500103C0300100122044B19681142B3
:1007600003D01A600022024B1A70704700C000408C
:10077000A9000010F0B589B000F030FC00F07EFE5A
:10078000404800F07DFE80223F4C920001233F490B
:10079000200000F03DFC3E4B05AD059301232B717D
:1007A000002329002000AB6000F057FC200000F07F
:1007B0008FFC2A00374B43CB43C22900200000F0B6
:1007C00043FC00F0C7F911280BD012281AD100F011
:1007D000C7F9060000F0DCF90100300000F0DCF899
:1007E00012E02D4801F0F6F9070000F0C5F9060007
:1007F00000F0C8F9361A00F0B3F93200390000F001
:10080000E7F801E000F0BCF8060001F031FC31002F
:100810000200200000F02CFC200000F059FC00F049
:10082000B1F9002703000290BB4204DC200000F075
:1008300061FC09B0F0BD029BDE1B042E00DD052625
:100840002900200000F000FC0196019BF019C01A5D
:10085000002B0DDDFFF7F2FD039001F009FC039979
:100860000200200000F004FC019B013B0193ECE737
:10087000F343DB171E40200000F02AFCBF19029B47
:10088000D2E7C046F10500003C0300103C01001017
:10089000CC210000C02100000040054010B5FFF74A
:1008A00069FF0123054C2370FFF7FCFE2378002B22
:1008B00002D001F0FDF8F9E710BDC046A900001014
:1008C00070B50600881A0D0001302021140001F0D7
:1008D00087FB30232B702D1B002C0EDD002E0CDD32
:1008E00030000A2101F0EEFB3031295530000A2199
:1008F00001F0E8FB013C0600EEE770BDF7B504002F
:100900000191170077281BDD164B984206DC3C212D
:1009100001F0D8FB07260400134D13E0134B984257
:1009200007DCE121090101F0CDFB05260400104D93
:1009300008E0104901F0C6FB042604000E4D01E05A
:1009400007260E4D38000722202101F049FB320016
:100950002900380001F03CFB032201992000FFF739
:10096000AFFFF7BD1F1C0000EB210000FFA202003B
:10097000D422000080510100CF220000F3210000AA
:1009800010B5034C0349200001F050FB200010BDBE
:10099000AA000010FB21000070B50B4C06000D00F2
:1009A00020000A4901F042FB2100300029310A22CF
:1009B000FFF786FF22002100A81B40323E31FFF7DF
:1009C0009DFF200070BDC046AA0000102522000037
:1009D000F8B5154C07000D0020001449160001F071
:1009E00025FB2200210021321F31E81BFFF786FF83
:1009F000210002222F313000FFF762FF2100220088
:100A00002300200035313D323E33012E05D1202414
:100A10000C70732111702E2204E073240C702E21AF
:100A2000117020221A70F8BDAA0000108322000065
:100A300070B50B4C1D002300160022000D33081A60
:100A40000F321900FFF75AFF300021000122FFF793
:100A500037FF2800E11C0222FFF732FF200070BDA3
:100A60003800001070B5134C1D0023001600220042
:100A70001333081A15321900FFF740FF0122210035
:100A80003000FFF71DFF2800A11D0222FFF718FF0D
:100A9000E01D022D08D002220749032D06D0074988
:100AA000012D03D0064901E02A00064901F090FA21
:100AB000200070BD50000010C9220000C3220000B9
:100AC000CC220000C6220000F0B505000024077902
:100AD0000369013789B0FFB2002B03D00134E4B2BF
:100AE0005B08F9E7AB68104E01932B7B02940093EF
:100AF0002A683B0071683069FFF77AFC2B68002296
:100B0000059319236B4405A91C703069240E5A7093
:100B10009A70DC700F71FFF7D3FC336901333361D6
:100B20002B68736109B0F0BD0801001010B51822E0
:100B300002490020FFF7AEFC10BDC04608010010BE
:100B400010B5182202490020FFF780FC10BDC046F6
:100B500008010010014B18787047C04608010010CA
:100B6000014B58687047C04608010010014B986857
:100B70007047C04608010010014BD8687047C04656
:100B800008010010014B18697047C04608010010A9
:100B9000014B58697047C0460801001030B5124C2F
:100BA0008BB060600D000100104801F01FF80323B6
:100BB000022D02D93C2D02D93C23A36000E0A560A0
:100BC00000236946282201202361FFF763FC684661
:100BD00000F0A6F81123E060282269460120237066
:100BE000FFF734FC0BB030BD080100100040054099
:100BF0001022044B1A7000229A60DA601A615A615E
:100C00005A6070470801001000B58BB0694601209A
:100C10002822FFF73FFC0849684600F0C3F8002887
:100C200002D11222054B1A70282269460120FFF7D3
:100C30000DFC0BB000BDC046C90A00000801001041
:100C4000A02010B5C00500F06DFE0024E1B2002226
:100C50000748013400F0ABFE0C2CF7D1A021802214
:100C6000C90512028B581B0B1B038B5010BDC046CD
:100C700000400440A02010B5C00500F058FE10BD93
:100C80000420704701207047F7B50625012445432D
:100C90001D48A0238021285CDB05844009025A58A6
:100CA00000942243002426005A50009A9200D45007
:100CB0000195154A019BD3185B799C4219DA631997
:100CC000D3185F7810223900104800F070FE01231D
:100CD0001A00A021BA40C90592005258002A01D139
:100CE000A3401E4300223900084800F060FE013492
:100CF000DFE7A0218022C905120200988B588343A8
:100D00008B503000FEBDC046DA2200000040044097
:100D100006235843014B181840797047DA22000027
:100D2000F0B585B00500FFF7ABFF00270290FFF795
:100D300087FF2B003C001C332E1D0193029B9C421D
:100D400028DA2A7801992000FFF79EFF00233060FF
:100D50000093002804D0431E1840009B0133F7E79E
:100D60002000FFF7D5FF009B984207D1009B01347C
:100D7000FF18019B043602330193DFE733682A78BA
:100D8000019920000393FFF77FFF039B30608342AC
:100D9000D7D1EBE7FFF76EFF012338002B7005B0CA
:100DA000F0BDFFFFF0B58DB005910390FFF768FF30
:100DB0000490FFF745FF00231C000193049BA3420E
:100DC00054DD039BA5005D196B68002B4BD02700F9
:100DD000039B0C377F00DF19043701223900200004
:100DE000FFF752FF6A680600431E904230D09E42D1
:100DF00007D0012239002000FFF746FF330006002C
:100E0000F5E76B681E400296B34221D01A4800F005
:100E1000E1FE07AE079020003471FFF779FFB06064
:100E20002000FFF72FFF00238027336130736B68AA
:100E3000029E3F065E40002E08D0374204D00B973A
:100E400007A8059B7E4098477F08F4E7029B6B60EC
:100E500000226B68002B03D0591E0B400132F9E7CA
:100E6000019B9B1801930134E4B2A7E7FFF702FF4F
:100E700001980DB0F0BDC0460040054010B5104BC4
:100E80001049CA1A8B4209D01C78032C01D00133B7
:100E9000F7E70D498B4202D100200FE0002259787C
:100EA0000160FF2901D0981C08E0032AF4DD9A783C
:100EB00012020260D9780A430260181D10BDC046B4
:100EC0000881054000830540FF82054010B5054CB0
:100ED0000221200000F0B0FDA1212000490000F017
:100EE0007CFD10BD00800540F0B5002585B0029363
:100EF0000AAB40CB03920A791B7804000F000192E1
:100F0000AB4203D0086801F0B3F805000121019B52
:100F1000AE1959400323594363687618F6188023A5
:100F200000209B009E4236DCA3689E4233DC6B4669
:100F30001B7966606375019E237D3601DB013343B7
:100F4000029E22683343E06022611370029BD61C2C
:100F5000012B05D16B461B7A53706B1C937001E01B
:100F600055709070039B7618032B04D15133337066
:100F7000153B2B4005E0039B062B04D14F33337008
:100F80003B7A737002362A003968300001F020F88D
:100F900001207519256005B0F0BDFFFF10B5074CA5
:100FA000200000F01EFD8823984381B2200000F04D
:100FB00014FD0122024B52421A6010BD0080054010
:100FC0002401001010B50C220249034801F000F87A
:100FD00010BDC046F4220000008105400122084BEC
:100FE00010B552421A60FFF771FFFFF7EBFF05499A
:100FF000054800F0FFFC8022044B92011A6010BDEE
:1010000024010010FF0100000080054000E100E025
:1010100070B50D001E00002382600361C3608675F9
:10102000084904000C22280000F0D2FF0C21002EF9
:1010300000D002394B1C63600123691821602375BD
:1010400070BDC046F422000007B5012305220193BC
:101050000092023AFFF748FF0EBD012307B5019346
:10106000023300930422013BFFF73EFF0EBDFFFF5A
:10107000436870B5D3181500802204009200002048
:10108000934221DCA26893421EDCE268667DAA18C6
:10109000864201D0FF2A17DC6360D0231B06C818E4
:1010A000E823E2601B01984206D801002B00226869
:1010B000064800F007FC03E02A00206800F088FFE3
:1010C000012023685D19256070BDC04600400340C3
:1010D0000369C1689A785218417D002901D09A703D
:1010E00004E09970D970111219715A7100230375B7
:1010F0007047FFFFF8B54568837D06002C00002B84
:1011000003D00B3C032C03DC2DE00D3C032C67DDEE
:101110004021326913780B431370092332685B1B3B
:10112000D318B27D002A11D0FE2C1CDD0022C13163
:101130000235FF3110008D4257DCB275991C181D25
:10114000220000F049FF336802330BE0FE2C0ADC7A
:101150000122191DB275981C220000F03DFF336872
:10116000023D023B336033685A1C3260FE221A7023
:1011700033685F1B03231D4201D09D4304351B4B85
:1011800037601A687560013211D01A68AA420ED20F
:101190001B6817489B089B00DA59164B1A6000F031
:1011A00020FC8821084381B2114800F016FC2A0077
:1011B0003900114800F00CFF22021049FE2C07DD17
:1011C000FF231B041A4023060D4C1C43144304E068
:1011D0000C4B086803401A4314000C60012004E023
:1011E000092302685B1BD318B2E7F8BD2401001085
:1011F0000080054020010010008105400881054065
:1012000003FF0000FF00FFFF0023F7B542684B60BB
:101210008B600400C3609A4273D0082510270068D1
:10122000206103781D401F409C469B06DB0F0B731B
:101230003B005E1EB3419E009B1B2E000095754235
:101240006E4107339B1B9A425BDBD31A01934678AE
:101250008278C31C002F09D1C77812063F043A4395
:10126000831D477900793A43000202430027009822
:10127000B84201D01F7801339019019DC0198542F1
:101280003FDB281A60606546072005402800042DD2
:1012900037D800F08DFF03082636280032433A4342
:1012A0002FD10A7028E0012E2BD1009D581C1B78ED
:1012B000002D00D0C019013A542B0CD1513B0B70BA
:1012C0000378DD091DD13F351D40013048608D6038
:1012D000521B431910E0552B13D14F3B0B70431C8D
:1012E0000AE0042000E005204B6008708E60009941
:1012F0009B19002900D0DB199B182360E2600120B4
:1013000000E00020FEBDFFFFF0B587B0040001A89B
:101310000D001600FFF7B2FD011E21D0019A114BFE
:10132000871800209F421BD8B24219DCA6602560B6
:1013300062600130002A11D0280000F049FE666882
:1013400025686368002B06DD02A92000FFF75CFF1B
:101350000028F6D100E00120666025600023E360EC
:1013600007B0F0BDFF820540C3680B60002B03D0BF
:101370000368C068181A00E018007047F7B52E4CD3
:10138000200000F032FB0600200000F023FB256A5D
:10139000070020004024ADB2310000F02BFB2C40B0
:1013A00002D1ED05ED0D15E0FFF7F8FDF823FF3351
:1013B0001D40224B00241B88032B0BD001A8FFF7F4
:1013C0005DFDA04206D0019B1D4A01349B18C01848
:1013D0001C4B18602B070BD51A4B1A68013207D02B
:1013E0001B68194A9B08194912689B005B181A6010
:1013F000C1235B001D4201D0FFF7D0FD002C01D0BE
:10140000FFF780F980235B00B20709D51E4201D0A7
:10141000FB0607D50E4B01201A78002A0AD106E0F8
:101420001E4207D00A4B1A78002A03D000201870F9
:10143000FFF75AF9F7BDC046008005400881054016
:10144000007FFABF24010010200100100081054038
:101450002801001070B51D003835AB4209D01C784A
:10146000844204D15C68002C01D0A04702E008331C
:10147000F3E7014870BDC046070001007047FFFF59
:10148000014B18607047C0462C010010F8B50B00E6
:10149000050010006A460933DB08DB00D31A00AFF1
:1014A0009D4602330A008C1C0100180000F090FDDC
:1014B0006E4601237370054B35701B68002B02D0FC
:1014C000694620009847BD46F8BDC0462C01001073
:1014D00030B587B00500142400F0B0FC22000100F4
:1014E00001A800F075FD280001AA2100FFF7CEFF3A
:1014F000002007B030BDFFFF7FB5082500212A007E
:10150000060002A800F06CFD0B4B029300F0C8FB34
:101510002840041E0DD10121084800F0CFF9084BE6
:1015200002941B6802AA2900300001930393FFF77D
:10153000ADFF029804B070BD0F00010000400340F1
:10154000D40F003013B5040008236A460549064845
:1015500000F0B8F920006A460821FFF797FF002045
:1015600016BDC0469C0F0000004003401FB504009C
:10157000684600F0E1F920006A461021FFF786FF77
:10158000002004B010BDFFFF002337B50500019314
:1015900072B6A0241348E40500F0FCF9200000F026
:1015A000C1F980231B02E1580F4A0E480A40E2505D
:1015B000E1580E4A0A40E2500A21022200F0F7F9EF
:1015C00002220B21074800F0F2F901AA04212800A9
:1015D000FFF75CFF064B1878C0B20028FBD162B65B
:1015E0003EBDC04600400440FFFBFFFFFFF7FFFF8A
:1015F0006F000010002307B5042101AA0193FFF733
:1016000045FFFA20400000F087F8BFF34F8F034AF0
:10161000034BDA60BFF34F8FFEE7C0460400FA05C4
:1016200000ED00E030B50E2485B005002200002159
:10163000684600F0D5FC01236A46694653809380D2
:1016400006220B81CA8000F035FB0A236B44188008
:10165000000C58806A4628002100FFF717FF002081
:1016600005B030BD13B5002816D0002916D00C786F
:10167000012814DD8A1C0B4B811E3F2C00D90A4B1C
:101680002000FFF7E7FE00280BD0019001AA0421FB
:101690002000FFF7FBFE04E0040000E00C0003481C
:1016A000F3E713BD70000010000000100D000100F2
:1016B0000120034B1B6A1B075B0F98407047C04615
:1016C0000080044010B5FFF7F3FF0100014800F06F
:1016D000F9FC10BD00127A0010B50400FFF7F2FF0C
:1016E000FA2301009B0008485C4300F0EBFC01007A
:1016F000200000F0EAFC02B4E138FF38011C033995
:10170000FDDC02BC10BDC04600CA9A3B10B50028E3
:1017100001D0FFF7E1FF10BD70B5FA2504002D01DF
:10172000AC4205DD0548FFF7D7FF054BE418F7E7A6
:10173000FA2080006043FFF7E9FF70BD00093D001B
:1017400060F0FFFF0349044ACB6F10401843C8679D
:101750007047C04604800440FCBF1D000349044A92
:10176000CB6F10408343CB677047C0460480044072
:10177000FCBF1D000F4A10B51368002B19DBC021F8
:101780005B1089055B005B180021101D085A585238
:1017900002314029F9D1084B08483C391950FE2440
:1017A00006202401186018590842FCD001235B422E
:1017B000136010BD6C05001000400340E80F0000EE
:1017C000F7B506000F0015000193002D39DD1D4C03
:1017D0002368002B0DDA3F23F1171940C023891924
:1017E000891189019B052160201DC918402200F044
:1017F000EFFB23680024F31A3F2B17D840222C005C
:10180000D21A954200DD1400019A002A07D00D4A31
:101810003978101DC018220000F0E2FB06E0094AEA
:101820003900101DC018220000F0D2FB019B3619B0
:10183000002B00D13F192D1B002DC6DDFFF79AFFAD
:10184000C3E7F7BD6C050010C02010B54003FFF7DB
:1018500079FF042000F0F8F9082000F009FA64206C
:10186000FFF754FF042000F0F9F9FFF72BFF084BB6
:101870000849C01800F026FC0138002800DC0120CF
:101880000122054B52425861044B1A6010BDC046FC
:10189000D7B80500D8B80500004003406C0500101B
:1018A00010B5FFF767FF042000F0CEF9082000F024
:1018B000EBF9C0204003FFF751FF10BD10B5FFF753
:1018C00059FF10BD70B51C00C02315009B050E000C
:1018D0002200C918280000F07BFB0D4B1868002877
:1018E00014DB191D864206DD301A0918443399426B
:1018F0000CD2280001E0801B28182C19844205D93D
:10190000221A402A00DD402200F062FB70BDC04672
:101910006C05001010B5080011001A000023FFF735
:101920004FFF10BD10B54020FFF70CFF10BD10B5E4
:101930004020FFF713FF10BD30B589B014220021FD
:10194000040003A800F04CFBFF230393C53B029364
:1019500000F0A6F90025030703D40C48FFF7A0FF09
:10196000013503A902A80A4B9847002D02D0074869
:10197000FFF76AFF049B2360059B6360069B01934E
:10198000A360079BE36009B030BDC0460040034040
:10199000F11FFF1F802010B5C002FFF7D3FE10BD5E
:1019A0000430C36F090109098B43C367704770B5E1
:1019B00006000D0014000B2907D9012A05D10B00E0
:1019C00011000C3B9940FFF7EBFF2402AD00240A05
:1019D000AC5170BD4068C0B27047C905C90D816186
:1019E00070478069C005C00D7047C069C005C00D53
:1019F0007047FFFF082330B5054CC56922682B40AE
:101A0000C905C90D134323604162416230BDC04620
:101A100030010010030070B5FE22002504000448C8
:101A2000FC335A6003498561FFF7E4FF256070BD10
:101A300000800540FF010000043101617047FFFF95
:101A4000F8B50C4B04000F001500984202D190230A
:101A50001B011F43084E22003100084800F00CFA19
:101A60000300BB432B4331002200044800F0F5F98A
:101A7000F8BDC046008003403401001020800340C0
:101A800010B51400902212010A430243054906488A
:101A9000FFF7D6FF0421054A13698B431C431461E9
:101AA00010BDC046FF3FF1FF0080034000ED00E0A5
:101AB000002210B511001000FFF7E2FF30BF10BD8B
:101AC00010B5040000F082F90121614049030422AD
:101AD0000220FFF7D5FF30BF002211001000FFF7F2
:101AE000CFFF10BD10B50B4C0B4A21000B4800F086
:101AF000C3F9902380221B0103401201FF2093426F
:101B000006D1074A2100054800F0B6F9C006800F4B
:101B100010BDC04634010010008003402080034007
:101B20001880034010B500F051F98021C9010A0066
:101B30000148FFF785FF10BD00800340802110B5EC
:101B4000C20309020148FFF77BFF10BD008003407C
:101B500010B5044A0449054800F08EF9A023184046
:101B600010BDC0461880034034010010208003409F
:101B700010B5044A0449054800F07EF907231840CF
:101B800010BDC04634800340340100102080034063
:101B9000802010B5C000FFF7D5FD10BD072310B59C
:101BA00002000B400248034900F057F910BDC0463F
:101BB0002440054038010010020010B50B021B0A3A
:101BC0000C320249024800F048F910BD38010010FB
:101BD00024400540020010B530320249024800F0AE
:101BE0004BF910BD380100102440054070B50400C9
:101BF00008000D0000F012F922002B0030320249DB
:101C0000024800F02AF970BD380100102440054058
:101C10000200012310B50B4014320249024800F0C3
:101C20001CF910BD380100102440054002000123BA
:101C300010B50B4020320249024800F00EF910BDE9
:101C400038010010244005400F22034910404B6822
:101C500083434B607047C046008004400F22034915
:101C600010404B68184348607047C04600800440ED
:101C70008E213F2210B5034C8900635810408343E6
:101C8000635010BD008004408E213F2210B5034CEC
:101C90008900635810401843605010BD0080044014
:101CA0008E23034A9B00D058FA3BFF3B18407047F5
:101CB00000800440FD23024A9B00D0587047C04674
:101CC0000080044010B50800FFF73CFD10BD002265
:101CD0004368426001328260013242608268002AB9
:101CE000FCD143607047FFFFBFF34F8F024A034BA5
:101CF000DA60BFF34F8FFEE70400FA0500ED00E065
:101D000070B51448FFF771FE05001248FFF762FE38
:101D100081235B0004001D4213D00F48FFF75AFFD8
:101D20000E4B9A68801A01280BDD1020204005D048
:101D30005A78002A02D1DA690132DA61421E9041F2
:101D40005870074B074A9C331B68934201D0FFF73A
:101D500015FB70BD0080054000400540B005001037
:101D6000000000007D13000010B51548FFF76CFD62
:101D7000E821144C2023220009011148FFF7A2FD9D
:101D80002378252B06D020220021200000F028F9FE
:101D9000252323700C48FFF71DFF6368C31A002B2F
:101DA00003DCE3680133E36005E02269013222616C
:101DB000A269D318A36101235B426060A36010BDD8
:101DC00000400340B00500100040054010B50F4C26
:101DD0002269E3689B180E4A934216D80D48FFF714
:101DE000F9FE63686269C31A9B1860600A48636100
:101DF000FFF72AFDE8210848090120232200FFF708
:101E000089FD01210448FFF759FD10BDB005001000
:101E10000F270000004005400040034010B50400BB
:101E20000448FFF7D7FE044B5A68101A04195C6087
:101E300010BDC04600400540B005001001480C3000
:101E40007047C046B0050010A4230122016811426A
:101E500002D1013B002BF9D17047F8B50D001600F7
:101E60001F000400FFF7F0FF2B68200001332B60F8
:101E70003760FFF7E9FFF8BDF8B506000C00150064
:101E80000B6801330B603000FFF7DEFF300027687E
:101E90002B68FFF7D9FF286823689F42F3D1F8BD6C
:101EA00010B52F48FFF776FDA020C005FFF73AFDDB
:101EB000102200212A48FFF77AFD08220121284834
:101EC000FFF775FD082202212548FFF770FD082263
:101ED00003212348FFF76BFD082204212048FFF768
:101EE00066FD082205211E48FFF761FD0822062134
:101EF0001B48FFF75CFD082207211948FFF757FD33
:101F0000082217481100FFF752FD1022092114483A
:101F1000FFF74DFD134B144A1B68934202D0134A3E
:101F2000934206D108220A210D48FFF740FD0822FE
:101F300005E00A220A481100FFF739FD0A220B21A9
:101F40000748FFF734FD0A48FFF722FE0948FFF76C
:101F50007BFC0948FFF75EFD00F026F810BDC04687
:101F600000400440FC02000021436587658721434F
:101F7000004005400040034000800540C30707D5EE
:101F80008023A022C90119408133FF33D205D150EB
:101F9000704710B50100FFF7F1FF10BD10B500212B
:101FA000FFF7ECFF10BDFFFF10B500220721074827
:101FB000FFF7FDFCA02180228020C90512028B586A
:101FC00003438B507F38FFF7E9FF10BD004004400A
:101FD00010B500F0B4F810BD10B500F0C6F810BD93
:101FE00010B500F0D0F810BD10B5FEF789F910BD9E
:101FF00003000B4330B59B0709D1032A07D90368B7
:102000000C68A34203D104300431043AF5E70024FC
:10201000A24208D0035D651C0C5DA34201D0181BD1
:1020200002E02C00F4E7002030BDFFFF03000B436B
:1020300030B59B0711D103000B4D0A680B4C1419E6
:1020400094432C4202D104C30431F6E7D1B2197093
:102050000133002907D01212F8E70023CA5CC254EA
:102060000133002AFAD130BD80808080FFFEFEFE61
:10207000032210B5431C104206D00130411E0978DE
:102080000029F8D1C01A18E00C4C02680C4951180C
:102090009143214201D10430F7E7D4B2411C002C16
:1020A0000AD0FF242402811C224205D0FF242404EC
:1020B000C11C224200D0011DC81A10BD8080808042
:1020C000FFFEFEFE03000B4321D4002931D0012284
:1020D000D207030901E0090112099942FBD943081B
:1020E00001E0490052089942FBD900E04908401A32
:1020F00007D35241FAD301461046704749084018A9
:10210000F7D29218FAD34018014610467047CB0F09
:1021100000D04942021000D54042534008B5FFF7B5
:10212000D4FF0CBC521000D34042002A00D54942D3
:102130001847F446002000F001F8604770478446D5
:10214000830708D18B0706D1131F04D304C904C029
:10215000043BFBD21A1D524205D0891A801A8B5CAF
:1021600083540132FBD160467047884207D98B18EF
:10217000834204D9013A8B5C8354FBD1704700B58C
:10218000FFF7DDFF00BD8446043A09D3830707D17A
:1021900009060B0A19430B0C1943043A02C0FCD27E
:1021A000043203D001700130013AFBD16046704720
:1021B0008C4671460139095C49008E44614670477E
:1021C000E821000001000000000000007461646864
:1021D0006572656E63652F64656D6F2E6E68732E14
:1021E0006E78702E6C6F6700656E006D696E757429
:1021F0006573007365636F6E647300416468657234
:10220000656E6365206D6F6E69746F72696E6720AD
:10221000686173206E6F74207965742073746172C5
:102220007465642E004164686572656E6365206D37
:102230006F6E69746F72696E672073746172746512
:1022400064206174202020202020202020202020B5
:1022500065706F636820616E64206C61737465647F
:102260002020202020202020202020202E20416CF3
:102270006C2070696C6C73206172652074616B6591
:102280006E2E004164686572656E6365206D6F6EC9
:1022900069746F72696E672073746172746564200B
:1022A00020202020202020202020202061676F2E49
:1022B0002020202070696C6C202072656D61696E31
:1022C0002020007374006E640072640074680064FF
:1022D00061797300686F7572730002060809030460
:1022E000010809030003050608090304040809039B
:1022F0000003FFFF0103E80E46FD0100030000009C
:102300005A000000CD050000550000009D050000AA
:102310005600000061050000570000004D06000057
:1023200058000000310500005D000000ED040000D1
:1023300000000000000000002023202020616674BF
:1023400065722020202020202020202020200A002C
:10235000202378202820202020292061667465729F
:10236000202020202020202020202020200A0001C2
:10237000020000002516000003000000F515000013
:102380000800000089150000090000006D1500001C
:102390000A000000451500000C000000F9140000C0
:0823A0003E000000D114000012
:0400000300000125D3
:00000001FF
