:10000000F01F0010450100004511000045110000DF
:100010004511000045110000451100004511000088
:100020004511000045110000451100004511000078
:100030004511000045110000451100004511000068
:100040004511000045110000451100004511000058
:100050004511000045110000451100004511000048
:100060004511000045110000451100004511000038
:10007000451100006111000045110000451100000C
:100080004511000045110000451100004511000018
:100090004511000045110000451100004511000008
:1000A00045110000451100004511000045110000F8
:1000B00045110000451100004511000079040000C1
:1000C000901C000000000010D8010000D8010010B2
:1000D0006C01000010B5002304E004680C600433D8
:1000E000043004319342F8D310BDC046002303E02E
:1000F00000220260043304308B42F9D37047C046BB
:1001000010B501F067F80C4B07E0186859681C003F
:100110000C349A68FFF7DEFF2300084A9342F4D3B9
:1001200006E018681C0008345968FFF7DFFF230059
:10013000034A9342F5D310BDC0000000CC0000007C
:10014000D400000010B5FFF7DBFF01F0F3F800BEAC
:10015000BFF34F8F024A034BDA60BFF34F8FFEE7C6
:100160000400FA0500ED00E0FFFFFFFFFFFFFFFFC7
:10017000FFFFFFFFFFFFFFFFFFFFFFFFFFFFFFFF8F
:10018000FFFFFFFFFFFFFFFFFFFFFFFFFFFFFFFF7F
:10019000FFFFFFFFFFFFFFFFFFFFFFFFFFFFFFFF6F
:1001A000FFFFFFFFFFFFFFFFFFFFFFFFFFFFFFFF5F
:1001B000FFFFFFFFFFFFFFFFFFFFFFFFFFFFFFFF4F
:1001C000FFFFFFFFFFFFFFFFFFFFFFFFFFFFFFFF3F
:1001D000FFFFFFFFFFFFFFFFFFFFFFFFFFFFFFFF2F
:1001E000FFFFFFFFFFFFFFFFFFFFFFFFFFFFFFFF1F
:1001F000FFFFFFFFFFFFFFFFFFFFFFFFFFFFFFFF0F
:10020000FFFFFFFFFFFFFFFFFFFFFFFFFFFFFFFFFE
:10021000FFFFFFFFFFFFFFFFFFFFFFFFFFFFFFFFEE
:10022000FFFFFFFFFFFFFFFFFFFFFFFFFFFFFFFFDE
:10023000FFFFFFFFFFFFFFFFFFFFFFFFFFFFFFFFCE
:10024000FFFFFFFFFFFFFFFFFFFFFFFFFFFFFFFFBE
:10025000FFFFFFFFFFFFFFFFFFFFFFFFFFFFFFFFAE
:10026000FFFFFFFFFFFFFFFFFFFFFFFFFFFFFFFF9E
:10027000FFFFFFFFFFFFFFFFFFFFFFFFFFFFFFFF8E
:10028000FFFFFFFFFFFFFFFFFFFFFFFFFFFFFFFF7E
:10029000FFFFFFFFFFFFFFFFFFFFFFFFFFFFFFFF6E
:1002A000FFFFFFFFFFFFFFFFFFFFFFFFFFFFFFFF5E
:1002B000FFFFFFFFFFFFFFFFFFFFFFFFFFFFFFFF4E
:1002C000FFFFFFFFFFFFFFFFFFFFFFFFFFFFFFFF3E
:1002D000FFFFFFFFFFFFFFFFFFFFFFFFFFFFFFFF2E
:1002E000FFFFFFFFFFFFFFFFFFFFFFFFFFFFFFFF1E
:1002F000FFFFFFFFFFFFFFFFFFFFFFFFFFFFFFFF0E
:1003000010B5144CA54401AA134B13CB13C20123FF
:100310008022920004A984A800F06AFA01A984A8A6
:1003200000F0B4FA00280DD00C4C200001F090F839
:100330000200210084A800F0B9FA002802D084A8A5
:1003400000F0F2FA84A800F00BFB8A239B009D4486
:1003500010BDC046D8FDFFFF341B0000741B000019
:1003600030B51D4CA54403A91C4B1A000C3231CAF0
:1003700031C16A46183313CB13C201238022920085
:1003800006A986A800F034FA03A986A800F05AFA54
:10039000002809D0E922124986A800F087FA00282F
:1003A00002D086A800F0C0FA694686A800F05CFA80
:1003B000002809D0EA220B4986A800F077FA002825
:1003C00002D086A800F0B0FA86A800F0C9FA8D2302
:1003D0009B009D4430BDC046CCFDFFFF341B000098
:1003E00000000010EC00001010B5204CA5440023C4
:1003F00001938022920006A986A800F005FC00283F
:100400002AD12FE001A986A800F036FC02AB1B78A8
:10041000032B02D0042B10D01EE0019AEA2A1BD82D
:10042000134C0100200000F08EFF0198EA22121AFE
:100430002018002100F08FFF0EE0019AEA2A0BD865
:100440000C4C0100200000F07EFF0198EA22121AF5
:100450002018002100F07FFF02A986A800F00AFB07
:100460000028CFD18C239B009D4410BDD0FDFFFF01
:1004700000000010EC0000100123034AA021C90570
:100480008B50024A137070471C800000DA01001084
:1004900010B5041E03D0012000F0EAFC02E00120A8
:1004A00000F0ECFC014B1C7010BDC046D8010010E0
:1004B0000122014B1A707047DB01001010B500F0EB
:1004C0003FFC00F07BF980221206204B1A60A0212D
:1004D000C9051F4A8858012303438B501D4B1B78C5
:1004E000002B20D01C4B1B78002B02D0FFF708FFFD
:1004F00019E0FFF735FF194B1B78392B02D0013378
:10050000DBB200E03023154A1370154A137801332B
:10051000137008E0134B1B78002B04D00022114B02
:100520001A70FFF761FF0B4B1B78002BF2D10E4BBB
:100530001B78002B07D000220B4B1A70064A11784B
:1005400001234B40137000F0BDFDC7E700E100E060
:1005500010800000D8010010D90100100000001028
:10056000EC000010DB010010DA01001010B5FC23D4
:100570005B00114A01E001320B00591E002B02D032
:100580001478032CF7D1023B00290ED0911C54782B
:100590000460FF2C0BD1012B0BDD93781B02036051
:1005A000D1780B430360101D04E0002002E0080036
:1005B00000E0002010BDC0460881054010B5054C84
:1005C0000221200000F042FDA1214900200000F09E
:1005D0000BFD10BD00800540F0B54F4680B482B0E1
:1005E000060089460092019308AB10CB1B780028C7
:1005F00002D00268002A00D100BE4A461779002BBB
:1006000004D0106800F024FF050000E000252A193E
:1006100001237B40DBB25900CB18D21871688C469D
:100620006244802189008A4238DCB1688A4237DC22
:10063000726032680021F16032617775317DC901E5
:100640003F010F4301990F431770012904D15170E5
:10065000D41C691C917003E05570D41C002191706A
:10066000E418009B032B06D151332370153B2B401C
:100670006370023408E0009B062B05D14F332370D2
:100680004B461B7A637002344B4619682A002000DF
:1006900000F059FE63193360012002E0002000E001
:1006A000002002B004BC9146F0BDC04610B5130056
:1006B000D0221206944661440200024800F034FC45
:1006C00010BDC0460040034010B5054C200000F0AE
:1006D0008FFC8823184381B2200000F085FC10BDF8
:1006E0000080054010B5074C200000F081FC8823F5
:1006F000984381B2200000F077FC01225242024B65
:100700001A6010BD00800540E001001030B583B0D4
:100710000400430618D5FFF7E5FF1D4B1B680822B0
:1007200094431B041B0C032B10D001A8FFF71EFFE2
:1007300000280DD0019B9C466044164B9C466044AB
:10074000154B1860012504E0002502E0002500E0BB
:10075000002523070DD5104B1B68013309D00E4B24
:100760001B689B089B000D4A944663440C4A126820
:100770001A6081235B001C4201D1230601D5FFF7DB
:10078000B1FF002D01D0FFF793FE03B030BDC0468E
:1007900008810540007FFABFE0010010008105409C
:1007A000DC01001010B50C220249034800F0CBFD1B
:1007B00010BDC046641C00000081054010B5012238
:1007C0005242074B1A60FFF7F9FEFFF7EBFF0549AE
:1007D000054800F015FC80229201044B1A6010BD00
:1007E000E0010010FF0100000080054000E100E092
:1007F00070B504000D001E00002801D0002900D1B2
:1008000000BEAB0700D000BE0B2A01DD930700D06D
:1008100000BEA26000232361E360A6750C22084994
:10082000280000F090FD002E01D10C2300E00A23E7
:10083000ED180133636025600123237570BDC04648
:10084000641C000000B583B0002902D00B68002BA7
:1008500000D100BE0123019304330093043B032223
:10086000FFF7BAFE03B000BD00B583B0002902D087
:100870000B68002B00D100BE0123019302330093CB
:10088000013B0422FFF7A8FE03B000BD00B583B012
:10089000002900D100BE0023019305330093043BDF
:1008A0000622FFF799FE03B000BDC04670B50400F4
:1008B0001500002804D00368002B01D0002900D1C6
:1008C00000BEE8221201D0231B06CB18934201D9A7
:1008D000002000E0012063685B19802292009342AF
:1008E0001CDCA26893421BDCE268AA18667D002E1D
:1008F00001D0FF2A16DC6360E260002804D02A00E1
:100900002068FFF7D3FE03E02A00206800F01BFDFB
:1009100023689C4665442560012004E0002002E035
:10092000002000E0002070BD002805D00368002BE7
:1009300002D00369002B00D100BE03699A78C16818
:100940008C466244417D002901D09A7005E0002167
:100950009970D970111219715A710023037570477B
:10096000F8B5041E02D00368002B00D100BE6668F3
:10097000A37D002B02D035000B3D01E035000D3D7D
:10098000032D07DD2369002B00D100BE197840221A
:100990000A431A700920801B23689C466044A37D8B
:1009A000002B11D0FE2D0FDD023680239B009E42CE
:1009B00052DC0023A375811C04302A0000F0C7FC20
:1009C0002368023323600EE0002B0CD1FE2D0ADCDD
:1009D000023E0133A375011D02302A0000F0B7FC6E
:1009E0002368023B236023685A1C2260FE221A708F
:1009F00023689F1BB30702D003239E43043627605E
:100A00006660164B1B6801330CD0144B1B68B34255
:100A100008D2124B1B689B089B00FA58104B1A60B7
:100A2000FFF752FE320039000E4800F08CFCFE2D1C
:100A300008DD2A062D02FF231B041D4015430A4B27
:100A40001D4305E0094B1A68094B13402D021D4355
:100A5000064B1D60012000E00020F8BDE001001001
:100A6000DC0100100081054003FF00000881054003
:100A7000FF00FFFFF0B54F464646C0B483B00028E4
:100A800004D0002902D00368002B00D100BE00234F
:100A90004B608B60C36043689C460468002B00D1A8
:100AA00083E00461227807271740B94608251540DE
:100AB0001026164033005F1EBB41DBB252090127EE
:100AC0003A400A739A009B1A07336A426A419B1A9A
:100AD0009C456CDB6246D31A627890460192002EE8
:100AE00002D0E61CA4780AE0A2781206E678360462
:100AF0003243267936023243A61D64791443002D11
:100B000002D03278013600E00022A446C444944466
:100B100063454EDB6746DB1B43604B46012B0CD025
:100B2000002B04D0022B28D0042B30D043E04346C6
:100B30001343234341D10B7032E0019B012B3ED183
:100B4000771C3378002D00D0BF18013C542B0ED1F8
:100B5000513B0B707D1C3B787F221E00964330D1A9
:100B60003F2633404D608B60E41AEE1818E0552B99
:100B700029D14F3B0B707E1C12E004230B704E609A
:100B800043468B604644002D0AD0B61808E0052382
:100B90000B704E6043468B604644002D00D0B61863
:100BA00036190660C46001200EE000200CE0002031
:100BB0000AE0002008E0002006E0002004E0002019
:100BC00002E0002000E0002003B00CBC90469946F3
:100BD000F0BDC04670B584B0041E02D00368002B7F
:100BE00000D100BE66682568012005E06946200046
:100BF000FFF740FF002802D06368002BF6DC666038
:100C0000256004B070BDC04670B582B004000E000F
:100C10001500002801D0002900D100BEB30700D084
:100C200000BE0B2D01DDAB0700D000BE01A8FFF711
:100C30009DFC002817D0019BC1180E4A914214D880
:100C40009D4214DBA56026601A1E636007D0010078
:100C5000300000F078FB2000FFF7BCFF00E001202F
:100C60000023E36004E0002002E0002000E0002018
:100C700002B070BDFF820540002804D0002902D0D8
:100C80000368002B00D100BEC368002B04D00B60AA
:100C90000368C068181A02E000230B600020704748
:100CA000F8B5254E300000F0A7F90700300000F03D
:100CB00097F90500346AE405E40D3900300000F0CE
:100CC0009FF92000FFF722FDBB0727D5FB051AD5AA
:100CD00010231D400AD0194B1B78002B06D101228E
:100CE000164B1A700120FFF7D3FB23E0002D21D112
:100CF000124B1B78002B1DD00022104B1A700020C5
:100D0000FFF7C6FB16E00D4B1B78002B12D101221A
:100D10000A4B1A700120FFF7BBFB0BE0FB0509D55E
:100D2000064B1B78002B05D00022044B1A700020C4
:100D3000FFF7AEFBF8BDC04600800540E40100109F
:100D400010B5324C200000F029F9A020C00500F0B9
:100D50001FF910220021200000F02EF908220121A5
:100D6000200000F029F908220221200000F024F9D7
:100D700008220321200000F01FF90822042120008E
:100D800000F01AF908220521200000F015F90822C8
:100D90000621200000F010F908220721200000F0B1
:100DA0000BF908220821200000F006F91022092181
:100DB000200000F001F9164B1B68164A934202D03E
:100DC000154A93420BD1114C08220A21200000F051
:100DD000F3F808220B21200000F0EEF80AE00B4C9B
:100DE0000A220A21200000F0E7F80A220B21200045
:100DF00000F0E2F8094800F073F9094800F068F8DB
:100E0000084800F00DF900F03FF810BD0040044024
:100E1000FC020000214365876587214300400540AF
:100E20000040034000800540F0B500231BE00200B5
:100E30001A41D20716D50D4C9A00165DA418677892
:100E40000A001A4101252A40A478A21A544262419C
:100E5000D2B23404A026F605B4466444BD40BA407C
:100E6000AD002A510133002BE1DDF0BD701C000004
:100E700010B50100FFF7D8FF10BDC04610B5002126
:100E8000FFF7D2FF10BDC04670B5002416E0002267
:100E900007210D4800F090F80C49A200535C8A1815
:100EA00055781B04A022D205944663448021090290
:100EB00058580122AA4002435A500134002CE6DD62
:100EC0000120FFF7DBFF70BD00400440701C0000F4
:100ED00010B5C020400300F01FFA042000F012F902
:100EE000082000F023F9642000F0F6F9042000F057
:100EF00013F900F0E7F9084B9C466044074900F0FD
:100F000073FD0138002800DC0120054B58610122E7
:100F10005242044B1A6410BDD7B80500D8B805007A
:100F2000004003404403001070B50C0016001D0083
:100F3000002900DA00BE002D00DC00BE631980220B
:100F40005201934200DD00BE2A00C0239B05E11838
:100F5000300000F0F8F90D4B196C002915DB8C42BC
:100F600003DD641A1919300002E0081B3018074924
:100F7000064B4033994208D27519A84205D22A1A65
:100F8000402A00DD402200F0DEF970BD440300106D
:100F900010B5402000F0C0F910BDC04610B580204B
:100FA000C00200F0B9F910BD802283580901090977
:100FB0008B4383507047C04670B506000D00140087
:100FC0000B2907D9012A05D10B000C3B01219940BF
:100FD000FFF7EAFF2402240AAD00AC5170BDC04601
:100FE0004068C0B27047C046C905C90D81617047ED
:100FF0008069C005C00D7047C069C005C00D70474D
:1010000010B5C36908221340044C226813432360BF
:10101000C905C90D4162416210BDC046E80100101A
:1010200070B50400FE2280235B00C250054D0021F4
:101030002800FFF7D9FF04492800FFF7E1FF00234C
:10104000236070BD00800540FF0100000431016194
:101050007047C046F8B504000E0015000A4B9842D0
:1010600002D190231B011E43084F2200390008487B
:1010700000F00AF90300B3432B432200390004486F
:1010800000F0F2F8F8BDC04600800340EC0100100B
:101090002080034010B514000143902212010A433E
:1010A00005490648FFF7D6FF054A136904218B431B
:1010B0001C43146110BDC046FF3FF1FF0080034098
:1010C00000ED00E010B5042200210020FFF7E2FF50
:1010D00030BF002200210020FFF7DCFF10BDC0461A
:1010E00010B58020C00000F017F910BD10B5020047
:1010F00030320249024800F0C7F810BDF00100107C
:1011000024400540034A53680F210840834353603D
:101110007047C04600800440034A53680F210840CE
:10112000184350607047C0460080044010B5044921
:101130008E2292008B583F24204083438B5010BD59
:101140000080044000BEBFF34F8F034A034BDA60B8
:10115000BFF34F8FFEE7C0460400FA0500ED00E044
:1011600070B5174C2000FFF747FF06002000FFF77F
:1011700037FF1024044023005A1E9341DDB281231F
:101180005B001E4213D00F48FFF7B0FF0E4B9B6869
:10119000C01A01280BDD002C07D00B4B5B78002B0D
:1011A00003D1094AD3690133D361074B5D709C2396
:1011B000064AD258064B9A4201D0FFF771FD70BD26
:1011C000008005400040054088030010000000003A
:1011D000A10C000070B5194D2800FFF779FE184CDE
:1011E00020232200E82109012800FFF79DFE237833
:1011F000252B07D0124C20220021200000F0ABF854
:10120000252323700F48FFF771FF0D4B5B68C31A4E
:10121000002B04DC0A4AD3680133D36007E0084A94
:1012200011690131116191698C4663449361044BEA
:101230005860012252429A6070BDC046004003408F
:101240008803001000400540002300E006330268D8
:10125000D20702D4034A9342F8DD0368DB0700D4C7
:1012600000BE7047CF030000F8B504000D00160063
:101270001F00FFF7E9FF2B6801332B603760200068
:10128000FFF7E2FFF8BDC046F8B506000C001500F8
:101290000B6801330B603000FFF7D6FF27682B681F
:1012A0003000FFF7D1FF286823689F42F3D1F8BDD3
:1012B000034B1B6A5B0807221340012098407047CC
:1012C0000080044010B5FFF7F3FF0100014800F073
:1012D0008BFB10BD00127A0010B5041E16D00C4B0B
:1012E000984200D900BEFFF7EDFF0100094800F069
:1012F0007BFB0100FA208000604300F078FBE138BE
:10130000FF3802B4011C0339FDDC02BC10BDC0462D
:1013100000093D0000CA9A3B10B5044980228C5850
:10132000034B18402043885010BDC0460080044045
:10133000FCBF1D00002210B51100100000F010F8D5
:10134000FFF7BCF810BD10B500F08BFB10BD10B559
:1013500000F09DFB10BD10B500F0A7FB10BDFFFF16
:10136000A02270B5214C520000212000FFF7F3FFAE
:10137000C02000F0D9F91E4DC02200212860FFF7DF
:10138000EAFF2B681B4A1900C0311360183328325A
:101390008B42FAD122001849002000F0A5F88023E2
:1013A00080225B01D2000021200000F02DF8134DB7
:1013B000134C29002200012000F096F8802380229F
:1013C0005B01D2000021200000F01EF80D4C290026
:1013D0002200022000F088F8802380225B01D200E6
:1013E0000021200000F010F870BDC046F801001088
:1013F000F40100101C020010741C0000761C000098
:101400002002001048020010F0B5C6680124B5079C
:101410001AD08025AD00AA420BD08025ED00AA424B
:1014200004D080256D00AA420ED102E0416A23005B
:1014300004E0064F5D1E0124BD4205D8002432435E
:1014400001610160C361C2602000F0BDFEFFFF00CA
:10145000032210B5431C104206D00130411E09780A
:101460000029F8D1C01A18E00C4C02680C49511838
:101470009143214201D10430F7E7D4B2411C002C42
:101480000AD0FF242402811C224205D0FF24240418
:10149000C11C224200D0011DC81A10BD808080806E
:1014A000FFFEFEFE202310B50400C2689A43436A83
:1014B000E2605B6882699A420DD000F04FF8E26802
:1014C000074B134010221343626AE3605368A36121
:1014D000236993602360E268024B1340E36010BD10
:1014E000EFCFFFFFBFBFFFFFF7B50D00019010006A
:1014F000140000F029F92B78722B09D0772B04D037
:10150000612B25D10823144A04E00423022201E0C0
:10151000002301220220691C03278446042601259A
:1015200008782B2805D0622807D132432B4301319C
:10153000F6E760463A430343F9E7E260019A6261E5
:101540001B0706D502220021200000F04FF900E021
:1015500000242000FEBDC0460280000070B50400DB
:10156000436A056901689A68C068134B0340E360E9
:1015700082230340022B02D0012040421AE0802344
:101580005B02184016D0914200D211008D4209D161
:101590000020636AE2689D60084B25601340A060EC
:1015A000E36007E0491B2200280000F009F800284A
:1015B000EED0E1E770BDC046FFFFF7FFFFFFFEFF83
:1015C000F7B5D66801900D0014005769F30205D5F0
:1015D000102338001E4300F089FAA061114B1E420F
:1015E00009D0A169380000F093FA8023002811DBAC
:1015F0000D4B1E40E6602A000199380000F094FA75
:1016000043005B08ED1AA3695D190023A5619842A8
:1016100005D08033E2681343E36001235B42180086
:10162000FEBDC04610000200EFFFFDFFF7B5314ED2
:10163000C51C3468AD080196002813D0802229000B
:10164000EB1C002752050A319C4604E023689342B4
:1016500013D02700A468002CF8D10C3000F076F9E4
:10166000431C0FD1002043E03E68964217D17E68AC
:101670009B1903336360BB68A360A7686368002F8E
:10168000F2D10CE080239B05036045608460002F4D
:1016900002D1019B186000E0B8600C3028E09D4248
:1016A00005DC634503DC80239B0523601EE08B4241
:1016B00010D98022200080219205656022600C30C4
:1016C000AA005D1B82184905033DA26011605560A8
:1016D00097600DE0002FBCD19B00C01A00F036F9D6
:1016E000431CBFD080239B05236065602000D4E7A6
:1016F000FEBDC0463803001010B5002812D080236C
:101700005B0519000C3803608268002A0AD0136850
:101710008B4207D1546843681B19033343609368B5
:101720008360F1E710BDFFFF10B5FFF77FFF041ED8
:1017300005D11722034900F0F7F900F0CBF920009A
:1017400010BDC046781C0000F0B5436AC5688BB078
:1017500004000193AB0728D02B0718D4476906690A
:1017600000F02AF8380000F0BBF92B0502D5300054
:10177000FFF7C2FF0F4BAD0DAD059D4207D12022F3
:10178000216A02A800F0CAF902A800F0D5F81822D0
:101790000021606AFFF7DFFD282200212000FFF70B
:1017A000DAFD019B0020636201E0012040420BB0A2
:1017B000F0BDC046000080AD70B5002803D000F039
:1017C000E5F805000EE0A0260400050076000648B6
:1017D000201800F0DBF8002801D001256D422834E4
:1017E000B442F4D1280070BDF8010010F7B5C36809
:1017F00016000093009A3B4B04000D001A426CD077
:101800004769380000F078F90190002865D1012E71
:1018100004D0022E07D0002E5FD124E0200000F07B
:1018200065F82D181FE0380000F060F9002805DA8F
:101830008023E2681343E36001234FE0626A236878
:101840009168994200D90B00A1695B1821695B1A64
:10185000E168890603D55268934200DA1300834297
:1018600000DA0300ED18002D37DB009B616A9B0452
:1018700004D523688A689A4200D28B60A3699D428E
:101880000DDB88682268824200D202002069D618E7
:10189000361AB54203DCCF68DE19B54207DB2023D8
:1018A000009A13430022A26062604D6011E0ED1ABD
:1018B000009B9B0701D5EF1BA760009BDB0702D5B0
:1018C000121AAA1A62602023009A45199A4313003B
:1018D0002560054A1340E36001E00223019301986B
:1018E000FEBDC04603001000BFCFF7FFC3689A07D4
:1018F00005D1212201200F4B40421A6018E020221E
:1019000019030BD5134202D0436A586804E00368F8
:10191000826900699B18181A013809E0134202D045
:10192000436A586804E00368826900699B18181AC2
:101930007047C0464003001010B50400FFF788FD53
:101940000100200000F0DEF810BDFFFF70B50C4D67
:101950002B68002B01D10B4B2B600323C41C2E687A
:101960009C433419200000F035F8002802D12C6087
:10197000300004E00C220120034B40421A6070BD8D
:101980003C030010A803001040030010C36870B5AA
:101990000400032018401AD09B0605D5636A200076
:1019A0005E68FFF77FFD04E02368A2699E18236943
:1019B000F61AE268064B20001340E360FFF7CEFD05
:1019C0000500002231002000FFF710FF280070BD45
:1019D000FFCFFFFF034B0200181E02D000209A42E7
:1019E000404170470000000003000B4321D4002950
:1019F00031D00122D207030901E0090112099942FD
:101A0000FBD9430801E0490052089942FBD900E0A4
:101A10004908401A07D35241FAD30146104670478D
:101A200049084018F7D29218FAD3401801461046D8
:101A30007047CB0F00D04942021000D540425340BE
:101A400008B5FFF7D4FF0CBC521000D34042002A67
:101A500000D549421847F446002000F001F86047DD
:101A600070478446830708D18B0706D1131F04D320
:101A700004C904C0043BFBD21A1D524205D0891A86
:101A8000801A8B5C83540132FBD1604670478842D8
:101A900007D98B18834204D9013A8B5C8354FBD15C
:101AA000704700B5FFF7DDFF00BD8446043A09D357
:101AB000830707D109060B0A19430B0C1943043A93
:101AC00002C0FCD2043203D001700130013AFBD1D4
:101AD0006046704718200149ABBE704726000200DF
:101AE00003B469460220ABBE02B0704703B4694636
:101AF0000C20ABBE02B0704703B469460920ABBEF0
:101B000002B0704703B469460E20ABBE02B0704706
:101B100003B469460A20ABBE02B070470FB46946F1
:101B20000D20ABBE04B070470FB469460520ABBEB4
:101B300004B0704700000000010000000100000038
:101B4000701B00000100000000000000581B000096
:101B500001000000000000006E6873333178782FB8
:101B60006578616D706C652E6E64656600000000BE
:101B7000656E00006E78702E636F6D2F4E54414776
:101B8000534D41525453454E534F520000000000F4
:101B90000000000000000000000000000000000045
:101BA0000000000000000000000000000000000035
:101BB0000000000000000000000000000000000025
:101BC0000000000000000000000000000000000015
:101BD0000000000000000000000000000000000005
:101BE00000000000000000000000000000000000F5
:101BF00000000000000000000000000000000000E5
:101C000000000000000000000000000000000000D4
:101C100000000000000000000000000000000000C4
:101C200000000000000000000000000000000000B4
:101C300000000000000000000000000000000000A4
:101C40000000000000000000000000000000000094
:101C50000000000000000000000000000000000084
:101C6000000000FF0103E80E46FD01000300000034
:101C700000070107720077002A2A2A205F43737940
:101C8000735F616C6C6F63206661696C65640A00E8
:101C9000302048656C6C6F20576F726C64000000D8
:101CA0000000000000000000000000000000000034
:101CB0000000000000000000000000000000000024
:101CC0000000000000000000000000000000000014
:101CD0000000000000000000000000000000000004
:101CE00000000000000000000000000000000000F4
:101CF00000000000000000000000000000000000E4
:101D000000000000000000000000000000000000D3
:101D100000000000000000000000000000000000C3
:101D200000000000000000000000000000000000B3
:101D300000000000000000000000000000000000A3
:101D40000000000000000000000000000000000093
:101D50000000000000000000000000000000000083
:101D60000000000000000000000000000000000073
:101D700000000000000000000000FFFF00AABBCC34
:101D8000DDEE000000000000000000000000000088
:101D90000000000000000000000000000000000043
:101DA0000000000000000000000000000000000033
:101DB0000000000000000000000000000000000023
:101DC0000000000000000000000000000000000013
:101DD0000000000000000000000000000000000003
:101DE00000000000000000000000000000000000F3
:101DF00000000000000000000000000000000000E3
:101E000000000000000000000000000000000000D2
:101E100000000000000000000000000000000000C2
:101E200000000000000000000000000000000000B2
:101E300000000000000000000000000000000000A2
:101E40000000000000000000000000000000000092
:101E50000000000000000000000000000000000082
:081E6000000000000000FFFF7C
:0400000300000145B3
:00000001FF
