:10000000F01F001025010000DD060000DD060000E5
:10001000DD060000DD060000DD060000DD06000054
:10002000DD060000DD060000DD060000DD06000044
:10003000DD060000DD060000DD060000DD06000034
:10004000DD060000DD060000DD060000DD06000024
:10005000DD060000DD060000DD060000DD06000014
:10006000DD060000DD060000DD060000DD06000004
:10007000DD060000F5060000DD060000DD060000DC
:10008000DD060000DD060000DD060000DD060000E4
:10009000DD060000DD060000DD060000DD060000D4
:1000A000DD060000DD060000DD060000DD060000C4
:1000B000DD060000DD060000DD060000DD060000B4
:1000C000E408000000000010000000000000001024
:1000D0000800000070B500F041FB0F4B0F498B4248
:1000E0000BD200221C685D689868904203D91659AB
:1000F00056510432F9E70C33F1E7002008498B42EE
:1001000009D200221D685C68944202D95051043221
:10011000FAE70833F3E770BDC0000000CC00000030
:10012000D400000010B5FFF7D5FF00F06EFBBFF361
:100130004F8F034A034BDA60BFF34F8FFEE7C04691
:100140000400FA0500ED00E0FFFFFFFFFFFFFFFFE7
:10015000FFFFFFFFFFFFFFFFFFFFFFFFFFFFFFFFAF
:10016000FFFFFFFFFFFFFFFFFFFFFFFFFFFFFFFF9F
:10017000FFFFFFFFFFFFFFFFFFFFFFFFFFFFFFFF8F
:10018000FFFFFFFFFFFFFFFFFFFFFFFFFFFFFFFF7F
:10019000FFFFFFFFFFFFFFFFFFFFFFFFFFFFFFFF6F
:1001A000FFFFFFFFFFFFFFFFFFFFFFFFFFFFFFFF5F
:1001B000FFFFFFFFFFFFFFFFFFFFFFFFFFFFFFFF4F
:1001C000FFFFFFFFFFFFFFFFFFFFFFFFFFFFFFFF3F
:1001D000FFFFFFFFFFFFFFFFFFFFFFFFFFFFFFFF2F
:1001E000FFFFFFFFFFFFFFFFFFFFFFFFFFFFFFFF1F
:1001F000FFFFFFFFFFFFFFFFFFFFFFFFFFFFFFFF0F
:10020000FFFFFFFFFFFFFFFFFFFFFFFFFFFFFFFFFE
:10021000FFFFFFFFFFFFFFFFFFFFFFFFFFFFFFFFEE
:10022000FFFFFFFFFFFFFFFFFFFFFFFFFFFFFFFFDE
:10023000FFFFFFFFFFFFFFFFFFFFFFFFFFFFFFFFCE
:10024000FFFFFFFFFFFFFFFFFFFFFFFFFFFFFFFFBE
:10025000FFFFFFFFFFFFFFFFFFFFFFFFFFFFFFFFAE
:10026000FFFFFFFFFFFFFFFFFFFFFFFFFFFFFFFF9E
:10027000FFFFFFFFFFFFFFFFFFFFFFFFFFFFFFFF8E
:10028000FFFFFFFFFFFFFFFFFFFFFFFFFFFFFFFF7E
:10029000FFFFFFFFFFFFFFFFFFFFFFFFFFFFFFFF6E
:1002A000FFFFFFFFFFFFFFFFFFFFFFFFFFFFFFFF5E
:1002B000FFFFFFFFFFFFFFFFFFFFFFFFFFFFFFFF4E
:1002C000FFFFFFFFFFFFFFFFFFFFFFFFFFFFFFFF3E
:1002D000FFFFFFFFFFFFFFFFFFFFFFFFFFFFFFFF2E
:1002E000FFFFFFFFFFFFFFFFFFFFFFFFFFFFFFFF1E
:1002F000FFFFFFFFFFFFFFFFFFFFFFFFFFFFFFFF0E
:1003000010B500F011F801220648110000F078F94C
:10031000032000F007F9012000F0A4F8FA2000F013
:10032000DFF8F8E70040044010B52F4800F05BF913
:10033000A020C00500F052F9102200212A4800F048
:100340005FF908220121284800F05AF90822022109
:10035000254800F055F908220321234800F050F900
:1003600008220421204800F04BF9082205211E48EC
:1003700000F046F9082206211B4800F041F9082246
:100380000721194800F03CF908221748110000F035
:1003900037F910220921144800F032F9134B144A9E
:1003A0001B68934202D0134A934206D108220A21C5
:1003B0000D4800F025F9082205E00A220A4811003C
:1003C00000F01EF90A220B21074800F019F90A482B
:1003D00000F052F9094800F0ADF8094800F03AF988
:1003E00000F02CF810BDC04600400440FC020000A4
:1003F0002143658765872143004005400040034055
:1004000000800540C30707D58023A022C9011940F9
:100410008133FF33D205D15070470023C20706D580
:100420008023A0229B00D205D358581E8341180078
:10043000704710B50021FFF7E5FF10BD10B5002291
:100440000721074800F0DCF8A02180228020C905A0
:1004500012028B5803438B507F38FFF7EAFF10BD21
:100460000040044010B50400FFF7D7FFC14320004F
:10047000FFF7C8FF10BDFFFF0120034B1B6A1B07DE
:100480005B0F98407047C0460080044010B5FFF7EE
:10049000F3FF0100014800F0BCF910BD00127A0022
:1004A00010B50400FFF7F2FFFA2301009B00084893
:1004B0005C4300F0AEF90100200000F0ADF902B499
:1004C000E138FF38011C0339FDDC02BC10BDC04619
:1004D00000CA9A3B10B5002801D0FFF7E1FF10BD1C
:1004E00070B5FA2504002D01AC4205DD0548FFF783
:1004F000D7FF054BE418F7E7FA2080006043FFF7C9
:10050000E9FF70BD00093D0060F0FFFF0349044AA8
:10051000CB6F10401843C8677047C0460480044042
:10052000FCBF1D0007231840014B18607047C046F0
:10053000E8800440C02010B54003FFF7E7FF042027
:1005400000F0ACF8082000F0BDF86420FFF7C2FF0F
:10055000042000F0ADF8FFF799FF084B0849C018D8
:1005600000F057F90138002800DC01200122054B7A
:1005700052425861044B1A6010BDC046D7B80500FE
:10058000D8B80500004003400800001070B51C00FA
:10059000C02315009B050E002200C918280000F09A
:1005A0002CF90D4B1868002814DB191D864206DD56
:1005B000301A0918443399420CD2280001E0801BFC
:1005C00028182C19844205D9221A402A00DD40221D
:1005D00000F013F970BDC0460800001010B54020AF
:1005E000FFF794FF10BD802010B5C002FFF78EFF0B
:1005F00010BD0430C36F090109098B43C3677047FD
:1006000070B506000D0014000B2907D9012A05D189
:100610000B0011000C3B9940FFF7EBFF2402AD00EB
:10062000240AAC5170BD4068C0B27047C069C005B3
:10063000C00D7047082330B5054CC56922682B40B2
:10064000C905C90D134323604162416230BDC046F4
:1006500000000010030070B5FE22002504000448CD
:10066000FC335A6003498561FFF7E4FF256070BDE4
:1006700000800540FF010000802010B5C000FFF79A
:1006800045FF10BD020010B530320249024800F0AB
:10069000A0F810BD04000010244005400F220349BB
:1006A00010404B6883434B607047C0460080044055
:1006B0000F22034910404B68184348607047C046FA
:1006C000008004408E213F2210B5034C89006358FE
:1006D00010408343635010BD00800440BFF34F8F30
:1006E000024A034BDA60BFF34F8FFEE70400FA05BE
:1006F00000ED00E070B51448FFF798FF05001248C0
:10070000FFF791FF81235B0004001D4213D00F48C7
:10071000FFF7B8FF0E4B9A68801A01280BDD1020F6
:10072000204005D05A78002A02D1DA690132DA6114
:10073000421E90415870074B074A9C331B689342F6
:1007400001D0FFF7CBFF70BD0080054000400540A1
:100750004C00001000000000DD06000010B5154838
:10076000FFF7E8FEE821144C20232200090111487C
:10077000FFF70CFF2378252B06D020220021200034
:1007800000F03FF8252323700C48FFF77BFF6368D8
:10079000C31A002B03DCE3680133E36005E0226940
:1007A00001322261A269D318A36101235B42606018
:1007B000A36010BD004003404C0000100040054005
:1007C000A42301220168114202D1013B002BF9D17F
:1007D0007047F8B506000C0015000B6801330B607C
:1007E0003000FFF7EDFF300027682B68FFF7E8FFC8
:1007F000286823689F42F3D1F8BD10B500F046F891
:1008000010BD10B500F058F810BD10B5FFF778FD19
:1008100010BD03000B4321D4002931D00122D2079F
:10082000030901E0090112099942FBD9430801E0DB
:10083000490052089942FBD900E04908401A07D301
:100840005241FAD301461046704749084018F7D282
:100850009218FAD34018014610467047CB0F00D0CB
:100860004942021000D54042534008B5FFF7D4FF7B
:100870000CBC521000D34042002A00D54942184710
:10088000F446002000F001F8604770478446830773
:1008900008D18B0706D1131F04D304C904C0043B3D
:1008A000FBD21A1D524205D0891A801A8B5C8354E0
:1008B0000132FBD1604670478446043A09D383076E
:1008C00007D109060B0A19430B0C1943043A02C05D
:1008D000FCD2043203D001700130013AFBD16046F2
:0408E0007047FFFF5F
:0400000300000125D3
:00000001FF
