:10000000F01F001045010000F5270000F527000053
:10001000F5270000F5270000F5270000F527000070
:10002000F5270000F5270000F5270000F527000060
:10003000F5270000F5270000F5270000F527000050
:10004000F5270000F5270000F5270000F527000040
:10005000F5270000F5270000F5270000F527000030
:10006000F5270000F5270000F5270000F527000020
:10007000F527000011280000F5270000F5270000F3
:1000800025090000F5270000F5270000F5270000EE
:10009000F5270000F5270000F5270000F5270000F0
:1000A000F5270000F5270000F5270000F5270000E0
:1000B000F5270000F5270000F5270000F5270000D0
:1000C000382D000000000010A8000000A80000105B
:1000D0009800000010B5002304E004680C600433AD
:1000E000043004319342F8D310BDC046002303E02E
:1000F00000220260043304308B42F9D37047C046BB
:1001000010B502F0BFFB0C4B07E0186859681C00E3
:100110000C349A68FFF7DEFF2300084A9342F4D3B9
:1001200006E018681C0008345968FFF7DFFF230059
:10013000034A9342F5D310BDC0000000CC0000007C
:10014000D400000010B5FFF7DBFF02F057FC00BE43
:10015000BFF34F8F024A034BDA60BFF34F8FFEE7C6
:100160000400FA0500ED00E0FFFFFFFFFFFFFFFFC7
:10017000FFFFFFFFFFFFFFFFFFFFFFFFFFFFFFFF8F
:10018000FFFFFFFFFFFFFFFFFFFFFFFFFFFFFFFF7F
:10019000FFFFFFFFFFFFFFFFFFFFFFFFFFFFFFFF6F
:1001A000FFFFFFFFFFFFFFFFFFFFFFFFFFFFFFFF5F
:1001B000FFFFFFFFFFFFFFFFFFFFFFFFFFFFFFFF4F
:1001C000FFFFFFFFFFFFFFFFFFFFFFFFFFFFFFFF3F
:1001D000FFFFFFFFFFFFFFFFFFFFFFFFFFFFFFFF2F
:1001E000FFFFFFFFFFFFFFFFFFFFFFFFFFFFFFFF1F
:1001F000FFFFFFFFFFFFFFFFFFFFFFFFFFFFFFFF0F
:10020000FFFFFFFFFFFFFFFFFFFFFFFFFFFFFFFFFE
:10021000FFFFFFFFFFFFFFFFFFFFFFFFFFFFFFFFEE
:10022000FFFFFFFFFFFFFFFFFFFFFFFFFFFFFFFFDE
:10023000FFFFFFFFFFFFFFFFFFFFFFFFFFFFFFFFCE
:10024000FFFFFFFFFFFFFFFFFFFFFFFFFFFFFFFFBE
:10025000FFFFFFFFFFFFFFFFFFFFFFFFFFFFFFFFAE
:10026000FFFFFFFFFFFFFFFFFFFFFFFFFFFFFFFF9E
:10027000FFFFFFFFFFFFFFFFFFFFFFFFFFFFFFFF8E
:10028000FFFFFFFFFFFFFFFFFFFFFFFFFFFFFFFF7E
:10029000FFFFFFFFFFFFFFFFFFFFFFFFFFFFFFFF6E
:1002A000FFFFFFFFFFFFFFFFFFFFFFFFFFFFFFFF5E
:1002B000FFFFFFFFFFFFFFFFFFFFFFFFFFFFFFFF4E
:1002C000FFFFFFFFFFFFFFFFFFFFFFFFFFFFFFFF3E
:1002D000FFFFFFFFFFFFFFFFFFFFFFFFFFFFFFFF2E
:1002E000FFFFFFFFFFFFFFFFFFFFFFFFFFFFFFFF1E
:1002F000FFFFFFFFFFFFFFFFFFFFFFFFFFFFFFFF0E
:1003000010B501F0C5FC00F0B3F800F0B5FC002218
:10031000014B1A7010BDC046A800001010B5012096
:1003200001F04EFD642001F083FE012001F04EFD3E
:10033000FA20000101F07CFE00F0B2FC112801D18E
:1003400000F002FD10BDC04610B50021014802F0CA
:10035000ABF910BD0040054070B505000A4C002106
:10036000200002F0A1F90121200002F0D7F90121BB
:10037000200002F0E1F90321200002F095F92900A4
:10038000200002F09FF970BD0040054010B500F05C
:100390007DFC00F06FF800F083FC112815D100F00F
:1003A0008BFCFFF7D9FF012002F032F902F03AF995
:1003B00020240440601E8441E4B2002002F028F9A9
:1003C000200002F03FF900BE04E0FFF7BDFF02F09D
:1003D00013F9FEE710BDC04610B5FFF791FF02F01C
:1003E000E7F8FF2805D102F049F9830708D5002373
:1003F00009E0022806D101220E4B1A70002302E008
:10040000022300E00123012B0AD0022B02D1FFF7C7
:1004100085FF0AE000F0B6FA064B1B78002B04D0EB
:1004200000F0A4FC0022034B1A70FFF7AFFF00207E
:1004300010BDC046A8000010012808D000280BD02D
:1004400002280ED11A230B60363313600DE06A23A5
:100450000B60423B136008E000230B601A3313600B
:1004600003E0024B0B600023136070470A06000094
:100470007047C04610B50121014801F0C9FE10BD0A
:100480000040034070B50400080011001A0004ABDE
:100490001B78222C00DD00BE002B04D0069B00F050
:1004A00053FB050006E0059B069D5B1B013300F036
:1004B00069FB050063011C1BCE34FF34280002F0E9
:1004C000E1FA431C054E2A002100300001F0D8FE5D
:1004D0000121300001F09CFE70BDC0460040034089
:1004E000222800DD00BE4301181A024B9C466044DE
:1004F0007047C046CD01003070B582B00D001400C9
:100500006A4601A9FFF798FF009BA34200DA00BEEC
:10051000019BC022920594466344180022002900E2
:1005200002F070FA00280AD0064E23002A00019932
:10053000300001F0A5FE0121300001F069FE02B09B
:1005400070BDC0460040034030B583B00D001400BC
:100550006A4601A9FFF770FF009BA34200DA00BEC4
:1005600023002A000199024801F056FE03B030BD75
:100570000040034010B50A00222800DD00BEC10083
:10058000081801009231054C0923200001F078FE83
:100590000121200001F03CFE10BDC0460040034098
:1005A0000048704792000030024A536801218B4393
:1005B0005360704700C0004030B5D3B004000D0058
:1005C000A2225200002101A802F014FA002D0AD143
:1005D000FFF7E6FF050000F07BFBC20012182900C0
:1005E00001A802F0FFF901AAA2214900200001F0B0
:1005F00007FA002053B030BD10B582B004000029C6
:1006000007D100F053FB0190074802F069F8009011
:1006100002E00023019300936A460821200001F0C4
:10062000EFF9002002B010BD0040054030B583B0A6
:100630001400082902D10023019301E0124B019319
:1006400001AA042101F0DCF9019B002B19D12079CA
:1006500063791B0203431A00A17909040B001343B9
:10066000E17909061943257863781B022B431A00A8
:10067000A078000403001343E0780006184300F05C
:1006800033FB002003B030BD0D00010010B592B067
:100690000400002905D1482269460220FFF754FFD3
:1006A00002E0002300931193009B002B04D1402211
:1006B000FF2101A802F09EF96A464821200001F0BE
:1006C0009FF9002012B010BD10B582B004001000D8
:1006D000094B0193482906D1482201000220FFF767
:1006E0000BFF0023019301AA0421200001F088F9E7
:1006F000002002B010BDC0460D00010010B582B050
:100700000400084B0193002903D100F01DFB0023D6
:10071000019301AA0421200001F072F9002002B027
:1007200010BDC0460D00010070B505000D4C8021C4
:100730004900200002F04CF801F050FC000A01389A
:10074000E0602D02A561636901252B4363612000F0
:1007500002F044F863681D43656080225202024B38
:100760001A6070BD00C0004000E100E000B587B035
:10077000802292000D490E4801F07EF800280CD12D
:1007800011E002AB1B78042B07D101A9084801F046
:10079000ABF80100019801F043FA02A9044800F007
:1007A000A1FF0028EDD107B000BDC04640010010F8
:1007B0004003001030B585B004000D00C30F0022C7
:1007C000FF218142534101A90A4801900B718A60BF
:1007D0000948183000F090FE002C05D022002900B6
:1007E0000548183000F09AFE0348183000F0D4FE97
:1007F00005B030BDD02B00004003001070B50500DF
:100800000E00094C2100303118340123802292005F
:10081000200000F035FE31002800FFF7CBFF20005C
:1008200000F0D6FE012070BD40030010F0B585B089
:1008300001A9324B0A0031CB31C23148183000F0E7
:1008400049FE00F02DFA112802D0122812D01CE027
:100850002C4801F045FF050000F034FA040000F0D8
:1008600037FA241A00F022FA2200290000F034F9A5
:1008700005000DE000F01AFA040000F02FFA010064
:10088000200000F009F9050002E000F0F9F8050089
:10089000280002F0F7F80200194C18342900200053
:1008A00000F03CFE200000F077FE00F011FA071E79
:1008B0001FDC21E07C1B042C00DD052401A910486D
:1008C000183000F007FE0DE02800FFF709FE0600D3
:1008D00002F0D8F8020031000948183000F01EFE7E
:1008E0000135013C002CEFDC0548183000F054FEC7
:1008F00000E00025BD42DDDB05B0F0BDC42B0000EB
:10090000400300100040054010B5002802D0FFF75A
:100910004BFE02E00120FFF707FF10BD10B5FFF707
:1009200025FF10BD054B1B68DB0705D50122034BD6
:100930001A600022024B1A707047C04600C0004087
:10094000A900001010B500F081FD01F051F80B482E
:1009500001F050F80A4C2100303118340123802274
:100960009200200000F08CFD00210020FFF722FF04
:10097000FFF75CFF200000F02BFE10BDFD0700001C
:100980004003001010B5FFF7DDFF0122064B1A707F
:100990000120FFF7C9FE01E001F002FE024B1B78C7
:1009A000002BF9D110BDC046A900001070B504009D
:1009B0000E0015000120801A0818202102F01AF8F4
:1009C000302333700CE00A21200002F085F830312A
:1009D0003170013E0A21200002F07EF80400013D42
:1009E000002D01DD002CEEDC70BDC046F0B583B0FB
:1009F0000400009101921D0077281BDD194B9842DD
:100A000006DC3C2102F068F804000727164E13E0CC
:100A1000164B984207DCE121090102F05DF8040061
:100A20000527134E08E0134902F056F80400042786
:100A3000114E01E00727114E089B9F4200DD1F0069
:100A4000089A2021280001F0D5FF3A003100280043
:100A500001F0C8FF019A00992000FFF7A7FF03B03B
:100A6000F0BDC0461F1C0000F02B0000FFA20200DA
:100A7000E42C000080510100DC2C0000F82B000069
:100A800010B5034C0349200001F0DAFF200010BD2F
:100A9000AC000010002C000070B582B006000D1AEA
:100AA0000B4C0C49200001F0CBFF210029310A2218
:100AB0003000FFF77BFF2300403321003E31072247
:100AC0000092043A2800FFF791FF200002B070BDA9
:100AD000AC0000102C2C000070B582B016000D1A6E
:100AE000174C1849200001F0ABFF230021332100EF
:100AF0001F3107220092043A2800FFF777FF2100F8
:100B00002F3102223000FFF751FF012E0AD10C4B8A
:100B100020213522995453310832995445390132F4
:100B2000995409E0064B732135229954453908320E
:100B300099540E3901329954014802B070BDC04633
:100B4000AC0000108C2C000070B582B016001D00A7
:100B5000081A0B4C23000F3321000D31072200929D
:100B6000043AFFF743FF012221003000FFF71EFF88
:100B7000E11C02222800FFF719FF200002B070BD1F
:100B80003800001070B582B016001D00081A1C4C09
:100B9000230015332100133107220092043AFFF796
:100BA00025FF012221003000FFF700FFA11D0222D6
:100BB0002800FFF7FBFE022D0AD0032D0FD0012DD8
:100BC00014D102220F490E48073001F00BFF13E049
:100BD00002220D490A48073001F004FF0CE002220E
:100BE0000A490748073001F0FDFE05E002220849E6
:100BF0000348073001F0F6FE014802B070BDC04660
:100C000050000010CC2C0000D02C0000D42C000090
:100C1000D82C0000F0B589B0050007790137FFB284
:100C20000369002402E00134E4B25B08002BFAD12E
:100C3000104E716830690294AB6801932B7B00936E
:100C40003B002A68FFF71EFC05A92B6805930F716E
:100C500019236B441C7000225A709A70240EDC70A9
:100C60003069FFF787FC3369013333612B687361A7
:100C700009B0F0BD0C01001010B518220249002087
:100C8000FFF762FC10BDC0460C01001010B5182221
:100C900002490020FFF730FC10BDC0460C010010D7
:100CA000014B18787047C0460C010010014B586882
:100CB0007047C0460C010010014B98687047C04651
:100CC0000C010010014BD8687047C0460C010010A1
:100CD000014B18697047C0460C010010014B586960
:100CE0007047C0460C01001010B58AB00C00144BC0
:100CF00058600100134801F0FFFC022C03D80322C6
:100D00000F4B9A6007E03C2C03D93C220C4B9A60B5
:100D100001E00B4B9C600A4C0023236128226946AA
:100D20000120FFF711FC684600F0A2F9E0601123F2
:100D30002370282269460120FFF7DEFB0AB010BDB0
:100D40000C01001000400540044B10221A700022D4
:100D50009A60DA601A615A615A6070470C0100109B
:100D60001222014B1A7070470C01001000B58BB0B5
:100D7000282269460120FFF7E7FB0749684600F093
:100D8000C7F9002801D1FFF7EBFF282269460120AF
:100D9000FFF7B2FB0BB000BD150C000003000020F4
:100DA00002E05A1E13400130002BFAD17047C046B2
:100DB00070B50D00140083001B189A00124BD35C11
:100DC000002B11D11300104AD318187CFFF7E6FF4F
:100DD000411C694360080818210001F07DFE431E94
:100DE0000120984001380EE0830018188300064A5D
:100DF000D318197C490001316943600808182100A3
:100E000001F06AFE400870BDEC2C0000F0B583B024
:100E10000400114D860032189300EB1859680F4FEB
:100E2000380001F033F80E49380001F07BF834192E
:100E3000A300EB18D9680B4C200001F081FA642361
:100E40000093633B0B220021200001F065FA012092
:100E500001F0EEF803B0F0BDEC2C000000C0014042
:100E6000FF0F00000080064010B50100084C200074
:100E700000F0FCFF0F236363200001F021F8044819
:100E800001F03AF88307FAD5014801F047F810BDA0
:100E900000C0014010B5064801F062FA044801F0B4
:100EA00067FA8305FAD5024801F078FA10BDC0460A
:100EB00000800640F8B50400FFF7A8FF0E4EA7001B
:100EC0003A199300F3185868FFF7CEFF05003C1954
:100ED000A300F3189868FFF7C7FF2C1A002C00DC5A
:100EE0000124FFF7D7FF00016310C018210001F0B3
:100EF000F3FD80B2F8BDC046EC2C000010B5194CD3
:100F0000200001F03DF80121200000F0A5FF0021A4
:100F1000200000F097FF0121200000F0C7FF124CD5
:100F200001220C21200001F0B5FA01220D21200040
:100F300001F0B0FA01220E21200001F0ABFA0122EB
:100F40000F21200001F0A6FA01221021200001F05B
:100F5000A1FA01221121200001F09CFA034801F0BE
:100F600029FA10BD00C00140004004400080064046
:100F700070B5164801F0A4F9154D280000F0B6FF31
:100F8000280000F0ADFF134C00220C21200001F0DE
:100F900081FA00220D21200001F07CFA00220E21AE
:100FA000200001F077FA00220F21200001F072FAF0
:100FB00000221021200001F06DFA002211212000F2
:100FC00001F068FA280000F0C1FF70BD0080064003
:100FD00000C001400040044003207047F8B5050000
:100FE0000E001700FFF766FF0400002F15D1002345
:100FF00004E02800FFF75EFF230004002200143AFB
:101000009342F6DB28329342F3DC3480AB005D1967
:10101000AB00054AD318187C04E032880100280090
:10102000FFF7C6FEF8BDC046EC2C000010B58300EB
:1010300018188300024AD318187CFFF7AFFE10BDC2
:10104000EC2C0000830018188300034A985C0138D8
:1010500043425841C0B27047EC2C0000030000200E
:1010600002E05A1E13400130002BFAD17047C046EF
:10107000F0B55F4656464D464446F0B483B0060090
:10108000FFF7AAFF0190FFF739FF00239B460025D9
:101090002EE02C000C346400341904343278210022
:1010A0002800FFF79BFFAB00F3185860FFF7D6FF4F
:1010B00080462800FFF7BAFF80450CD0AF00F71933
:1010C0007B689A46327821002800FFF787FF786016
:1010D000824508D102E00123994604E001239946A4
:1010E00001E0002399464B46002BD2D0C344013582
:1010F000019B9D42F5DBFFF73BFF01233370584610
:1011000003B03CBC90469946A246AB46F0BDC046F3
:10111000F0B55F4656464D464446F0B489B0804629
:101120000191FFF759FF8146FFF7E8FE00239A4639
:10113000002553E0AB0043445B68002B4CD03700E4
:101140000C377F0047440437012239003000FFF795
:1011500045FF0400B30043445B68984236D0431E09
:1011600006E0012239003000FFF738FF23000400B9
:101170009C42F6D1B30043445B681C40A346A342A3
:1011800024D01D4801F0ACFA03AF03903D7130004C
:10119000FFF74CFFB8603000FFF754FF38730023AF
:1011A0003B61B30043445B685C4080273F0607E037
:1011B000274204D07C40079703A8019B98477F08EB
:1011C000002CF5D1B30043445A465A60B600464459
:1011D0007068FFF743FF82440135EDB22E00A94548
:1011E000A8DCFFF7C5FE504609B03CBC90469946C6
:1011F000A246AB46F0BDC0460040054010B5FC23FA
:101200005B00114A01E001320B00591E002B02D095
:101210001478032CF7D1023B00290ED0911C54788E
:101220000460FF2C0BD1012B0BDD93781B020360B4
:10123000D1780B430360101D04E0002002E0080099
:1012400000E0002010BDC0460881054010B5054CE7
:101250000221200001F068F9A1214900200001F0DD
:1012600031F910BD00800540F0B54F4680B482B022
:10127000060089460092019308AB10CB1B7800282A
:1012800002D00268002A00D100BE4A461779002B1E
:1012900004D0106801F0F6FB050000E000252A19D3
:1012A00001237B40DBB25900CB18D21871688C4601
:1012B0006244802189008A4238DCB1688A4237DC86
:1012C000726032680021F16032617775317DC90149
:1012D0003F010F4301990F431770012904D1517049
:1012E000D41C691C917003E05570D41C00219170CE
:1012F000E418009B032B06D151332370153B2B4080
:101300006370023408E0009B062B05D14F33237035
:101310004B461B7A637002344B4619682A00200042
:1013200001F060FB63193360012002E0002000E05F
:10133000002002B004BC9146F0BDC04610B51300B9
:10134000D0221206944661440200024800F064FF75
:1013500010BDC0460040034010B5054C200001F010
:10136000B5F88823184381B2200001F0ABF810BD16
:101370000080054010B5074C200001F0A7F8882335
:10138000984381B2200001F09DF801225242024BA5
:101390001A6010BD008005402801001030B583B0F0
:1013A0000400430618D5FFF7E5FF1D4B1B68082214
:1013B00094431B041B0C032B10D001A8FFF71EFF46
:1013C00000280DD0019B9C466044164B9C4660440F
:1013D000154B1860012504E0002502E0002500E01F
:1013E000002523070DD5104B1B68013309D00E4B88
:1013F0001B689B089B000D4A944663440C4A126884
:101400001A6081235B001C4201D1230601D5FFF73E
:10141000B1FF002D01D0FFF781FA03B030BDC04607
:1014200008810540007FFABF2801001000810540B7
:101430002401001010B50C220249034801F0D2FA31
:1014400010BDC046282D00000081054010B50122C6
:101450005242074B1A60FFF7F9FEFFF7EBFF054911
:10146000054801F03BF880229201044B1A6010BD40
:1014700028010010FF0100000080054000E100E0AD
:1014800070B504000D001E00002801D0002900D115
:1014900000BEAB0700D000BE0B2A01DD930700D0D1
:1014A00000BEA26000232361E360A6750C220849F8
:1014B000280001F097FA002E01D10C2300E00A2346
:1014C000ED180133636025600123237570BDC046AC
:1014D000282D000000B583B0002902D00B68002B36
:1014E00000D100BE0123019304330093043B032287
:1014F000FFF7BAFE03B000BD00B583B0002902D0EB
:101500000B68002B00D100BE01230193023300932E
:10151000013B0422FFF7A8FE03B000BD70B5040034
:101520001500002804D00368002B01D0002900D149
:1015300000BEE8221201D0231B06CB18934201D92A
:10154000002000E0012063685B1980229200934232
:101550001CDCA26893421BDCE268AA18667D002EA0
:1015600001D0FF2A16DC6360E260002804D02A0064
:101570002068FFF7E3FE03E02A00206801F032FA5A
:1015800023689C4665442560012004E0002002E0B9
:10159000002000E0002070BD002805D00368002B6B
:1015A00002D00369002B00D100BE03699A78C1689C
:1015B0008C466244417D002901D09A7005E00021EB
:1015C0009970D970111219715A71002303757047FF
:1015D000F8B5041E02D00368002B00D100BE666877
:1015E000A37D002B02D035000B3D01E035000D3D01
:1015F000032D07DD2369002B00D100BE197840229E
:101600000A431A700920801B23689C466044A37D0E
:10161000002B11D0FE2D0FDD023680239B009E4251
:1016200052DC0023A375811C04302A0001F0DEF98E
:101630002368023323600EE0002B0CD1FE2D0ADC60
:10164000023E0133A375011D02302A0001F0CEF9DC
:101650002368023B236023685A1C2260FE221A7012
:1016600023689F1BB30702D003239E4304362760E1
:101670006660164B1B6801330CD0144B1B68B342D9
:1016800008D2124B1B689B089B00FA58104B1A603B
:10169000FFF762FE320039000E4801F0A3F9FE2D7B
:1016A00008DD2A062D02FF231B041D4015430A4BAB
:1016B0001D4305E0094B1A68094B13402D021D43D9
:1016C000064B1D60012000E00020F8BD280100103D
:1016D000240100100081054003FF0000088105403F
:1016E000FF00FFFFF0B54F464646C0B483B0002868
:1016F00004D0002902D00368002B00D100BE0023D3
:101700004B608B60C36043689C460468002B00D12B
:1017100083E00461227807271740B9460825154061
:101720001026164033005F1EBB41DBB25209012771
:101730003A400A739A009B1A07336A426A419B1A1D
:101740009C456CDB6246D31A627890460192002E6B
:1017500002D0E61CA4780AE0A2781206E6783604E5
:101760003243267936023243A61D64791443002D94
:1017700002D03278013600E00022A446C4449444EA
:1017800063454EDB6746DB1B43604B46012B0CD0A9
:10179000002B04D0022B28D0042B30D043E043464A
:1017A0001343234341D10B7032E0019B012B3ED107
:1017B000771C3378002D00D0BF18013C542B0ED17C
:1017C000513B0B707D1C3B787F221E00964330D12D
:1017D0003F2633404D608B60E41AEE1818E0552B1D
:1017E00029D14F3B0B707E1C12E004230B704E601E
:1017F00043468B604644002D0AD0B61808E0052306
:101800000B704E6043468B604644002D00D0B618E6
:1018100036190660C46001200EE000200CE00020B4
:101820000AE0002008E0002006E0002004E000209C
:1018300002E0002000E0002003B00CBC9046994676
:10184000F0BDC04670B584B0041E02D00368002B02
:1018500000D100BE66682568012005E069462000C9
:10186000FFF740FF002802D06368002BF6DC6660BB
:10187000256004B070BDC04670B582B004000E0093
:101880001500002801D0002900D100BEB30700D008
:1018900000BE0B2D01DDAB0700D000BE01A8FFF795
:1018A000ADFC002817D0019BC1180E4A914214D8F4
:1018B0009D4214DBA56026601A1E636007D00100FC
:1018C000300001F08FF82000FFF7BCFF00E001209E
:1018D0000023E36004E0002002E0002000E000209C
:1018E00002B070BDFF820540002804D0002902D05C
:1018F0000368002B00D100BEC368002B04D00B602E
:101900000368C068181A02E000230B6000207047CB
:10191000F8B5254E300000F0DDFD0700300000F086
:10192000CDFD0500346AE405E40D3900300000F017
:10193000D5FD2000FFF732FDBB0727D5FB051AD5E3
:1019400010231D400AD0194B1B78002B06D1012211
:10195000164B1A700120FEF7D7FF23E0002D21D18E
:10196000124B1B78002B1DD00022104B1A70002048
:10197000FEF7CAFF16E00D4B1B78002B12D1012297
:101980000A4B1A700120FEF7BFFF0BE0FB0509D5DB
:10199000064B1B78002B05D00022044B1A70002048
:1019A000FEF7B2FFF8BDC046008005402C010010D4
:1019B000F8B5069F002F11D0002B11D100BE0024D6
:1019C0000FE0E5005D192E78864204D16D68002D88
:1019D00001D0A84708E00134E4B202E0002400E0AE
:1019E0000024A742EDDC0148F8BDC0460700010015
:1019F0007047C046014B18607047C0463001001068
:101A0000F0B5474680B400AF05001400002900DCA3
:101A100000BE002C00D100BE8B1C98460733DB08AB
:101A2000DB006A46D31A9D466E46981C0A002100C8
:101A300000F0D8FF357001237370054B1B68002B35
:101A400002D0694640469847BD4604BC9046F0BD6A
:101A50003001001010B586B004003E2800D000BE52
:101A600000F086FF0100142201A800F0BBFF01AACC
:101A700014212000FFF7C4FF002006B010BDC046AF
:101A800010B584B004000822002102A800F0B2FFC3
:101A90000D4B02930C2C00D000BE00F087FE030714
:101AA0000ED40121094800F0B3FB00230293084B38
:101AB0001B680193039302AA08212000FFF7A0FFEF
:101AC000029804B010BDC0460F0001000040034062
:101AD000D40F003010B582B004000A2800D000BE38
:101AE00008236A460549064800F096FB6A46082125
:101AF0002000FFF785FF002002B010BD9C0F000002
:101B00000040034010B584B00400092800D000BE96
:101B1000684600F07BFC6A4610212000FFF770FF4A
:101B2000002004B010BDC04670B582B0060000238E
:101B3000019372B6082800D000BE154D280000F0B1
:101B40009BFCA024E405200000F0A2FB80231B02E4
:101B5000E158104A0A40E250E1580F4A0A40E25068
:101B600002220A21280000F095FC02220B21280005
:101B700000F090FC01AA04213000FFF741FF074B61
:101B80001B78002BFBD162B6002002B070BDC046AE
:101B900000400440FFFBFFFFFFF7FFFF6F00001056
:101BA00000B583B0032800D000BE0023019301AA32
:101BB0000421FFF725FFFA20400000F039FABFF3B7
:101BC0004F8F034A034BDA60BFF34F8FFEE7C046E7
:101BD0000400FA0500ED00E010B584B0040002280E
:101BE00000D000BE0E220021684600F003FF012352
:101BF0006A465380938006226946CA800B8100F0B2
:101C0000DFFD0A226A4403041B0C1380000C508081
:101C10006A460E212000FFF7F3FE002004B010BD3D
:101C200010B584B000281DD000291ED0012802DC88
:101C30000C7814481BE00C783F2C09D802388A1C19
:101C400007230093104B01002000FFF7B1FE0EE0C8
:101C500002388A1C072300930C4B01002000FFF779
:101C6000A7FE04E00024074801E0002405480028FE
:101C700005D0039003AA04212000FFF7C1FE04B0A1
:101C800010BDC0460D0001007000001000000010E3
:101C900010B5324C200000F0EFFBA020C00500F092
:101CA000F7FA10220021200000F0F4FB08220121A5
:101CB000200000F0EFFB08220221200000F0EAFBE8
:101CC00008220321200000F0E5FB08220421200067
:101CD00000F0E0FB08220521200000F0DBFB0822D9
:101CE0000621200000F0D6FB08220721200000F08A
:101CF000D1FB08220821200000F0CCFB1022092192
:101D0000200000F0C7FB164B1B68164A934202D016
:101D1000154A93420BD1114C08220A21200000F0F1
:101D2000B9FB08220B21200000F0B4FB0AE00B4CA9
:101D30000A220A21200000F0ADFB0A220B2120001C
:101D400000F0A8FB094800F0A9FC094800F026FAB9
:101D5000084800F0D3FB00F03FF810BD00400440FD
:101D6000FC02000021436587658721430040054050
:101D70000040034000800540F0B500231BE0020056
:101D80001A41D20716D50D4C9A00165DA418677833
:101D90000A001A4101252A40A478A21A544262413D
:101DA000D2B23404A026F605B4466444BD40BA401D
:101DB000AD002A510133002BE1DDF0BD342D0000D0
:101DC00010B50100FFF7D8FF10BDC04610B50021C7
:101DD000FFF7D2FF10BDC04670B5002416E0002208
:101DE00007210D4800F056FB0C49A200535C8A18ED
:101DF00055781B04A022D205944663448021090231
:101E000058580122AA4002435A500134002CE6DD02
:101E10000120FFF7DBFF70BD00400440342D0000BF
:101E200010B504000005000D240B002207E001237B
:101E30002340911D49008B40184364080132072A52
:101E4000F5DD10BD036804229343012900D0002270
:101E5000134303607047C046036808229343012977
:101E600000D00022134303607047C04670B50500E0
:101E70000C03240B2000FFF7D3FF0100024800F001
:101E800001FBAC6170BDC0460040044070B5050068
:101E90000C03240B2000FFF7C3FF0100024800F0F1
:101EA000F1FAEC6170BDC046004004400B000269CD
:101EB00002218A435B001940114301617047C0460B
:101EC000036811229343103A134303607047C046DE
:101ED000036822229343203A134303607047C046AD
:101EE00002681023134303607047C0460268202332
:101EF000134303607047C04603689B0701D100236A
:101F000000E01023C26AD10701D501210B439207DB
:101F100001D502221343D8B27047C046406800057D
:101F2000000D704710B5064B994200DD19000029DD
:101F300000DA00210905090D8160FFF7C9FF10BD16
:101F4000FF0F00000F2319408162704710B5040095
:101F50000021FFF7F7FF00212000FFF787FF002196
:101F60002000FFF793FF8020400200F087F8202038
:101F700000F010FC10BDC0460F23194041637047AC
:101F800010B50400202000F0F9FB8020400200F092
:101F900067F800212000FFF7D5FF0F212000FFF791
:101FA000EBFF00232360202222612362054B636242
:101FB00000212000FFF75AFF00212000FFF766FFF5
:101FC00010BDC046FFFF0000034B1B6A5B080722E1
:101FD00013400120984070470080044010B5FFF77F
:101FE000F3FF0100014800F077FD10BD00127A00F8
:101FF00010B5041E16D00C4B984200D900BEFFF756
:10200000EDFF0100094800F067FD0100FA208000A3
:10201000604300F064FDE138FF3802B4011C03396D
:10202000FDDC02BC10BDC04600093D0000CA9A3B61
:1020300010B5040005E00848FFF7DAFF074B9C469F
:102040006444FA231B019C42F5DCFA2080006043C3
:10205000FFF7CEFF10BDC04600093D0060F0FFFF56
:1020600010B5044980228C58034B184020438850F7
:1020700010BDC04600800440FCBF1D0010B5044CDC
:1020800080216358034A10408343635010BDC0460B
:1020900000800440FCBF1D00144B1B6C002B24DB94
:1020A0009A0600D000BEDA0FD3185B105B00C02286
:1020B00092059446634400220C4904E00888188085
:1020C0000233023102323F2AF8DD094B0421094A6A
:1020D000995006221A60FE231B01054AD3585B075C
:1020E000F9D501225242014B1A6470477005001065
:1020F00000400340E80F0000F0B5474680B40500FB
:10210000884614001E00002800DA00BE2B19214A60
:10211000934239DD00BE37E01F4B1B6C002B0EDAFB
:10212000EB173F2119404919891189011A480164A7
:10213000C0239B059C466144402200F053FC164B93
:102140001B6CEB1A3F2B15D84022D71ABC4200DC7F
:102150002700002E07D0424611780F48C0183A00D9
:1021600000F048FC07E00C48C0183A00414600F077
:1021700039FC00E00027ED19002E00D1B844E41B23
:10218000002C01DDFFF788FF002CC5DC04BC904665
:10219000F0BDC046BF0E00007005001010B5C02095
:1021A0004003FFF75DFF042000F0D4FA082000F0A0
:1021B000E5FA6420FFF71CFF042000F0D5FAFFF7D2
:1021C0000DFF084B9C466044074900F085FC013830
:1021D000002800DC0120054B586101225242044BCB
:1021E0001A6410BDD7B80500D8B8050000400340F8
:1021F0007005001010B5FFF74FFF042000F0AAFA99
:10220000082000F0C7FAC0204003FFF737FF10BDD9
:1022100010B5FFF741FF10BD70B50C0016001D0092
:10222000002900DA00BE002D00DC00BE6319802208
:102230005201934200DD00BE2A00C0239B05E11835
:10224000300000F0CFFB0D4B196C002915DB8C42E0
:1022500003DD641A1919300002E0081B3018074921
:10226000064B4033994208D27519A84205D22A1A62
:10227000402A00DD402200F0B5FB70BD7005001063
:1022800010B5080011001A000023FFF735FF10BD3C
:1022900010B54020FFF7E4FE10BDC04610B50400A5
:1022A0000005000D240B002207E001232340911DAF
:1022B00049008B40184364080132072AF5DD10BD40
:1022C00010B50023836280200002FFF7D7FE1020A4
:1022D00000F060FA10BDC0460B00026804218A437A
:1022E0009B001940114301607047C0460F231940FD
:1022F000816170470B00C26840218A439B011940ED
:102300001143C1607047C046C26807231343C360CE
:102310000904090C0161704770B5040016001D0026
:10232000FFF7DAFF31002000FFF7E0FF290020006F
:10233000FFF7E0FF04992000FFF7E6FF70BDC046FD
:1023400070B505000C000800FFF7A8FF0100034866
:1023500000F098F82403240BEC6170BD00400440A9
:10236000036803229343023A134303607047C04655
:1023700010B504000068000280235B001840E26A88
:1023800052028021890013000B4002001A43A36807
:10239000032003401A43100010BDC04640680004EB
:1023A000000C70470904090C016270470904090C0C
:1023B0004162704710B582B00400102000F0DEF9D1
:1023C00080200002FFF74CFE00232360A362073346
:1023D00063630C4B636164230093633B0122002120
:1023E0002000FFF799FF00212000FFF7A9FF00213F
:1023F0002000FFF7D7FF04492000FFF7D7FF02B006
:1024000010BDC046E7030000FFFF000030B589B0F3
:1024100004001422002102A800F0ECFAFF2302932A
:10242000002C00D100BE3A23079300F0BFF9030748
:1024300004D40F48FFF7DEFE012500E0002502A9C5
:1024400007A80C4B9847002D02D00948FFF7A6FEBD
:10245000029B002B00D000BE039B2360049B6360A3
:10246000059B0193A360069BE36009B030BDC046A5
:1024700000400340F11FFF1F10B58020C002FFF78E
:10248000EFFD10BD80228358090109098B43835059
:102490007047C04670B506000D0014000B2907D91F
:1024A000012A05D10B000C3B01219940FFF7EAFFFF
:1024B0002402240AAD00AC5170BDC0464068C0B2D1
:1024C0007047C046C905C90D816170478069C00564
:1024D000C00D7047C069C005C00D704710B5C36915
:1024E00008221340044C226813432360C905C90D18
:1024F0004162416210BDC0463401001070B5040055
:10250000FE2280235B00C250054D00212800FFF70A
:10251000D9FF04492800FFF7E1FF0023236070BDC5
:1025200000800540FF010000043101617047C04692
:10253000F8B504000E0015000A4B984202D1902312
:102540001B011E43084F22003900084800F036FAEC
:102550000300B3432B4322003900044800F01EFA65
:10256000F8BDC046008003403801001020800340C1
:1025700010B514000143902212010A430549064890
:10258000FFF7D6FF054A136904218B431C431461EE
:1025900010BDC046FF3FF1FF0080034000ED00E0AA
:1025A00010B5002200210020FFF7E2FF30BF10BD70
:1025B00010B50D4A0D490E4800F000FA90231B019A
:1025C0001840984200D100BE80231B01984208D1D8
:1025D000084A0649064800F0F1F9C00803231840EC
:1025E00000E0FF2010BDC04600800340380100100D
:1025F000208003401880034010B500F07DF9802151
:10260000C9010A000148FFF793FF10BD0080034095
:1026100010B5C203802109020148FFF789FF10BDF0
:102620000080034010B5044A0449054800F0C6F98B
:102630005F239843C0B210BD1880034038010010DA
:102640002080034010B50400FFF7ECFF030603D51C
:10265000FA204000FFF7ECFC00F04EF90121614048
:10266000C9B2490304220220FFF782FF30BF0022D3
:1026700000210020FFF77CFF10BDC04610B5044AC2
:102680000449054800F09AF90723184010BDC046D8
:1026900034800340380100102080034010B58020B2
:1026A000C000FFF7DDFC10BD10B5020007230B4092
:1026B0000249034800F072F910BDC0463C01001009
:1026C0002440054010B50B021B0A02000C320249DF
:1026D000024800F063F910BD3C01001024400540A1
:1026E00010B5020030320249024800F067F910BD0F
:1026F0003C0100102440054070B504000D000800A6
:1027000000F026F9220030322B000249024800F086
:1027100045F970BD3C0100102440054010B501236F
:102720000B40020014320249024800F037F910BD94
:102730003C0100102440054010B501230B4002006D
:1027400020320249024800F029F910BD3C01001076
:1027500024400540034A53680F21084083435360D7
:102760007047C04600800440034A53680F21084068
:10277000184350607047C0460080044010B50449BB
:102780008E2292008B583F24204083438B5010BDF3
:102790000080044010B504498E2292008B583F24DB
:1027A00020401843885010BD008004408E239B00B9
:1027B000024AD3583F2018407047C046008004406A
:1027C000FD239B00014AD0587047C046008004405A
:1027D00010B50800FFF744FC10BDC0464268002356
:1027E000436001338360013343608368002BFCD175
:1027F0004260704700BEBFF34F8F034A034BDA605D
:10280000BFF34F8FFEE7C0460400FA0500ED00E07D
:1028100070B5174C2000FFF75DFE06002000FFF7A3
:102820004DFE1024044023005A1E9341DDB2812343
:102830005B001E4213D00F48FFF752FF0E4B9B6800
:10284000C01A01280BDD002C07D00B4B5B78002B46
:1028500003D1094AD3690133D361074B5D709C23CF
:10286000064AD258064B9A4201D0FFF751F870BD84
:102870000080054000400540B40500100000000045
:102880001119000070B5194D2800FFF787FC184C8E
:1028900020232200E82109012800FFF7BDFC23784E
:1028A000252B07D0124C20220021200000F0A2F896
:1028B000252323700F48FFF713FF0D4B5B68C31AE6
:1028C000002B04DC0A4AD3680133D36007E0084ACE
:1028D00011690131116191698C4663449361044B24
:1028E0005860012252429A6070BDC04600400340C9
:1028F000B40500100040054070B5114AD168136955
:10290000CB18104A934219D80F48FFF7E9FE0C4C38
:102910006368C31A626994466344636160600B4DE7
:102920002800FFF73BFC20232200E82109012800B2
:10293000FFF7A6FC01212800FFF76AFC70BDC04626
:10294000B40500100F270000004005400040034080
:1029500010B504000448FFF7C3FE044B5A68101A70
:1029600004195C6010BDC04600400540B40500106D
:1029700001480C307047C046B4050010002300E049
:1029800006330268D20702D4034A9342F8DD036893
:10299000DB0700D400BE7047CF030000F8B5040089
:1029A0000D0016001F00FFF7E9FF2B6801332B60B5
:1029B00037602000FFF7E2FFF8BDC046F8B506001B
:1029C0000C0015000B6801330B603000FFF7D6FFD9
:1029D00027682B683000FFF7D1FF286823689F42E3
:1029E000F3D1F8BD10B500F0B4F810BD10B500F08B
:1029F000C6F810BD10B500F0D0F810BD10B5FDF749
:102A0000EBFC10BD03000B4330B59B0709D1032A33
:102A100007D903680C68A34203D104300431043A97
:102A2000F5E70024A24208D0035D651C0C5DA342BB
:102A300001D0181B02E02C00F4E7002030BDFFFF9E
:102A400003000B4330B59B0711D103000B4D0A68FF
:102A50000B4C141994432C4202D104C30431F6E701
:102A6000D1B219700133002907D01212F8E7002300
:102A7000CA5CC2540133002AFAD130BD8080808004
:102A8000FFFEFEFE032210B5431C104206D00130AB
:102A9000411E09780029F8D1C01A18E00C4C0268D0
:102AA0000C4951189143214201D10430F7E7D4B2C7
:102AB000411C002C0AD0FF242402811C224205D094
:102AC000FF242404C11C224200D0011DC81A10BDDD
:102AD00080808080FFFEFEFE03000B4321D400298E
:102AE00031D00122D207030901E0090112099942FC
:102AF000FBD9430801E0490052089942FBD900E0A4
:102B00004908401A07D35241FAD30146104670478C
:102B100049084018F7D29218FAD3401801461046D7
:102B20007047CB0F00D04942021000D540425340BD
:102B300008B5FFF7D4FF0CBC521000D34042002A66
:102B400000D549421847F446002000F001F86047DC
:102B500070478446830708D18B0706D1131F04D31F
:102B600004C904C0043BFBD21A1D524205D0891A85
:102B7000801A8B5C83540132FBD1604670478842D7
:102B800007D98B18834204D9013A8B5C8354FBD15B
:102B9000704700B5FFF7DDFF00BD8446043A09D356
:102BA000830707D109060B0A19430B0C1943043A92
:102BB00002C0FCD2043203D001700130013AFBD1D3
:102BC00060467047EC2B0000010000000000000090
:102BD000746164686572656E63652F64656D6F2EE0
:102BE0006E68732E6E78702E6C6F6700656E00FFD6
:102BF0006D696E75746573007365636F6E647300E1
:102C00004164686572656E6365206D6F6E69746F8F
:102C100072696E6720686173206E6F7420796574C5
:102C200020737461727465642E00000041646865ED
:102C300072656E6365206D6F6E69746F72696E6721
:102C400020737461727465642061742020202020D8
:102C50002020202020202065706F636820616E6432
:102C6000206C6173746564202020202020202020A7
:102C70002020202E20416C6C2070696C6C732061C8
:102C800072652074616B656E2E000000416468659A
:102C900072656E6365206D6F6E69746F72696E67C1
:102CA000207374617274656420202020202020200D
:102CB000202020202061676F2E2020202070696C4A
:102CC0006C202072656D61696E20200073740000B5
:102CD0006E640000726400007468000064617973BF
:102CE00000FFFFFF686F75727300FFFF01000000B7
:102CF000100000002000000020000000070000007D
:102D000001000000040000000800000008000000AE
:102D100007000000000000000100000002000000A9
:102D2000020000007F0000000103E80E46FD0100E4
:082D3000030000000007010789
:102D38005A000000FD06000055000000C90600000A
:102D4800560000008D060000570000002D06000008
:102D580058000000F90500005D000000B9050000FA
:102D6800000000000000000020232020206166747D
:102D780065722020202020202020202020200A00EA
:102D8800202378202820202020292061667465725D
:102D9800202020202020202020202020200A000180
:102DA80002000000D91B000003000000A11B000066
:102DB80008000000291B000009000000051B000096
:102DC8000A000000D51A00000C000000811A00005B
:082DD8003E000000551A000046
:0400000300000145B3
:00000001FF
