:10000000F01F001045010000A5120000A51200001D
:10001000A5120000A5120000A5120000A512000004
:10002000A5120000A5120000A5120000A5120000F4
:10003000A5120000A5120000A5120000A5120000E4
:10004000A5120000A5120000A5120000A5120000D4
:10005000A5120000A5120000A5120000A5120000C4
:10006000A5120000A5120000A5120000A5120000B4
:10007000A5120000C1120000A51200000904000032
:10008000A5120000A5120000A5120000A512000094
:10009000A5120000A5120000A5120000A512000084
:1000A000A5120000A5120000A5120000A512000074
:1000B000A5120000A5120000A5120000A512000064
:1000C000081F0000000000101C0000001C000010B1
:1000D0008801000010B5002304E004680C600433BC
:1000E000043004319342F8D310BDC046002303E02E
:1000F00000220260043304308B42F9D37047C046BB
:1001000010B501F017F90C4B07E0186859681C008E
:100110000C349A68FFF7DEFF2300084A9342F4D3B9
:1001200006E018681C0008345968FFF7DFFF230059
:10013000034A9342F5D310BDC0000000CC0000007C
:10014000D400000010B5FFF7DBFF01F051F900BE4D
:10015000BFF34F8F024A034BDA60BFF34F8FFEE7C6
:100160000400FA0500ED00E0FFFFFFFFFFFFFFFFC7
:10017000FFFFFFFFFFFFFFFFFFFFFFFFFFFFFFFF8F
:10018000FFFFFFFFFFFFFFFFFFFFFFFFFFFFFFFF7F
:10019000FFFFFFFFFFFFFFFFFFFFFFFFFFFFFFFF6F
:1001A000FFFFFFFFFFFFFFFFFFFFFFFFFFFFFFFF5F
:1001B000FFFFFFFFFFFFFFFFFFFFFFFFFFFFFFFF4F
:1001C000FFFFFFFFFFFFFFFFFFFFFFFFFFFFFFFF3F
:1001D000FFFFFFFFFFFFFFFFFFFFFFFFFFFFFFFF2F
:1001E000FFFFFFFFFFFFFFFFFFFFFFFFFFFFFFFF1F
:1001F000FFFFFFFFFFFFFFFFFFFFFFFFFFFFFFFF0F
:10020000FFFFFFFFFFFFFFFFFFFFFFFFFFFFFFFFFE
:10021000FFFFFFFFFFFFFFFFFFFFFFFFFFFFFFFFEE
:10022000FFFFFFFFFFFFFFFFFFFFFFFFFFFFFFFFDE
:10023000FFFFFFFFFFFFFFFFFFFFFFFFFFFFFFFFCE
:10024000FFFFFFFFFFFFFFFFFFFFFFFFFFFFFFFFBE
:10025000FFFFFFFFFFFFFFFFFFFFFFFFFFFFFFFFAE
:10026000FFFFFFFFFFFFFFFFFFFFFFFFFFFFFFFF9E
:10027000FFFFFFFFFFFFFFFFFFFFFFFFFFFFFFFF8E
:10028000FFFFFFFFFFFFFFFFFFFFFFFFFFFFFFFF7E
:10029000FFFFFFFFFFFFFFFFFFFFFFFFFFFFFFFF6E
:1002A000FFFFFFFFFFFFFFFFFFFFFFFFFFFFFFFF5E
:1002B000FFFFFFFFFFFFFFFFFFFFFFFFFFFFFFFF4E
:1002C000FFFFFFFFFFFFFFFFFFFFFFFFFFFFFFFF3E
:1002D000FFFFFFFFFFFFFFFFFFFFFFFFFFFFFFFF2E
:1002E000FFFFFFFFFFFFFFFFFFFFFFFFFFFFFFFF1E
:1002F000FFFFFFFFFFFFFFFFFFFFFFFFFFFFFFFF0E
:1003000070B5184800F022FC00F026FB164D0122C3
:100310000421280000F046FF01220521280000F0FA
:1003200041FF022000F0A8FF002000F00FFE0F495F
:10033000002000F025FE0E49002000F039FE802448
:1003400024020C4B1C6000F0BBF9002203212800A2
:1003500000F028FFA023DB051A5908210A431A518F
:10036000196270BD40420F0000400440A0860100A9
:100370007D0D000000E100E0F0B587B007000E0041
:1003800015001C0018220021684601F042F81123D4
:100390006A461370019702960395049469460020FB
:1003A00000F022FE43425841C0B207B0F0BDC04643
:1003B00070B5134CA54405000E0001AC0C220021C1
:1003C000200001F026F80F4B0193012323718022B6
:1003D000920004A984A800F08DF901A984A800F076
:1003E000B3F93200290084A800F0C0F984A800F015
:1003F000FBF984A800F014FA8A239B009D4470BD89
:10040000D8FDFFFFD01B000010B5002000F036FE25
:10041000002803D0002000F043FE02E0002000F09E
:100420005BFE10BD00B5AFB0FFF76AFF0022B62338
:100430006B441A80012000F027FBB4236A46022196
:10044000B6206844FFF798FF002810D00022B4239C
:100450006946CA54FF21684601F058F8002802D0C6
:100460006946411A00E0B4216846FFF7A1FF012068
:1004700000F010FBFA20C00000F09EFBB6226A4498
:10048000138842331380D5E710B5FC235B00114A73
:1004900001E001320B00591E002B02D01478032C0E
:1004A000F7D1023B00290ED0911C54780460FF2C38
:1004B0000BD1012B0BDD93781B020360D1780B432A
:1004C0000360101D04E0002002E0080000E00020AE
:1004D00010BDC0460881054010B5054C0221200022
:1004E00000F0AAFEA1214900200000F073FE10BD1B
:1004F00000800540F0B54F4680B482B006008946C2
:100500000092019308AB10CB1B78002802D0026840
:10051000002A00D100BE4A461779002B04D010688B
:1005200000F0FEFF050000E000252A1901237B40B2
:10053000DBB25900CB18D21871688C466244802116
:1005400089008A4238DCB1688A4237DC72603268DE
:100550000021F16032617775317DC9013F010F43A0
:1005600001990F431770012904D15170D41C691CE3
:10057000917003E05570D41C00219170E418009B29
:10058000032B06D151332370153B2B40637002348B
:1005900008E0009B062B05D14F3323704B461B7A96
:1005A000637002344B4619682A00200000F029FFCE
:1005B00063193360012002E0002000E0002002B057
:1005C00004BC9146F0BDC04610B51300D0221206FF
:1005D000944661440200024800F040FB10BDC04652
:1005E0000040034010B5054C200000F0F7FD8823C3
:1005F000184381B2200000F0EDFD10BD00800540E1
:1006000010B5074C200000F0E9FD8823984381B223
:10061000200000F0DFFD01225242024B1A6010BDA3
:10062000008005402000001010B582B00400430691
:1006300016D5FFF7E5FF174B1B68082294431B04F0
:100640001B0C032B0CD001A8FFF71EFF002807D0BE
:10065000019B9C466044104B9C4660440F4B1860C5
:1006600023070DD50D4B1B68013309D00B4B1B68BD
:100670009B089B000A4A944663440A4A12681A601F
:1006800081235B001C4201D1230601D5FFF7B8FF8F
:1006900002B010BD08810540007FFABF20000010A5
:1006A000008105401C00001010B50C2202490348CF
:1006B00000F0A7FE10BDC046D41B0000008105401D
:1006C00010B501225242074B1A60FFF705FFFFF7F2
:1006D000EBFF0549054800F089FD80229201044B9B
:1006E0001A6010BD20000010FF01000000800540CE
:1006F00000E100E070B504000D001E00002801D0EC
:10070000002900D100BEAB0700D000BE0B2A01DDDE
:10071000930700D000BEA26000232361E360A675AA
:100720000C220849280000F06CFE002E01D10C2399
:1007300000E00A23ED18013363602560012323756F
:1007400070BDC046D41B000000B583B0002902D0A4
:100750000B68002B00D100BE0123019304330093EA
:10076000043B0322FFF7C6FE03B000BD70B50400D2
:100770001500002804D00368002B01D0002900D107
:1007800000BEE8221201D0231B06CB18934201D9E8
:10079000002000E0012063685B19802292009342F0
:1007A0001CDCA26893421BDCE268AA18667D002E5E
:1007B00001D0FF2A16DC6360E260002804D02A0022
:1007C0002068FFF701FF03E02A00206800F019FE0F
:1007D00023689C4665442560012004E0002002E077
:1007E000002000E0002070BD002805D00368002B29
:1007F00002D00369002B00D100BE03699A78C1685A
:100800008C466244417D002901D09A7005E00021A8
:100810009970D970111219715A71002303757047BC
:10082000F8B5041E02D00368002B00D100BE666834
:10083000A37D002B02D035000B3D01E035000D3DBE
:10084000032D07DD2369002B00D100BE197840225B
:100850000A431A700920801B23689C466044A37DCC
:10086000002B11D0FE2D0FDD023680239B009E420F
:1008700052DC0023A375811C04302A0000F0C5FD62
:100880002368023323600EE0002B0CD1FE2D0ADC1E
:10089000023E0133A375011D02302A0000F0B5FDB0
:1008A0002368023B236023685A1C2260FE221A70D0
:1008B00023689F1BB30702D003239E43043627609F
:1008C0006660164B1B6801330CD0144B1B68B34297
:1008D00008D2124B1B689B089B00FA58104B1A60F9
:1008E000FFF780FE320039000E4800F08AFDFE2D31
:1008F00008DD2A062D02FF231B041D4015430A4B69
:100900001D4305E0094B1A68094B13402D021D4396
:10091000064B1D60012000E00020F8BD2000001003
:100920001C0000100081054003FF00000881054005
:10093000FF00FFFF70B5074D280000F053FC0100D9
:100940002C6AE405E40D280000F050FC2000FFF7BD
:100950006BFE70BD0080054010B5324C200000F0E9
:1009600013FCA020C00500F0C5F9102200212000D2
:1009700000F018FC08220121200000F013FC0822DE
:100980000221200000F00EFC08220321200000F0CC
:1009900009FC08220421200000F004FC08220521A3
:1009A000200000F0FFFB08220621200000F0FAFBE7
:1009B00008220721200000F0F5FB08220821200072
:1009C00000F0F0FB10220921200000F0EBFB164B99
:1009D0001B68164A934202D0154A93420BD1114C20
:1009E00008220A21200000F0DDFB08220B21200054
:1009F00000F0D8FB0AE00B4C0A220A21200000F08C
:100A0000D1FB0A220B21200000F0CCFB094800F0AA
:100A100017FC094800F0F6F8084800F0F7FB00F072
:100A20003FF810BD00400440FC02000021436587F0
:100A30006587214300400540004003400080054099
:100A4000F0B500231BE002001A41D20716D50D4C69
:100A50009A00165DA41867780A001A4101252A40F9
:100A6000A478A21A54426241D2B23404A026F605F8
:100A7000B4466444BD40BA40AD002A510133002B56
:100A8000E1DDF0BDE01B000010B50100FFF7D8FF6D
:100A900010BDC04610B50021FFF7D2FF10BDC04603
:100AA00070B5002416E0002207210D4800F07AFB03
:100AB0000C49A200535C8A1855781B04A022D20569
:100AC000944663448021090258580122AA400243F7
:100AD0005A500134002CE6DD0120FFF7DBFF70BD2A
:100AE00000400440E01B000070B5041E00DC00BEA6
:100AF000012C08DC00F0E6F8002804D100F0F2F840
:100B0000002800DC00BE802C00DD8024002300E0F3
:100B100001336410FCD107494C62086A0E25A843D2
:100B20005A002B00134003430B624C6201234B62BB
:100B300070BDC04600800440034B1B6A5B0807225F
:100B400013400120984070470080044010B5011EFA
:100B500000DC00BE024800F0AFFFFFF7C5FF10BD8C
:100B600000127A0010B5FFF7E7FF0100014800F01E
:100B7000A3FF10BD00127A0010B5041E16D00C4B56
:100B8000984200D900BEFFF7EDFF0100094800F0D0
:100B900093FF0100FA208000604300F090FFE138ED
:100BA000FF3802B4011C0339FDDC02BC10BDC04695
:100BB00000093D0000CA9A3B10B5040005E0084852
:100BC000FFF7DAFF074B9C466444FA231B019C4263
:100BD000F5DCFA2080006043FFF7CEFF10BDC04671
:100BE00000093D0060F0FFFF10B5044980228C58D9
:100BF000034B18402043885010BDC046008004407D
:100C0000FCBF1D0010B5C0204003FFF7EDFF04201E
:100C100000F028FB082000F039FB6420FFF7ACFF50
:100C2000042000F029FBFFF79DFF084B9C46604421
:100C3000074900F041FF0138002800DC0120054B86
:100C4000586101225242044B1A6410BDD7B8050006
:100C5000D8B8050000400340A401001070B50C0096
:100C600016001D00002900DA00BE002D00DC00BEC9
:100C7000631980225201934200DD00BE2A00C02386
:100C80009B05E118300000F0BCFB0D4B196C0029EE
:100C900015DB8C4203DD641A1919300002E0081BD1
:100CA00030180749064B4033994208D27519A842BB
:100CB00005D22A1A402A00DD402200F0A2FB70BDB6
:100CC000A4010010054B1868C0231B031840044BF7
:100CD0009C466044431E9841C0B2704700C0034028
:100CE0000000F4FF024B1B69FF2018407047C0460C
:100CF00000C0034010B54020FFF776FF10BDC0468E
:100D000001231A43D2B24840904341424841C0B205
:100D10007047C04670B504000D004B0824D0C06871
:100D2000226BD2B2C0B2FFF7EBFF00281ED1206ABF
:100D3000626BD2B2C0B22900FFF7E2FF002817D1E0
:100D4000606AA26BD2B2C0B22900FFF7D9FF0028B7
:100D500010D1A06AE26BD2B2C0B22900FFF7D0FF77
:100D6000002809D0042008E0002006E0012004E06B
:100D7000022002E0032000E0FF2070BD01290CD119
:100D8000C300181A8300054AD3181969044B013BA4
:100D90000A7D042A01D1002BF9D170470000001010
:100DA000A086010010B54368F8221340582B49D89B
:100DB0009B002F4AD3589F463C2321E00B785B00D1
:100DC0008A6854426241134383603C233BE08B6852
:100DD000002B0AD10B69002B02D021235B4201E0DA
:100DE00011235B423C2213402DE04B685A1C4A60A1
:100DF0001B7883608B68013B8B603C2323E02C23B2
:100E0000CA68541CCC60846814700A69013A0A618B
:100E100000E03C230A69012A15DD0422934312E015
:100E20004B68013B4B608B6801338B6001230B7572
:100E30002B3308E002230B753A3304E003230B75D0
:100E4000293300E03C233C225A4002608361DB06E8
:100E500002D50B7D022B06D10B7D042B05D100237F
:100E60000B75002002E0012000E0002010BDC0460C
:100E7000E41B000010B54368F8221340702B0BD020
:100E800004DC602B08D0682B0BD105E0A82B03D025
:100E9000B02B01D0782B04D18168C9B2FFF73AFF9B
:100EA00000E0FF2010BDC04604230B754368F82204
:100EB0001340603B682B33D89B00234AD3589F468E
:100EC000CB685A1CCA6082681A700B69013B0B61BF
:100ED000012B28DC05213C2230E08368012293436A
:100EE0000B700B69012B21DC00213B3226E083686B
:100EF000012293430B704B685A1C4A601B78836035
:100F00008B68013B8B60002B13DC06213C2215E033
:100F100000230B750B78DB070ED4022138220DE07D
:100F200000213C220AE00521382207E00021382276
:100F300004E00621382201E0022118223C2353401C
:100F40000360826108007047481D0000F8B5070083
:100F5000094DC600331A9C002C196068FFF744FE47
:100F6000F21B93005B596C229A610022A261034B31
:100F7000A36022616261F8BD000000107D0D0000D9
:100F800070B504000D00FFF7EDFD290000F097FD9E
:100F9000064AE3001D1BA900895845080D611B1B6B
:100FA00099008B581A69801A586170BD00000010B2
:100FB000C200121A93000B4AD3181B69002B05D1EB
:100FC000C200121A9300074AD3189960C300181A76
:100FD0008300044AD3189868081A41424841C0B2B5
:100FE0007047C04600000010F8B505000E00040070
:100FF000C200121A9300204FFF180321BB689847C4
:10100000042333753E617B69002B08D1EB005B1B29
:101010009A00194BD3583C229A6124321A60EA0094
:10102000521B9300144FFF1801212800BB689847FA
:1010300000233B61E3001B1B9A000F4BD3581A6837
:10104000D206F7D4E900491B8A000B498A18916936
:10105000FF221202114203D038229A610C321A6028
:10106000EA00521B9300044AD3189B68042128000D
:101070009847307DF8BDC04600000010C300181A24
:101080008300064A9B585B68F8221A40D00F002361
:101090005F2191425841C0B27047C0460000001025
:1010A00010B504000B48E300191B8A00821811696F
:1010B0001B1B9A001058FFF775FE002808D1E200AC
:1010C000121B9300034AD3189B6802212000984703
:1010D00010BDC0460000001070B50400C3001B1A0C
:1010E0009A00274BD0584368F8221340F82B46D07B
:1010F000E200121B9300224AD3185B69002B12D125
:10110000FFF7B8FEFF283AD01E49A3001B19181894
:10111000C000E200121B9300194AD31842585A61CA
:1011200008184268DA60164DE300191B8A00AA18F5
:10113000516908781269561EB24102430A701B1B9E
:101140009A005059FFF7B0FE002818D0E200121B99
:1011500093000B4AD3185B691B7D002B06D1E2007C
:10116000121B9300064AD31800225A61E200121B98
:101170009300034AD318DB68C1B22000984770BDC2
:10118000000000102400001010B58020C002FFF7FE
:101190002BFD10BD80228358090109098B43835020
:1011A0007047C04670B506000D0014000B2907D922
:1011B000012A05D10B000C3B01219940FFF7EAFF02
:1011C0002402240AAD00AC5170BDC0464068C0B2D4
:1011D0007047C046C905C90D816170478069C00567
:1011E000C00D7047C069C005C00D704710B5C36918
:1011F00008221340044C226813432360C905C90D1B
:101200004162416210BDC0464C00001070B5040040
:10121000FE2280235B00C250054D00212800FFF70D
:10122000D9FF04492800FFF7E1FF0023236070BDC8
:1012300000800540FF010000043101617047C04695
:1012400010B58020C000FFF7CFFC10BD10B5020024
:1012500030320249024800F0B7F810BD50000010CB
:1012600024400540034A53680F21084083435360DC
:101270007047C04600800440034A53680F2108406D
:10128000184350607047C0460080044010B50449C0
:101290008E2292008B583F24204083438B5010BDF8
:1012A0000080044000BEBFF34F8F034A034BDA6057
:1012B000BFF34F8FFEE7C0460400FA0500ED00E0E3
:1012C00070B5174C2000FFF78DFF06002000FFF7D8
:1012D0007DFF1024044023005A1E9341DDB2812378
:1012E0005B001E4213D00F48FFF7B0FF0E4B9B6808
:1012F000C01A01280BDD002C07D00B4B5B78002BAC
:1013000003D1094AD3690133D361074B5D709C2334
:10131000064AD258064B9A4201D0FFF70BFB70BD2C
:101320000080054000400540E8010010000000007A
:101330003509000070B5194D2800FFF763FC184C03
:1013400020232200E82109012800FFF787FC2378E9
:10135000252B07D0124C20220021200000F059F844
:10136000252323700F48FFF771FF0D4B5B68C31AED
:10137000002B04DC0A4AD3680133D36007E0084A33
:1013800011690131116191698C4663449361044B89
:101390005860012252429A6070BDC046004003402E
:1013A000E801001000400540002300E00633026819
:1013B000D20702D4034A9342F8DD0368DB0700D466
:1013C00000BE7047CF030000F8B506000C00150002
:1013D0000B6801330B603000FFF7E6FF27682B68CE
:1013E0003000FFF7E1FF286823689F42F3D1F8BD82
:1013F000002210B51100100000F010F8FFF712F8ED
:1014000010BD10B500F095FB10BD10B500F0A7FBA6
:1014100010BD10B500F0B1FB10BDFFFFA02270B5EC
:10142000214C520000212000FFF7F3FFC02000F004
:10143000E3F91E4DC02200212860FFF7EAFF2B6868
:101440001B4A1900C0311360183328328B42FAD17D
:1014500022001849002000F0AFF8802380225B01B1
:10146000D2000021200000F02DF8134D134C29006C
:101470002200012000F0A0F8802380225B01D2002E
:101480000021200000F01EF80D4C2900220002204F
:1014900000F092F8802380225B01D200002120001E
:1014A00000F010F870BDC046580000105400001045
:1014B0007C000010EC1E0000EE1E000080000010FA
:1014C000A8000010F0B5C6680124B5071AD0802521
:1014D000AD00AA420BD08025ED00AA4204D08025A1
:1014E0006D00AA420ED102E0416A230004E0064FDB
:1014F0005D1E0124BD4205D8002432430161016014
:10150000C361C2602000F0BDFEFFFF00C9B20378D6
:101510008B4204D0002B01D00130F8E7180070474F
:10152000032210B5431C104206D00130411E097839
:101530000029F8D1C01A18E00C4C02680C49511867
:101540009143214201D10430F7E7D4B2411C002C71
:101550000AD0FF242402811C224205D0FF24240447
:10156000C11C224200D0011DC81A10BD808080809D
:10157000FFFEFEFE202310B50400C2689A43436AB2
:10158000E2605B6882699A420DD000F04FF8E26831
:10159000074B134010221343626AE3605368A36150
:1015A000236993602360E268024B1340E36010BD3F
:1015B000EFCFFFFFBFBFFFFFF7B50D000190100099
:1015C000140000F029F92B78722B09D0772B04D066
:1015D000612B25D10823144A04E00423022201E0F0
:1015E000002301220220691C0327844604260125CA
:1015F00008782B2805D0622807D132432B430131CC
:10160000F6E760463A430343F9E7E260019A626114
:101610001B0706D502220021200000F04FF900E050
:1016200000242000FEBDC0460280000070B504000A
:10163000436A056901689A68C068134B0340E36018
:1016400082230340022B02D0012040421AE0802373
:101650005B02184016D0914200D211008D4209D190
:101660000020636AE2689D60084B25601340A0601B
:10167000E36007E0491B2200280000F009F8002879
:10168000EED0E1E770BDC046FFFFF7FFFFFFFEFFB2
:10169000F7B5D66801900D0014005769F30205D51F
:1016A000102338001E4300F081FAA061114B1E4246
:1016B00009D0A169380000F082FA8023002811DBEC
:1016C0000D4B1E40E6602A000199380000F07DFABB
:1016D00043005B08ED1AA3695D190023A5619842D8
:1016E00005D08033E2681343E36001235B421800B6
:1016F000FEBDC04610000200EFFFFDFFF7B5314E02
:10170000C51C3468AD080196002813D0802229003A
:10171000EB1C002752050A319C4604E023689342E3
:1017200013D02700A468002CF8D10C3000F076F913
:10173000431C0FD1002043E03E68964217D17E68DB
:101740009B1903336360BB68A360A7686368002FBD
:10175000F2D10CE080239B05036045608460002F7C
:1017600002D1019B186000E0B8600C3028E09D4277
:1017700005DC634503DC80239B0523601EE08B4270
:1017800010D98022200080219205656022600C30F3
:10179000AA005D1B82184905033DA26011605560D7
:1017A00097600DE0002FBCD19B00C01A00F036F905
:1017B000431CBFD080239B05236065602000D4E7D5
:1017C000FEBDC0469801001010B5002812D080233D
:1017D0005B0519000C3803608268002A0AD0136880
:1017E0008B4207D1546843681B19033343609368E5
:1017F0008360F1E710BDFFFF10B5FFF77FFF041E08
:1018000005D11722034900F0E0F900F0CBF92000E0
:1018100010BDC046F01E0000F0B5436AC5688BB02D
:1018200004000193AB0728D02B0718D44769066939
:1018300000F02AF8380000F0B6F92B0502D5300088
:10184000FFF7C2FF0F4BAD0DAD059D4207D1202222
:10185000216A02A800F0B6F902A800F0D5F8182213
:101860000021606AFFF7D5FD282200212000FFF744
:10187000D0FD019B0020636201E0012040420BB0DB
:10188000F0BDC046000080AD70B5002803D000F068
:10189000E5F805000EE0A0260400050076000648E5
:1018A000201800F0DBF8002801D001256D42283413
:1018B000B442F4D1280070BD58000010F7B5C368D9
:1018C00016000093009A3B4B04000D001A426CD0A6
:1018D0004769380000F06DF90190002865D1012EAC
:1018E00004D0022E07D0002E5FD124E0200000F0AB
:1018F00065F82D181FE0380000F058F9002805DAC7
:101900008023E2681343E36001234FE0626A2368A7
:101910009168994200D90B00A1695B1821695B1A93
:10192000E168890603D55268934200DA13008342C6
:1019300000DA0300ED18002D37DB009B616A9B0481
:1019400004D523688A689A4200D28B60A3699D42BD
:101950000DDB88682268824200D202002069D61816
:10196000361AB54203DCCF68DE19B54207DB202307
:10197000009A13430022A26062604D6011E0ED1AEC
:10198000009B9B0701D5EF1BA760009BDB0702D5DF
:10199000121AAA1A62602023009A45199A4313006A
:1019A0002560054A1340E36001E00223019301989A
:1019B000FEBDC04603001000BFCFF7FFC3689A0703
:1019C00005D1212201200F4B40421A6018E020224D
:1019D00019030BD5134202D0436A586804E0036828
:1019E000826900699B18181A013809E0134202D075
:1019F000436A586804E00368826900699B18181AF2
:101A00007047C046A001001010B50400FFF788FD24
:101A10000100200000F0D0F810BDFFFF70B50C4DA4
:101A20002B68002B01D10B4B2B600323C41C2E68A9
:101A30009C433419200000F035F8002802D12C60B6
:101A4000300004E00C220120034B40421A6070BDBC
:101A50009C01001008020010A0010010C36870B5BE
:101A60000400032018401AD09B0605D5636A2000A5
:101A70005E68FFF77FFD04E02368A2699E18236972
:101A8000F61AE268064B20001340E360FFF7CEFD34
:101A90000500002231002000FFF710FF280070BD74
:101AA000FFCFFFFF034B0200181E02D000209A4216
:101AB000404170470000000003000B4321D400297F
:101AC00031D00122D207030901E00901120999422C
:101AD000FBD9430801E0490052089942FBD900E0D4
:101AE0004908401A07D35241FAD3014610467047BD
:101AF00049084018F7D29218FAD340180146104608
:101B00007047CB0F00D04942021000D540425340ED
:101B100008B5FFF7D4FF0CBC521000D34042002A96
:101B200000D549421847F446002000F001F860470C
:101B300070478446830708D18B0706D1131F04D34F
:101B400004C904C0043BFBD21A1D524205D0891AB5
:101B5000801A8B5C83540132FBD160467047884207
:101B600007D98B18834204D9013A8B5C8354FBD18B
:101B7000704700B5FFF7DDFF00BD8446043A09D386
:101B8000830707D109060B0A19430B0C1943043AC2
:101B900002C0FCD2043203D001700130013AFBD103
:101BA00060467047FEE701204042704701204042F6
:101BB0007047012040427047012040427047012099
:101BC0004042704701204042704710007047FFFFBD
:101BD000656E00000103E80E46FD010003000000F1
:101BE000000701073C0E0000440E0000440E0000F8
:101BF000440E0000440E0000440E0000440E00009D
:101C0000440E0000BC0D0000440E0000440E000015
:101C1000440E0000440E0000440E0000440E00007C
:101C2000440E0000BC0D0000440E0000440E0000F5
:101C3000440E0000440E0000440E0000440E00005C
:101C4000440E0000CE0D0000440E0000440E0000C3
:101C5000440E0000440E0000440E0000440E00003C
:101C6000440E00002C0E0000440E0000440E000044
:101C7000440E0000440E0000440E0000440E00001C
:101C8000440E0000CE0D0000440E0000440E000083
:101C9000440E0000440E0000440E0000440E0000FC
:101CA000440E0000200E0000440E0000440E000010
:101CB000440E0000440E0000440E0000440E0000DC
:101CC000440E0000340E0000440E0000440E0000DC
:101CD000440E0000440E0000440E0000440E0000BC
:101CE000440E0000120E0000440E0000440E0000DE
:101CF000440E0000440E0000440E0000440E00009C
:101D0000440E00002C0E0000440E0000440E0000A3
:101D1000440E0000440E0000440E0000440E00007B
:101D2000440E0000B80D0000440E0000440E0000F8
:101D3000440E0000440E0000440E0000440E00005B
:101D4000440E0000FE0D0000DA0E0000200F00001F
:101D5000200F0000200F0000200F0000200F0000C7
:101D6000200F0000200F0000DA0E0000200F0000FE
:101D7000200F0000200F0000200F0000200F0000A7
:101D8000200F0000200F0000DA0E0000200F0000DE
:101D9000200F0000200F0000200F0000200F000087
:101DA000200F0000200F0000DA0E0000200F0000BE
:101DB000200F0000200F0000200F0000200F000067
:101DC000200F0000200F0000C00E0000200F0000B8
:101DD000200F0000200F0000200F0000200F000047
:101DE000200F0000200F0000100F0000200F000047
:101DF000200F0000200F0000200F0000200F000027
:101E0000200F0000200F0000C00E0000200F000077
:101E1000200F0000200F0000200F0000200F000006
:101E2000200F0000200F0000100F0000200F000006
:101E3000200F0000200F0000200F0000200F0000E6
:101E4000200F0000200F0000100F0000200F0000E6
:101E5000200F0000200F0000200F0000200F0000C6
:101E6000200F0000200F0000EE0E0000200F0000E9
:101E7000200F0000200F0000200F0000200F0000A6
:101E8000200F0000200F0000EE0E0000200F0000C9
:101E9000200F0000200F0000200F0000200F000086
:101EA000200F0000200F0000F60E0000200F0000A1
:101EB000200F0000200F0000200F0000200F000066
:101EC000200F0000200F0000100F0000200F000066
:101ED000200F0000200F0000200F0000200F000046
:101EE000200F0000200F0000100F0000720077008C
:101EF0002A2A2A205F437379735F616C6C6F6320B9
:081F00006661696C65640A006A
:101F080000000040200000007D0D000000000000DF
:0C1F1800000000000000000000000000BD
:0400000300000145B3
:00000001FF
