:10000000F01F0010450100000D0300000D0300006B
:100010000D0300000D0300000D0300000D030000A0
:100020000D0300000D0300000D0300000D03000090
:100030000D0300000D0300000D0300000D03000080
:100040000D0300000D0300000D0300000D03000070
:100050000D0300000D0300000D0300000D03000060
:100060000D0300000D0300000D0300000D03000050
:100070000D030000290300000D0300000D03000024
:100080000D0300000D0300000D0300000D03000030
:100090000D0300000D0300000D0300000D03000020
:1000A0000D0300000D0300000D0300000D03000010
:1000B0000D0300000D0300000D0300000D03000000
:1000C000EC0600000000001000000000000000101E
:1000D0000400000010B5002304E004680C60043341
:1000E000043004319342F8D310BDC046002303E02E
:1000F00000220260043304308B42F9D37047C046BB
:1001000010B500F04BF90C4B07E0186859681C005B
:100110000C349A68FFF7DEFF2300084A9342F4D3B9
:1001200006E018681C0008345968FFF7DFFF230059
:10013000034A9342F5D310BDC0000000CC0000007C
:10014000D400000010B5FFF7DBFF00F063FA00BE3B
:10015000BFF34F8F024A034BDA60BFF34F8FFEE7C6
:100160000400FA0500ED00E0FFFFFFFFFFFFFFFFC7
:10017000FFFFFFFFFFFFFFFFFFFFFFFFFFFFFFFF8F
:10018000FFFFFFFFFFFFFFFFFFFFFFFFFFFFFFFF7F
:10019000FFFFFFFFFFFFFFFFFFFFFFFFFFFFFFFF6F
:1001A000FFFFFFFFFFFFFFFFFFFFFFFFFFFFFFFF5F
:1001B000FFFFFFFFFFFFFFFFFFFFFFFFFFFFFFFF4F
:1001C000FFFFFFFFFFFFFFFFFFFFFFFFFFFFFFFF3F
:1001D000FFFFFFFFFFFFFFFFFFFFFFFFFFFFFFFF2F
:1001E000FFFFFFFFFFFFFFFFFFFFFFFFFFFFFFFF1F
:1001F000FFFFFFFFFFFFFFFFFFFFFFFFFFFFFFFF0F
:10020000FFFFFFFFFFFFFFFFFFFFFFFFFFFFFFFFFE
:10021000FFFFFFFFFFFFFFFFFFFFFFFFFFFFFFFFEE
:10022000FFFFFFFFFFFFFFFFFFFFFFFFFFFFFFFFDE
:10023000FFFFFFFFFFFFFFFFFFFFFFFFFFFFFFFFCE
:10024000FFFFFFFFFFFFFFFFFFFFFFFFFFFFFFFFBE
:10025000FFFFFFFFFFFFFFFFFFFFFFFFFFFFFFFFAE
:10026000FFFFFFFFFFFFFFFFFFFFFFFFFFFFFFFF9E
:10027000FFFFFFFFFFFFFFFFFFFFFFFFFFFFFFFF8E
:10028000FFFFFFFFFFFFFFFFFFFFFFFFFFFFFFFF7E
:10029000FFFFFFFFFFFFFFFFFFFFFFFFFFFFFFFF6E
:1002A000FFFFFFFFFFFFFFFFFFFFFFFFFFFFFFFF5E
:1002B000FFFFFFFFFFFFFFFFFFFFFFFFFFFFFFFF4E
:1002C000FFFFFFFFFFFFFFFFFFFFFFFFFFFFFFFF3E
:1002D000FFFFFFFFFFFFFFFFFFFFFFFFFFFFFFFF2E
:1002E000FFFFFFFFFFFFFFFFFFFFFFFFFFFFFFFF1E
:1002F000FFFFFFFFFFFFFFFFFFFFFFFFFFFFFFFF0E
:100300000122014B1A60FEE70080054000BEBFF3EA
:100310004F8F034A034BDA60BFF34F8FFEE7C046AF
:100320000400FA0500ED00E070B5174C200000F065
:10033000D3F80600200000F0CBF81024044023007E
:100340005A1E9341DDB281235B001E4213D00F4839
:1003500000F0C6F80E4B9B68C01A01280BDD002C7C
:1003600007D00B4B5B78002B03D1094AD3690133CB
:10037000D361074B5D709C23064AD258064B9A42C4
:1003800001D0FFF7C3FF70BD00800540004005406D
:1003900004000010000000000D03000070B5194DAE
:1003A000280000F035F8184C20232200E82109012C
:1003B000280000F059F82378252B07D0124C202272
:1003C0000021200000F022F9252323700F4800F0BF
:1003D00087F80D4B5B68C31A002B04DC0A4AD3680C
:1003E0000133D36007E0084A116901311161916955
:1003F0008C4663449361044B5860012252429A60D8
:1004000070BDC0460040034004000010004005409D
:1004100010B5C020400300F0E7F8042000F06CF8AD
:10042000082000F07DF8642000F0BEF8042000F001
:100430006DF800F0AFF8084B9C466044074900F0A7
:10044000EDF80138002800DC0120054B586101223D
:100450005242044B1A6410BDD7B80500D8B8050045
:10046000004003402400001070B50C0016001D0071
:10047000002900DA00BE002D00DC00BE63198022D6
:100480005201934200DD00BE2A00C0239B05E11803
:10049000300000F0B7F80D4B196C002915DB8C42C9
:1004A00003DD641A1919300002E0081B30180749EF
:1004B000064B4033994208D27519A84205D22A1A30
:1004C000402A00DD402200F09DF870BD240000109D
:1004D0004068C0B27047C046C069C005C00D7047D3
:1004E00010B5020030320249024800F035F810BD64
:1004F0000000001024400540034A53680F210840C3
:10050000834353607047C04600800440034A5368E9
:100510000F210840184350607047C04600800440D7
:1005200010B504498E2292008B583F24204083430B
:100530008B5010BD00800440002300E006330268A9
:10054000D20702D4034A9342F8DD0368DB0700D4E4
:1005500000BE7047CF030000F8B506000C00150080
:100560000B6801330B603000FFF7E6FF27682B684C
:100570003000FFF7E1FF286823689F42F3D1F8BD00
:10058000034B1B6A5B080722134001209840704709
:100590000080044010B5FFF7F3FF0100014800F0B0
:1005A0003DF810BD00127A0010B5041E16D00C4B99
:1005B000984200D900BEFFF7EDFF0100094800F0A6
:1005C0002DF80100FA208000604300F02AF8E1389D
:1005D000FF3802B4011C0339FDDC02BC10BDC0466B
:1005E00000093D0000CA9A3B10B5044980228C588E
:1005F000034B18402043885010BDC0460080044083
:10060000FCBF1D0010B500F046F810BD10B500F09D
:1006100058F810BD10B5FFF773FE10BD03000B4373
:1006200021D4002931D00122D207030901E00901B8
:1006300012099942FBD9430801E049005208994246
:10064000FBD900E04908401A07D35241FAD30146CA
:100650001046704749084018F7D29218FAD340184C
:10066000014610467047CB0F00D04942021000D51A
:100670004042534008B5FFF7D4FF0CBC521000D3E2
:100680004042002A00D549421847F446002000F0B5
:1006900001F8604770478446830708D18B0706D16D
:1006A000131F04D304C904C0043BFBD21A1D5242D9
:1006B00005D0891A801A8B5C83540132FBD16046C5
:1006C00070478446043A09D3830707D109060B0A09
:1006D00019430B0C1943043A02C0FCD2043203D074
:0C06E00001700130013AFBD16046704708
:0400000300000145B3
:00000001FF
