:10000000F01F001031010000D5000000D5000000F5
:1000100000000000000000000000000000000000E0
:10002000000000000000000000000000D5000000FB
:100030000000000000000000D5000000D500000016
:10004000D5000000D5000000D5000000D50000005C
:10005000D5000000D5000000D5000000D50000004C
:10006000D5000000D5000000D5000000D50000003C
:10007000D5000000316600006D680000D50000006A
:10008000D5000000D5000000D5000000D50000001C
:10009000D5000000D5000000D500000000000000E1
:1000A000D5000000D5000000D5000000D5000000FC
:1000B000D50000000000000000000000D500000096
:1000C0004474000000000010080000000800001048
:1000D00024000000FEE7002310B5934203D21C5811
:1000E0005C500433F9E710BD00238B4203D2002299
:1000F0001A500433F9E7704710B50A4C0A4B9C427A
:1001000006D220686168A268FFF7E5FF0C34F5E7C6
:10011000064B9C4205D220686168FFF7E5FF083472
:10012000F6E710BDC0000000CC000000D4000000C5
:1001300008B5FFF7E1FF06F0CBFFFEE7FFFFFFFF8B
:10014000FFFFFFFFFFFFFFFFFFFFFFFFFFFFFFFFBF
:10015000FFFFFFFFFFFFFFFFFFFFFFFFFFFFFFFFAF
:10016000FFFFFFFFFFFFFFFFFFFFFFFFFFFFFFFF9F
:10017000FFFFFFFFFFFFFFFFFFFFFFFFFFFFFFFF8F
:1064000038B50B4A0B680C1C1A4004D54021013AE0
:1064100049420A4301323F25524215402A1CC01806
:10642000FF2100F051FE23685A19226038BDC04692
:106430003F0000800B4A0B1870B5002693420FD81E
:106440000D1C591E041C890A800A00F0F1FC72B66A
:106450000548211C2A1C331C00F00EFD62B60136D3
:10646000301C70BD006400002C000010802238B584
:1064700000250F4BD2001A600E4C0F4B013C1D60E3
:106480000E4BA40A1D600120211C2A1C2B1C00F0AD
:1064900007FDA8420AD0211C012000F0C9FC72B6F9
:1064A0000120211C2A1C00F0D5FC62B638BDC04674
:1064B0000C00001000640000080000101000001024
:1064C000054B064A1B681268C31800209B18044A33
:1064D0009A424041C0B27047080000100C00001002
:1064E000006400000123F0B5002685B003900291FE
:1064F0000193029B9E422FDA194C1A4B20681A4FC7
:10650000984202DD194C1A4F20688025029BED004D
:106510009B1B2D1A9D4200DD1D1C039B38189919E9
:106520002A1C00F0C9FD23687619E9188023216030
:10653000DB009942DDD10E4B9F42DAD10D4C206831
:10654000FFF778FF0022094B01901A608022236830
:10655000D2009B182360CCE7019805B0F0BDC0467F
:1065600010000010FF0300002C04001008000010B1
:106570002C0000100C00001038B5164C2368002BBE
:106580001BD1154D154C281C211CFFF739FF00208D
:10659000011C00F04DFC72B60020021C011C00F032
:1065A00059FC0020011C00F043FC0021281C22683B
:1065B0000B1C00F061FC01200AE00948211CFFF7D8
:1065C0001FFF084B21681868FFF734FF0028D8D157
:1065D00038BDC046080000102C0400101000001048
:1065E0002C0000100C0000100122024B52421A80B5
:1065F0007047C0461400001030B541180A4A88425E
:106600000FD013881488057824021B0AA4B26B40AB
:10661000064D14805B0014885B5B0130634013807F
:10662000ECE7108880B230BD140000102872000022
:1066300008B50549054800F05BFC052000F040F96D
:1066400000F0EEF808BDC046FF01000000800540E4
:1066500008B5144800F05CFC1248022100F06AFC06
:1066600000F05AF800F010F90E48402100F03CFC10
:1066700080220D4B92011A60052000F021F900F0F4
:106680003FF9002805D0094800F0AAFB00F0A0FC63
:1066900006E000F05BF80028F5D000F093FCEEE790
:1066A000FEE7C0460080054000E100E0400D030029
:1066B000F0B585B001AF3A1C154B0D1C061C13CB71
:1066C00013C2144C0123211C201C30221C3100F069
:1066D00079F9391C201C00F091F9291C201C012299
:1066E00000F096F96B460122D91C6B78201C5340B0
:1066F0000B7000F08DF9A91CB21E201C00F088F967
:10670000201C00F0A3F9201C00F0B2F905B0F0BD88
:10671000287400002C08001007B500F0F5FA0948AD
:1067200000F0F4FA0023022001A94B70087000F079
:1067300015FBFFF79BFEFFF757FF0122024B1A7074
:1067400007BDC046B166000016000010014B187866
:10675000C0B2704716000010F7B500262C4F3E70EF
:10676000042850D90A78131C483B012B4DD8051C2E
:10677000C8788B78000218430C1C011D492A05D1EA
:1067800006300423A84241D1224E17E00423A94237
:106790003CD1FFF795FE002801D1032336E06A467D
:1067A0002378062013706378694653706B46022283
:1067B0009E805A8000F0B0FA01233B70E178A37804
:1067C000271D09021943381CFFF78CFE0028E4D06E
:1067D000E178A37809021943381CFFF70DFF0E4B2F
:1067E00022781880331C492A10D16419A31E013C59
:1067F00022781B7812021A430523904206D1FFF734
:10680000BBFE012302E0034B00E0044B181CFEBD5D
:10681000160000100D000100180000100700010014
:1068200070B5114C8022201C211C86B04C30683180
:10683000920000F00FFA002814D0261C02AD4C364E
:10684000301C291C00F082F900280BD02B78042B77
:10685000F3D101A9301C00F04DFA011C019800F0A1
:106860007DFAEAE706B070BD2C08001008B50448B0
:10687000012100F0E7FB0122024B1A7008BDC0465F
:10688000004005401A00001038B50025094C0A4B9D
:10689000201C1D7000F0A6FB291C201C00F0A8FB8A
:1068A000201C012100F0C0FB8022044BD2011A60A1
:1068B00038BDC046004005401A00001000E100E06D
:1068C00038B50C4C051C0121201C00F0BBFB8021BD
:1068D000C023094A5B00C901D150201C032100F0EC
:1068E00087FB291C201C00F091FB0022034B1A702F
:1068F00038BDC0460040054000E100E01A0000102D
:10690000014B1878C0B270471A000010F0B585B07E
:106910000392002202930AAB40CB0D791B78041C32
:106920000F1C0192934203D0086800F0D5FB019040
:10693000019B0121F61803236940594363687618C7
:10694000F618802300209B009E4238DCA3689E42FC
:1069500035DC227D6575D2012D012A43029D236815
:106960002A436660E06023611A70029ADD1C012AE6
:1069700006D16A46127A5A70019A01329A7003E07F
:106980006A46127998705A70039B6D18032B05D1D3
:106990005133019A2B70153B134005E0039B062BE6
:1069A00004D14F332B703B7A6B700235281C396849
:1069B000019A00F081FB0120019BED18256005B0D4
:1069C000F0BD000070B51E1C002382600361C3602F
:1069D0000676041C0D1C081C0C22074900F06CFBF9
:1069E0000C21002E00D002394B1C63600123691872
:1069F0002160237570BDC04638740000032307B5BD
:106A00000093023B019304220133FFF77FFF0EBD89
:106A100070B580254368041CD3180020AD00AB423C
:106A200013DCA568AB4210DCE5685619657D85422C
:106A300001D0FF2E09DC151C6360E660206800F0C1
:106A40003BFB012023685D19256070BD0369C168A7
:106A50009A785218417D002901D09A7004E099700B
:106A6000D970111219715A71002303757047000013
:106A700070B54468037E051C261C002B03D00B3E1A
:106A8000032E03DC2DE00D3E032E51DD40212A694B
:106A900013780B4313702B683739091B59182B7E59
:106AA000002B11D0FE2E1CDD002380220234181C86
:106AB0009200944241DC2B76081D321C023100F01A
:106AC000FFFA2B6802330BE0FE2E0ADC0123881C40
:106AD0002B760431321C00F0F3FA2B68023C023BA7
:106AE0002B602B685A1C2A60FE221A702968134BEF
:106AF000091B994208D003231C4201D09C43043453
:106B00000E48221C00F0D8FA32060D49FE2E07DD91
:106B10000C4B36021A43FF231B041E40164304E0AD
:106B2000094B0868160C03401E430E60012004E068
:106B300009210368091B5918C8E770BD0081054089
:106B40000881054003FF0000FF00FFFF0023F7B5A9
:106B50004B608B60C3604368051C9C460468002B37
:106B600075D00127046123780193019ADE08520948
:106B70001B093B403A400A739A003E409A1A07327A
:106B800077400096D71BBC4561DB6246D21B161CC2
:106B90006778A278002B01D0E31C0BE013069C461B
:106BA0006046E278A31D120402436079247902430F
:106BB0002402224300240098A04201D01C78013313
:106BC000B8188446A444301E604540DB6646801BEE
:106BD00068600720019E0640301E042837D800F068
:106BE0001BFB0308263628003A4322432FD10A70A4
:106BF00028E0012F2BD1009E581C1B78002E00D0BE
:106C00000019013A542B0CD1513B0B700378DC096D
:106C10001DD13F341C40013048608C60121B0319A9
:106C200010E0552B13D14F3B0B70431C0AE004209E
:106C300000E005204B6008708F600099DB19002987
:106C400000D01B199B182B60EA60012000E0002097
:106C5000FEBD0000F0B5244B85B0244CE51AAC46CF
:106C6000234DAB4208D01D78032D01D00133F4E74A
:106C70006546002D03D133E001256D42AC465E78B8
:106C80009F1CFF2E08D166460025022E28DD9E7827
:106C9000DD7836022E431F1DBB190025A3421FD8E5
:106CA000B2421DDB041C8260216046600120AE42BE
:106CB00013D0081C321C391C00F0FEF967682668E6
:106CC0006368002B06DD201C6946FFF73FFF0028A4
:106CD000F6D100E00120676026600023051CE36018
:106CE000281C05B0F0BDC04608810540FF82054064
:106CF00000830540C3680B60002B03D00368C068A5
:106D0000181A00E0181C704770470000014B18600B
:106D10007047C0461C00001008B5034B1B68002BD1
:106D200000D0984708BDC0461C0000101FB56A4639
:106D30000B78002413704B781020537004231381B8
:106D4000012369469380DB1854805481D3800394D7
:106D5000FFF7E2FF201C04B010BD0000F7B50128CA
:106D600025DD002923D00E780C1C051C4F783F2E02
:106D700004D9281C211CFFF7EFFC0CE00C4B1A78FF
:106D80005B68B242F5D1002BF3D0281C211C984738
:106D9000084B9842EDD0002809D06B465880000C73
:106DA0009880694606201E705F70FFF7B5FFF7BD3B
:106DB0000000001007000100034B186A01230007C0
:106DC000400F8340181C70470080044008B5FFF74F
:106DD000F3FF011C014800F0A9F908BD00127A0078
:106DE00010B5002814D0041CFFF7F0FF011CFA2096
:106DF00080004443074800F099F9011C201C00F072
:106E000098F902B4E138FF38011C0339FDDC02BCFB
:106E100010BDC04600CA9A3B0349044ACB6F1040DC
:106E20001843C8677047C04604800440FCBF1D007B
:106E30001FB5FF230093CD3B01930290039101A85E
:106E40006946034B9847009BD8B205B000BDC046C9
:106E5000F11FFF1F7FB5FF230193CB3B02930390EC
:106E6000049102A8059201A9024B9847019BD8B250
:106E700007B000BDF11FFF1F10B5FF2486B00094BE
:106E8000CC3C02910390059301A8019404926946B9
:106E9000024B9847009BD8B206B010BDF11FFF1FF0
:106EA000F0B589B0071C0E1C151C002105A80C228A
:106EB0001C1C00F009F9FF230593CA3B02930397BA
:106EC000049602A805A9074B9847002D02D0069BFF
:106ED00001932B60002C01D0079B2360059BD8B247
:106EE00009B0F0BDF11FFF1FC905C90D81617047D1
:106EF000082330B5054CC56922682B40C905C90D6A
:106F0000134323604162416230BDC046200000103F
:106F100038B5031C0025FE22041C0448FC335A60CB
:106F200003498561FFF7E4FF256038BD0080054017
:106F3000FF0100000431016170470000F7B50F4EFA
:106F40000F4F104D041C01912A1C311C381C00F0FD
:106F50009FF80D4B311C184090231B012343034322
:106F60002A1C381C00F085F80421084A13698B4359
:106F700001991943116130BFF7BDC04624000010CC
:106F8000208003400080034000F6FFFF00ED00E09A
:106F9000F7B5041C094D0A4E0F1C0192291C301C28
:106FA000221C00F075F8031C019ABB431343301CEC
:106FB000291C221C00F05DF8F7BDC046240000101B
:106FC00020800340002008B5011CFFF7B7FF08BD73
:106FD000802208B5D2010248111CFFF7D9FF08BD75
:106FE00000800340802008B5C000FFF715FF08BDF2
:106FF00008B50723021C0B400248034900F039F88A
:1070000008BDC0462440054028000010021C08B5F9
:107010000B020C321B0A0248024900F02AF808BD94
:10702000244005402800001008B5021C012314323A
:107030000B400248024900F01CF808BD24400540FE
:107040002800001008B5021C012320320B40024822
:10705000024900F00EF808BD244005402800001049
:10706000A4230268D20702D4013B002BF9D10368A4
:107070007047F8B50D1C161C1F1C041CFFF7F0FF11
:107080002B68201C01332B603760FFF7E9FFF8BD48
:10709000F8B5061C0C1C151C0B6801330B60301C6A
:1070A000FFF7DEFF301C27682B68FFF7D9FF286841
:1070B00023689F42F3D1F8BD08B500F074F808BD0D
:1070C00008B500F086F808BD08B500F090F808BDD6
:1070D00008B5FFF7BDFA08BD10B5431C820706D0FE
:1070E0000130421E1278002AF8D1C01A18E0026856
:1070F0000C490D4C51189143214201D10430F6E75F
:10710000D4B2411C002C0AD0FF242402811C22424C
:1071100005D0FF242404C11C224200D0011DC81A3E
:1071200010BDC046FFFEFEFE8080808003000B4342
:1071300021D4002931D00122D207030901E009013D
:1071400012099942FBD9430801E0490052089942CB
:10715000FBD900E04908401A07D35241FAD301464F
:107160001046704749084018F7D29218FAD34018D1
:10717000014610467047CB0F00D04942021000D59F
:107180004042534008B5FFF7D4FF0CBC521000D367
:107190004042002A00D549421847F446002000F03A
:1071A00001F8604770478446830708D18B0706D1F2
:1071B000131F04D304C904C0043BFBD21A1D52425E
:1071C00005D0891A801A8B5C83540132FBD160464A
:1071D0007047884207D98B18834204D9013A8B5CE7
:1071E0008354FBD1704700B5FFF7DDFF00BD844637
:1071F000043A09D3830707D109060B0A19430B0C7C
:107200001943043A02C0FCD2043203D001700130A9
:10721000013AFBD1604670478C4671460139095CE2
:1072200049008E44614670470000211042206330BF
:107230008440A550C660E770088129914AA16BB1CE
:107240008CC1ADD1CEE1EFF1311210027332522276
:10725000B5529442F772D662399318837BB35AA31E
:10726000BDD39CC3FFF3DEE3622443342004011446
:10727000E664C774A44485546AA54BB5288509956E
:10728000EEE5CFF5ACC58DD5533672261116300616
:10729000D776F6669556B4465BB77AA719973887BE
:1072A000DFF7FEE79DD7BCC7C448E5588668A778D6
:1072B0004008611802282338CCC9EDD98EE9AFF90E
:1072C000488969990AA92BB9F55AD44AB77A966AB6
:1072D000711A500A333A122AFDDBDCCBBFFB9EEB5E
:1072E000799B588B3BBB1AABA66C877CE44CC55C86
:1072F000222C033C600C411CAEED8FFDECCDCDDDAE
:107300002AAD0BBD688D499D977EB66ED55EF44E55
:10731000133E322E511E700E9FFFBEEFDDDFFCCFFD
:107320001BBF3AAF599F788F8891A981CAB1EBA151
:107330000CD12DC14EF16FE18010A100C230E320CD
:107340000450254046706760B9839893FBA3DAB375
:107350003DC31CD37FE35EF3B1029012F322D2321D
:107360003542145277625672EAB5CBA5A895898545
:107370006EF54FE52CD50DC5E234C324A01481046D
:107380006674476424540544DBA7FAB79987B89715
:107390005FE77EF71DC73CD7D326F2369106B016BD
:1073A00057667676154634564CD96DC90EF92FE9D5
:1073B000C899E9898AB9ABA944586548067827680D
:1073C000C018E1088238A3287DCB5CDB3FEB1EFBB5
:1073D000F98BD89BBBAB9ABB754A545A376A167A5D
:1073E000F10AD01AB32A923A2EFD0FED6CDD4DCD85
:1073F000AABD8BADE89DC98D267C076C645C454CAD
:10740000A23C832CE01CC10C1FEF3EFF5DCF7CDF54
:107410009BAFBABFD98FF89F176E367E554E745EFC
:10742000932EB23ED10EF01E347400000100000015
:10743000000000004E2F50000103E80E46FD010041
:047440000300000045
:08744400020000002D6D0000A4
:0400000300000131C7
:00000001FF
