:10000000F01F001045010000A9070000A90700002B
:10001000A9070000A9070000A9070000A907000020
:10002000A9070000A9070000A9070000A907000010
:10003000A9070000A9070000A9070000A907000000
:10004000A9070000A9070000A9070000A9070000F0
:10005000A9070000A9070000A9070000A9070000E0
:10006000A9070000A9070000A9070000A9070000D0
:10007000A9070000C5070000A9070000A9070000A4
:10008000A9070000A9070000A9070000A9070000B0
:10009000A9070000A9070000A9070000A9070000A0
:1000A000A9070000A9070000A9070000A907000090
:1000B000A9070000A9070000A9070000A907000080
:1000C000E009000000000010000000000000001027
:1000D0000800000010B5002304E004680C6004333D
:1000E000043004319342F8D310BDC046002303E02E
:1000F00000220260043304308B42F9D37047C046BB
:1001000010B500F099FB0C4B07E0186859681C000B
:100110000C349A68FFF7DEFF2300084A9342F4D3B9
:1001200006E018681C0008345968FFF7DFFF230059
:10013000034A9342F5D310BDC0000000CC0000007C
:10014000D400000010B5FFF7DBFF00F0DBFB00BEC2
:10015000BFF34F8F024A034BDA60BFF34F8FFEE7C6
:100160000400FA0500ED00E0FFFFFFFFFFFFFFFFC7
:10017000FFFFFFFFFFFFFFFFFFFFFFFFFFFFFFFF8F
:10018000FFFFFFFFFFFFFFFFFFFFFFFFFFFFFFFF7F
:10019000FFFFFFFFFFFFFFFFFFFFFFFFFFFFFFFF6F
:1001A000FFFFFFFFFFFFFFFFFFFFFFFFFFFFFFFF5F
:1001B000FFFFFFFFFFFFFFFFFFFFFFFFFFFFFFFF4F
:1001C000FFFFFFFFFFFFFFFFFFFFFFFFFFFFFFFF3F
:1001D000FFFFFFFFFFFFFFFFFFFFFFFFFFFFFFFF2F
:1001E000FFFFFFFFFFFFFFFFFFFFFFFFFFFFFFFF1F
:1001F000FFFFFFFFFFFFFFFFFFFFFFFFFFFFFFFF0F
:10020000FFFFFFFFFFFFFFFFFFFFFFFFFFFFFFFFFE
:10021000FFFFFFFFFFFFFFFFFFFFFFFFFFFFFFFFEE
:10022000FFFFFFFFFFFFFFFFFFFFFFFFFFFFFFFFDE
:10023000FFFFFFFFFFFFFFFFFFFFFFFFFFFFFFFFCE
:10024000FFFFFFFFFFFFFFFFFFFFFFFFFFFFFFFFBE
:10025000FFFFFFFFFFFFFFFFFFFFFFFFFFFFFFFFAE
:10026000FFFFFFFFFFFFFFFFFFFFFFFFFFFFFFFF9E
:10027000FFFFFFFFFFFFFFFFFFFFFFFFFFFFFFFF8E
:10028000FFFFFFFFFFFFFFFFFFFFFFFFFFFFFFFF7E
:10029000FFFFFFFFFFFFFFFFFFFFFFFFFFFFFFFF6E
:1002A000FFFFFFFFFFFFFFFFFFFFFFFFFFFFFFFF5E
:1002B000FFFFFFFFFFFFFFFFFFFFFFFFFFFFFFFF4E
:1002C000FFFFFFFFFFFFFFFFFFFFFFFFFFFFFFFF3E
:1002D000FFFFFFFFFFFFFFFFFFFFFFFFFFFFFFFF2E
:1002E000FFFFFFFFFFFFFFFFFFFFFFFFFFFFFFFF1E
:1002F000FFFFFFFFFFFFFFFFFFFFFFFFFFFFFFFF0E
:1003000010B500F011F801220121064800F0D4F9DF
:10031000032000F055F9012000F0EEF8FA2000F07B
:1003200029F9F8E70040044010B5324C200000F0F5
:10033000B5F9A020C00500F0ABF910220021200083
:1003400000F0BAF908220121200000F0B5F90822D6
:100350000221200000F0B0F908220321200000F063
:10036000ABF908220421200000F0A6F9082205219B
:10037000200000F0A1F908220621200000F09CF9DD
:1003800008220721200000F097F908220821200008
:1003900000F092F910220921200000F08DF9164B8F
:1003A0001B68164A934202D0154A93420BD1114C56
:1003B00008220A21200000F07FF908220B212000EA
:1003C00000F07AF90AE00B4C0A220A21200000F022
:1003D00073F90A220B21200000F06EF9094800F0A1
:1003E000B1F9094800F0F4F8084800F095F900F078
:1003F0005FF810BD00400440FC0200002143658707
:1004000065872143004005400040034000800540CF
:10041000F0B500231BE002001A41D20716D50D4C9F
:100420009A00165DA41867780A001A4101252A402F
:10043000A478A21A54426241D2B23404A026F6052E
:10044000B4466444BD40BA40AD002A510133002B8C
:10045000E1DDF0BDDC09000070B5050000230020DF
:100460001AE02A001A41D20715D50D4C99000A5DF1
:1004700061184E781204A024E405A44662440124C5
:10048000B440A400A258541EA24189788A1A51424D
:100490004A419A4010430133002BE2DD70BDC04653
:1004A000DC09000010B50021FFF7B2FF10BDC04607
:1004B00070B5002416E0002207210D4800F0FCF87A
:1004C0000C49A200535C8A1855781B04A022D2055F
:1004D000944663448021090258580122AA400243ED
:1004E0005A500134002CE6DD0120FFF7DBFF70BD20
:1004F00000400440DC09000010B50400FFF7ACFF29
:10050000C1432000FFF784FF10BDC046034B1B6AA8
:100510005B08072213400120984070470080044088
:1005200010B5FFF7F3FF0100014800F0EFF910BD2F
:1005300000127A0010B5041E16D00C4B984200D958
:1005400000BEFFF7EDFF0100094800F0DFF90100F0
:10055000FA208000604300F0DCF9E138FF3802B493
:10056000011C0339FDDC02BC10BDC04600093D0082
:1005700000CA9A3B10B5040005E00848FFF7DAFF0F
:10058000074B9C466444FA231B019C42F5DCFA208D
:1005900080006043FFF7CEFF10BDC04600093D005C
:1005A00060F0FFFF10B5044980228C58034B1840BF
:1005B0002043885010BDC04600800440FCBF1D0091
:1005C00007231840E133014AD050704700800440AF
:1005D00010B5C0204003FFF7E5FF042000F0C4F889
:1005E000082000F0D5F86420FFF7A4FF042000F0F5
:1005F000C5F8FFF795FF084B9C466044074900F09B
:1006000085F90138002800DC0120054B58610122E2
:100610005242044B1A6410BDD7B80500D8B8050083
:10062000004003400800001070B50C0016001D00CB
:10063000002900DA00BE002D00DC00BE6319802214
:100640005201934200DD00BE2A00C0239B05E11841
:10065000300000F04FF90D4B196C002915DB8C426E
:1006600003DD641A1919300002E0081B301807492D
:10067000064B4033994208D27519A84205D22A1A6E
:10068000402A00DD402200F035F970BD080000105E
:1006900010B54020FFF786FF10BDC04610B5802082
:1006A000C002FFF77FFF10BD8022835809010909AE
:1006B0008B4383507047C04670B506000D00140090
:1006C0000B2907D9012A05D10B000C3B01219940C8
:1006D000FFF7EAFF2402240AAD00AC5170BDC0460A
:1006E0004068C0B27047C046C905C90D81617047F6
:1006F000C069C005C00D704710B5C369082213401A
:10070000044C226813432360C905C90D416241624C
:1007100010BDC0460000001070B50400FE2280230A
:100720005B00C250054D00212800FFF7DDFF0449A2
:100730002800FFF7E1FF0023236070BD0080054023
:10074000FF01000010B58020C000FFF72BFF10BD97
:1007500010B5020030320249024800F0B7F810BD6F
:100760000400001024400540034A53680F2108404C
:10077000834353607047C04600800440034A536877
:100780000F210840184350607047C0460080044065
:1007900010B504498E2292008B583F242040834399
:1007A0008B5010BD0080044000BEBFF34F8F034A42
:1007B000034BDA60BFF34F8FFEE7C0460400FA0533
:1007C00000ED00E070B5174C2000FFF791FF060028
:1007D0002000FFF785FF1024044023005A1E934198
:1007E000DDB281235B001E4213D00F48FFF7B0FF3C
:1007F0000E4B9B68C01A01280BDD002C07D00B4B59
:100800005B78002B03D1094AD3690133D361074BCD
:100810005D709C23064AD258064B9A4201D0FFF7DE
:10082000C3FF70BD00800540004005404C00001033
:1008300000000000A907000070B5194D2800FFF75F
:10084000C7FE184C20232200E82109012800FFF7E9
:10085000EBFE2378232B07D0124C2022002120000E
:1008600000F04CF8232323700F48FFF771FF0D4B66
:100870005B68C31A002B04DC0A4AD3680133D360D7
:1008800007E0084A11690131116191698C4663449E
:100890009361044B5860012252429A6070BDC04679
:1008A000004003404C00001000400540002300E0E1
:1008B00006330268D20702D4034A9342F8DD036884
:1008C000DB0700D400BE7047CF030000F8B5060078
:1008D0000C0015000B6801330B603000FFF7E6FFDA
:1008E00027682B683000FFF7E1FF286823689F42E4
:1008F000F3D1F8BD10B500F046F810BD10B500F00A
:1009000058F810BD10B5FFF7FBFC10BD03000B43FA
:1009100021D4002931D00122D207030901E00901C5
:1009200012099942FBD9430801E049005208994253
:10093000FBD900E04908401A07D35241FAD30146D7
:100940001046704749084018F7D29218FAD3401859
:10095000014610467047CB0F00D04942021000D527
:100960004042534008B5FFF7D4FF0CBC521000D3EF
:100970004042002A00D549421847F446002000F0C2
:1009800001F8604770478446830708D18B0706D17A
:10099000131F04D304C904C0043BFBD21A1D5242E6
:1009A00005D0891A801A8B5C83540132FBD16046D2
:1009B00070478446043A09D3830707D109060B0A16
:1009C00019430B0C1943043A02C0FCD2043203D081
:1009D00001700130013AFBD1604670470007010702
:0400000300000145B3
:00000001FF
