:10000000F01F0010250100000D0300000D0300008B
:100010000D0300000D0300000D0300000D030000A0
:100020000D0300000D0300000D0300000D03000090
:100030000D0300000D0300000D0300000D03000080
:100040000D0300000D0300000D0300000D03000070
:100050000D0300000D0300000D0300000D03000060
:100060000D0300000D0300000D0300000D03000050
:100070000D030000250300000D0300000D03000028
:100080000D0300000D0300000D0300000D03000030
:100090000D0300000D0300000D0300000D03000020
:1000A0000D0300000D0300000D0300000D03000010
:1000B0000D0300000D0300000D0300000D03000000
:1000C000A406000000000010000000000000001066
:1000D0000400000070B500F059F90F4B0F498B4236
:1000E0000BD200221C685D689868904203D91659AB
:1000F00056510432F9E70C33F1E7002008498B42EE
:1001000009D200221D685C68944202D95051043221
:10011000FAE70833F3E770BDC0000000CC00000030
:10012000D400000010B5FFF7D5FF00F04FFABFF381
:100130004F8F034A034BDA60BFF34F8FFEE7C04691
:100140000400FA0500ED00E0FFFFFFFFFFFFFFFFE7
:10015000FFFFFFFFFFFFFFFFFFFFFFFFFFFFFFFFAF
:10016000FFFFFFFFFFFFFFFFFFFFFFFFFFFFFFFF9F
:10017000FFFFFFFFFFFFFFFFFFFFFFFFFFFFFFFF8F
:10018000FFFFFFFFFFFFFFFFFFFFFFFFFFFFFFFF7F
:10019000FFFFFFFFFFFFFFFFFFFFFFFFFFFFFFFF6F
:1001A000FFFFFFFFFFFFFFFFFFFFFFFFFFFFFFFF5F
:1001B000FFFFFFFFFFFFFFFFFFFFFFFFFFFFFFFF4F
:1001C000FFFFFFFFFFFFFFFFFFFFFFFFFFFFFFFF3F
:1001D000FFFFFFFFFFFFFFFFFFFFFFFFFFFFFFFF2F
:1001E000FFFFFFFFFFFFFFFFFFFFFFFFFFFFFFFF1F
:1001F000FFFFFFFFFFFFFFFFFFFFFFFFFFFFFFFF0F
:10020000FFFFFFFFFFFFFFFFFFFFFFFFFFFFFFFFFE
:10021000FFFFFFFFFFFFFFFFFFFFFFFFFFFFFFFFEE
:10022000FFFFFFFFFFFFFFFFFFFFFFFFFFFFFFFFDE
:10023000FFFFFFFFFFFFFFFFFFFFFFFFFFFFFFFFCE
:10024000FFFFFFFFFFFFFFFFFFFFFFFFFFFFFFFFBE
:10025000FFFFFFFFFFFFFFFFFFFFFFFFFFFFFFFFAE
:10026000FFFFFFFFFFFFFFFFFFFFFFFFFFFFFFFF9E
:10027000FFFFFFFFFFFFFFFFFFFFFFFFFFFFFFFF8E
:10028000FFFFFFFFFFFFFFFFFFFFFFFFFFFFFFFF7E
:10029000FFFFFFFFFFFFFFFFFFFFFFFFFFFFFFFF6E
:1002A000FFFFFFFFFFFFFFFFFFFFFFFFFFFFFFFF5E
:1002B000FFFFFFFFFFFFFFFFFFFFFFFFFFFFFFFF4E
:1002C000FFFFFFFFFFFFFFFFFFFFFFFFFFFFFFFF3E
:1002D000FFFFFFFFFFFFFFFFFFFFFFFFFFFFFFFF2E
:1002E000FFFFFFFFFFFFFFFFFFFFFFFFFFFFFFFF1E
:1002F000FFFFFFFFFFFFFFFFFFFFFFFFFFFFFFFF0E
:100300000122014B1A60FEE700800540BFF34F8FCA
:10031000024A034BDA60BFF34F8FFEE70400FA0591
:1003200000ED00E070B5144800F0B9F8050012487F
:1003300000F0B2F881235B0004001D4213D00F4887
:1003400000F0B2F80E4B9A68801A01280BDD1020DD
:10035000204005D05A78002A02D1DA690132DA61E8
:10036000421E90415870074B074A9C331B689342CA
:1003700001D0FFF7CBFF70BD008005400040054075
:1003800004000010000000000D03000010B5154827
:1003900000F02EF8E821144C202322000901114816
:1003A00000F052F82378252B06D0202200212000CF
:1003B00000F008F9252323700C4800F075F86368F5
:1003C000C31A002B03DCE3680133E36005E0226914
:1003D00001322261A269D318A36101235B426060EC
:1003E000A36010BD00400340040000100040054021
:1003F000C02010B5400300F0D5F8042000F060F8EC
:10040000082000F071F8642000F0C6F8042000F025
:1004100061F800F09DF8084B0849C01800F0DAF8C0
:100420000138002800DC01200122054B52425861AE
:10043000044B1A6010BDC046D7B80500D8B80500F7
:10044000004003402400001070B51C00C0231500BC
:100450009B050E002200C918280000F0AFF80D4BD4
:100460001868002814DB191D864206DD301A0918A9
:10047000443399420CD2280001E0801B28182C1923
:10048000844205D9221A402A00DD402200F096F865
:1004900070BDC046240000104068C0B27047C069FB
:1004A000C005C00D7047FFFF020010B53032024991
:1004B000024800F02EF810BD000000102440054056
:1004C0000F22034910404B6883434B607047C0467E
:1004D000008004400F22034910404B6818434860D5
:1004E0007047C046008004408E213F2210B5034C67
:1004F0008900635810408343635010BD008004405E
:10050000A42301220168114202D1013B002BF9D141
:100510007047F8B506000C0015000B6801330B603E
:100520003000FFF7EDFF300027682B68FFF7E8FF8A
:10053000286823689F42F3D1F8BDFFFF0120034BD9
:100540001B6A1B075B0F98407047C0460080044041
:1005500010B5FFF7F3FF0100014800F03BF810BDB4
:1005600000127A0010B50400FFF7F2FFFA23010031
:100570009B0008485C4300F02DF80100200000F0CB
:100580002CF802B4E138FF38011C0339FDDC02BC51
:1005900010BDC04600CA9A3B10B5002801D0FFF735
:1005A000E1FF10BD0349044ACB6F10401843C867F0
:1005B0007047C04604800440FCBF1D0010B500F029
:1005C00046F810BD10B500F058F810BD10B5FFF793
:1005D00097FE10BD03000B4321D4002931D0012226
:1005E000D207030901E0090112099942FBD9430826
:1005F00001E0490052089942FBD900E04908401A3D
:1006000007D35241FAD301461046704749084018B3
:10061000F7D29218FAD34018014610467047CB0F14
:1006200000D04942021000D54042534008B5FFF7C0
:10063000D4FF0CBC521000D34042002A00D54942DE
:100640001847F446002000F001F8604770478446E0
:10065000830708D18B0706D1131F04D304C904C034
:10066000043BFBD21A1D524205D0891A801A8B5CBA
:1006700083540132FBD1604670478446043A09D363
:10068000830707D109060B0A19430B0C1943043AD7
:1006900002C0FCD2043203D001700130013AFBD118
:0406A00060467047F9
:0400000300000125D3
:00000001FF
