:10000000F01F0010C5070000894F0000894F000055
:10001000894F0000894F0000894F0000894F000080
:10002000894F0000894F0000894F0000894F000070
:10003000894F0000894F0000894F0000894F000060
:100040009D060000894F0000894F0000894F000085
:10005000894F0000894F0000894F0000894F000040
:10006000894F0000894F0000894F0000894F000030
:10007000894F0000A54F00004D150000894F00007A
:1000800061160000894F0000894F0000894F000071
:10009000894F000025180000894F0000894F00009B
:1000A000894F0000894F0000894F0000894F0000F0
:1000B000894F0000894F0000894F0000894F0000E0
:1000C0001058000000000010CC000000CC00001010
:1000D0006400000010B5002304E004680C600433E1
:1000E000043004319342F8D310BDC046002303E02E
:1000F00000220260043304308B42F9D37047C046BB
:1001000010B504F089FF0C4B07E0186859681C0013
:100110000C349A68FFF7DEFF2300084A9342F4D3B9
:1001200006E018681C0008345968FFF7DFFF230059
:10013000034A9342F5D310BDC0000000CC0000007C
:10014000D400000010B5FFF7DBFF05F0E3F800BEB8
:10015000BFF34F8F024A034BDA60BFF34F8FFEE7C6
:100160000400FA0500ED00E0FFFFFFFFFFFFFFFFC7
:10017000FFFFFFFFFFFFFFFFFFFFFFFFFFFFFFFF8F
:10018000FFFFFFFFFFFFFFFFFFFFFFFFFFFFFFFF7F
:10019000FFFFFFFFFFFFFFFFFFFFFFFFFFFFFFFF6F
:1001A000FFFFFFFFFFFFFFFFFFFFFFFFFFFFFFFF5F
:1001B000FFFFFFFFFFFFFFFFFFFFFFFFFFFFFFFF4F
:1001C000FFFFFFFFFFFFFFFFFFFFFFFFFFFFFFFF3F
:1001D000FFFFFFFFFFFFFFFFFFFFFFFFFFFFFFFF2F
:1001E000FFFFFFFFFFFFFFFFFFFFFFFFFFFFFFFF1F
:1001F000FFFFFFFFFFFFFFFFFFFFFFFFFFFFFFFF0F
:10020000FFFFFFFFFFFFFFFFFFFFFFFFFFFFFFFFFE
:10021000FFFFFFFFFFFFFFFFFFFFFFFFFFFFFFFFEE
:10022000FFFFFFFFFFFFFFFFFFFFFFFFFFFFFFFFDE
:10023000FFFFFFFFFFFFFFFFFFFFFFFFFFFFFFFFCE
:10024000FFFFFFFFFFFFFFFFFFFFFFFFFFFFFFFFBE
:10025000FFFFFFFFFFFFFFFFFFFFFFFFFFFFFFFFAE
:10026000FFFFFFFFFFFFFFFFFFFFFFFFFFFFFFFF9E
:10027000FFFFFFFFFFFFFFFFFFFFFFFFFFFFFFFF8E
:10028000FFFFFFFFFFFFFFFFFFFFFFFFFFFFFFFF7E
:10029000FFFFFFFFFFFFFFFFFFFFFFFFFFFFFFFF6E
:1002A000FFFFFFFFFFFFFFFFFFFFFFFFFFFFFFFF5E
:1002B000FFFFFFFFFFFFFFFFFFFFFFFFFFFFFFFF4E
:1002C000FFFFFFFFFFFFFFFFFFFFFFFFFFFFFFFF3E
:1002D000FFFFFFFFFFFFFFFFFFFFFFFFFFFFFFFF2E
:1002E000FFFFFFFFFFFFFFFFFFFFFFFFFFFFFFFF1E
:1002F000FFFFFFFFFFFFFFFFFFFFFFFFFFFFFFFF0E
:10030000B0B586B000AF404C072221001023F8188A
:1003100004F0F4FF2100083107220823F81804F044
:10032000EDFF0023BB80394B1B78002B07D0002446
:10033000364B1C70002002F0DDFB354B1C60344B4B
:100340001B68042B0AD89A0032498A589746013311
:100350002F4A13600022002148203DE001332C4A3F
:10036000136000220021012036E00133284A136087
:1003700007221023F9185B202EE00133244A136072
:1003800007220823F9185B2026E0234B1B68002B6B
:1003900003DC02F03BF8204B18601F4B1B68002B5E
:1003A00007DC1B4A1368013313600022002101207F
:1003B00012E0E72B03DDE83B174A136006E000225A
:1003C000154B1A60124A136801331360124B1B88D5
:1003D000BB800222391D4620951C13000933DB081F
:1003E000DB006C46E31A9D466C4620700023637068
:1003F000002902D0A01C04F081FF2100280000F099
:10040000C3FEBD4606B0B0BDF054000000000010B1
:10041000CC000010DC540000D000001070B584B097
:10042000060000F015FA050083691B0703D40121BB
:10043000082000F067FA0023039303AB0093002326
:1004400000220021032003F0AFFA039B002B00D110
:1004500000BE002800D100BE224804F05FFC039BD0
:10046000C41A6A89AB891B04134303D0002C0FDB29
:100470009C420DDAAD8801F0C9FF68430130844227
:1004800002DD012D00DD013D280001F085F80DE0C1
:10049000002C04DA0121902000F034FA04E001215C
:1004A0008420800000F02EFA01F0A2F800F0A8FEEF
:1004B000002E03D10021052000F0AAFE00F0B0FEBE
:1004C0000290012102A802F013F8012804D00121B2
:1004D0008820400000F016FA029B18B201F016F9CD
:1004E00004B070BD0040054010B586B0012802D0B0
:1004F000032804D00EE00020FFF790FF0AE000F090
:10050000ABF9002806D00121042000F0FBF90020FF
:10051000FFF784FF0024204B1B78002B21D0002202
:100520001D4B1A701D4908004430443202F012FD80
:1005300000280ED1012414E002AB1B78042B08D153
:1005400001A91648443002F03DFD0100019800F079
:100550001BFE02A91148443002F032FC0028EBD106
:1005600001240F4B1B78002B07D000220C4B1A7074
:1005700002F09AFAFFF7C4FE012401F053F80028B4
:1005800002D00120FFF74AFF01F0A4F80028C2D0F2
:10059000200006B010BDC046D4000010300100108D
:1005A000D500001010B500F02BF910BDF0B547468E
:1005B00080B4804600F050F9060000F061F90500B3
:1005C00000F078F90400002E03D1002D01D100289D
:1005D0000FD0012004F0D0FA04F030FB20270740B0
:1005E000002004F0C9FA002F03D00121802000F080
:1005F00089F900F06BF90700FFF7D4FF01211348D8
:1006000004F0D0F802F040FA012001F03BF8002E8F
:1006100006D0012004F0BAFA380004F01FFB11E004
:10062000002D01D1002C03D0380004F017FB09E0A5
:100630004346002B03D0FA20C00003F0C3FF04F0B0
:100640008FFAFEE704BC9046F0BDC0460040034070
:1006500010B500F0B9F900F07DFD0122074B1A70CA
:10066000FFF74EFE00F0F8F8002805D00122044BF9
:100670001A60012004F0D0FB10BDC046000000103D
:1006800000E100E010B50021022000F0C1FD02F001
:1006900017FA00F073FFFFF7DBFF10BD10B5012064
:1006A00004F0C4FB00F0D8F8002806D00121042093
:1006B00000F028F9012000F06FFF10BD10B50028F0
:1006C00003D0142000F0DEFF02E0012000F0DAFF8A
:1006D00010BDC04610B50122024B1A70142000F064
:1006E000D1FF10BDD400001010B50122024B1A70CA
:1006F000142000F0C7FF10BDD500001030B50C4C21
:10070000A54415000B4B994200D000BE0A4C2300B3
:100710006A460100094804F049F823002A00210034
:10072000684603F08FFDC000054B9D4430BDC046B8
:10073000FCFBFFFFED1F0000FE0300000040034034
:100740000404000010B50731CB17072423405918C3
:10075000C910054C230003F0CDFDA04201D1034890
:1007600000E0002010BDC046FE030000ED1F0000A9
:1007700070B5FFF787FF04F0CFF90400022C03D017
:10078000FF2C03D0002002E0012000E0012000F057
:1007900079FFFF2C03D0022C03D1012502E00125B3
:1007A00000E000252000FFF79FFE002800D0002574
:1007B0002800FFF7FBFE04F0DFFCFFF763FF0324D4
:1007C000DCE7C04610B5074803F0C6FE04F0D4FCD1
:1007D000A023DB055B68002BFAD0FFF791FCFFF745
:1007E000C7FFC04680841E000233002001229A42C7
:1007F0004041C0B2012B02D9019B009A1A60704798
:1008000000B589B000F072FF01F0C4FD02F0D0FF26
:1008100020236A4604210C4803F0C8FF20226946C1
:100820000A4804F07BFD002805D02023074A042154
:10083000054803F0EFFF012200210448203004F0B6
:10084000AFF909B000BDC046004003408C01001064
:10085000004870478C010010084B9B691E22134012
:10086000981E42425041C0B2022B05D1034B9B88D7
:100870009BB2002B00D100BE7047C0468C01001017
:100880000B4B9B690C221A4205D0094B9B69DB0676
:1008900003D5002002E0002000E00120002805D060
:1008A000034B9B889BB2002B00D100BE7047C04613
:1008B0008C010010044B986980235B001840431E94
:1008C0009841C0B27047C0468C010010034B9B6931
:1008D00080201840431E9841C0B270478C01001020
:1008E000074B5B8A1BB2834201DD054B5882044BE8
:1008F0009B8A1BB2984201DD014B98827047C0462B
:100900008C01001070B582B005001B4B9B6906007E
:100910009E430E23334203D001201233164AD05493
:10092000002900D0350000241BE0EB0716D5631F1B
:10093000DBB2012B0AD800230193042201A9200075
:1009400002F06EFF002809D100BE07E0002200215E
:10095000200002F065FF002800D100BE0134E4B29F
:100960006D08002DE1D1044A93693343936130004F
:1009700000F03EFF02B070BD8C01001010B50028E1
:1009800005D1202200210D4804F0C0FC08E00B4CEA
:1009900012220100200004F0B1FC0023A361E361F6
:1009A000064B074A5A82074A9A82012002F0CCFE7F
:1009B00001210120FFF7A6FF10BDC0468C010010E9
:1009C000FF7F00000080FFFF30B583B0042301AA41
:1009D0000021294803F0EAFE284B1B68019A9A423D
:1009E0001BD0254C0423254A0021200003F012FFD0
:1009F000202300220421200003F014FF01F002FC58
:100A0000002001F013FD0020FFF7B8FF0021202394
:100A10001B4AD1540125002422E0194C2023220036
:100A20000421154803F0C2FE01F0ECFB002002F0A7
:100A30008BFE200020300122002104F0D5F8FFF7C2
:100A40001FFF002807D020230D4AD35C002B05D0C0
:100A50000125012404E00125012401E09125012460
:100A600007481C3000F03CFE01212800FFF74AFF38
:100A7000200003B030BDC046004003400400001019
:100A80008C01001070B515001C00012800D000BEBC
:100A9000080001F095FD002805D02900200001F094
:100AA000FBFD400000E0002070BDC04670B50400B2
:100AB000042922D11378012B21D15378002B20D186
:100AC000114D2B6013782B7153786B719178D3781B
:100AD0001B020B43EB8010789378D17809021943FD
:100AE0002B000833E822FFF7CDFF010008312A0070
:100AF000200002F00FFB002004E0044802E004485C
:100B000000E0044870BDC046B00100100D000100B7
:100B10000E00010010000100F8B5050014000729BF
:100B200036D1127863781B0213431A4A1380A078D7
:100B3000E2781202024323791B0413431A006379FB
:100B40001B06134300D1144B124E1A04120C728070
:100B50001B0CB380A379B371104802F053FE070059
:100B6000237860780002184332000121494202F0E4
:100B7000B7FE380002F046FE3188227863781B0207
:100B8000134333803200280002F0C4FA002000E052
:100B90000348F8BDB0010010FFFF7F00A50B000067
:100BA0000D000100F0B54F464646C0B483B0019237
:100BB0000B9C002C00D100BE9A1C02D05A1C0BD0FA
:100BC00016E05B4B1C6000225A4B1A60E2712272E5
:100BD0000932594B1A80A2E00022554B1A60554B3E
:100BE0001A60554B19782170597861701A8096E017
:100BF0004F4A1568002D00D100BE4F4A1288944616
:100C0000013A92B2ED267600B24200D900BE002928
:100C100001DA00220192A678E7783F023A003243D7
:100C20002679360416433700667936063E43B046C9
:100C30003200C240D20772D53E4F3A6801323A6064
:100C40002778667836023743BA4268DDA279914642
:100C50000127174001D1002200E002224E46B607CC
:100C600000D504324E46760700D501324E4636078F
:100C700004D5019E002E01D0B1464A446244DC26D0
:100C8000FF36B24241DCE679227A12023243013267
:100C900092B2E271120A2272002F08D06246AB545F
:100CA00001321B0AAB5463460233234A1380A379F3
:100CB0009B0711D5204E32880A9BAB54531C0A9FC8
:100CC0003F0AEF54931C0A9F3F0CEF54D71C0A9B1A
:100CD0001B0EEB5504323280A3795B0704D5164A0C
:100CE0001388E85401331380A3791B0717D5019BA0
:100CF000002B14D0104E3288AA181D000F4803F0A4
:100D000055FD33885D19358009E0802346461E4332
:100D1000A670320AE270320C2271360E667106201D
:100D20002056C043C00F03B00CBC90469946F0BD9E
:100D3000E0000010D8000010D60000100040034072
:100D400010B582B004000B4B0193FFF785FD00281E
:100D50000DD001210420FFF7D5FD012000F01CFC7F
:100D60000023019301AA0421200002F0D3F9019885
:100D700002B010BD0F00010010B582B004000129BF
:100D80000ED11078831EDBB2052B0BD800F040FA91
:100D9000019001AA0421200002F0BCF9002002E029
:100DA000024800E0024802B010BDC0460D0001003C
:100DB0000E00010030B583B005001400122954D193
:100DC000107853781B0203431A00A17809040B0022
:100DD0001343E1780906194300D10131244803F097
:100DE000A9FF00F005FC0023019301AA04212800BB
:100DF00002F090F9012001F019FB00F079FC2000CD
:100E0000FFF7BCFD227963791B0213432BD001212C
:100E10000220FFF777FDA079E27912020243237ADC
:100E20001B0413431A00637A1B061343013306D1D4
:100E30000122104B1A60012003F0EEFF13E00121A4
:100E40000420FFF75FFDA179E3791B020B431A0031
:100E5000207A000403001343607A0006184300D18F
:100E6000012000F099FB002000E0034803B030BDF2
:100E70000040054000E100E00D00010070B58EB0BB
:100E80000600FFF7E5FC050004AC28220021200045
:100E900004F03CFA2B686360AB882381EA882B89D5
:100EA0001B0413431A2169441A04120C0A801B0CF8
:100EB0004B806A89AB891B0413431E2169441A04C1
:100EC000120C0A801B0C4B800E22AB5E6382102238
:100ED000AB5EA3821222AB5EE3821422AB5E23835D
:100EE000AB69E36101F092FA60830023039303ABE3
:100EF0000093002300220021032002F055FD039BF4
:100F00002362064803F00AFF6062220028213000B5
:100F100002F000F900200EB070BDC0460040054050
:100F200070B506001400022920D1114D00232B605A
:100F3000127863781B021343AB80E81D0322002163
:100F400004F0E4F923786178090219432B000A338D
:100F5000E8220120FFF796FDC30F1B185B10AB7151
:100F600001000A312A00300002F0D4F8014870BDB7
:100F7000B00100100D000100F0B585B006000C00B6
:100F8000684B1D780B78022B0AD1102800D000BEC8
:100F90003200210064485C3004F0B0F901250BE018
:100FA0000A2B09D10A2800D000BE320021005E4879
:100FB0006C3004F0A3F901255A4B1B78002B00D1AB
:100FC000ADE00022574B1A70002380229200564950
:100FD00078315648783001F0AFFD2378482B00D0A7
:100FE00082E001A9473B0B71514B01934F48783088
:100FF00001F0DEFD00280CD010224B495C314B483B
:10100000783001F0E7FD002803D04848783001F03F
:101010000FFE012201AB1A71464B0193684600F0A6
:101020009BF90700009B002B12DD01A93F48783097
:1010300001F0ACFD00280BD0009A39003B48783015
:1010400001F0C8FD002803D03848783001F0F0FDE9
:10105000684600F0D5F90700009B002B12DD01A9BE
:101060003248783001F092FD00280BD0009A390008
:101070002E48783001F0AEFD002803D02B487830A0
:1010800001F0D6FD684600F025FA0700009B002B12
:1010900012DD01A92548783001F078FD00280BD039
:1010A000009A39002148783001F094FD002803D0DF
:1010B0001E48783001F0BCFD01A901230B711E4BC5
:1010C00001931A48783001F073FD00280CD00A22F1
:1010D00015496C311548783001F07CFD002803D0AB
:1010E0001248783001F0A4FD01A900230B71124BC6
:1010F00001930E48783001F05BFD00280BD03200E0
:1011000021000A48783001F065FD002803D0074827
:10111000783001F08DFD0548783001F0A5FD2800FC
:1011200005B0F0BDDC0000103003001030050010E9
:1011300040000010540000100055000010B50B28AE
:1011400005D1FFF79DFB01235840C0B200E001200C
:1011500010BDC04610B582B001F0C4FF094801F0CF
:10116000D3FF01AC002363700233237021000220FF
:1011700002F04CFA0A2323702100022002F046FA02
:1011800002B010BD790F000010B50122024B1A7099
:1011900002F03CFA10BDC046DC00001000B583B080
:1011A000002801D0002300E0054B00936B46998096
:1011B0006A460621502001F0ADFF03B000BDC046D5
:1011C0000E00010010B5022900D000BE09498A4274
:1011D00000DA0A0008498A4200DD0A0007490A606D
:1011E000002B06D011B20132501E8241D0B2FFF75F
:1011F000D5FF10BD70FEFFFF520300005800001025
:10120000014A024B1A607047530300005800001057
:1012100010B50B000022022100F030FB10BDC046CB
:1012200010B50021034803F049FEC305F9D4024B71
:10123000186810BD000006405800001070B504008A
:101240000E0015000120801A0818202104F05EF815
:10125000302333700CE00A21200004F0C9F830314B
:101260003170013E0A21200004F0C2F80400013D63
:10127000002D01DD002CEEDC70BDC046F8B5050088
:101280000C00002802DA4542002700E001270A216D
:10129000280004F0ADF8080001222100FFF7CEFF7E
:1012A000631E2E221A70A61E0A21280004F0A0F840
:1012B00003223100FFF7C2FF002F02D1043C2D238F
:1012C0002370F8BDF0B583B00400009101921D00B9
:1012D000B3281BDD194B984206DC3C2104F088F84A
:1012E00004000727164E13E0164B984207DCE12155
:1012F000090104F07DF804000527134E08E01349A6
:1013000004F076F804000427114E01E00727114E7F
:10131000089B9F4200DD1F00089A2021280003F04F
:10132000F5FF3A003100280003F0E8FF019A009928
:101330002000FFF783FF03B0F0BDC0462F2A000056
:10134000905700007FF403000C550000805101000D
:101350000455000098570000F0B585B00700FFF76E
:1013600077FA042400E0013C002C03D08369E340B9
:10137000DB07F8D501F04AF806001E4D2E220021A9
:10138000280003F0C3FFA3001B4A9958280003F06C
:10139000E3FF032C02D0042C20D025E0002303938C
:1013A00003AB0093002300220021032002F0FCFA8B
:1013B000124803F0B3FC039BC01A0E4C23001033F9
:1013C00021000E3107220092043AFFF77BFF210033
:1013D0001D3105223000FFF731FF05E005220549E8
:1013E0000D313000FFF72AFF2E233B60014805B086
:1013F000F0BDC046D4050010345700000040054041
:10140000F0B5474680B484B00700FFF721FA804664
:101410000024039403AB0093002300220021032047
:1014200002F0C2FA294E3036A122520000213000CB
:1014300003F06CFF3C6005343FE025000123A3402E
:1014400042469269134236D03B68002B02DD731E80
:101450000A221A70039B029302AB0093002300221E
:101460000021200002F0A0FAAD00194BE95830002D
:1014700003F072FF052C0CD1029B039A981A3100DD
:10148000243107230093330026330322FFF71AFF8A
:101490000DE0062C0BD1029B039A981A07230093A8
:1014A00033002533032231002331FFF70BFF2E36A3
:1014B0003B682E333B600134E4B20B2CBDD90348AA
:1014C000303004B004BC9046F0BDC046D4050010D6
:1014D0003457000070B50600FFF7BAF904003B224C
:1014E00000211748743003F011FF1223E25E14212B
:1014F000635E9A4212DA124D28007430114903F0EB
:101500002BFF1223E05E29009D31FFF7B7FE142365
:10151000E05E2900AD31FFF7B1FE04E00A4908485A
:10152000743003F019FFFFF77BFE05490C0074349B
:101530008D31FFF7A3FE3B233360200070BDC04612
:10154000D4060010145500005055000070B5094D28
:10155000280003F00FFC04000100280003F018FC31
:10156000E30706D50121280003F0CAFB0122024B44
:101570001A7070BD00400540E500001010B5012153
:10158000034803F0E9FB8022D201024B1A6010BD30
:101590000040054000E100E070B505000021114861
:1015A00003F0A0FB0022104B1A70002D00DC012577
:1015B0000C4C0321200003F095FB2900200003F0D0
:1015C0009FFB80256D01280003F026FC280003F016
:1015D0002DFC8022D201054B1A600121200003F06E
:1015E000BBFB70BD00400540E500001000E100E0DD
:1015F00010B5094C0021200003F074FB8021C901C3
:101600008023064AD1500021200003F0A5FB0022D0
:10161000034B1A7010BDC0460040054000E100E0D9
:10162000E5000010014B1878C0B27047E5000010CB
:1016300010B5084843680122934343608024640244
:1016400080230549CC50026003F00AFC0022034BC2
:101650001A7010BD00C0004000E100E0E40000107E
:1016600010B5064B1B68DB0706D50124034B1C6035
:10167000FFF7DEFF024B1C7010BDC04600C00040EB
:10168000E400001010B50400802149000E4803F06A
:10169000E1FBFFF7CDFF02F06BFF002C02DD4443BE
:1016A000640B01E0C40C0134074B084ADA609C610A
:1016B00059690122114359618020400204490860A0
:1016C00059680A435A6010BD00C00040FF1F000067
:1016D00000E100E0014B1878C0B27047E400001050
:1016E000014B18607047C046E80000107047C046C4
:1016F000054B1A68002A05D0137801218B4301316C
:101700008B4313707047C046E800001010B586B0D8
:101710000400334B984261D0FFF7E2F8FFF798F8E6
:101720000E22835E1021425E934257DA9C420DDA0C
:101730002C4C23681B78012119404020FFF7E2F868
:101740002268117801230B43137047E0944210DDA7
:10175000244C23681B78022119404B1E9941C9B2C1
:101760002020FFF7CFF82268117802230B43137073
:1017700034E01C4B1B681B78DA0703D49B0703D4A7
:10178000172002E0062000E0052016281ED80123BD
:101790005B4204930F226A4400231370009304A950
:1017A00002F010F9049B002B10DB0F236B441B7815
:1017B000002B0BD00C4803F0B1FA05900F236B44BB
:1017C0001B7805AA0499094803F024F8054B1A6808
:1017D000137801218B4301318B43137006B010BD88
:1017E00053030000E80000100040054000400340A3
:1017F0007047C04610B50400074B4B431800074B19
:101800009C466044064903F0F3FD022C02D10A21F4
:1018100003F072FB10BDC0463E08000050000400FB
:101820004D08000070B5104C200003F061FB010072
:101830000E4E3378D8B2FFF7DDFF05008021890313
:1018400080230B4AD150200003F016FB200003F048
:1018500029FB3178C9B2074B1B682A00FFF7B2FC9D
:101860000022054B1A7070BD00000640EC0000100D
:1018700000E100E0F0000010ED000010F0B583B0D2
:1018800001900E0015001F00214B1B78002B38D152
:1018900001221F4B1A701F4C200003F055FB0199C9
:1018A000200003F0F5FA002D0BD11B4B1E701B4BD3
:1018B0001F600121200003F063FB80229203184B7C
:1018C0001A60144803F0F4FA002D1DD000211148CD
:1018D00003F0F4FA8305F9D50E4D280003F008FB58
:1018E00001003000FFF786FF040080218903802378
:1018F0000B4AD150280003F0BFFA0022044B1A70A3
:1019000003E00124644200E00024200003B0F0BDA5
:10191000ED00001000000640EC000010F000001088
:1019200000E100E0054B00221A605A601A72013A89
:101930001A61DA605A619A617047C04684070010E4
:10194000F0B5474680B4884601249440E4B2013C97
:10195000E1B28C46072A00D900BE002B02DC00BE93
:10196000002600E0002641468F193C78944025006F
:10197000047861460C402C4304700136F400A51A2B
:10198000AB4205DD3D780827BF1A3D414570013067
:10199000A342E8DCD318D917490F5B18072213407C
:1019A0005B1AF8329A40D3B2DB43DBB2002B02D091
:1019B00002781340037004BC9046F0BDF0B5574662
:1019C0004E464546E0B48A460824A11A8C460127B3
:1019D0008F40013FF9B28946072A00D900BE002B8B
:1019E00002DC00BE002500E0002551464C5D14419C
:1019F000E4B204700135EE00B71ABB4209DD4F5D59
:101A000061468F4049460C403C430470B34200DDC0
:101A10000130B342E9DCDA17520F9B1807210B4063
:101A20009B1AFF229A40D3B2DB43DBB2002B02D0D9
:101A30000278134003701CBC90469946A246F0BD44
:101A400010B50100164BDB691B685B031B0F082BED
:101A500023DC9A00D2185200D3181333DC17072264
:101A600010002040C018C010640F1B1913401A1B2F
:101A70000B4C2300203318180B23FFF761FFE1699B
:101A800008684203120F01320F231340DA03054B9B
:101A9000034013430B60012000E0002010BDC0464E
:101AA00084070010FF7FF8FF70B504000800134B97
:101AB000DB691B685B031B0FA34214DDA3001B192A
:101AC0005B001B191333DE17072211003140C918C0
:101AD000CD10710F5B1813405A1A0849203149196B
:101AE0000B23FFF76BFF054BDB691B685B031B0FC9
:101AF00001209C4200DB0020C0B270BD84070010B2
:101B000010B5074B1C680B21200003F071FC002965
:101B100000D000BE0B21200003F06AFC10BDC046BF
:101B20008407001010B50021002012E00B4B1A6B47
:101B300092018A18147853781B022343084A94466A
:101B400060442F33DA171F242240D3185B119B0007
:101B5000C918024B5B689942E8DB10BD840700108E
:101B6000E702000010B5124BDB691C886404640CAA
:101B7000002C04DC1A685203120F002A0FDD1B68C8
:101B80005B031B0F092B0CDC0B21200003F030FC46
:101B9000002908D1074B9C4207DD002006E0002009
:101BA00004E0002002E0002000E0012010BDC0465B
:101BB0008407001096470000154B02689A4212D124
:101BC000144B82689A4210D14368134A13420ED1D3
:101BD000002B0ED0114A126B92019B18104A9342AF
:101BE00009D9002308E0002306E0002304E00023D5
:101BF00002E0012300E00123002B06D0002904DBD2
:101C00004368CB1A5A425A41D3B218007047C046B3
:101C1000FFFF0000FFFFFF7F0380FFFF840700102E
:101C2000FF77000030B583B0040005880B21280041
:101C300003F0E1FB89B2002904D1274B9D4203D96F
:101C4000002002E0002000E00120002842D0042310
:101C50006A462249224802F0A9FD6B461B88DB43F5
:101C60009BB26A4613805288D24392B269464A8038
:101C700021888B4204D163889A4203D0002002E07D
:101C8000002000E00120002824D1042301AAA8217B
:101C9000C900134802F08AFD019B002B11D16B464D
:101CA0001A88104B9A420ED16B465A880D4B9A42B5
:101CB0000BD12388002B0AD16388002B09D0002088
:101CC00008E0002006E0002004E0002002E0002000
:101CD00000E0012003B030BD964700007C0E0000FC
:101CE00000400340FFFF000070B590B0184E3388ED
:101CF0000FAD2B80B3886B80164C04232A00164945
:101D0000200002F087FD2B88DB430EAA13806B882E
:101D1000DB43538004231149200002F07BFD33682C
:101D2000D917C905C90DC91849128901A823DB00B3
:101D30009C46614438236A46200002F037FD382370
:101D40006A46E4210901200002F064FD10B070BD74
:101D50008407001000400340780E00007C0E000055
:101D6000F8B500AF0C00160007250540C108A823F0
:101D7000DB009C466144002C00D100BE002E00DC3C
:101D800000BEAA190732D317072003409B18DB10A7
:101D9000DA1DD208D2006846821A9546054802F03C
:101DA00005FD33002A0069462000FFF707FEBD4607
:101DB000F8BDC04600400340F0B5574680B482B03D
:101DC00000AF79609246C317590F4218072422408A
:101DD000561A1C402418E410A823DB009C466444D7
:101DE000002800DA00BE7B68002B00D100BE5346FD
:101DF000002B00DC00BE5346F3180733DA17072127
:101E00000A40D318DD10EB1DDB08DB006A46D31A4D
:101E10009D4601236A462100094802F0C7FC53464B
:101E2000320079686846FFF78BFD2B006A46210077
:101E3000034802F0EFFCBD4602B004BC9246F0BD80
:101E40000040034000B585B0064B0193064B5A682D
:101E50000292064A03921868602201A9FFF7ACFFBC
:101E600005B000BDFFFF000084070010FFFFFF7FEB
:101E7000F0B585B00190284C002502AB9E1D0223D1
:101E800032002100254802F091FC3288244B9A420E
:101E900031D102AB9E1D02233200210008391F48B8
:101EA00002F084FC33885A1C1A4206D023E0591EE3
:101EB0000B4002A9CB80013200E0002202AB0633C6
:101EC0001B88002BF3D1174BE718FF00D219103AEB
:101ED00017000B21100003F08EFA00290BD16022AD
:101EE000019D29003800FFF73BFF012149422800EE
:101EF000FFF762FE0500023C002D02D10A4B9C4216
:101F0000BBD8002D05D10C220021019803F0FEF969
:101F10000027380005B0F0BD330E0000004003403C
:101F2000FFFF0000B8FAFF1F47050000F8B50D00DD
:101F3000C7170F2427403F183F118318013BD917BB
:101F40002140C91809110B00002800DC00BE002D3B
:101F500000D100BE002A00DC00BE1D2B00D900BE4F
:101F600086019401380002F0BFFC002807D172B648
:101F7000002322003100280002F0F8FC62B600289D
:101F800011D12B6803E004350436043C2B6801337F
:101F900001D1002CF7D172B60023220031002800B5
:101FA00002F0FCFC62B643425841C0B2F8BDC046E4
:101FB000F0B585B0514B196BE023FF33994200DD3A
:101FC00096E04E48E13BFF3B83614368DA173F26CA
:101FD00034001440E418A4110C19910E5B1833401E
:101FE0005E1A343005003200FF2103F08FF9AD197D
:101FF000AE1C32004249A820C000FEF77FFB421E03
:10200000404B9A4207D9404B3200A821C9003F48B3
:1020100002F0CCFB3A48C31DDA1707210A40D21858
:10202000D210287003126B700232AA1802E0FF234C
:10203000137001321500314B3433D11A8906F6D1B1
:102040002E4A56682F30C2171F210A40101840111F
:1020500080003618B20700D000BE284A126B9201E9
:10206000B218013A2A498A4210D83F21CB1A5B198B
:10207000DA170A40D3189A11002A00DC00BE1F4963
:1020800034312000FFF752FF040000E00024002C50
:1020900030D01A4B1D6800221A601B7A022B17D110
:1020A000164BDB681B4A93420BDC144F03233B7235
:1020B000FFF738FD184B9C46604438617B68FB6035
:1020C00006E00F4A934200D000BE00220B4BDA60BC
:1020D0000A4B5E60FFF708FE0C22002101A803F006
:1020E00015F9602201A92800FFF766FE200002E032
:1020F000002000E0200005B0F0BDC04684070010BD
:10210000ED1F0000EB1F0000FE0300000040034035
:10211000FF770000EC1F000019FDFFFFF8B5070076
:102120000E00002416E0FFF7EBFC104B984201D1A3
:10213000FFF73EFFFFF7E4FC0D4B98420CDC61001B
:1021400079180C4D0B222868FFF736FE2B680B33ED
:102150002B600134B442E6DB07490878E217131B11
:10216000DB0F03430B702000F8BDC046E702000000
:102170008106000084070010F400001070B505000F
:102180001C4B186B800140190378447824021C43CF
:10219000194B9C422AD0174B9B699D4207D12F3483
:1021A000E3171F20184000194011800021E0134B55
:1021B0009C4208D1811C124A0E48343003F09EF82C
:1021C0008020C00015E002300A4A34322100FEF7B8
:1021D000B9FA0A4B98420BD1064B9D612F34E31795
:1021E0001F20184000194011800002E0002000E08C
:1021F000002070BD84070010FFFF0000ED1F0000ED
:10220000FE030000F0B593B05B4A5C4B9B1A013BA8
:102210005B4A40329B18DA173F210A40D3189B11C2
:10222000584C2363FFF77EFB250020350422012153
:10223000280002F0D9FCE561FFF794FC04000423B8
:1022400011AA5149514802F0B1FA11A8FFF7EAFC6E
:102250000500002C14D04B4BDB6918884004400C5F
:1022600060220EA9FFF77CFD002D02D011AB59882A
:1022700001E0012149420EA8FFF79EFC040000E0A6
:102280000024002C15D1002D13D03E4BDA6911AC7F
:1022900020884004400C1388DB0BDB0303431380CE
:1022A00060220EA9FFF75CFD61880EA8FFF784FC91
:1022B0000400002C11D1334CE6690EA8FFF7D8FDBD
:1022C0004004430C3088C00BC00318433080E369DE
:1022D0001C886404601E8441E4B2002C08D0294AA2
:1022E000D3691B885B045B0C13600F9B536035E064
:1022F000002D2AD011AB1E88224B1E60760AB60133
:10230000224F38236A46E4210901380002F04EFAD0
:10231000A823DB00F11838236A46380002F07AFA65
:1023200032003832D20002E00B3B16490B60154BED
:102330001B689A42F8DB11AB5A88124B5A60DA6973
:10234000134B11680B40136008E00E4B00221A601B
:102350005A60DA690E4B11680B401360002C01D1F2
:10236000FFF770FD002D01D1FFF7BEFC01210748EA
:1023700002F018FA13B0F0BD000000101058000071
:10238000CC00001084070010780E000000400340CD
:10239000FF7FF8FF10B582B0184B1B78002B01D0DF
:1023A000FFF750FD01AC042322001549154802F047
:1023B000FDF92000FFF736FC134B1B6822889B1A9F
:1023C000002803D0002B01DB622B01DDFFF78CFC22
:1023D00001210C4802F0E6F90B48C16903685B046F
:1023E0005A0C0B88DB0BDB0313430B8020300422D9
:1023F000012102F0D5FB02B010BDC046F400001070
:10240000780E0000004003408407001010B5064B12
:10241000DB691C686403240FFFF772FB2418FFF7C5
:1024200081FB201810BDC0468407001030B585B070
:1024300005002A4CE2692A4B11680B4013600C22FC
:10244000002101A802F062FF2068602201A9FFF7C5
:10245000B3FC042300222349234802F0E3F9002DB2
:1024600038D01E4B186BE023FF33984232DC8301D7
:1024700000E004331D4A934202D81A680132F8D0B2
:102480001A4A934226D800091D2102F02DFA00288D
:102490001DD1124B1B6B1C000F34240921019942E2
:1024A00009D972B601390022180002F049FA62B661
:1024B000002800D000BE1D2C09D872B600221D21B4
:1024C000200002F027FA62B6002800D000BE0028E3
:1024D00000D000BEFFF726FA05B030BD840700101B
:1024E000FF7FF8FF780E000000400340FC770000FB
:1024F000F0B54F464646C0B487B0071E884652D155
:1025000000BE002650E075007D192800FFF798FAFC
:10251000002803D0013647E0013400E000246100C8
:1025200001AB9C4661442000FFF7BEFA0028F3D1BE
:10253000092C00D000BE0023EA5E01A863001A52F5
:1025400001342100FFF7EAFD814600282ED0013634
:10255000194BDA69194B11680B401360050006E04E
:10256000680001AB9C466044FFF76AFA0135A5425A
:10257000F6DB114B1B7A012B16D10F4BDB6899450B
:1025800004DC4A469B1A0C4AD3600DE00A49022239
:102590000A724A46D31A0B22524253430A6894469F
:1025A0006344CB6000E000264645ACDB300007B05A
:1025B0000CBC90469946F0BD84070010FF7FF8FFE1
:1025C00070B50500324B00221A72013A1A61DA60C6
:1025D00000285ADB0021002416001FE02C4B1A6B48
:1025E00092018A18107853781B020343294AA018D5
:1025F0002F33DA171F263240D3185B119B00CB18FC
:102600009A0700D000BE26000A00AC4204DC8542D6
:1026100009DB1900040001E0190004001C4B5B6891
:102620009942DBDB02E00A0026000400AE4207DC30
:10263000AC4205DD164B032119721E61DA601EE003
:102640002B1B9A00D2185200D318114A12689342D9
:1026500005DA0F4A022111721561D3600FE0FFF70E
:102660004FFA24182C1B0A4BDB691B685B031B0FFA
:102670009C4204DA064B01221A721D61DC60044B95
:102680005D611869C043C00F00E0002070BDC04606
:1026900084070010E7020000F0B5474680B405004B
:1026A0000E00002800D100BE594B1B69002B00DA38
:1026B0009CE0574B1B7A032B56D1554BD868FFF73C
:1026C0005DFD804600243AE0591A8B005B185B00E0
:1026D0005B18D817072211000140C918C910400F14
:1026E0001B1813401A1A6000494F3B003433591825
:1026F00028180B23FFF762F901347B6901337B61F2
:10270000B44206DA42480169424BCA1843699A4208
:10271000DADC3F4A13693F498C466344526993426D
:1027200008DC3B4AD1684144D1608A0700D000BE32
:10273000374A1361364BD868FFF720FD8046434681
:10274000002B06D0B44204DA314BDA685B689A4257
:10275000D6DB2F4BDA685B689A4206DB2C4B0222F1
:102760001A720022DA6000E00024294B1B7A022B47
:1027700021D10FE0610069180B22FFF7F1FA013453
:10278000234B1A6901321A61DA680B32DA605A692E
:1027900001325A61B44204DA1D4BD8681B68984272
:1027A000E8DB1B4BDA681B689A4204DB184B0122FA
:1027B0001A720022DA60164B1B7A012B17D10AE03D
:1027C0000134134B1A6901321A61DA680132DA6096
:1027D0005A6901325A61B44209DA610069180C4B36
:1027E000D868FFF761F90028EAD100E00024002151
:1027F00008E04A00AA180020135E5B011BB25B11BF
:10280000138001318C42F4DC200004BC9046F0BD02
:1028100084070010E702000010B5FC235B00114A9A
:1028200001E001320B00591E002B02D01478032C5A
:10283000F7D1023B00290ED0911C54780460FF2C84
:102840000BD1012B0BDD93781B020360D1780B4376
:102850000360101D04E0002002E0080000E00020FA
:1028600010BDC0460881054010B50023074A13700B
:10287000074A1360074C0221200002F011F9A12140
:102880004900200002F0DAF810BDC046F500001043
:10289000FC00001000800540F0B54F4680B482B0C7
:1028A000060089460092019308AB10CB1B780028E4
:1028B00002D00268002A00D100BE4A461779002BD8
:1028C00004D0106802F06AFD050000E000252A1916
:1028D00001237B40DBB25900CB18D21871688C46BB
:1028E0006244802189008A4238DCB1688A4237DC40
:1028F000726032680021F16032617775317DC90103
:102900003F010F4301990F431770012904D1517002
:10291000D41C691C917003E05570D41C0021917087
:10292000E418009B032B06D151332370153B2B4039
:102930006370023408E0009B062B05D14F332370EF
:102940004B461B7A637002344B4619682A002000FC
:1029500002F0D4FC63193360012002E0002000E0A3
:10296000002002B004BC9146F0BDC04610B5054C35
:10297000200002F067F88823184381B2200002F09B
:102980005DF810BD0080054010B5074C200002F036
:1029900059F88823984381B2200002F04FF80122B1
:1029A0005242024B1A6010BD008005400001001029
:1029B00010B5030702D5FFF757FF13E0030611D543
:1029C000094B1968062906D9084802F069F800225F
:1029D000054B1A6006E085214900044802F02EF8F4
:1029E000FDF782FE10BDC046FC00001000800540CF
:1029F00030B583B00400430618D5FFF7C5FF1D4B63
:102A00001B68082294431B041B0C032B10D001A845
:102A1000FFF702FF00280DD0019B9C466044164B37
:102A20009C466044154B1860012504E0002502E037
:102A3000002500E0002523070DD5104B1B6801334E
:102A400009D00E4B1B689B089B000D4A94466344BB
:102A50000C4A12681A6081235B001C4201D12306D4
:102A600001D5FFF791FF002D01D0FDF733FE03B034
:102A700030BDC04608810540007FFABF000100104C
:102A800000810540F800001010B50021044801F055
:102A9000D5FF802189018023024AD15010BDC04654
:102AA0000080054000E100E010B50C220249034817
:102AB00002F024FC10BDC046A05700000081054074
:102AC00010B501225242074B1A60FFF7CDFEFFF707
:102AD000EBFF0549054801F0BDFF80229201044B40
:102AE0001A6010BD00010010FF01000000800540C9
:102AF00000E100E010B501220C4B1A700C4B18607D
:102B0000002811D00B4C0221200001F0C9FF200049
:102B100001F09CFF84210140200001F09BFFC521B2
:102B20004900200001F08AFF10BDC046F5000010EA
:102B3000FC0000100080054070B504000D001E0070
:102B4000002801D0002900D100BEAB0700D000BE94
:102B50000B2A01DD930700D000BEA2600023236191
:102B6000E360A6750C220849280002F0C7FB002E7E
:102B700001D10C2300E00A23ED18013363602560C6
:102B80000123237570BDC046A057000000B583B077
:102B9000002902D00B68002B00D100BE0123019355
:102BA00004330093043B0322FFF776FE03B000BD1D
:102BB00000B583B0002902D00B68002B00D100BE05
:102BC0000123019302330093013B0422FFF764FECB
:102BD00003B000BD70B504001500002804D00368E0
:102BE000002B01D0002900D100BE63685B19802250
:102BF0009200934215DCA268934214DCE268AA18A2
:102C0000607D002801D0FF2A0FDC6360E2602A00AB
:102C1000206802F073FB23689C4665442560012010
:102C200004E0002002E0002000E0002070BDC0466B
:102C3000002805D00368002B02D00369002B00D1C7
:102C400000BE03699A78C1688C466244417D0029C0
:102C500001D09A7005E000219970D9701112197194
:102C60005A71002303757047F0B5474680B4041EBF
:102C700002D00368002B00D100BE6668A37D002B44
:102C800002D035000B3D01E035000D3D032D07DD81
:102C90002369002B00D100BE197840220A431A7024
:102CA0000920801B23689C466044A37D002B11D023
:102CB000FE2D0FDD023680239B009E426EDC00233A
:102CC000A375811C04302A0002F01CFB2368023328
:102CD00023600EE0002B0CD1FE2D0ADC023E0133F6
:102CE000A375011D02302A0002F00CFB2368023B91
:102CF000236023685A1C2260FE221A7023689F1BDF
:102D0000284B1B78002B0AD0012E00DC00BEB31E1E
:102D1000DA1703210A40D3189B10984601E00023DC
:102D20009846B30702D003239E43043627606660AB
:102D30001C4B1B78002B10D11B4B1B6801330CD094
:102D4000194B1B68B34208D2174B1B689B089B00AA
:102D5000FA58164B1A60FFF709FE32003900144882
:102D600002F0CCFA0F4B1B78002B02D04046FFF745
:102D7000C1FEFE2D08DD2A062D02FF231B041D4087
:102D800015430C4B1D4305E00B4B1A680B4B1340CE
:102D90002D021D43084B1D60012000E0002004BCF3
:102DA0009046F0BDF500001000010010F800001082
:102DB0000081054003FF000008810540FF00FFFF80
:102DC000F0B54F464646C0B483B0002804D0002971
:102DD00002D00368002B00D100BE00234B608B6043
:102DE000C36043689C460468002B00D183E0046103
:102DF000227807271740B9460825154010261640A7
:102E000033005F1EBB41DBB2520901273A400A730F
:102E10009A009B1A07336A426A419B1A9C456CDBF5
:102E20006246D31A627890460192002E02D0E61CC8
:102E3000A4780AE0A2781206E678360432432679AE
:102E400036023243A61D64791443002D02D0327835
:102E5000013600E00022A446C444944463454EDB9E
:102E60006746DB1B43604B46012B0CD0002B04D084
:102E7000022B28D0042B30D043E043461343234396
:102E800041D10B7032E0019B012B3ED1771C33788E
:102E9000002D00D0BF18013C542B0ED1513B0B70BC
:102EA0007D1C3B787F221E00964330D13F26334065
:102EB0004D608B60E41AEE1818E0552B29D14F3B7A
:102EC0000B707E1C12E004230B704E6043468B6037
:102ED0004644002D0AD0B61808E005230B704E605A
:102EE00043468B604644002D00D0B6183619066064
:102EF000C46001200EE000200CE000200AE0002069
:102F000008E0002006E0002004E0002002E00020AD
:102F100000E0002003B00CBC90469946F0BDC046CE
:102F200070B584B0041E02D00368002B00D100BE2F
:102F300066682568012005E069462000FFF740FF2C
:102F4000002802D06368002BF6DC6660256004B0C0
:102F500070BDC04670B582B004000E001500002898
:102F600001D0002900D100BEB30700D000BE0B2D58
:102F700001DDAB0700D000BE01A8FFF74DFC002823
:102F800017D0019BC1180E4A914214D89D4214DB00
:102F9000A56026601A1E636007D00100300002F0B1
:102FA000ADF92000FFF7BCFF00E001200023E36043
:102FB00004E0002002E0002000E0002002B070BD2C
:102FC000FF820540002804D0002902D00368002BAE
:102FD00000D100BEC368002B04D00B600368C0683A
:102FE000181A02E000230B6000207047F8B52A4E43
:102FF000300001F02BFD0700300001F01BFD050043
:10300000306AC005C40D3900300001F023FD234BA8
:103010001B78002B02D02000FFF7CAFC1F4B1B7847
:10302000002B02D12000FFF7E3FCBB0727D5FB05EF
:103030001AD510231D400AD0194B1B78002B06D13E
:103040000122174B1A700120FDF738FB23E0002DF9
:1030500021D1134B1B78002B1DD00022104B1A706E
:103060000020FDF72BFB16E00D4B1B78002B12D137
:1030700001220B4B1A700120FDF720FB0BE0FB0532
:1030800009D5074B1B78002B05D00022044B1A7082
:103090000020FDF713FBF8BD00800540F50000108F
:1030A00004010010F8B5069F002F11D0002B11D19C
:1030B00000BE00240FE0E5005D192E78864204D1A1
:1030C0006D68002D01D0A84708E00134E4B202E0A9
:1030D000002400E00024A742EDDC0148F8BDC04612
:1030E00007000100044B054A1360054A1360054AB6
:1030F000136000221A707047C00500101401001000
:103100000801001010010010014B18607047C04604
:103110000C010010F0B55F4656464D464446F0B4EB
:1031200083B000AF04000B0079601100002B00DCBD
:1031300000BE002900D100BE7B689A1C9246150093
:103140001A000933DB08DB006846C31A9D46E846CF
:10315000981C02F0D3F86B461C7001236A4653702A
:10316000374B1B68002B04D069465046984700280F
:103170005DD15346142B5ADC324B19685346013348
:10318000CB18314A1268914610001430834202D99C
:10319000431A9C4601E000239C462C4B1B68994235
:1031A00001D2002415E0142413E01A78FF2A04D178
:1031B000264B4A461A6014240BE001329B18234A1E
:1031C0001360984205D800D000BE143B1F4A13601C
:1031D000142463465A1901328A181C4B1B681E19A5
:1031E000B242E2D26346002B04DDFF230B70154B85
:1031F0004A461A60134D2868534603700130524600
:10320000414602F07BF87C6803342B689C4664449A
:103210002C600D4B1B681A001432944203D300D06B
:1032200000BE084A1360074B1B6800221A70BD4697
:1032300003B03CBC90469946A246AB46F0BDC046A2
:103240000C01001010010010140100100801001002
:1032500010B586B004003E2800D000BE01F052FF39
:103260000100142201A802F049F801AA142120004B
:10327000FFF750FF002006B010BDC04610B584B067
:1032800004000822002102A802F040F80D4B02932E
:103290000C2C00D000BE01F0B5FD03070ED40121B7
:1032A000094801F07FFA00230293084B1B68019341
:1032B000039302AA08212000FFF72CFF029804B014
:1032C00010BDC0460F00010000400340D40F003085
:1032D00010B584B004000B2800D000BE0023039377
:1032E00003AA04212000FFF715FF0822002101A8EE
:1032F00002F00CF801F092F8029001AA08212000D7
:10330000FFF708FF002004B010BDC04610B582B022
:1033100004000A2800D000BE08236A460549064872
:1033200001F044FA6A4608212000FFF7F3FE00206E
:1033300002B010BD9C0F00000040034010B584B0E7
:103340000400092800D000BE684601F097FA6A46DA
:1033500010212000FFF7DEFE002004B010BDC046A3
:1033600070B582B006000023019372B6082800D021
:1033700000BE154D280001F035FBA024E405200017
:1033800001F076FA80231B02E158104A0A40E2500D
:10339000E1580F4A0A40E25002220A21280001F0B7
:1033A00035FB02220B21280001F030FB01AA042189
:1033B0003000FFF7AFFE074B1B78002BFBD162B646
:1033C000002002B070BDC04600400440FFFBFFFF7C
:1033D000FFF7FFFF5C00001070B582B004002529E4
:1033E00018D11679202E12D8157853781B022B434A
:1033F00019009078000403000B43D07800061843AE
:10340000511D320001F07AFF0023019304E0064BC6
:10341000019301E0054B019301AA04212000FFF76D
:1034200079FE002002B070BD0E0001000D00010009
:1034300070B58AB00400002368460371052919D1CC
:103440001379202B13D8037116785078000230437B
:103450009178090401430800D178090601431A0054
:103460006B46581D01F04AFF0023009304E0064B11
:10347000009301E0054B00936A4625212000FFF7E9
:1034800049FE00200AB070BD0E0001000D000100D1
:1034900030B583B0082919D115785178090229432C
:1034A00093781B040B431900D3781B060B43157943
:1034B0005179090229430C00917909042143D279F9
:1034C00012060A431A600023019301E0044B0193A2
:1034D00001AA0421FFF71EFE002003B030BDC04644
:1034E0000D00010030B583B004290FD11578517853
:1034F0000902294393781B040B431900D3781B0658
:103500000B431B6801930023009303E00023019306
:10351000044B00936A460821FFF7FCFD002003B02E
:1035200030BDC0460D00010000B583B0032800D0B7
:1035300000BE0023019301AA0421FFF7EBFDFA204E
:10354000400001F03FF8BFF34F8F034A034BDA60AE
:10355000BFF34F8FFEE7C0460400FA0500ED00E020
:1035600010B584B00400022800D000BE0E22002155
:10357000684601F0CBFE0D4B6A46538013239380BF
:103580000D3BD380053B138101F05CFC0A226A44A9
:1035900003041B0C1380000C50806A460E2120008F
:1035A000FFF7B8FD002004B010BDC046FB070000C7
:1035B00000B583B0012800D000BE114B1B681B78FA
:1035C000FF2B03D10F4B1A680D4B1A600C4B1A6876
:1035D0001178002906D10C4B019301AA0431FFF7A1
:1035E00099FD0AE0507802390332FFF793FD044A4F
:1035F00011680B780133CB181360002003B000BDB5
:1036000008010010140100100B00010070B584B017
:10361000002824D0002925D0012802DC0E78184883
:1036200024E00E78841E8D1C2A0021003000FDF756
:1036300085FD002819D03F2E08D80D230093114B8B
:103640002A0021003000FFF72DFD0FE00723009333
:103650000D4B2A0021003000FFF724FD06E0002674
:10366000074803E00026064800E00848002805D087
:10367000039003AA04213000FFF74CFD04B070BD95
:103680000D00010060000010080000100F00010094
:10369000F0B55F4656464D464446F0B485B00190BD
:1036A0000F0093469A460E9B99460F9B9846244BD3
:1036B0001D68002680240023009332E0052302AA1F
:1036C0002100204801F072F8029B1B0AED1802ABA2
:1036D0001B78BB4220D15B46002B09D002AB1B7983
:1036E000002B01D0631D01E001235B425A461360A9
:1036F0005346002B03D002AB1B79524613704B4646
:10370000002B00D01E604346002B00D01D60019BA3
:10371000002B0BD10133009302AB1B790533E41866
:103720000136074B5B899C42C8DB01E00123009313
:10373000009805B03CBC90469946A246AB46F0BD09
:10374000180100100040034010B5002806D098234F
:10375000DB0000228021114801F064F8104C0C239A
:10376000220010490D4801F021F82368002B09D1EF
:103770000D4801F0D3FA0A4B1860586000221A81F4
:1037800080325A81064B5B89803B9BB2074A934249
:1037900002D98022024B5A8110BDC046004003402E
:1037A000180100103405000000400540B30400007B
:1037B00000B585B00C2301AA0F49104800F0F6FFB0
:1037C0000F4B1B68019A93420AD10D4B5B68029A1A
:1037D000934205D10A4B5A8901AB5B899A4205D0C5
:1037E0000C23074A0449054801F014F80121034855
:1037F00000F0D8FF05B000BD3405000000400340D4
:1038000018010010031E044A106801D0136002E082
:10381000024A014B1A607047C8000010E907000017
:10382000F0B557464E464546E0B484B0040088469D
:103830001700002900D10027254B5B89053301972C
:10384000DB192449DE0F002299425641F6B28B4221
:1038500037DC214801F062FA05000522002102A8A8
:1038600001F054FD02AB1C701F7119484368994662
:10387000E91A048961180902090A0B029A46FF2213
:10388000029B1A40130052461A4302924B46EA1A10
:10389000A3185B1A03814189052302AA0F4800F08F
:1038A000B9FF002F07D00A4B59890531019B4246C9
:1038B0000A4800F0AFFF064B5A89D71905375F81D8
:1038C0005D60300004B01CBC90469946A246F0BD35
:1038D000180100103305000000400540004003407F
:1038E000F0B55F4656464D464446F0B485B0804636
:1038F0008A469346294B1C68019200230093023BA1
:103900000022012149420020A0470700244B1E68E5
:10391000002399460025802425E0052302AA2100E2
:10392000204800F043FF029B1B0AF618454515D3BB
:10393000554513D8194B1F6802AB18781A79002A1D
:1039400001D0611D01E0012149425B4601930096CF
:103950002B00B847070001239C46E14402AB1B79CA
:103960000533E4180135002F03D00D4B5B899C42D1
:10397000D3DB012149425B46019300230093074BAF
:103980001C680B0000220020A047484605B03CBC44
:1039900090469946A246AB46F0BDC046C80000100E
:1039A000180100100040034010B582B0049C01943F
:1039B000009313000A0001000120FFF769FE02B026
:1039C00010BDC04610B582B0049C01940093130052
:1039D0000A0001000020FFF75BFE02B010BDC046E8
:1039E00070B50F2932D80388002B29D1027B4C1ED9
:1039F0000133A3409A422BDB0025002322E0027B07
:103A0000002A10D10688002E24D04488621C92B26D
:103A100042800419647BC472964202D10022428023
:103A20000280802202735B009BB2C47A027B224236
:103A300002D0012423439BB252080273013501E0F6
:103A4000002500238D42DADB180004E0024802E082
:103A5000014800E0004870BDFFFF000010B50121E3
:103A6000FFF7BEFF054B984203D0002803D001208A
:103A700002E0002000E0022010BDC046FFFF000071
:103A800010B504000221FFF7ABFF044B984203D0AE
:103A90000002E080032000E0022010BDFFFF0000D4
:103AA00010B504000821FFF79BFF074B984208D090
:103AB000E388184380B20130E0800023A380052012
:103AC00000E0032010BDC046FFFF000010B5040059
:103AD000FC21FFF785FF044B984203D00002A08031
:103AE000052000E0042010BDFFFF000010B5040019
:103AF0000421FFF775FF064B984206D0A3881843B0
:103B000080B20130A080062000E0052010BDC04634
:103B1000FFFF000010B5086889680B685C1C0C602A
:103B2000C25410BD70B505000C008B681B684A6854
:103B3000934214D20821FFF753FF0B4B984210D049
:103B400029002D31C2B22B89581C28819B059B0D61
:103B5000CA5421002800FFF7DDFF002002E0012009
:103B600000E0012070BDC046FFFF0000F0B55746E1
:103B70004E464546E0B404000F008B681B684A6857
:103B8000D31A2AD082889046934200D898462600BD
:103B90002D36E3889946002514E023894A469B1A6E
:103BA0009B059B0DF35C9A461A0039002000FFF735
:103BB000B1FF23899B059B0D5246F25423890133A3
:103BC00023810135A845E8D8A38842469B1A9BB2B9
:103BD000A380002B03D1002002E0062000E0062095
:103BE0001CBC90469946A246F0BDC04610B50400E4
:103BF0000D308422D200002101F088FB0023A37243
:103C00000022238063802273E272A380E3802381F9
:103C100010BDC04670B504001D0000281AD0002950
:103C20001BD0002B1CD0008820231B1A02D12B6034
:103C3000012017E01E00934200D91600083020181A
:103C40000530320001F05AFB23889B1923802E6037
:103C5000002007E00120404204E00120404201E052
:103C60000120404270BDC046F0B585B00400170089
:103C70001E0000283BD000293CD0002B3DD0002363
:103C80003360019102920396A57A062D38D8AB00D5
:103C90001E4AD3589F462000FFF7E0FEA0721EE0A8
:103CA00001A92000FFF73EFFA07218E02000FFF7F7
:103CB000E7FEA07213E02000FFF7F2FEA0720EE014
:103CC0002000FFF703FFA07209E02000FFF70EFFBE
:103CD000A07204E001A92000FFF748FFA072A37AB8
:103CE0009D42D1D133689F420DD101200CE00120CB
:103CF000404209E00120404206E00120404203E04A
:103D00000220404200E0002005B0F0BDAC570000AA
:103D1000002813D0837A012B0CD0002B02D0052B66
:103D20000FD803E00088431E98410BE00088431E33
:103D3000984107E00088431E984103E0012040427B
:103D400000E001207047C0468020C0007047C04698
:103D500010B5FFF7F9FF10BD10207047C37A01209E
:103D60001840704783681B68406883428041404226
:103D70007047C04670B505000C00837B802B0DD0CA
:103D80000800FFF7EFFF00280AD02168A268136837
:103D9000581C10606A7BCA54092002E0092000E028
:103DA000082070BDF0B557464646C0B483B00191B7
:103DB00094461A0003000F33614658184C1E24B273
:103DC0001B49884600271DE01E19F15DC55DA9420B
:103DD00016D131780578A94212D107E0715D8A4683
:103DE000415D8A4505D10135ADB200E0012595421E
:103DF000F4D3AF4204D2A1B28846954208D02F0036
:103E0000013C24B2694604254D5F651BDCD500E00A
:103E10002F00012F06D90A9B1F8063464246981A3D
:103E200080B200E0024803B00CBC90469A46F0BD58
:103E3000FFFF0000F0B587B00400FFF785FF039097
:103E40002000FFF789FF0500029066882000FFF739
:103E500085FF33002788002800D001257D1BAB4259
:103E600003DD00282DD008202CE02000FFF770FF94
:103E7000301882B2039BD11A89B2BB1B02988342CD
:103E800001DA9BB202930E2302A884466344002009
:103E900018800093029B2000FFF784FF0A4B984292
:103EA00006D16388013363800023A380032009E0E7
:103EB000E0800E2302AA944663441B88A38003205B
:103EC00000E0072007B0F0BDFFFF0000F0B50829B3
:103ED00009D1847B802C06D1186899680B685C1C1A
:103EE0000C60C2541BE0013917E001248C401442DD
:103EF00003D0857B447B2C434473847B64088473A8
:103F00000AD1803484731E689D682C68671C2F60FA
:103F1000457B35550024447301390029E5DAF0BDAD
:103F200010B50B000121FFF7D1FF10BD70B50400E3
:103F30000D000800FFF716FF002815D0A388002BFE
:103F400006D1012229002000FFF7EAFF04200CE03F
:103F5000002229002000FFF7E3FFE388013B2381D3
:103F60000A23A372052000E0032070BD70B5050090
:103F7000847A082C05D90289083C2241D2B208244F
:103F800000E0027A002C07D00B0021002800FFF788
:103F90009DFFAB7A1B1BAB72200070BD70B5050096
:103FA0000C000800FFF7DEFE00280CD021002800DE
:103FB000FFF7DCFF002808D1AB88013B2B810423ED
:103FC000AB72063002E0052000E0052070BDC0465F
:103FD00070B505000C000800FFF7C4FE00280DD0E6
:103FE00021002800FFF7C2FF002809D1AA886B88AA
:103FF000D3186B800023AB80023002E0062000E083
:10400000062070BD70B504000D004088013886B2EE
:104010002000FFF79DFE301880B22018C27B2B00D5
:1040200008212000FFF752FF70BDC04670B50500A3
:104030000C000800FFF796FE002805D0210028009C
:10404000FFF7E0FF022000E0042070BD70B504001F
:10405000FFF77AFE03006588411B89B2421892B2CD
:1040600020000F30591A08316118073101F04AF960
:104070000023638023885D1B258070BD10B5FFF78A
:10408000E5FF002010BDC04610B504000F308022AF
:104090001201002101F03AF900220023228023734B
:1040A0006280E3728021A1736373A2802281A37274
:1040B00010BDC046F0B54F464646C0B483B00500BB
:1040C000019117009946002831D0002932D04B4683
:1040D000002B32D0FFF742FE002831D12B7B002B82
:1040E00031D12800FFF734FE2E88801984B22800D1
:1040F000FFF72AFE801B83B298461A00BB4200D904
:104100003A0096B220000830281807301204170C25
:104110003A00019901F0F2F84B461F602B88F31822
:104120002B80B04512D101232B7300200FE001201A
:1041300040420CE00120404209E00120404206E0FC
:104140000220404203E00220404200E0002003B091
:104150000CBC90469946F0BDF0B585B00400170040
:104160001E00002847D0002948D0002B49D0002A43
:104170004AD000233360019102920396257B092DDA
:1041800045D8AB00244AD3589F46002041E0022383
:10419000237328E02000FFF74DFE207323E001A9E0
:1041A0002000FFF7C3FE20731DE001A92000FFF7E8
:1041B0003DFF207317E001A92000FFF7EFFE2073F9
:1041C00011E001A92000FFF703FF20730BE020009E
:1041D000FFF754FF207306E001A92000FFF7CAFD96
:1041E0002073002015E0237B9D42C7D133689F4296
:1041F000C4D101200DE0012040420AE001204042EC
:1042000007E00120404204E00220404201E0022099
:10421000404205B0F0BDC046C857000000280DD090
:10422000C27A01231343C372037B002B01D10133F4
:104230000373007B0938431E984101E0012040428E
:104240007047C046F0B54F464646C0B4274CA5441B
:104250008146884615001C0002A8FFF715FF0026BE
:1042600001272AE0002300936B464246494602A8F4
:10427000FFF720FF434258410740009B99444246C4
:10428000D31A984606D102A8FFF7C8FF0138434267
:1042900043411F400023019301AB2200290002A8E3
:1042A000FFF75AFF019BED18E41AF618012801D117
:1042B000002BEFDC434258410740002F02D0434619
:1042C000002BCFDC02A8FFF7A9FF43424341DBB23A
:1042D000002F01D0002B01D1002000E03000044B62
:1042E0009D440CBC90469946F0BDC046E4F7FFFFE4
:1042F0001C080000F0B54F464646C0B4284CA54403
:104300008146884615001C0002A8FFF76FFC0026B6
:1043100001272DE0002300936B464246494602A840
:10432000FFF778FC434258410740009B99444246BE
:10433000D31A984606D102A8FFF7EAFC0138434297
:1043400043411F400023019301AB2200290002A832
:10435000FFF78AFC019BED18E41AF618012801D139
:10436000002BEFDCC0B20023012282425B411F40E0
:10437000002F02D04346002BCCDC02A8FFF7C8FC7C
:1043800043424341DBB2002F01D0002B01D100207A
:1043900000E03000034B9D440CBC90469946F0BDB4
:1043A000C4FBFFFF3C04000010B50400032900DD3E
:1043B00000BE002919DD01394A07120C40231A43B7
:1043C0004905FF231B041940114308220A43210019
:1043D0000B4800F01BFBA021C9058022120288585F
:1043E0000123A34003438B5008E0A020C005802197
:1043F000090243580122A2409343435010BDC046D6
:104400000040044010B5040001780A20FFF7CCFFFB
:1044100061780B20FFF7C8FF10BDC046F0B585B02E
:10442000314C0A21200000F0E3FA07000B212000A4
:1044300000F0DEFA019000F03BFC0600002000F0E6
:1044400029FC00243AE0294B1B5D03210A001A4095
:1044500002A802709A080A4042701A090A40827043
:104460009B09C370FFF7CEFF012000F085FB0A20F7
:1044700000F0A8F800F0E2FB20250540002000F045
:104480007BFB0023039303A8FFF7BCFF002D14D090
:1044900002AB1A78164B9200D55802AA52789200B5
:1044A000D258AD1802AA92789200D258AD1802AA3A
:1044B000D2789200D358ED1804E00134092CC2DD03
:1044C00001256D42084C3A000A21200000F09EFAB6
:1044D000019A0B21200000F099FA300000F0DAFB7D
:1044E000280005B0F0BDC04600400440F057000071
:1044F000FC57000070B5041E00DC00BE012C08DC77
:1045000000F09EF9002804D100F0AAF9002800DC90
:1045100000BE802C00DD8024002300E00133641005
:10452000FCD107494C62086A0E25A8435A002B00AB
:10453000134003430B624C6201234B6270BDC046C3
:1045400000800440034B1B6A5B08072213400120D4
:10455000984070470080044010B5011E00DC00BE8A
:10456000024800F045FFFFF7C5FF10BD00127A00BA
:1045700010B5FFF7E7FF0100014800F039FF10BD5B
:1045800000127A0010B5041E16D00C4B984200D9C8
:1045900000BEFFF7EDFF0100094800F029FF010010
:1045A000FA208000604300F026FFE138FF3802B4B3
:1045B000011C0339FDDC02BC10BDC04600093D00F2
:1045C00000CA9A3B10B5040005E00848FFF7DAFF7F
:1045D000074B9C466444FA231B019C42F5DCFA20FD
:1045E00080006043FFF7CEFF10BDC04600093D00CC
:1045F00060F0FFFF10B5044980228C58034B18402F
:104600002043885010BDC04600800440FCBF1D0000
:1046100010B5044C80216358034A10408343635013
:1046200010BDC04600800440FCBF1D00144B1B6C35
:10463000002B24DB9A0600D000BEDA0FD3185B10E3
:104640005B00C02292059446634400220C4904E0BA
:10465000088818800233023102323F2AF8DD094B04
:104660000421094A995006221A60FE231B01054ABB
:10467000D3585B07F9D501225242014B1A647047A7
:10468000380C001000400340E80F0000F0B547462A
:1046900080B40500884614001E00002800DA00BE21
:1046A0002B19214A934239DD00BE37E01F4B1B6CAA
:1046B000002B0EDAEB173F211940491989118901A6
:1046C0001A480164C0239B059C466144402200F0C7
:1046D00015FE164B1B6CEB1A3F2B15D84022D71A30
:1046E000BC4200DC2700002E07D0424611780F485C
:1046F000C0183A0000F00AFE07E00C48C0183A0063
:10470000414600F0FBFD00E00027ED19002E00D12E
:10471000B844E41B002C01DDFFF788FF002CC5DC4A
:1047200004BC9046F0BDC046BF0E0000380C00101F
:1047300010B5C0204003FFF75DFF042000F036FBFA
:10474000082000F047FB6420FFF71CFF042000F066
:1047500037FBFFF70DFF084B9C466044074900F00C
:1047600047FE0138002800DC0120054B586101227A
:104770005242044B1A6410BDD7B80500D8B80500E2
:1047800000400340380C001010B5FFF74FFF042025
:1047900000F00CFB082000F029FBC0204003FFF7CD
:1047A00037FF10BD10B5FFF741FF10BD70B50C000D
:1047B00016001D00002900DA00BE002D00DC00BE3E
:1047C000631980225201934200DD00BE2A00C023FB
:1047D0009B05E118300000F091FD0D4B196C00298C
:1047E00015DB8C4203DD641A1919300002E0081B46
:1047F00030180749064B4033994208D27519A84230
:1048000005D22A1A402A00DD402200F077FD70BD53
:10481000380C001010B5080011001A000023FFF733
:1048200035FF10BD10B582B008001C006B46D91DC5
:104830000A7001232200FFF729FF02B010BDC04615
:10484000054B1868C0231B031840044B9C4660446A
:10485000431E9841C0B2704700C003400000F4FFFF
:10486000024B1B69FF2018407047C04600C0034040
:1048700010B54020FFF7BEFE10BDC04630B589B070
:1048800004001422002102A800F040FDFF2302933F
:10489000002C00D100BE3A23079300F0B3FA0307BF
:1048A00004D40F48FFF770FF012500E0002502A99E
:1048B00007A80C4B9847002D02D00948FFF738FF96
:1048C000029B002B00D000BE039B2360049B63600F
:1048D000059B0193A360069BE36009B030BDC04611
:1048E00000400340F11FFF1F00B585B0FF23009378
:1048F000CD3B019302900391694601A8044B984770
:104900000098FF2800D100BEC0B205B000BDC0466F
:10491000F11FFF1F00B587B0FF230193CB3B02932C
:1049200003900491059201A902A8044B98470198AD
:10493000FF2800D100BEC0B207B000BDF11FFF1FAD
:1049400000B587B0FF230193C43B02930390049109
:10495000059201A902A8044B98470198FF2800D1AD
:1049600000BEC0B207B000BDF11FFF1F10B586B07A
:10497000FF240094CC3C019402910390049205938F
:10498000694601A8044B98470098FF2800D100BE53
:10499000C0B206B010BDC046F11FFF1FF0B587B012
:1049A00007000E0015001C0008220021684600F0D8
:1049B000ADFCFF230093C73B029303970496059534
:1049C000694602A8064B9847009BFF2B00D100BE0A
:1049D000002C01D0019B2360009BD8B207B0F0BD32
:1049E000F11FFF1F10B58020C002FFF703FE10BDAE
:1049F000890008580002000A7047C0468022835888
:104A0000090109098B4383507047C04670B5060001
:104A10000D0014000B2907D9012A05D10B000C3B0E
:104A200001219940FFF7EAFF2402240AAD00AC51AE
:104A300070BDC0464068C0B27047C046C905C90DC8
:104A4000816170478069C005C00D7047C069C005AD
:104A5000C00D704710B5C36908221340044C22688A
:104A600013432360C905C90D4162416210BDC046B0
:104A70002401001070B50400FE2280235B00C250A8
:104A8000054D00212800FFF7D9FF04492800FFF752
:104A9000E1FF0023236070BD00800540FF0100009E
:104AA000043101617047C046F8B504000E001500DE
:104AB0000A4B984202D190231B011E43084F22004B
:104AC0003900084800F044FB0300B3432B432200A5
:104AD0003900044800F02CFBF8BDC04600800340BC
:104AE000280100102080034010B5140001439022DB
:104AF00012010A4305490648FFF7D6FF054A136924
:104B000004218B431C43146110BDC046FF3FF1FFDD
:104B10000080034000ED00E010B50D4A0D490E483D
:104B200000F016FB90231B011840984200D100BEF4
:104B300080231B01984208D1084A0649064800F024
:104B400007FBC0080323184000E0FF2010BDC0464B
:104B5000008003402801001020800340188003409B
:104B600010B500F093FA8021C9010A000148FFF74F
:104B70009BFF10BD0080034010B5C20380210902D5
:104B80000148FFF791FF10BD0080034010B5C2043B
:104B9000802109030148FFF787FF10BD0080034013
:104BA000F8B507000E00151E04DD002902DB5318BE
:104BB000052B0FDD00BE00240DE0A219A300FB5859
:104BC000920006498C4662440549064800F0B0FA56
:104BD000013400E00024AC42EFDBF8BD0480034068
:104BE0002801001020800340F0B5474680B480467D
:104BF0000F00161E04DD002902DB5318052B10DD03
:104C000000BE00240EE0A5004544E2199200084BC6
:104C10009C4662440749084800F09AFA286001342B
:104C200000E00024B442EEDB04BC9046F0BDC04678
:104C300004800340280100102080034010B5044A7E
:104C40000449054800F084FA5F239843C0B210BDC0
:104C500018800340280100102080034010B5040094
:104C6000FFF7ECFF030603D5FA204000FFF7AAFC8C
:104C700000F00CFA01216140C9B24903042202206C
:104C8000FFF732FF30BF002200210020FFF72CFF8A
:104C900010BDC04610B501235840C2B25203802156
:104CA00089010248FFF700FF10BDC04600800340A5
:104CB00010B5064A0649074800F04AFA80239B01CE
:104CC000184043425841C0B210BDC0460080034066
:104CD000280100102080034010B58020C000FFF79D
:104CE00089FC10BD10B5020007230B4002490348A0
:104CF00000F01EFA10BDC0462C01001024400540F3
:104D000010B50B021B0A02000C320249024800F0E7
:104D10000FFA10BD2C0100102440054010B5020010
:104D200030320249024800F013FA10BD2C01001085
:104D30002440054070B504000D00080000F0D2F9D1
:104D4000220030322B000249024800F0F1F970BD18
:104D50002C0100102440054010B501230B40020037
:104D600014320249024800F0E3F910BD2C01001092
:104D70002440054010B5020018320349034800F0F2
:104D8000E7F90123184010BD2C0100102440054014
:104D900010B501230B40020020320249024800F006
:104DA000C7F910BD2C01001024400540034A536888
:104DB0000F210840834353607047C0460080044081
:104DC000034A53680F210840184350607047C0469B
:104DD0000080044010B504498E2292008B583F2475
:104DE000204083438B5010BD0080044010B504491F
:104DF0008E2292008B583F2420401843885010BDCB
:104E0000008004408E239B00024AD3583F20184064
:104E10007047C04600800440C004C00C81239B0042
:104E2000014AD0507047C04600800440C004C00C06
:104E3000034A82239B00D050D1588143D150704700
:104E400000800440FD239B00014AD0587047C046B3
:104E50000080044010B50800FFF7CCFB10BDC04631
:104E600042680023436001338360013343608368F9
:104E7000002BFCD14260704710B5002343628020B4
:104E80004001FFF7C5FB0220FFF7B0FF10BDC04691
:104E90000B00C2680E218A435B0019401143C160B8
:104EA0007047C046C0684008072318407047C04696
:104EB00002680123134303607047C04630B504689D
:104EC0002402802252001440836A5B020132FF32C6
:104ED00013401C4382681F231A40230013430029F8
:104EE00004D082685209072002400A7098B230BD8F
:104EF000406800B27047C04610B5002900DC00BE13
:104F00008300181843000B4A944663445943002910
:104F100007DD4131FF310800A021890000F068FA67
:104F200006E04139FF390800A021890000F060FA4D
:104F300010BDC0462055FDFF0904090CC161704732
:104F40000904090C0162704710B504000220FFF744
:104F500041FF80204001FFF74DFB00232360636287
:104F6000073323630833E360802109022000FFF741
:104F7000E3FF02492000FFF7E3FF10BDFF7F0000C1
:104F8000072319404162704700BEBFF34F8F034AA9
:104F9000034BDA60BFF34F8FFEE7C0460400FA050B
:104FA00000ED00E070B5174C2000FFF74FFD060044
:104FB0002000FFF73FFD1024044023005A1E9341B8
:104FC000DDB281235B001E4213D00F48FFF7A6FE1F
:104FD0000E4B9B68C01A01280BDD002C07D00B4B31
:104FE0005B78002B03D1094AD3690133D361074BA6
:104FF0005D709C23064AD258064B9A4201D0FDF7B9
:10500000F5FF70BD00800540004005407C0C00109D
:1050100000000000ED2F000070B5194D2800FFF7CB
:1050200087FB184C20232200E82109012800FFF704
:10503000BDFB2378252B07D0124C20220021200015
:1050400000F064F9252323700F48FFF767FE0D4B2E
:105050005B68C31A002B04DC0A4AD3680133D360AF
:1050600007E0084A11690131116191698C46634476
:105070009361044B5860012252429A6070BDC04651
:10508000004003407C0C00100040054070B5114A00
:10509000D1681369CB18104A934219D80F48FFF70B
:1050A0003DFE0C4C6368C31A6269944663446361B5
:1050B00060600B4D2800FFF73BFB20232200E82116
:1050C00009012800FFF7A6FB01212800FFF76AFB72
:1050D00070BDC0467C0C00100F270000004005404A
:1050E0000040034010B504000448FFF717FE044BCE
:1050F0005A68101A04195C6010BDC0460040054093
:105100007C0C001001480C307047C0467C0C00102D
:10511000002300E006330268D20702D4034A934218
:10512000F8DD0368DB0700D400BE7047CF03000042
:10513000F8B504000D0016001F00FFF7E9FF2B680B
:1051400001332B6037602000FFF7E2FFF8BDC04657
:10515000F8B506000C0015000B6801330B60300039
:10516000FFF7D6FF27682B683000FFF7D1FF2868CC
:1051700023689F42F3D1F8BD10B5324C2000FFF7F1
:1051800031FCA020C005FFF773FB10220021200096
:10519000FFF73CFC082201212000FFF737FC082222
:1051A00002212000FFF732FC082203212000FFF734
:1051B0002DFC082204212000FFF728FC08220521ED
:1051C0002000FFF723FC082206212000FFF71EFC29
:1051D000082207212000FFF719FC082208212000DF
:1051E000FFF714FC102209212000FFF70FFC164BDB
:1051F0001B68164A934202D0154A93420BD1114CB8
:1052000008220A212000FFF701FC08220B212000C0
:10521000FFF7FCFB0AE00B4C0A220A212000FFF7F3
:10522000F5FB0A220B212000FFF7F0FB0948FFF7EE
:1052300053FD0948FFF77CFA0848FFF71BFC00F014
:1052400039F810BD00400440FC020000214365878E
:105250006587214300400540004003400080054031
:10526000F0B500231BE002001A41D20716D50D4C01
:105270009A00165DA41867780A001A4101252A4091
:10528000A478A21A54426241D2B23404A026F60590
:10529000B4466444BD40BA40AD002A510133002BEE
:1052A000E1DDF0BD0C58000010B50021FFF7D8FF7C
:1052B00010BDC04670B5002416E0002207210D483D
:1052C000FFF7A4FB0C49A200535C8A1855781B0415
:1052D000A022D20594466344802109025858012235
:1052E000AA4002435A500134002CE6DD0120FFF7AA
:1052F000DBFF70BD004004400C58000010B500F00A
:10530000B4F810BD10B500F0C6F810BD10B500F02F
:10531000D0F810BD10B5FBF72BFA10BD03000B43FE
:1053200030B59B0709D1032A07D903680C68A3424B
:1053300003D104300431043AF5E70024A24208D036
:10534000035D651C0C5DA34201D0181B02E02C001C
:10535000F4E7002030BDFFFF03000B4330B59B078F
:1053600011D103000B4D0A680B4C141994432C42C5
:1053700002D104C30431F6E7D1B219700133002918
:1053800007D01212F8E70023CA5CC2540133002A86
:10539000FAD130BD80808080FFFEFEFE032210B572
:1053A000431C104206D00130411E09780029F8D173
:1053B000C01A18E00C4C02680C4951189143214264
:1053C00001D10430F7E7D4B2411C002C0AD0FF24ED
:1053D0002402811C224205D0FF242404C11C224245
:1053E00000D0011DC81A10BD80808080FFFEFEFE27
:1053F00003000B4321D4002931D00122D207030935
:1054000001E0090112099942FBD9430801E0490072
:1054100052089942FBD900E04908401A07D352418B
:10542000FAD301461046704749084018F7D292183F
:10543000FAD34018014610467047CB0F00D04942BE
:10544000021000D54042534008B5FFF7D4FF0CBC12
:10545000521000D34042002A00D549421847F44672
:10546000002000F001F8604770478446830708D1A8
:105470008B0706D1131F04D304C904C0043BFBD21D
:105480001A1D524205D0891A801A8B5C835401324E
:10549000FBD160467047884207D98B18834204D9F4
:1054A000013A8B5C8354FBD1704700B5FFF7DDFFF9
:1054B00000BD8446043A09D3830707D109060B0AC5
:1054C00019430B0C1943043A02C0FCD2043203D036
:1054D00001700130013AFBD1604670474E03000075
:1054E0004E0300006A0300007A0300008A030000F4
:1054F00000009FFF7F0007000000600000000FFF1A
:105500006E2F70006461797300FFFFFF686F757222
:105510007300FFFF43757272656E742074656D7061
:10552000657261747572653A205F5F5F2E5F430A32
:105530004D696E696D756D3A205F5F5F2E5F430A3E
:105540004D6178696D756D3A205F5F5F2E5F430036
:1055500043757272656E742074656D7065726174E6
:105560007572653A205F5F5F2E5F4300456D707412
:10557000792E204E6F742079657420636F6E666992
:1055800067757265642E0000456D7074792E204336
:105590006F6E6669677572656420627574206E6FE0
:1055A000742079657420737461727465642E0000D0
:1055B00052756E6E696E672E204E6F2073616D702E
:1055C0006C652074616B656E207965742E00000037
:1055D00052756E6E696E6720666F72205F5F5F2026
:1055E0005F5F5F5F5F5F5F2E205F5F5F5F5F207366
:1055F000616D706C6573206C6F676765642E000069
:1056000053746F707065642E205F5F5F5F5F2073FF
:10561000616D706C6573206C6F676765642E000048
:10562000414C4552543A2066697273742068696728
:105630006820657863757273696F6E206166746542
:1056400072205F5F5F205F5F5F5F5F5F2E00000023
:10565000414C4552543A206669727374206C6F77DE
:1056600020657863757273696F6E20616674657208
:10567000205F5F5F205F5F5F5F5F5F2E0000000065
:10568000414C4552543A20626174746572792069C4
:105690007320656D7074792E00000000414C4552F6
:1056A000543A206E6F207370616365206C65667478
:1056B00020666F722073746F72696E672073616DFC
:1056C000706C65732E000000414C4552543A2073B3
:1056D000746F7070656420616674657220746865AB
:1056E00020636F6E666967757265642074696D65A5
:1056F0002E000000414C4552543A206C61737420D6
:1057000049324320616363657373206661696C6528
:10571000642E0000414C4552543A206C6173742051
:1057200053504920616363657373206661696C65DA
:10573000642E00006C55000088550000B055000034
:10574000D0550000005600002056000050560000C2
:10575000805600009C560000C8560000F456000019
:1057600014570000000000000000000000000000CE
:105770000000000000000000000000000000000029
:105780000000000000000000000000000000000019
:105790006D696E75746573007365636F6E64730015
:1057A0000103E80E46FD010003000000963C0000E6
:1057B000A03C0000AC3C0000B63C0000C03C000037
:1057C000CA3C0000D43C00008A4100008E41000029
:1057D000944100009E410000AA410000B641000033
:1057E000C2410000CE410000D84100008A410000C3
:1057F000000102030506070A0B0FFFFF000000006F
:10580000C10200000F03000044030000000701076D
:1058100001FFFFFFEA828E5F46000000210F0000BB
:10582000480000007D0E000049000000B50D00009A
:1058300050000000790D00005A000000410D0000EA
:105840005B000000190B00005E000000AD0A0000C4
:10585000742F64656D6F2E6E68732E6E7870000005
:105860000000FFFF656E00FF5303000001FFFFFF14
:1058700001000000B13500000200000061350000A9
:10588000030000002935000004000000E53400009A
:1058900005000000913400000600000031340000D3
:1058A00007000000D9330000080000006133000049
:1058B000090000003D3300000A0000000D33000025
:1058C0000B000000D13200000C0000007D3200000F
:0C58D0003E00000051320000E90700001B
:04000003000007C52D
:00000001FF
