:020000041000EA
:1000000098130810D1000010D9000010DB00001078
:10001000DD000010DF000010E10000105A5A5A5AAB
:10002000000000000000000000000000E3000010DD
:10003000E500001000000000E7000010791A001031
:10004000EB000010EB000010EB000010EB000010C4
:10005000EB000010EB000010EB000010EB000010B4
:100060004F1D0010EB000010EB000010EB00001023
:10007000EB000010EB000010EB000010EB00001094
:10008000EB000010EB000010EB000010EB00001084
:10009000EB000010EB000010EB000010EB00001074
:1000A000EB000010EB000010EB000010EB00001064
:1000B000EB000010EB000010EB000010DFF80CD09C
:1000C00005F080FB00480047D51B0010981308106E
:1000D0000648804706480047FEE7FEE7FEE7FEE7E2
:1000E000FEE7FEE7FEE7FEE7FEE7FEE7C9090010D0
:1000F000BD0000107046704730B51F24FD4D2C60C8
:10010000FD4CFE4DEC660024AC612C46646C44F062
:1001100001046C64FA4C6C6400BFF84C246C04F06D
:100120000104002CF9D0F74CF44DEC664FF47A71D1
:1001300000E0491E0029FCD1F34CF04D6C6400BF77
:10014000EE4C246C04F00104002CF9D0ED4CEB4D86
:10015000EC662C46246A44F001042C624FF4804083
:10016000142424B1012C05D0022C07D104E04FF057
:10017000FF3012E0E54810E0E5480EE0142108E009
:1001800080EA500404F00104C0F34D0545EA8430D0
:10019000491CB1F5004FF3D900BF00BF0B22182353
:1001A000540444EA83540443D44D6C6280200124F7
:1001B00024B1012C05D0022C09D105E04FF0FF300D
:1001C00018E040F2023015E040F2022012E0012176
:1001D0000CE080EA900484EAD00484EA101404F06D
:1001E0000104C0F3460545EAC410491CB1F5807FFF
:1001F000EFD900BF00BF0403C04DAC621020012442
:1002000024B1012C05D0022C07D104E04FF0FF30BF
:1002100012E0622010E042200EE0012108E080EAB6
:10022000900404F00104C0F3430545EA0410491C9E
:10023000B1F5007FF3D900BF00BFB04CA46A0443FE
:10024000AE4DAC62B34C2C6200BFAC4CE46904F020
:100250000104002CF9D0AB4C0834A84DAC64AE4C72
:10026000EC64A54C2C656C65A64C8434AC6530BD43
:100270002DE9F04704464FF47A70A8490968A0FBBD
:1002800001700146A64A0023384604F0ABFF002265
:10029000A0FB045701FB047100FB021104220023A0
:1002A000284604F09FFF814600BFB9F10000A9F184
:1002B0000109FAD1BDE8F0872DE9F04385B00720A8
:1002C0009849086000BF9748001D006800F00100D1
:1002D0000028F8D0914800689349884203D2002052
:1002E0009249086003E047F2777090490860F22075
:1002F0008F4908608E498039C1F884008C490831E3
:100300000860F320091D0860091D0860091D0860C8
:10031000091D0860091D0860091D0860091D0860A5
:10032000091D0860091D0860091D0860091D086095
:10033000091D0860F2207E4980310860091D0860AF
:10034000091D08607A4998310860F320091D08608A
:10035000091D0860091D0860091D0860091D086065
:10036000091D0860091D0860F22072490860091D16
:100370000860091D0860091D0860091D0860091D45
:100380000860091D0860091D0860F1206949843171
:100390000860091D0860F320091D0860091D086038
:1003A000091D0860F120091D0860091D0860091D6C
:1003B0000860F320091D0860091D0860091D086018
:1003C000091D08605C490860F2205C490860091D4D
:1003D0000860091D0860091D0860091D0860091DE5
:1003E0000860091D0860091D0860091D0860091DD5
:1003F0000860091D0860091D0860091D0860091DC5
:100400000860091D0860091D0860091D0860F320C7
:100410004A4980310860091D0860091D0860091DEE
:100420000860091D0860091D0860091D0860091D94
:100430000860091D0860091D0860091D0860091D84
:100440000860091D0860091D0860091D0860091D74
:10045000086001203A4908600020886000242F4885
:100460000068384988422ED901244FF0000910E075
:100470004FEA890000F1805000684DF829003248A9
:1004800050F829104FEA890000F18050016009F10D
:100490000109B9F1050FEBD3BFF36F8F2722214973
:1004A00048312A482A4B98474FF0000908E05DF888
:1004B00029104FEA890000F18050016009F101091B
:1004C000B9F1050FF3D3F02022490860091D086037
:1004D000091D0860091D08608A2006490C3908605A
:1004E00000201749C1F8080201200249091D0860CF
:1004F0005A2131E00C520040000800010000054084
:10050000802027060008000980080E0603800100ED
:10051000030001001C080006040800030000081086
:1005200000CA9A3B3014054000B4C404006D084072
:10053000806008408062084010650840806608407E
:1005400000500040000E2707886100102C31044045
:1005500001000010006C0840FA480268601CB2FB01
:10056000F0F0A1FB00500146F74A0023284604F0B2
:1005700039FE401CF549C1F80C020846D0F80002CB
:1005800040F40020F24908604FF48A40F1490860C5
:1005900040F2033001F1040108604FF00100EB4923
:1005A00088624FF01401E748026804F10100B2FBD1
:1005B000F0F0A1FB0051E44A4FF00003284604F09C
:1005C00011FEE24908632A21DE480268601CB2FB82
:1005D000F0F0A1FB0051DC4A0023284604F002FEA3
:1005E000DA4948633F21D7480268601CB2FBF0F04B
:1005F000A1FB0051D44A0023284604F0F3FDD3495F
:1006000088634621CF480268601CB2FBF0F0A1FB72
:100610000051CD4A0023284604F0E4FDCB49C863CD
:100620004621C8480268601CB2FBF0F0A1FB0051F3
:10063000C54A0023284604F0D5FDC44908641E219C
:10064000C0480268601CB2FBF0F0A1FB0051BE4A3A
:100650000023284604F0C6FDBC4948643F21B94840
:100660000268601CB2FBF0F0A1FB00500146B64AE4
:100670000023284604F0B6FDB44988643F21B14800
:100680000268601CB2FBF0F0A1FB00500146AE4ACC
:100690000023284604F0A6FDAC49C8643F21A948C0
:1006A0000268601CB2FBF0F0A1FB00500146A64AB4
:1006B0000023284604F096FDA44908650E21A148B0
:1006C0000268601CB2FBF0F0A1FB00519E4A0023BF
:1006D000284604F087FD9D4948651E219948026817
:1006E000601CB2FBF0F0A1FB00500146964A0023CB
:1006F000284604F077FD954988656420FFF7B8FD2A
:1007000040F28310914908620A20FFF7B1FD40F2E0
:1007100003108E4908620120FFF7AAFD40F2831002
:100720008A4908620120FFF7A3FDC82185480268B5
:10073000601CB2FBF0F0A1FB00700146824A00236E
:10074000384604F04FFD05461022002304F04AFD10
:10075000401C7E4948624FF00A00FFF789FD43F6CE
:10076000095178480268601CB2FBF0F0A1FB005010
:100770000146754A0023284604F034FD074610223E
:10078000002304F02FFD401C704948624FF00A001E
:10079000FFF76EFD83206D4908626F4800680A20EC
:1007A000FFF766FD0220694908620846D0F800019B
:1007B00040F40020C1F8000105B0BDE8F08330B579
:1007C00002466648406920F40000644D686140F2CA
:1007D000FF1000EB026068612846406940F40000A9
:1007E00068610BE05D484069C0F34D215B4840699A
:1007F000C0F3080311B90BB9002030BD5748406958
:1008000000F400000028EDD154484069C0F34D21A8
:1008100045F6BB3001FB00F42046EEE702464FF000
:10082000FF33112A44D2DFE802F00E090A0B0C4311
:1008300019232629434334373A3D400000BF00BF07
:1008400000BF104670474648406800F00A00022882
:1008500002D04FF0FF30F5E70020F3E73F48806912
:1008600000F0010010B14FF0FF30EBE70620E9E7A0
:100870003A48016A1EE03948016B1BE03748006CBA
:1008800000F0010010B13548406C00E00020014646
:1008900010E03248816C0DE03048C16C0AE02F480E
:1008A000016D07E02D48416D04E02C48816D01E0A9
:1008B0001846C7E700BF01F0010008B9C1F304639F
:1008C0001846BFE72DE9F04780464FF001090124A3
:1008D0000026474600BF112F5BD2DFE807F0090C66
:1008E0000E10125A144E4F505A5A161D242B470000
:1008F0004FF4004650E01B4E4EE01B4E4CE01A4EAB
:100900004AE0184E48E0174E46E01448806CC0F3A9
:100910008100401C44433FE01048C06CC0F381009C
:10092000401C444338E00D48006DC0F38100401C7A
:10093000444331E00948406DC0F38100401C44430A
:100940002AE000000000081000CA9A3B0050004056
:1009500000520040005100400020032800000540E4
:1009600000300440001BB70080F0FA022148806D7F
:10097000C0F38100401C44430EE00DE00CE004F0A5
:100980005FFF0546E8B209FB00F9C5F307204443C1
:1009900002E00020BDE8F08700BF1EB93846FFF72F
:1009A0003DFF0746002E96D006FB09F0B0FBF4F0A1
:1009B000F0E710B50F48C06EC0F304642046FFF79F
:1009C00081FF0D49086010BD10B54FF0E0200069AF
:1009D00020F003004FF0E021086108486FF3130096
:1009E00007490860FFF788FBFFF7E3FFFFF764FCA8
:1009F00010BD0000000005400000081000000010BD
:100A000008ED00E0F0B5074DD618C7014FF0040C13
:100A10000CFB0174E71704EB9777BF1045F82760CC
:100A2000F0BD00000060084010B50146102221B161
:100A3000012905D0022907D104E04FF0FF3010BD95
:100A40006220FCE74220FAE70B4608E082EA9200C7
:100A500000F00100C2F3430444EA00125B1C202BA7
:100A6000F4D91046EBE710B50246802122B1012AE5
:100A700005D0022A09D105E04FF0FF3010BD40F249
:100A80000230FBE740F20220F8E713460CE081EA6F
:100A9000910080EAD10080EA111000F00100C1F35A
:100AA000460444EAC0115B1CB3F5807FEFD90846C9
:100AB000E4E710B501464FF4804221B1012905D089
:100AC000022907D104E04FF0FF3010BDFE48FCE7DB
:100AD000FE48FAE70B4608E082EA520000F0010007
:100AE000C2F34D0444EA80325B1CB3F5004FF3D9E6
:100AF0001046EAE70146B1F5804F01D90120704761
:100B0000B1F5005F01D90220F9E7B1F5006F01D915
:100B10000420F4E7B1F5FA7F01D90820EFE73C297A
:100B200007D301F109004FF48062B2FBF0F08000BE
:100B3000E5E701F03C00001DE1E701463C2902D257
:100B40004808401C70471F20FCE72DE9FF4F9DB06F
:100B50000F462A9C1D9804F010FDCDE91A01384675
:100B600004F00BFDCDE9180100201390401E0F90FA
:100B700000200E900D900C9000210A910B911F986F
:100B800004F021FD0022D24BCDE9060104F02EFD38
:100B900009D31F9804F017FD0022CE4BCDE90601C2
:100BA00004F03CFD03D2012021B0BDE8F08F209875
:100BB00004F009FD0022C74BCDE9060104F016FD43
:100BC00009D3209804F0FFFC0022C34BCDE90601B5
:100BD00004F024FD01D20220E6E7C0491D988842B6
:100BE00001D20320E0E7BE491D98B1EB102F01D2DE
:100BF0000420D9E7BB48874201D20520D4E7BA4890
:100C0000874201D90620CFE7B848874201D90120A1
:100C10000CE04FF04040B649DDE9182304F03EFCFB
:100C2000CDE9060104F0B6FC20F001000890089818
:100C3000402801D9402008904FF04040AD49DDE9FF
:100C4000182304F02BFCAC4AA24BDB1ECDE90401B7
:100C500004F00BFBCDE9060104F09CFC0990099817
:100C600008B901200990DDF82080E7E00022A34BBD
:100C7000DDE91A0104F012FC9F4A964BDB1ECDE918
:100C8000040104F0F2FACDE9060104F083FC1390AC
:100C9000BBE0139804F071FC02460B46CDE9060157
:100CA000DDE91A0104F0FAFBCDE9160100204FF04E
:100CB0008041DDE9162304F07FFBCDE904014046C5
:100CC00004F05BFCCDE90001DDE9182304F074FBBE
:100CD000CDE90201DDE9042304F0E0FBCDE90601E2
:100CE00004F058FC4000129086E0129804F045FC95
:100CF000CDE90601DDE9162304F05EFB05460E464C
:100D00004FF040427A4B2846314604F087FC00D22F
:100D100077E0B8F1010F02D1284631460AE040469B
:100D200004F02BFC02460B46CDE90601284631466D
:100D300004F0B4FB81468A4648465146DDE9182353
:100D400004F0ACFBCDE914011F9804F03CFCCDE9A4
:100D50000601DDE9142304F049FC42D8209804F090
:100D600032FCCDE90601DDE9142304F057FC38D844
:100D70000022574B4846514604F077FACDE9060168
:100D800004F008FC11901198874202D21198C01B00
:100D900001E01198381A1090DDE90F10884212D343
:100DA000DDE90F1088421CD10E99139888420AD3AE
:100DB0000E991398884214D128463146DDE90A235A
:100DC00004F014FC0DD210980F9013980E90129806
:100DD0000D90CDF83080CDE90A561198B84200D177
:100DE00036E048465146DDE9182304F017FC00D2EE
:100DF00007E01298801C12901298B0F5803F7FF6A1
:100E000074AF00BF1398401C139034491D98B0FB79
:100E1000F1F0FF2803D81D98B0FBF1F001E04FF48A
:100E2000807013998842BFF434AFB8F1020F01D932
:100E3000012000E00020401CA8EB00080998804534
:100E4000BFF414AF0F98401C08B90720ACE600BFF0
:100E50000E9804F092FB02460B46CDE90601DDE94F
:100E60001A0104F01BFBCDE916010D9804F085FB77
:100E7000CDE90601DDE9162304F09EFA05460E468B
:100E80000C9804F07AFB02460B46CDE90601284691
:100E9000314604F003FB81468A460D994808FFF766
:100EA00029FE82050D994808FFF747FE42EA404BAC
:100EB0000D994808FFF7FDFD4BEA000BC4F808B098
:100EC0000C9801281FD11BE00380010003000100E2
:100ED0000000E03F0000F03F0000F83FA086010066
:100EE00080D1F008AB9041008055C820C02A641022
:100EF0002A64C0412A64B041E90B21E7A3E1A14182
:100F00004FF0000B04E00C994808FFF78DFD834675
:100F10000E98012801D1002002E00E98FFF7A3FDF2
:100F20004BEA0030E0600C98012801D1082000E075
:100F300000200E99012901D1042100E0002108437D
:100F400046F21001084420600D984108B4F81100E1
:100F500061F30E0004F11001A4F811000E98207442
:100F60000C98012800D101E00C984008618A60F3D8
:100F7000CB1161820022F74B2846314604F075F907
:100F8000CDE9060104F006FB60610022F14B484602
:100F9000514604F06AF9CDE9060104F0FBFAA061BC
:100FA000A069C01BE06148465146DDE91A2304F000
:100FB00075FAC4E908010020F6E570B5E64D6D68E4
:100FC00005F002055DB1E44D6D6805F0080585F09A
:100FD000080525B14FF40045E04E356002E00025DC
:100FE000DE4E3560DE4D2D6A05F0020585F0020506
:100FF0004DB1DB4DED6905F0010525B1D94D2D68E9
:10100000D64EF56102E00025D44EF561D44D2D6B2E
:1010100005F0020585F002054DB1D14DED6A05F0F0
:10102000010525B1D04D2D68CC4E356202E000257A
:10103000CA4E3562CA4D6D6C05F0020585F0020599
:10104000A5B1C74D2D6C05F001057DB1C44D6D6C8A
:10105000C5F30362C14D55F82250C14E766CC6F3FC
:101060000746761C7543BD4E756202E00025BB4EF7
:1010700075620C2020E0BD4D35F91010B84D4C596B
:1010800004F0020585F002058DB1B54D4D59C5F34B
:101090000362B34D4D5BC5F387035B1CAF4D55F841
:1010A0002250B5FBF3F5AD4E46F8205003E0002585
:1010B000AA4E46F82050401C1028DCD970BD30B52F
:1010C0000346102B01DD032030BD07292FDB252926
:1010D0002DDCC3EB031000EB4000A54D2844405C21
:1010E00018B3A24830F91320501C58B1102909DC5C
:1010F000072907DB9A481058C0F30360884201D1E2
:101100000120E1E7994830F91120501C08B902206C
:10111000DAE79348145824F07064C01440EA03607E
:1011200004438F4814500020CEE70320CCE7022070
:10113000CAE72DE9F04104460F46F4B95FB186488D
:10114000406820F00C00844948600846406840F040
:10115000030048600AE08048406820F003007E49B0
:1011600048600846406840F008004860002600E0FB
:10117000761C80488642FBDB64E0022C06D1032308
:10118000102200210C20FFF73DFC5BE0032C06D170
:101190000023102213210120FFF734FC52E0042C1D
:1011A00050D0052C4ED0062C14D137B96C4880692C
:1011B00040F001006A49886105E06948806920F0D3
:1011C000010067498861002600E0761C6948864274
:1011D000FBDB37E0654830F91450681C10B9022079
:1011E000BDE8F08137B95E48285840F001005C49FD
:1011F000685027E05A48285820F0010058496850A4
:10120000072C06D100BF5648C06900F00100002835
:10121000F9D0082C06D100BF5148C06A00F0010087
:101220000028F9D0092C0DD100BF4D48006C00F00A
:1012300001000028F9D04A48006C00F0010008B90C
:1012400000BFFEE70020CBE7F0B5024600240025F2
:10125000002301264248406CC0F303673F4850F822
:1012600027105143541E3E48406CDFF80CC100EA81
:101270000C00DFF8ECC0CCF84400404881421AD2A0
:1012800001E05B1C760070004843DFF8F0C0604569
:10129000F7D3200440EA053040EA032040F0400044
:1012A000DFF8BCC0DCF844C040EA0C00DFF8B0C096
:1012B000CCF8440016E03248814211D2200440EAC2
:1012C000053040EA032040F0C000DFF894C0DCF8AD
:1012D00044C040EA0C00DFF888C0CCF8440001E0CC
:1012E0000420F0BD0020FCE701462648814206D2DA
:1012F0001B48806920F00400194A90610BE02248E5
:10130000814206D21648806940F00400144A906178
:1013100001E005207047114881610020FAE710B50F
:101320001A48FFF7E1FF01210620FFF702FF09211C
:101330000620FFF7C4FE0620FFF786FF01210920E3
:10134000FFF7F7FE15210920FFF7B9FEFFF735FE7D
:10135000002010BD0000E03F0030044004000810F1
:1013600000000540480008104C000810A061001063
:10137000FA61001040420F003DCC00FF005F4C09B5
:1013800000D01213C0E1E40040787D01001BB700DB
:101390000146A1F1110014284DD2DFE800F04B1EE8
:1013A0004C2319144C4C4C0F0A4C4C46413C3732E0
:1013B0002D28FE48406800F001007047FB48406857
:1013C000C0F34000F9E7F9484068C0F38000F4E753
:1013D000F6484068C0F3C000EFE7F4484068C0F347
:1013E000C010EAE7F1484068C0F30020E5E7F048A4
:1013F0004068C0F34000E0E7ED484068C0F380007B
:10140000DBE7EB484068C0F3C000D6E7E848406837
:10141000C0F30010D1E7E6484068C0F34010CCE7C5
:10142000E3484068C0F38010C7E7E1484068C0F374
:10143000C010C2E700E000BF00BF0020BDE770B5EC
:1014400004460D46262C03DB002C01DC042070BD75
:10145000002D7DD104EB8400D64901EB400040888B
:1014600050B304EB840001EB40004088D2490844AB
:10147000007900F00100F8B104EB8400CD4901EBE4
:1014800040004088CC49405820F0010004EB840122
:10149000C84A02EB41014988C74A885000BF04EBA3
:1014A0008400C44901EB40004088C34908440079E6
:1014B00000F001000028F2D104EB8400BD4911F8CE
:1014C00010002D280FD004EB8401BA4A12F8110045
:1014D000FFF75EFF38B904EB8401B64A12F8110039
:1014E0000021FFF726FE04EB8400B24901EB400027
:1014F000C08850B304EB840001EB4000C088AE49C3
:101500000844007900F00100F8B104EB8400A94917
:1015100001EB4000C088A849405820F0010004EBCE
:101520008401A44A02EB4101C988A34A885000BF44
:1015300004EB84009F4901EB4000C0889E490844A9
:10154000007900F001000028F2D104EB840000E0F3
:1015500019E0984901EB400000792D2812D004EBE6
:101560008401944A02EB41010879FFF711FF00283A
:1015700008D104EB84018F4A02EB41010879002174
:10158000FFF7D7FD9CE004EB84008A4911F81000B6
:101590002D2813D004EB840011F81000874931F98D
:1015A00010008549405C00F0010038B104EB840173
:1015B000804A12F811000121FFF7BBFD04EB840003
:1015C0007C4901EB4000408850B304EB840001EB00
:1015D0004000408878490844007900F00100F8B9DB
:1015E00004EB8400734901EB400040887249405885
:1015F00040F0010004EB84016E4A02EB410149888E
:101600006D4A885000BF04EB84006A4901EB40003A
:10161000408869490844007900F001000028F2D0B0
:1016200004EB8400634901EB400000792D2815D0BC
:1016300004EB840001EB40000079604931F91000AF
:101640005D49405C00F0010040B104EB8401594A5F
:1016500002EB410108790121FFF76BFD04EB8400E7
:10166000544901EB4000C08850B304EB840001EB07
:101670004000C08850490844007900F00100F8B9E2
:1016800004EB84004B4901EB4000C0884A494058B4
:1016900040F0010004EB8401464A02EB4101C98895
:1016A000454A885000BF04EB8400424901EB4000EA
:1016B000C08841490844007900F001000028F2D0B8
:1016C00004EB84003B4901EB4000007A48B104EB95
:1016D0008401384A02EB4101087A2946FFF7AFFE40
:1016E000B5E60020B3E60146262903DB002901DC2C
:1016F0000420704701EB81002E4B03EB4000007982
:101700002D282FD001EB810003EB400000792B4BFB
:1017100033F91000284BC058C0F3036201EB81007D
:10172000244B03EB40000079244B33F91000224B8B
:10173000C05C00F0010008B10020DAE701EB810095
:101740001C4B03EB4000C08878B301EB810003EB36
:101750004000C088184B1844007900F0010020BBFD
:101760000020C6E701EB8100124B13F81000134B69
:1017700033F91000104BC05C00F0010008B10020EC
:10178000B7E701EB81000B4B13F810000B4B33F95B
:101790001000094BC058C0F3036201EB8100054BF8
:1017A00003EB4000408800B10AE016E0001005405D
:1017B00000200540F864001000000540A061001002
:1017C00001EB810003EB40004088784B184400791E
:1017D00000F0010008B900208BE7754850F822009E
:1017E00087E710B502460C460C2A14DB102A12DCDF
:1017F000704830F91210481C08B9022010BD6B481F
:101800000B5823F47F73601EC0B243EA800367481D
:101810000B500020F2E70220F0E72DE9F0418CB0F8
:1018200006460D461746984600206349086002A800
:1018300043463A46294600903046FFF786F904466B
:101840002CB1072C03D204200CB0BDE8F081072C8A
:1018500001D10620F8E758480560544904984862C9
:1018600005988862029808620020EDE72DE9F041B2
:101870008CB006460D461746984600204F49086032
:1018800002A843463A46294600903046FFF75DF9E4
:1018900004462CB1072C03D204200CB0BDE8F08123
:1018A000072C01D10620F8E7444805603F49049819
:1018B000486305988863029840F40050086300204C
:1018C000EBE7F0B504460D46164640F2FF114FF423
:1018D000000040EA04600843DFF8D0C0CCF81400F0
:1018E00000BF3248406900F400000028F9D100230D
:1018F00000E05B1C42F210708342FADB2B48406927
:10190000C0F34D2212B94FF0FF30F0BDB2F5007FA9
:1019100008D326484069C0F3080040F2FF1CACEB36
:1019200000011FE000BF491E4FF4000040EA0460C0
:101930000843DFF878C0CCF8140000BF1B484069AA
:1019400000F400000028F9D1002300E05B1C42F203
:1019500010708342FADB15484069C0F34D27974267
:10196000E1D0491C2A6031600020CEE7FFB5054672
:101970000C4616461F46102D01DC102C02DD0420FB
:1019800004B0F0BD01AA03A92846FFF79AFF6A46F2
:1019900002A92046FFF795FF00990398484330605D
:1019A000DDE90101484338600020E9E70000054017
:1019B00004000810A0610010480008104C00081036
:1019C00010B53AB1294B53F820300B43274C44F85B
:1019D000203006E0254B53F820308B43234C44F84D
:1019E000203010BD224A42F820107047204A803231
:1019F00042F82010704701461E4850F821007047F9
:101A000070B504460D461646324629462046FFF775
:101A1000D7FF70BD10B503460C4621461846FFF7A8
:101A2000E1FF10BD10B503460C4621461846FFF7EE
:101A3000DDFF10BD00B502461046FFF7DCFF00BD1C
:101A400010B54AB1094B803353F820300B43074C93
:101A5000803444F8203008E0044B803353F82030C1
:101A60008B43024C803444F8203010BD00600F409E
:101A700000620F4000610F4010B503F093F9564823
:101A80000068401C54490860FA2815D100200860FD
:101A90005248006840B14FF480710020FFF7A2FF68
:101AA00000204E49086007E04FF480710020FFF7E6
:101AB0009DFF01204949086010BD70B504460D46E0
:101AC0002A462146012000F07FF970BD70B504461A
:101AD0000D46164632462946204600F075F970BD7F
:101AE0002DE9F04107460C46154637B1022F0DD0BF
:101AF000032F0ED0042F1ED114E0002603E0A05DBA
:101B000000F024FA761CAE42F9DB14E001F095F9FE
:101B100011E0002D05DD207801F098FB207803F01E
:101B20003BF908E02946204601F093FB2946204670
:101B300003F08DF800BF00BFBDE8F081FEF744FF61
:101B4000FFF7EDFB00F0FAF900F057F901F05FF94B
:101B5000AFF2730000F035F9AFF2A101AFF29300DC
:101B600001F066F9AFF2AD0001F099FF00231022F9
:101B700001210846FEF746FF012211020020FFF76F
:101B80001FFF1749B1F1807F00D31DE021F07F4096
:101B9000401E4FF0E022506150170722002807DA5C
:101BA00053071D0E0F4B00F00F04241F1D5503E0BB
:101BB00053071C0E0C4B1C5400BF00204FF0E022BA
:101BC00090610720106100BF01F06CFF01E001F09F
:101BD00049F9FCE7FFF7B2FF540008105000081065
:101BE0004019010018ED00E000E400E070B5054682
:101BF0000E461446012C0CD0022C0BD0042C0DD117
:101C0000B848006808B1002070BD0120B5490860DF
:101C100004E000BF0020B349086000BF00BF2246B7
:101C200031462846B04B1B689847EDE710B504468F
:101C3000002010BD10B50446002010BD2DE9F04174
:101C400007460C4615462646022D14D0032D02D019
:101C5000042D29D103E00020A449086024E0F17B91
:101C6000A348006800684023D0F848C0A148026833
:101C70003846E04718E0F17B9D4800680068436CF7
:101C80009C480268384698479B48006858B1994973
:101C900009684A7897490968087896490968891C4B
:101CA000954B1B68984700BF00BF0020BDE8F0813E
:101CB0002DE9F04190B007460C4615461E464FF000
:101CC0000008382102A803F0C5FA01208DF81000A1
:101CD0002120ADF8000000208DF802008748019017
:101CE00014B16079032804D04FF0FF3010B0BDE884
:101CF000F08128680290306803900594804807902E
:101D00008048089080480C900D90CDF818D0784805
:101D10000068006902A942683846904780467549C4
:101D20000298086002984030029003984030039077
:101D3000764902980860029840300290039840303B
:101D4000039002982860039830604046CEE710B5B3
:101D5000674800680068C1686D480068884710BD22
:101D60002DE9F04106460F46144600BF5F48006863
:101D70000028FBD13E2C00DD3E24FF2C00DDFF249B
:101D8000624800680670614909684C70002505E0EA
:101D9000795D5E480268A81C11546D1CA542F7DBF2
:101DA0000120524908605248006800684023D0F87A
:101DB00050C056488121026855480068E047BDE898
:101DC000F0814D49086070472DE9F04780460F4685
:101DD00015463E2600240CE0281BB04201D3B14634
:101DE00001E0A5EB040939194A464046FFF7B8FF60
:101DF0003444AC42F0D3BDE8F087F0B59DB0002686
:101E00000123402203210620FEF7FCFD12210720BA
:101E1000FFF755F901211220FFF78BF907203D4903
:101E200008603D48406820F020003B4948603B483E
:101E300000682F49086044210CA803F00BFA3848C9
:101E40000C904FF000500D9000140E9002208DF871
:101E50003C00182101A803F075F94027002406E092
:101E600001A8005D07EB44012E4A5054641C182C55
:101E7000F6DB2D4807902B4808902C480A902C48F8
:101E800009902C480B901A48006800680CAA07A912
:101E900043681F489847064616BB1D480568124907
:101EA000A86D08602448A8650EAB0DAA2049093129
:101EB00017480068FFF7FCFE06468EB9082001218E
:101EC00081404209920002F1E022C2F8001100BFF5
:101ED000074800680068012182680D480068904743
:101EE0001DB0F0BD40010810440108103C0108106D
:101EF00030010810380108105800081098660010CA
:101F00002D1C0010351C00103D1C00103401081061
:101F10002C01081000180540003004401C0140103E
:101F200000600040B2000810BC6600105C000810A1
:101F300088000810D0660010ED1B001033483449AB
:101F400008600846006833490860704710B50446C9
:101F50002F480068047002F02BFF2F4908802C489E
:101F60000068401C2A4908602C49884202D1274851
:101F700027490860264800682649096888420DD12B
:101F800001202749086023480068401C2149086057
:101F90002249884202D11D481E49086010BD2049CF
:101FA000086800211E4A116070471B48008870476E
:101FB00072B6164816490860084600681549086058
:101FC00062B6704713480168114802688A4201D01E
:101FD000012070470020FCE730B501460D4803683A
:101FE0000B480468A34201D1002030BD09480268B3
:101FF0000068401C074D2860084DA84202D10348E4
:10200000044D2860107808700120EEE734030810B2
:10201000480108104C010810540108108C050810E4
:10202000500108100FB410B59AB0F7480068B0B16D
:102030001DA819906846199A1C9903F025FC0446BE
:1020400000201990F148006820B121466846EF4A07
:102050001268904720461AB010BC5DF814FB0020AF
:10206000F9E7FEB503460C460FF2A43C9CE8C0100D
:102070008DE8C01021461D4600BF491C0A2695FB6D
:10208000F6F50F1B561EB74200DB01E0002DF4D120
:1020900000BF00260E70084600BF491EA14200D2B4
:1020A00012E00A26B3FBF6F706FB17361DF80660AA
:1020B0000E700E78302E01D1067806B908460A2631
:1020C000B3FBF6F3002BE8D100BFFEBD2DE9F041D4
:1020D00007464FF00008002500BFD04850F83500F3
:1020E000B84215D1CD4800EBC5004668CC4C03E0A2
:1020F00016F8010B04F8010B30780028F8D10D20F8
:1021000004F8010B0A2004F8010BC548A4EB0008F1
:102110006D1CC24800EBC50040680028DDD1B8F155
:10212000000F08D0BF48006828B14246BC490020D3
:10213000BC4B1B689847BDE8F0812DE9F04105468E
:102140000C4695F800800027B7480068B8B1002613
:1021500003E0A85DB2498855761CA642F9DB0D2044
:10216000AF4908550A21AE4A601C1154AD480068B9
:1021700028B1A21CAA490020AA4B1B689847012C31
:1021800004DD6878202801D16D1C641E00BFA748BB
:1021900010F83700404508D1611EA44800EBC70085
:1021A0004268681C9047BDE8F0817F1C9F4800EBA7
:1021B000C70040680028EAD10120FFF787FF00BF71
:1021C000F1E710B500209A49086001F0DEFF70B910
:1021D00001F0DEFF0446002C22DA40F249122146CB
:1021E00094A0FFF71FFF0120FFF770FF10BD02F062
:1021F000F7FA0446002C13DA4FF4AA719AA0FFF7FD
:1022000011FF01F0C5FF0446002C09DA4FF4AC724F
:10221000214688A0FFF706FF0120FFF757FFE5E7FB
:102220003F207F4908707F48006820B101220020CC
:102230007C4B1B68984700BFD8E72DE9F047044660
:102240000F461346D3F8009000252246A4460026E8
:10225000A84647E01078202802D0107800283DD109
:1022600094453BD2614628E00878202801D00878C0
:1022700000B921E0087830280BDB0878392808DC21
:1022800006EB860046000878303806444FF0010817
:1022900011E00878412803D100264FF001080AE038
:1022A0000878542803D101264FF0010803E00020EC
:1022B0001860BDE8F08700BF491C9142D4D3B8F143
:1022C000000F07D028466D1C47F8206000264D45BA
:1022D00000D108E04FF0000802F1010C107800B9BD
:1022E00001E0521CB6E700BF1D600120E1E77CB5AC
:1022F00005460C460120009000204D490860052C41
:1023000003D00C20FFF7E2FE7CBD6A4601A92846F7
:10231000FFF793FF18B90C20FFF7D8FEF4E745F656
:102320005A210198884202D01020FFF7CFFE0020EA
:10233000FFF7CCFE01203E49086000BFE4E770B51E
:1023400004460D460020FFF7C1FE70BD70B586B093
:1023500005460E460420019001AA02A92846FFF76F
:102360006CFF20B90C20FFF7B1FE06B070BD0198DC
:10237000042802D00C20FFF7A9FE0598012815D1EA
:1023800048A0FFF74FFE01F000FF002811D101F037
:10239000FFFE0446002C0CDA4FF4D872214625A02B
:1023A000FFF740FE0120FFF791FEDEE748A0FFF7B0
:1023B00039FE53A0DDE902230499FFF733FE02A89A
:1023C00007C802F090FD01205A4908600020FFF77D
:1023D0007DFE00BFC9E770B504460D46012D03D050
:1023E0000120FFF773FE70BD2078302803D1002054
:1023F0000D49086002E001200B4908600020FFF74A
:1024000065FE00BFEFE700007401081064010810CA
:102410003031323334353637383930002402081041
:10242000F105081060010810680108108C010810FF
:10243000700108105357442028636F6E66696775F2
:1024400072652920696E7465726E616C20657272A6
:102450006F7220636F646520307825382E386C5891
:1024600020282564290A00004661696C656420748F
:102470006F2068616C7420636F72652C20617373C8
:10248000756D696E67206E6F7420616C7265616432
:102490007920636F6E6669677572656420282564AC
:1024A000290A000053574420696E697420726571CF
:1024B00075657374656420696E20706173737468E8
:1024C000726F75676820636F6D6D616E640A0000DE
:1024D00053574420696E6974206E6F742072657161
:1024E00075657374656420696E20706173737468B8
:1024F000726F75676820636F6D6D616E640A0000AE
:102500002564206D61696C626F78657320757369ED
:102510006E672052414D206C6F63732030782538F0
:102520002E386C5820616E6420307825382E386C37
:10253000580A0000E00208103EB504460D4602208D
:1025400000906A4601A92046FFF777FE18B90C20D3
:10255000FFF7BCFD3EBD0098022802D00C20FFF71B
:10256000B5FD0298B0F5806F02DD0C20FFF7AEFDDF
:10257000FB4901980860FB4902980860FA48FB494A
:1025800008600020FA4908600120FA49086000202C
:10259000FFF79CFD00BFDDE73EB504460D46022077
:1025A00000906A4601A92046FFF747FE18B90C20A3
:1025B000FFF78CFD3EBD0098022802D00C20FFF7EB
:1025C00085FD0298B0F5806F02DD0C20FFF77EFDDF
:1025D0000020FFF77BFDE24901980860E14902987D
:1025E0000860E148E14908600020E14908600220F4
:1025F000E049086000BFDDE7F0B58BB006460F4646
:1026000004200A90142105A802F024FE1421684633
:1026100002F020FE0AAA06A93046FFF70EFE20B9F6
:102620000C20FFF753FD0BB0F0BD3220059069463A
:1026300005A801F02BFC0446002C07DA2146CEA0A9
:10264000FFF7F0FC0120FFF741FDECE7009D1DB115
:102650002846FFF73BFDE6E72846FFF737FD00BFBA
:10266000E1E7F0B58DB006460F4604200C90182126
:1026700006A802F0EFFD1821684602F0EBFD0CAA57
:1026800007A93046FFF7D9FD20B90C20FFF71EFD42
:102690000DB0F0BDC24806AA41680C98401C42F833
:1026A0002010C048006810B90F20FFF70FFD33203D
:1026B0000690694606A801F0E9FB0446002C07DAFB
:1026C0002146B9A0FFF7AEFC0120FFF7FFFCDFE7D2
:1026D000009D1DB12846FFF7F9FCD9E72846FFF712
:1026E000F5FC00BFD4E72DE9FE43074688460220EB
:1026F00000906A4601A93846FFF79FFD20B90C20DB
:10270000FFF7E4FCBDE8FE830098022802D00C200D
:10271000FFF7DCFC019D029E32462946ADA0FFF783
:1027200081FC3146284602F088FA04463CB1214635
:10273000B2A0FFF777FC0120FFF7C8FCE2E700201A
:10274000FFF7C4FC00BFDDE7FEB506460F460220DA
:1027500000906A4601A93046FFF76FFD18B90C20BA
:10276000FFF7B4FCFEBD0098022802D00C20FFF752
:10277000ADFC019D8B48006810B90F20FFF7A6FC47
:102780002946A8A0FFF74EFC284601F006FA0446A9
:10279000002C07DA2146AFA0FFF744FC0120FFF729
:1027A00095FCDFE700BFDDE7F0B58DB006460F46CC
:1027B00004200C90182106A802F04CFD1821684650
:1027C00002F048FD0CAA07A93046FFF736FD20B9F4
:1027D0000C20FFF77BFC0DB0F0BD0C9803280FD147
:1027E00006A80C9950F8211006AA0C98401C42F833
:1027F00020106B48406806A90C9A41F8220006E0B8
:10280000674806AA41680C98401C42F820106548A9
:10281000006810B90F20FFF759FC34200690694674
:1028200006A801F033FB0446002C07DA214693A0EA
:10283000FFF7F8FB0120FFF749FCCCE7009D1DB135
:102840002846FFF743FCC6E72846FFF73FFC00BFDA
:10285000C1E7F0B58DB006460F4604200C90182154
:1028600006A802F0F7FC1821684602F0F3FC0CAA57
:1028700007A93046FFF7E1FC20B90C20FFF726FC42
:102880000DB0F0BD464806AA41680C98401C42F8BD
:1028900020104448006810B90F20FFF717FC3B20B8
:1028A0000690694606A801F0F1FA0446002C07DA02
:1028B00021467DA0FFF7B6FB0120FFF707FCDFE70D
:1028C000009D1DB12846FFF701FCD9E72846FFF718
:1028D000FDFB00BFD4E770B5064635467D4C03E0EE
:1028E00015F8010B04F8010B28780028F8D10D2009
:1028F00004F8010B0A2004F8010B7748006830B196
:102900007448221A01460020734B1B68984770BD1B
:102910002DE9F0418EB00646884604200D90142122
:1029200005A802F097FC1421684602F093FC0DAA5A
:1029300006A93046FFF781FC28B90C20FFF7C6FB3B
:102940000EB0BDE8F08135200590694605A801F07C
:102950009DFA0546002D01DA2946BFE0C5E00000DA
:10296000800108107C010810580708108401081025
:10297000880108106C01081053574420707265706C
:1029800020736374727320696E7465726E616C205B
:102990006572726F7220307825382E386C580A00B4
:1029A0007401081070010810535744206370792097
:1029B00072616D20666C61736820696E7465726EF9
:1029C000616C206572726F7220307825382E386CF9
:1029D000580A000053657474696E67207265672039
:1029E000617420307825382E386C5820746F203070
:1029F0007825382E386C580A000000004661696C52
:102A0000656420746F20777269746520746F20721A
:102A100065672E20526573756C74203D2025640A0D
:102A2000000000005374617274696E6720657865F8
:102A3000637574696F6E2066726F6D20766563745E
:102A4000207461626C6520617420307825382E38DE
:102A50006C580A0053574420657865637574652087
:102A6000696E7465726E616C206572726F7220306F
:102A70007825382E386C580A00000000535744203F
:102A8000657261736520736563746F727320696E1C
:102A90007465726E616C206572726F722030782579
:102AA000382E386C580A0000535744206572617301
:102AB0006520706167657320696E7465726E616C04
:102AC000206572726F7220307825382E386C580A63
:102AD00000000000F105081060010810FEA0FFF7DB
:102AE000A1FA0120FFF7F2FA2AE7009C2CB1082C8A
:102AF00003D02046FFF7EAFA22E72046FFF7E6FA7E
:102B0000082C0FD10B220AA90198FFF7AAFA074651
:102B1000FFF7E1FE0B220AA90298FFF7A2FA074687
:102B2000FFF7D9FE00BF0BE72DE9F0418EB08046DC
:102B30000E46142106A802F08DFB142101A802F014
:102B400089FB2EB10120FFF7C1FA0EB0BDE8F0817C
:102B50003620069001A906A801F098F90446002C39
:102B600007DA2146E7A0FFF75DFA0120FFF7AEFA8A
:102B7000EBE7019D1DB12846FFF7A8FAE5E72846D7
:102B8000FFF7A4FA0B220BA90298FFF76AFA07468F
:102B9000FFF7A1FE00BFD8E72DE9F0418EB08046D7
:102BA0000E46142109A802F055FB142104A802F0D6
:102BB00051FB2EB10120FFF789FA0EB0BDE8F0817C
:102BC0003720099004A909A801F060F90446002CF7
:102BD00007DA2146D6A0FFF725FA0120FFF776FA9B
:102BE000EBE7049D1DB12846FFF770FAE5E728469C
:102BF000FFF76CFA0B2201A90598FFF732FA074696
:102C0000FFF769FE0B2201A90698FFF72AFA07468B
:102C1000FFF761FE00BFD0E72DE9F0418EB0064618
:102C2000884604200D90142108A802F013FB1421FB
:102C300003A802F00FFB0DAA09A93046FFF7FDFA21
:102C400028B90C20FFF742FA0EB0BDE8F081382019
:102C5000089003A908A801F019F90546002D07DA24
:102C60002946BFA0FFF7DEF90120FFF72FFAEBE7B7
:102C7000039C2CB10A2C03D02046FFF727FAE3E788
:102C80002046FFF723FA0A2C07D10B226946049845
:102C9000FFF7E7F90746FFF71EFE00BFD4E72DE96F
:102CA000F0418EB007460E46142109A802F0D2FA70
:102CB000142104A802F0CEFA2EB10120FFF706FA83
:102CC0000EB0BDE8F0813A20099004A909A801F0EE
:102CD000DDF80446002C07DA2146ABA0FFF7A2F985
:102CE0000120FFF7F3F9EBE7049D1DB12846FFF73C
:102CF000EDF9E5E72846FFF7E9F90B2201A9059868
:102D0000FFF7AFF98046FFF7E6FD0B2201A9069811
:102D1000FFF7A7F98046FFF7DEFD0B2201A9079810
:102D2000FFF79FF98046FFF7D6FD0B2201A908980F
:102D3000FFF797F98046FFF7CEFD00BFC0E72DE90A
:102D4000F04F91B081468B4604200E90142109A8C3
:102D500002F080FA142104A802F07CFA0EAA0FA94E
:102D60004846FFF76AFA28B90C20FFF7AFF911B00F
:102D7000BDE8F08F0E9801281CD13C20099000205E
:102D80000A9004A909A801F081F80446002C07DA8A
:102D9000214687A0FFF746F90120FFF797F9E6E7FC
:102DA000049D1DB12846FFF791F9E0E72846FFF79B
:102DB0008DF9DCE70E98022802D00C20FFF786F987
:102DC0000F9E1098871906F0030018B10D20FFF729
:102DD0007DF9CCE707F0030018B10620FFF776F97C
:102DE000C5E74FF000080020FFF770F90B2201A99A
:102DF0004046FFF736F98246FFF76DFD00BFB6E7A4
:102E0000764877490860002076490860704710B519
:102E1000FFF7F6FF0120744908600020734908603D
:102E2000734908607349086042F6E060486010BD6D
:102E3000714A1060714A1160704708B51B200090FC
:102E40006F48006830B10121684602F076F8002032
:102E50006B490860FFF7ACF8FFF7D2FF0020634929
:102E6000086008BD2DE9F047FFF79FF80746FFF718
:102E700096F848B163A0FFF7D5F8FFF799F8FFF788
:102E8000BFFF002059490860FFF79CF8002821D0B7
:102E90005B480068E8B15148514908600020514939
:102EA00008600EE04E480068FFF796F848B14C48BD
:102EB0000068401C4A4908604A480068401C49496B
:102EC0000860FFF77FF80028ECD14648006800282A
:102ED000A6E0ACE04BE1000053574420626C616E09
:102EE0006B20636865636B20696E7465726E616CDC
:102EF000206572726F7220307825382E386C580A2F
:102F000000000000535744207265616420706172B4
:102F10007420696420696E7465726E616C206572DC
:102F2000726F7220307825382E386C580A000000F5
:102F3000535744207265616420626F6F74726F6DC5
:102F40002076657220696E7465726E616C206572A0
:102F5000726F7220307825382E386C580A000000C5
:102F600053574420636F6D7061726520696E74659C
:102F7000726E616C206572726F7220307825382E07
:102F8000386C580A00000000535744207265616491
:102F90002075696420696E7465726E616C2065725B
:102FA000726F7220307825382E386C580A00000075
:102FB0005357442073657420666C736820626E6B8F
:102FC00020696E7465726E616C206572726F72201A
:102FD000307825382E386C580A0000008C0508100F
:102FE000580108105C010810680108106C010810F5
:102FF00070010810740108106001081064010810C5
:10300000E002081052656365697665206275666640
:103010006572206F766572666C6F770A000000003B
:1030200004DD99480168994801F087FFBFE098E006
:1030300097480068002862D196480068FEF7CCFFE8
:103040000028F4D090480068401C8F4908609148DF
:10305000006800783F2808D108460068012804D19C
:10306000FFF7AFF8FFF7CCFE7BE08A4800680078F6
:103070001B2808D184480068012804D1FEF798FF76
:10308000FFF7BEFE6DE08348006800780A281CD177
:103090007D480068022818DB7E48006810F8010CA3
:1030A0000D2812D100207B49096801F8010C7648EF
:1030B0000068811E7548FFF740F8FFF7A1FE7448CD
:1030C000006800284DD0BDE8F0876F48006864288C
:1030D0000FD100206D4981F864006B4801686B488E
:1030E000FFF72BF8FFF78CFE69480068002838D0FE
:1030F000E9E768480068401C6649086031E06448B8
:10310000006801282DD164480068FEF765FF40B3D0
:1031100061480068401C6049086060480068401CC5
:103120005E490860084600685D490968884204D025
:103130005A480068B0F5806F13D15A480268574862
:103140000168594801F050FB0546002D06DA294672
:1031500056A0FEF767FF0120FEF7B8FF00204C499C
:103160000860FEF72FFF00287FF462AF1FE042F2F5
:103170001071394488B201F01EFEC0B144480068A5
:1031800030B94348006890B93F48006800280EDD18
:1031900001F00EFE81464B463A463D4801684EA07E
:1031A000FEF740FFFFF72CFE002039490860384841
:1031B0000068022833D100242AE039480068001B47
:1031C000B0F5806F02D34FF4806602E034480068A7
:1031D000061B3448006802193146334801F009FDE6
:1031E0000546002D09DA294649A0FEF71BFF0120FC
:1031F000FEF76CFFFEF7DCFE08E05048006828B1DF
:103200003246294900204D4B1B68984704F58064DD
:10321000234800688442D0D300201D4908604848F4
:10322000006888B108E04548006828B14246454931
:103230000020424B1B6898474FF48071414801F0D1
:10324000D1FDB0F10008EEDC00BF3CE73E4908606C
:103250007047282900DA70472722125C13062622BD
:10326000125C43EA02432522125C43EA022290F8F0
:1032700024301A43344B5A601A46526812B942F647
:10328000E0625A6000BFE6E75C0108108C05081098
:103290006C010810580108108401081088010810FA
:1032A0007C0108108001081058070810535744206B
:1032B000636F707920746F2072616D20696E746520
:1032C000726E616C206572726F7220307825382EB4
:1032D000386C580A0000000052782074696D656FE0
:1032E00075742C206D6F64652025642C206C6173CF
:1032F000743D2564206D732C206E6F773D2564200E
:103300006D732C20656D7074793D25640A00000092
:103310005357442072656164206D656D6F7279202A
:10332000696E7465726E616C206572726F722030A6
:103330007825382E386C580A00000000600108100B
:10334000E002081055060810740108100FB410B5FB
:103350009AB0FC48406AB0B11DA819906846199A05
:103360001C9902F091FA044600201990F648006872
:1033700020B121466846F44A1268904720461AB0A8
:1033800010BC5DF814FB0020F9E710B520210520E2
:10339000FEF72CFB40210520FEF724FB01F008FD81
:1033A000E8490968441800BFA0B201F004FD0028F4
:1033B000FAD010BD10B520210520FEF713FB4021E7
:1033C0000520FEF713FB01F0F3FCDE4949684418C1
:1033D00000BFA0B201F0EFFC0028FAD010BD10B57C
:1033E0000023082206210120FDF70CFB01225102D7
:1033F0001046FEF7E5FA4FF480710120FEF7F2FA6D
:1034000010BD10B54FF480710120FEF7EFFA0023D4
:10341000502206210120FDF7F5FA00224FF4007139
:103420000120FEF7CDFA10BD00BF011EA0F1010082
:10343000FBD1704710B504460FE00120FFF7F4FF01
:103440004FF480510020FEF7CDFA0220FFF7ECFF89
:103450004FF480510020FEF7C9FA201EA4F10104A8
:10346000EBD110BD10B504464FF400710120FEF7FA
:10347000BDFA2046FFF7DEFF4FF47A70FFF7D4FF66
:1034800010BD10B54FF400710120FEF7ABFA3720E4
:10349000FFF7D0FF10BD70B504460D46002612E0C0
:1034A00004F0010028B14FF400710120FEF79AFAF0
:1034B00004E04FF400710120FEF798FA640801203F
:1034C000FFF7B8FF761CAE42EAD370BD2DE9F04796
:1034D00007460E4690464FF000090024FFF77FFF95
:1034E0004FF400710120FEF77DFA0120FFF7A2FFE3
:1034F00037B14FF400710120FEF774FA641C04E048
:103500004FF400710120FEF771FA0120FFF792FFDE
:10351000B8F1000F06D04FF400710120FEF762FAF7
:10352000641C04E04FF400710120FEF75FFA0120F3
:10353000FFF780FF06F0010030B14FF40071012069
:10354000FEF750FA641C04E04FF400710120FEF70E
:103550004DFA0120FFF76EFF06F0020030B14FF484
:1035600000710120FEF73EFA641C04E04FF4007184
:103570000120FEF73BFA0120FFF75CFF04F0010099
:1035800028B14FF400710120FEF72CFA04E04FF44B
:1035900000710120FEF72AFA0120FFF74BFF4FF4DC
:1035A00000710120FEF722FA0120FFF743FF4FF4DC
:1035B00000710120FEF716FA0120FFF73BFFFFF72D
:1035C00020FF0120FFF736FF0120FEF714FAC0F3B9
:1035D00040250120FFF72EFF0120FEF70CFAC0F373
:1035E000402000EB45050120FFF724FF0120FEF7F6
:1035F00002FAC0F3402000EB45050120FFF71AFF57
:10360000022D02D16FF0630908E0012D02D16FF0A5
:10361000640903E0042D01D06FF065094846BDE858
:10362000F0872DE9F047804689461446002600279A
:10363000002249464046FFF749FF0746002F02DABD
:103640003846BDE8F0870120FFF7F4FEFFF7C7FE1C
:103650000026002513E004F0010030B14FF40071A2
:103660000120FEF7BFF9761C04E04FF40071012041
:10367000FEF7BCF964080120FFF7DCFE6D1C202D6D
:10368000E9D306F0010028B14FF400710120FEF7E4
:10369000A9F904E04FF400710120FEF7A7F9012019
:1036A000FFF7C8FE0A20FFF7DDFEFFF7AAFE0020A5
:1036B000C7E72DE9F04781468A46154600270026D0
:1036C000B046012251464846FFF700FF8046B8F158
:1036D000000F02DA4046BDE8F087002600240DE026
:1036E0000120FEF788F9C0F3402018B10120A04066
:1036F0000743761C0120FFF79DFE641C202CEFD3AE
:103700000120FEF778F9C0F3402000B1761C4FF499
:1037100000710120FEF76AF9FFF761FE0A2100201F
:10372000FFF7B9FE4FF47A70FFF77EFE05B12F6008
:1037300006F0010008B16FF06608FFF762FE404630
:10374000C9E70000580B0810D40208102DE9F04119
:1037500005460F460026052D03D16FF06700BDE832
:10376000F081002414E04CB106F1650020B91E215F
:103770000020FFF7EBFF01E03046F0E7A9083A46EA
:103780000020FFF74EFF0646002E00DB02E0641C1F
:10379000032CE8D300BF3046E1E72DE9F0410546B0
:1037A0000F460026052D03D16FF06700BDE8F081BC
:1037B000002414E04CB106F1650020B91E21002060
:1037C000FFF7C4FF01E03046F0E7A9083A460020C1
:1037D000FFF76FFF0646002E00DB02E0641C032C9F
:1037E000E8D300BF3046E1E7F8B504460E460025B1
:1037F000002000902109009861F307100090082034
:103800000099FFF7A3FF054605F1650018B91E21D1
:103810000020FFF79BFF002D01DA2846F8BD324655
:10382000C4F381010120FFF7FCFE05462846F5E7B9
:10383000F8B504460D4600260020009021090098A6
:1038400061F30710009008200099FFF77FFF0646FC
:103850002A46C4F381010120FFF72BFF06462A46C2
:1038600003210020FFF725FF06463046F8BD70B55E
:1038700004460E46002524F0030421460420FFF7E9
:10388000B3FF0546002D01DA284670BD31460C20F5
:10389000FFF7AAFF05462846F7E7F8B504460D46A8
:1038A000002624F0030421460420FFF79DFF06466E
:1038B000002E01DA3046F8BD69460C20FFF7B8FF4C
:1038C000064605B12E600098F5E72DE9F041044663
:1038D0000F469046002524F0030421460420FFF7FC
:1038E00083FF0546002D02DA2846BDE8F081002658
:1038F0000AE039463F1D0C20FFF79AFF0546002DD0
:1039000000DA03E0241D761C4645F2D300BF2846AA
:10391000EBE770B5054600260021F748FFF7BDFF2D
:1039200004464FF6FE70044025B124F00804F34825
:10393000044302E0F148401E04432146EE48FFF7ED
:1039400096FF0646304670BD70B501F031FA054667
:10395000EB49E948E438FFF78AFF044600BF00213D
:10396000E548FFF79AFF0446E6490989294488B2E9
:1039700001F021FA10B16FF0630070BD04F0007027
:103980000028ECD00020F8E710B50024DB49DA4825
:10399000FFF76DFF0446002C01DA204610BD2046DB
:1039A000FCE710B50024D549091DD348FFF75FFF98
:1039B0000446002C01DA204610BD2046FCE770B515
:1039C000002401F0F5F90646CC490A31CA48FFF750
:1039D0004EFF0446002C01DA204670BD00BF0021D6
:1039E000C548FFF75AFF0546C6490989314488B2E0
:1039F00001F0E1F910B16FF06300EEE705F400307B
:103A0000B0F5003FEBD12046E7E738B56946BA4844
:103A1000FFF743FF04460098002801DA002038BD74
:103A200004F4003008B10120F9E70020F7E710B5F1
:103A300001F0BEF9044609E0B2490989214488B27F
:103A400001F0B9F910B16FF0630010BDFFF7DDFFB1
:103A50000028F1D00020F8E770B504460D46002696
:103A60002946A5480830FFF702FF064644F4803196
:103A7000A148001DFFF7FBFE0646304670BD70B53D
:103A800004460D4621469C48001DFFF7F0FE2946DE
:103A900099480830FFF701FF0646304670BD9A4945
:103AA0000860704710B50023102206210120FCF7A2
:103AB000A9FF0023102205210120FCF7A3FF00230A
:103AC000102211210120FCF79DFF04231022052163
:103AD0000220FCF797FF0423102206210220FCF7A6
:103AE00091FF002310220B210220FCF78BFF0423FF
:103AF000102203210220FCF785FF0122110210464B
:103B0000FDF75EFF012211030020FDF759FF01229E
:103B100020210520FDF754FF012240210520FDF75B
:103B20004FFF012251021046FDF74AFF0122D10248
:103B30001046FDF745FF012208210520FDF740FF53
:103B40000020724908604FF400610120FDF74AFF30
:103B500008210520FDF746FFFFF72CFC03206949EB
:103B6000086048604FF4FA6088606948C860684837
:103B700028300861664818304861664888616648A0
:103B8000C8610420086200208862C86208630120BE
:103B9000486300208863486210BDF8B50446FFF70B
:103BA0000EFF00900098002807DA40F2EB325BA08D
:103BB0000099FFF7CBFB0098F8BD01214E480C306F
:103BC000FFF755FE00900098002807DA40F2F33224
:103BD0005AA00099FFF7BAFB0098EDE7FFF7B4FE93
:103BE0000090009800280EDA40F2FA325CA00099AA
:103BF000FFF7ACFB434840F2FB32816861A0FFF75E
:103C0000A5FB0098D8E7FFF712FF00900098002866
:103C100006DA40F2044165A0FFF798FB0098CBE775
:103C20004FF0807134480C30FFF721FE009000986F
:103C3000002807DA40F20C4240A00099FFF786FB0B
:103C40000098B9E769462046FFF727FE0646009828
:103C5000002808DA40F2144321465DA0009AFFF7DD
:103C600075FB0098A8E7314664A0FFF76FFB31466B
:103C70000D20FFF7F1FE00900098002807DA40F2CF
:103C80001B4265A00099FFF761FB009894E7694625
:103C9000201DFFF702FE05460098002808DA40F2D2
:103CA0002343211D4AA0009AFFF750FB009883E7A9
:103CB000294660A0FFF74AFB29460F20FFF7CCFEFC
:103CC00000900098002807DA40F22A4260A000998C
:103CD000FFF73CFB00986FE764A0FFF737FB00207D
:103CE0000A490860FFF750FE00900098002802DAA9
:103CF00040F25742C2E0C7E0F0ED00E001005FA0F3
:103D00000400FA05580B0810D4020810D802081055
:103D10000800000204020003FC0100024661696C15
:103D2000656420746F2068616C7420636F72652015
:103D30002D20256420282564290A00004661696C2D
:103D4000656420746F2077726974652044454D4323
:103D500052202D20256420282564290A0000000017
:103D6000436F726520646562756720726573657460
:103D7000206661696C6564202D20256420282564F7
:103D8000290A00005265736574206469646E2774A3
:103D90002068617070656E2077697468696E20258F
:103DA00064206D7320282564290A00004661696C2F
:103DB000656420746F207761697420666F72206378
:103DC0006F72652068616C7420282564290A0000E0
:103DD0004661696C656420746F207265616420615E
:103DE00064647265737320307825382E386C5820DF
:103DF0002D20256420282564290A00004C6F616469
:103E0000696E6720535020776974682030782538B0
:103E10002E386C580A0000004661696C6564207495
:103E20006F20736574205350202D20256420282591
:103E300064290A004C6F6164696E672050432077E3
:103E400069746820307825382E386C580A000000D4
:103E50004661696C656420746F20736574205043FB
:103E6000202D20256420282564290A0052657375B9
:103E70006D696E6720636F72650A0000F6A0009995
:103E8000FFF764FA009897E6009895E62DE9FC475D
:103E900007468846002001900090FFF7C8FD01907A
:103EA0000198002808DA40F27641AFF20010FFF7DF
:103EB0004DFA0198BDE8FC8701A91020FFF7DFFD4E
:103EC00006460198002806DA40F27E41EBA0FFF793
:103ED0003DFA0198EEE706F01F00032807D140F2F3
:103EE0008341EDA0FFF732FA6FF06400E2E7F54896
:103EF000C1691120FFF7B0FD01900198002808DA90
:103F0000F04840F28B42C169EFA0FFF71FFA019819
:103F1000D0E7EC48C568002411E000212846FFF7EF
:103F2000A6FC01900198002807DA40F29642294643
:103F3000EFA0FFF70BFA0198BCE72D1D641C052CC0
:103F4000EBDBE0480569002419E034B94FF0FF319C
:103F50002846FFF78CFC019004E000212846FFF77B
:103F600086FC01900198002807DA40F2A542294614
:103F7000DFA0FFF7EBF901989CE72D1D641C052CD1
:103F8000E3DBD048C568002412E057F82410284627
:103F9000FFF76DFC01900198002807DA40F2B24269
:103FA0002946D3A0FFF7D2F9019883E72D1D641CA1
:103FB000052CEADBC348C1680020FFF74DFD0190E6
:103FC0000198002808DABF4840F2BC42C168D2A07C
:103FD000FFF7BCF901986DE7BA4801690120FFF7C6
:103FE0003BFD01900198002808DAB64840F2C24231
:103FF0000169D2A0FFF7AAF901985BE7B1484069CF
:10400000411C0E20FFF728FD01900198002809DAD5
:10401000AC484069411C40F2CA42D1A0FFF796F972
:10402000019847E7A7494869D649FFF720FC019066
:104030000198002808DAA34840F2D3424169D2A08F
:10404000FFF784F9019835E79E488069B0B19D4833
:104050008169D8A0FFF77AF99A4881690F20FFF7A4
:10406000FBFC01900198002833DA964840F2ED42BB
:104070008169DAA0FFF76AF901981BE79148816A24
:10408000DFA0FFF763F98F49886A01A9FFF705FCF4
:1040900005460198002808DA8A4840F2FB42816A06
:1040A000E5A0FFF753F9019804E72946C1A0FFF7FF
:1040B0004DF929460F20FFF7CFFC01900198002809
:1040C00007DA40F207522946C4A0FFF73FF90198EA
:1040D000F0E6FFF759FC01900198002806DA4FF44A
:1040E000A261DFA0FFF732F90198E3E6FFF79FFC3A
:1040F00001900198002812DA4FF4A361AFF2543016
:10410000FFF724F9FFF75BFC69460F20FFF7B7FCC8
:1041100081464946D9A0FFF719F90198CAE66948CE
:104120000569002412E001A92846FFF7B6FB48F80C
:1041300024000198002807DA4FF4A5622946D8A088
:10414000FFF704F90198B5E62D1D641C052CEADB88
:104150000198AFE610B58AB0142105A801F07AF8ED
:104160001421684601F076F831200590694605A8CB
:10417000FFF78CFE0446002C05DA2146D0A0FFF79D
:10418000E5F80AB010BD00BFFBE7D84800687047EB
:104190003EB5002002904FF400610120FDF726FC9F
:1041A00008210520FDF722FCD1A0FFF7CFF8FFF78B
:1041B000ECF8D5A0FFF7CAF8FFF7FCF80020CB49D0
:1041C00008604FF400610120FDF70CFC0821052078
:1041D000FDF708FC4FF480510020FDF707FC4FF479
:1041E00080510020FDF7FEFB4FF480510020FDF7C9
:1041F000FDFB4FF480510020FDF7F4FBFFF7EFF8D3
:10420000FFF73FF910214EF29E70FFF744F9FFF7D8
:1042100038F90C210020FFF73EF901AA00210846D9
:10422000FFF747FA02900298002805DABDA002992C
:10423000FFF78CF802983EBD1E2200210846FFF7CA
:10424000F0F902900298002805DABDA00299FFF764
:104250007DF80298EFE781E14661696C656420743E
:104260006F20726573756D6520636F7265202D20F8
:10427000256420282564290A000000004661696C35
:10428000656420746F207265616420505352202849
:104290002564290A00000000436F726520697320BD
:1042A000696E20686172642D6661756C742C206380
:1042B000616E27742075736520494150202825645C
:1042C000290A0000580B08104661696C6564207467
:1042D0006F207365742074686520535020746F20BC
:1042E000307825382E386C5820282564290A00009B
:1042F0004661696C656420746F207772697465200B
:10430000746F206C6F6320307825382E386C5820FD
:10431000282564290A0000004661696C65642074E0
:104320006F2073657420523020746F2030782538E8
:104330002E386C5820282564290A00004661696CD3
:10434000656420746F2073657420523120746F206F
:10435000307825382E386C5820282564290A00002A
:104360004661696C656420746F20736574204C52DB
:1043700020746F20307825382E386C58202825641A
:10438000290A0000AABEAABE4661696C6564207451
:104390006F2073657420307825382E386C5820745F
:1043A0006F203078424541414245414120282564F3
:1043B000290A00005573696E672049415020656ED7
:1043C0007472792061646472657373206F66203043
:1043D0007825382E386C580A000000004661696C58
:1043E000656420746F2073657420504320746F20BF
:1043F000307825382E386C5820282564290A00008A
:1044000052656164696E672049415020656E74721F
:104410007920616464726573732066726F6D2074B5
:1044200061626C6520656E747279206174203078E9
:1044300025382E386C580A004661696C6564207412
:104440006F20726420524F4D206472762074626C2B
:1044500020307825382E386C5820282564290A0009
:104460004661696C656420746F20726573756D6553
:1044700020636F726520282564290A00466F7263E5
:10448000656420636F72652068616C742E205043F0
:10449000203D20307825382E386C580A0000000066
:1044A0004661696C656420746F20726561642030B8
:1044B0007825382E386C5820282564290A000000F9
:1044C0005357442049415020696E697420636D64DC
:1044D00020696E7465726E616C206572726F7220F5
:1044E000307825382E386C580A000000D8020810A1
:1044F000417373657274696E672074617267657465
:104500002072657365740A00446561737365727423
:10451000696E672074617267657420726573657473
:104520000A00000053574420726573657420666169
:10453000696C6564202D202564202831290A00003B
:10454000535744207265736574206661696C6564B5
:10455000202D202564202832290A0000AB4A0121A1
:104560000020FFF75EF802900298002805DAA8A064
:104570000299FEF7EBFE02985DE6AC490020FFF7DA
:1045800033F902900298002805DAA9A00299FEF7F3
:10459000DDFE02984FE60120FFF7BBF9029002987A
:1045A000002805DAA9A00299FEF7D0FE029842E69B
:1045B0000121AE48FFF75BF902900298002805DA66
:1045C000ABA00299FEF7C2FE029834E6FFF7BCF9F1
:1045D0000290029800280ADAADA00299FEF7B6FE12
:1045E000B3488168B3A0FEF7B1FE029823E6FFF757
:1045F0001EFA02900298002804DAB7A0FEF7A6FE81
:10460000029818E64FF080719848FFF730F9029051
:104610000298002805DAB9A00299FEF797FE0298E1
:1046200009E602A90F20FFF72AFA05462946BBA092
:10463000FEF78CFE9E48406B002878D09C48016AAB
:10464000BFA0FEF783FE9A48016AC948FFF70FF939
:1046500002900298002805DAC6A00299FEF776FEBD
:104660000298E8E50021C248001DFFF700F902901A
:104670000298002805DAC8A00299FEF767FE0298A2
:10468000D9E540F60501BA480830FFF7F0F8029086
:104690000298002805DAC9A00299FEF757FE029891
:1046A000C9E5FFF7B2F918B1CDA0FEF74FFE02E061
:1046B000D0A0FEF74BFEFFF767F9029002980028A2
:1046C00005DAD2A00299FEF741FE0298B3E5FFF7A2
:1046D0009CF918B1D5A0FEF739FE02E0D8A0FEF78C
:1046E00035FEFFF7A4F902900298002804DADAA058
:1046F000FEF72CFE02989EE502A90F20FFF7BFF9F6
:1047000005466B482A46016ADCA0FEF71FFE002121
:1047100097480830FFF7ABF802900298002806DAB5
:10472000E1A00299FEF712FE029884E5FFE700215E
:104730004E48FFF79CF802900298002805DAE3A0A3
:104740000299FEF703FE029875E55948C1691120E8
:10475000FFF782F902900298002805DAE3A0029997
:10476000FEF7F4FD029866E569460020FFF715F8AC
:1047700002900298002805DAE6A00299FEF7E6FD0D
:10478000029858E5EAA00099FEF7E0FD02A9102082
:10479000FFF775F904460298002805DAE9A00299A6
:1047A000FEF7D4FD029846E504F01F00032805D16A
:1047B000EAA0FEF7CBFD6FF064003CE5F3A0FEF746
:1047C000C5FD3B48806B20B1F8A0FEF7BFFDFFF7A9
:1047D000C1FC029810B90120FB49086002982AE543
:1047E00010B5FFF7ECF810BD2DE9F04780460C46F8
:1047F0009146E11704EB91718910A4EB810119B185
:104800006FF00100BDE8F087E0E10000010000501A
:10481000535744207265736574206661696C6564E2
:10482000202D202564202833290A000012000023AF
:10483000535744207265736574206661696C6564C2
:10484000202D202564202834290A0000436F72653A
:1048500020646562756720656E61626C65206661C3
:10486000696C6564202D2025640A0000FCED00E0E1
:104870004661696C656420746F2077726974652085
:1048800044454D4352202D202564202831290A001B
:10489000436F726520646562756720726573657425
:1048A000206661696C6564202D2025640A00000083
:1048B000580B08105265736574206469646E277420
:1048C0002068617070656E2077697468696E202554
:1048D00064206D730A0000004661696C6564207491
:1048E0006F207761697420666F7220636F72652034
:1048F00068616C74202833290A0000004661696CE5
:10490000656420746F2077726974652044454D4357
:1049100052202D202564202832290A005265736513
:104920007420696E746F20626F6F74726F6D2E20C9
:104930005043203D20307825382E386C580A00002E
:1049400053657474696E672072642077746368704D
:104950006E7420666F72207265736574207665636D
:10496000746F7220307825382E386C580A00000099
:10497000201000E04661696C656420746F207772D6
:10498000697465204457545F434F4D5030202D20AB
:104990002564202831290A004661696C6564207409
:1049A0006F207772697465204457545F4D41534BB3
:1049B00030202D202564202831290A004661696CA9
:1049C000656420746F207772697465204457545F62
:1049D00046554E4330202D202564202831290A00D9
:1049E000436F72652069732068616C746564202868
:1049F00031290A00436F7265206973206E6F74203D
:104A000068616C746564202831290A00436F7265FF
:104A100020646562756720726573756D65206661D7
:104A2000696C6564202D2025640A0000436F72655F
:104A30002069732068616C746564202832290A003B
:104A4000436F7265206973206E6F742068616C74A7
:104A50006564202832290A004661696C6564207407
:104A60006F207761697420666F7220636F726520B2
:104A700068616C74202834290A0000004869742099
:104A800072642077746368706E742061742030786B
:104A900025382E386C582E205043203D2030782564
:104AA000382E386C580A00004661696C65642074C1
:104AB0006F207772697465204457545F46554E43A2
:104AC00030202D202564202832290A004661696C97
:104AD000656420746F2077726974652044454D4386
:104AE00052202D202564202833290A00436F726547
:104AF00020646562756720777269746520726567E6
:104B00006973746572206661696C6564202D202567
:104B1000640A00004944434F4445207265616420A3
:104B20006661696C6564202D2025640A0000000020
:104B30004944434F44453A20307825382E386C5844
:104B40000A0000005053522072656164206661695A
:104B50006C6564202D2025640A00000043616E27E7
:104B60007420696E6974616C697A652053574420BA
:104B70002D20636F726520697320696E20686172F1
:104B8000642D6661756C740A000000005357442060
:104B9000636F6E66696775726174696F6E20737595
:104BA000636365656465640A0000000043616C6CC2
:104BB000696E672049415020696E697420636F6D8A
:104BC0006D616E640A000000D80208104746002597
:104BD00009E002CF09EB0500FEF749FE0646002E6C
:104BE00000DA02E02D1DA542F3DB00BF3046BDE830
:104BF000F0872DE9F04105460C461646E11704EB17
:104C000091718910A4EB810119B16FF00100BDE829
:104C1000F0812746E01704EB907082102946304659
:104C2000FEF753FEF3E738B505460C4669462846BD
:104C3000FEF733FE2060009838BD70B504460D467F
:104C400029462046FEF713FE0646304670BD34293D
:104C500000DA7047C2781206837842EA034243784A
:104C600042EA032203781A434D4B1A60C2791306B5
:104C7000827943EA0243427943EA022203791A43E2
:104C8000474B5A60C27A1306827A43EA0243427A59
:104C900043EA0222037A1A43414B9A60C27B13060D
:104CA000827B43EA0243427B43EA0222037B1A43AC
:104CB0003B4BDA60C27C1306827C43EA0243427CAF
:104CC00043EA0222037C1A43354B1A61C27D130664
:104CD000827D43EA0243427D43EA0222037D1A4376
:104CE0002F4B5A61C27E1306827E43EA0243427E04
:104CF00043EA0222037E1A43294B9A61C27F1306BC
:104D0000827F43EA0243427F43EA0222037F1A433F
:104D1000234BDA612322125C13062222125C43EA3F
:104D200002432122125C43EA022290F820301A4307
:104D30001B4B1A622B22125C13062A22125C43EAD6
:104D400002432922125C43EA022290F828301A43D7
:104D5000134B9A622F22125C13062E22125C43EA36
:104D600002432D22125C43EA022290F82C301A43AF
:104D70000B4B5A633322125C13063222125C43EA55
:104D800002433122125C43EA022290F830301A4387
:104D9000034B9A6300BF5CE701494862704700001B
:104DA000580B08100E480088401C0D4908807047B9
:104DB0000B48008870470146094802888A4207DB91
:104DC000501AB0F5004F01DA012070470020FCE7CF
:104DD000881AB0F5004F01DB0120F6E70020F4E768
:104DE000DC0208102DE9F84F8246894669468F4853
:104DF0000068FFF718FF074637B139468CA0FDF76A
:104E000011F90020BDE8F88F0098012801D000209A
:104E1000F8E7694685480068001DFFF704FF07466C
:104E20002FB1394682A0FDF7FDF80020EAE7009C8B
:104E3000002C32DD4C4500DD4C4626463046F1174D
:104E400006EB91718910A6EB81010E4455464FF097
:104E5000000820E075490968083101EB080069463F
:104E6000FFF7E1FE07462FB1394671A0FDF7DAF8EA
:104E70000020C7E7009805F8010B0098000A05F824
:104E8000010B0098000C05F8010B0098000E05F8C6
:104E9000010B08F10408B045DCDB00216348006821
:104EA000FFF7CBFE07462FB139466BA0FDF7BAF8E6
:104EB0000020A7E75D48006800F5CC705B490860FA
:104EC000084600686E490968401A4FF4CC71B0FB7F
:104ED000F1F06C490968884203D369480068534976
:104EE000086020468EE7F0B5C1B004460D46164670
:104EF0006548046062480560624806606248006870
:104F0000624908605E4800684849086060A0FDF793
:104F100089F8002707E04FF4807101A8FFF762FFCE
:104F200000B904E07F1C574800688742F3D300BFF4
:104F300060A0FDF777F841B0F0BD2DE9F0470746D6
:104F40000C46B4F5C87F01DD4FF4C87400214F480A
:104F50000068FFF772FE054635B129463EA0FDF711
:104F600061F80020BDE8F087214648480068001D30
:104F7000FFF763FE05462DB1294637A0FDF752F82D
:104F80000020EFE72046E11704EB91718910A4EBB4
:104F900081010C444FF0080800261FE0F01C385C2B
:104FA0000106B01C385C01EB0041701C385C01EB61
:104FB0000020B95D00EB01093449096801EB0800E4
:104FC0004946FFF73AFE05462DB1294622A0FDF7D6
:104FD00029F80020C6E708F10408361DA642DDDBEB
:104FE00001212A480068FFF728FE05462DB1294611
:104FF00019A0FDF717F80020B4E72448006800F571
:10500000CC7022490860084600681F490968401AA8
:105010004FF4CC71B0FBF1F01A490968884203D310
:10502000194800681949086001209BE7F40208103C
:105030004661696C656420746F20726561642066E6
:10504000726F6D2052414D2E20526573756C742025
:105050003D2025640A0000004661696C6564207487
:105060006F20777269746520746F2052414D2E2035
:10507000526573756C74203D2025640A00000000A1
:10508000E8020810EC020810E4020810F002081010
:10509000466C757368696E672052414D206D616979
:1050A0006C626F786573206F6E20746172676574CF
:1050B0000A000000466C75736820636F6D706C6544
:1050C0007465640A000000002DE9F04F1646DDE922
:1050D00009454FF0000C6246634615E0B75C00F0EE
:1050E000FF0C8CEA070CDFF8EC8008EBCC0CDCE959
:1050F00000894FEA102C4CEA016C88EA0C0089EA1E
:105100001121521C43F10003171B73EB0507E5D374
:10511000BDE8F08F70B504460D46049E194600BFE9
:10512000B4FBF2F002FB1040285C01F8010BB4FB69
:10513000F2F4C81AB04200D101E0002CF0D100BF57
:10514000C81A70BD2DE9F0478CB0054688462E463A
:105150002148D0F800A02148006805901F48406809
:1051600006901E48806807901C48C068089010216F
:10517000002005AACDE900100146FFF7A5FFCDE903
:105180000201002402E000202855641C4445FADB9B
:1051900000271AE00A2002A90090C85909AB3C2256
:1051A0000F49FFF7B7FF814600240BE009A8005D17
:1051B00006F8010B701B404503D130460CB0BDE82A
:1051C000F087641C4C45F1DB3F1D082FE2DB3046C5
:1051D000F4E70000E06600100001401000500440B9
:1051E000F80208102DE9F05F0546002092469B4624
:1051F00088460646814640241BE0284641464746ED
:10520000224600F048FA53465A46C01A914110D33C
:1052100011461846224600F02FFA2D1A67EB0108B6
:105220004F4622460120002100F026FA17EB000924
:105230004E41201EA4F10104DFDC484631462A46D7
:105240004346BDE8F09FD2B201E000F8012B491EB1
:10525000FBD270470022F6E710B513460A46044613
:105260001946FFF7F0FF204610BD2DE9FE4F80469E
:1052700081EA0300C00F0C46009021F0004123F0AA
:105280000045B8EB0200A94105D2404621469046B0
:105290001C460B46024623F00040104347D0270D22
:1052A000C7F30A00C3F30A510290401A0190402844
:1052B0006BDAC3F3130040F4801B0098924620B1D0
:1052C0000023D2EB030A63EB0B0B01985946C0F1A4
:1052D0004002504600F0D0F906460D465046594669
:1052E000019A00F0E8F910EB08006141002487EA18
:1052F000115284EAE7731A4340D0009A62B3019ACC
:10530000012A4FEA075215DC001B61EB02014FF046
:10531000004202EA0752CDE90042001C41F580112B
:1053200032462B4600F0E8F903B0BDE8F08F404666
:105330002146F9E7001B61EB0201001C41F58013D7
:1053400000185B412018A2F5001747EB030140EA63
:10535000D570B6196D4111E06D084FEA360645EA81
:10536000C0754FEA0752001B61EB0201001C41F5BA
:10537000801149084FEA30000019514132462B464E
:1053800003B0BDE8F04F00F0A8B90098012240003A
:105390000023D0EB020263EBE073009821464FEA52
:1053A000E074B8EB000061EB0401E9E783F000432F
:1053B0005BE781F0004158E72DE9FE4F81EA0304E5
:1053C00004F0004421F0004100944FF0000B23F062
:1053D000004350EA01045ED052EA03045BD0C3F3F9
:1053E0000A54C1F30A552C44A4F2F3340194A0FBEF
:1053F0000254C1F3130141F48011C3F3130343F4C6
:10540000801301FB024400FB034E840A970A44EA1E
:10541000815447EA8357A4FB076802958D0A05FB70
:1054200007854FEA932C04FB0C542705029D4FEA95
:10543000065847EA1637B5EB08056EEB070C870EE2
:10544000920E47EA811742EA8312A7FB0201B6EBEC
:105450000B0164EB00042B0D43EA0C335E1844EBA4
:105460001C50DA465146E7FB0201C5F313044FEA2C
:105470000B3343EA14534FEA0432019C43EA060318
:10548000A4F10C040294009CCDE900B400F034F9BE
:1054900003B0BDE8F08F00200146F9E72DE9F04D9B
:1054A00081EA030404F0004B21F0004514464FF05C
:1054B000000A23F0004150EA050220D054EA01021C
:1054C0001DD0C5F30A570246C5F31303C1F31300F9
:1054D000C1F30A5640F4801543F48013A7EB060885
:1054E000101BD64608F2FD3873EB050002D308F115
:1054F000010801E092185B41B8F1000F03DA0020C7
:105500000146BDE8F08D00204FF480110646844628
:105510000EE0171B73EB050705D3121B63EB0503A6
:1055200006434CEA010C49084FEA300092185B41EF
:1055300050EA0107EDD152EA030012D082EA0400DA
:1055400083EA0501084305D0101BAB4106D20122B6
:10555000002306E000224FF0004302E06FF001025A
:1055600053101AEB06004CEB085110EB0A0041EB0C
:105570000B01BDE8F04D00F0B0B80EB540F233417C
:1055800002910021CDE900110A460B4600F0B4F863
:1055900003B000BDC1F30A5210B5C1F3130140F2CC
:1055A000FF3341F480119A4201DA002010BD40F22D
:1055B00033439A42A2F2334203DC524200F06BF8CA
:1055C00010BD904010BD00F0004230F000400AD005
:1055D000C10D01F56071C0F3160042EA0151C20825
:1055E00040071143704700200146704730B5041E44
:1055F00071F1000404DB4FF00044404264EB010110
:10560000141E73F1000405DB1C464FF000435242A8
:1056100063EB04038B4208BF824230BD30B5041EE9
:1056200071F1000404DB4FF00044404264EB0101DF
:10563000141E73F1000405DB1C464FF00043524278
:1056400063EB0403994208BF904230BD30B50B466E
:10565000014600202022012409E021FA02F59D42A2
:1056600005D303FA02F5491B04FA02F52844151E76
:10567000A2F10102F1DC30BD202A04DB203A00FA5D
:1056800002F1002070479140C2F1200320FA03F399
:10569000194390407047202A04DB203A21FA02F097
:1056A0000021704721FA02F3D040C2F1200291405C
:1056B000084319467047202A06DBCB17203A41FAE7
:1056C00002F043EAE07306E041FA02F3D040C2F18F
:1056D0002002914008431946704710B5141E73F11B
:1056E000000408DA401C41F1000192185B411A43A2
:1056F00001D120F0010010BD2DE9F04D92469B46EE
:1057000011B1B1FA81F202E0B0FA80F22032904693
:10571000FFF7B2FF04460F4640EA0A0041EA0B01D8
:1057200053465A46084313D0114653EA010019D094
:10573000C8F140025046FFF7AEFF05460E46504600
:1057400059464246FFF798FF084305D0012004E080
:1057500020463946BDE8F08D0020054346EAE07654
:105760002C4337430A986305E40AA0EB08000022A3
:10577000FD0A44EA47540A3002D500200146E9E711
:10578000010510196941DDE9084500196941BDE8C5
:10579000F04DA2E7C1F30A52C1F3130140F2FF3307
:1057A00041F480119A4202DA00200146704740F22B
:1057B00033439A42A2F2334202DC5242FFF76BBFFC
:1057C000FFF75ABF064C074D06E0E06840F00103C2
:1057D00094E8070098471034AC42F6D3FAF772FC0D
:1057E000386F0010586F001070B58C1810F8015BFE
:1057F00015F0070301D110F8013B2A1106D110F86A
:10580000012B03E010F8016B01F8016B5B1EF9D16D
:105810002B0705D40023521E0DD401F8013BFAE7F3
:1058200010F8013BCB1A921C03E013F8015B01F85E
:10583000015B521EF9D5A142D8D3002070BD0000F3
:1058400030B51048416CC1F30130421CC1F3074030
:10585000441CC1F30125012000FA05F301F0020008
:1058600028B101F0800050B15800424307E001F038
:10587000800020B901F0400008B95800424344EAD2
:10588000022030BD0000054037B514460846064BDF
:105890006A46214600F0DCF804466946002000F024
:1058A0006EFC20463EBD00007F61001002E008C88B
:1058B000121F08C1002AFAD170477047002001E08A
:1058C00001C1121F002AFBD1704700002DE9FF5FC4
:1058D00082B00021DDE90430020DDDF840B0034361
:1058E00018D044F61050A2F2FF324243151411981A
:1058F00001281FD0A5EB0B00401C5FEA000A4FF007
:1059000000064E4FDFF83891B046504615D5CAF123
:10591000000413E0119801244AA3012801D16FEA81
:105920000B010298119AC0E90031C0E9024206B0A9
:10593000BDE8F09FCBF10000DFE704460021404ABC
:10594000491842EB0450CDE9001012E0E00707D0FF
:1059500032463B4640464946FFF72EFD8046894683
:1059600032463B4610461946FFF726FD06460F46CF
:105970006410002CEAD1DDE90401DDE90023BAF16D
:10598000000F06DAFFF718FD42464B46FFF714FDFD
:1059900005E0FFF783FD42464B46FFF77FFD0446D7
:1059A0000E460022284BFFF739FE03D84FF0FF3098
:1059B000014607E00022254B20463146FFF755FC03
:1059C000FFF7E8FE102409E0002C0ADB0A2200237E
:1059D000FFF708FC039B30321A55641E50EA01029F
:1059E000F2D1641C039AC4F111031444119A012AE0
:1059F00003D0012208430DD10AE0084304D000205F
:105A00004FF0110B119072E7A3EB0B056D1E0DE02B
:105A10005B4504DD4FF0000205F1010504E003DA07
:105A20004FF00002A5F10105002AECD0029811996F
:105A3000C0E90231C0E9004579E7000000001440E8
:105A40000000F03F300000000000F0430000E03FA5
:105A50002DE9FF4F95B09B468946064600250FE28B
:105A6000252877D100242746F84A0121059400E033
:105A7000044316F8013F203B01FA03F01042F7D12E
:105A800030782A2811D06FF02F033078A0F130023F
:105A9000092A16D8059A44F0020402EB820203EBAD
:105AA00042021044761C0590EFE759F8042B05924A
:105AB000002A03DA504244F40054059044F00204F2
:105AC000761C30782E2816D116F8010F44F0040405
:105AD0002A280DD06FF02F023078A0F13003092B67
