:10000000F01F001025010000FD200000FD20000071
:10001000FD200000FD200000FD200000FD2000006C
:10002000FD200000FD200000FD200000FD2000005C
:10003000FD200000FD200000FD200000FD2000004C
:10004000FD200000FD200000FD200000FD2000003C
:10005000FD200000FD200000FD200000FD2000002C
:10006000FD200000FD200000FD200000FD2000001C
:10007000FD20000015210000FD200000FD200000F3
:1000800059070000FD200000FD200000FD200000B9
:10009000FD200000FD200000FD200000FD200000EC
:1000A000FD200000FD200000FD200000FD200000DC
:1000B000FD200000FD200000FD200000FD200000CC
:1000C0003827000000000010A8000000A800001061
:1000D0009400000070B502F051F80F4B0F498B42AD
:1000E0000BD200221C685D689868904203D91659AB
:1000F00056510432F9E70C33F1E7002008498B42EE
:1001000009D200221D685C68944202D95051043221
:10011000FAE70833F3E770BDC0000000CC00000030
:10012000D400000010B5FFF7D5FF02F067F9BFF368
:100130004F8F034A034BDA60BFF34F8FFEE7C04691
:100140000400FA0500ED00E0FFFFFFFFFFFFFFFFE7
:10015000FFFFFFFFFFFFFFFFFFFFFFFFFFFFFFFFAF
:10016000FFFFFFFFFFFFFFFFFFFFFFFFFFFFFFFF9F
:10017000FFFFFFFFFFFFFFFFFFFFFFFFFFFFFFFF8F
:10018000FFFFFFFFFFFFFFFFFFFFFFFFFFFFFFFF7F
:10019000FFFFFFFFFFFFFFFFFFFFFFFFFFFFFFFF6F
:1001A000FFFFFFFFFFFFFFFFFFFFFFFFFFFFFFFF5F
:1001B000FFFFFFFFFFFFFFFFFFFFFFFFFFFFFFFF4F
:1001C000FFFFFFFFFFFFFFFFFFFFFFFFFFFFFFFF3F
:1001D000FFFFFFFFFFFFFFFFFFFFFFFFFFFFFFFF2F
:1001E000FFFFFFFFFFFFFFFFFFFFFFFFFFFFFFFF1F
:1001F000FFFFFFFFFFFFFFFFFFFFFFFFFFFFFFFF0F
:10020000FFFFFFFFFFFFFFFFFFFFFFFFFFFFFFFFFE
:10021000FFFFFFFFFFFFFFFFFFFFFFFFFFFFFFFFEE
:10022000FFFFFFFFFFFFFFFFFFFFFFFFFFFFFFFFDE
:10023000FFFFFFFFFFFFFFFFFFFFFFFFFFFFFFFFCE
:10024000FFFFFFFFFFFFFFFFFFFFFFFFFFFFFFFFBE
:10025000FFFFFFFFFFFFFFFFFFFFFFFFFFFFFFFFAE
:10026000FFFFFFFFFFFFFFFFFFFFFFFFFFFFFFFF9E
:10027000FFFFFFFFFFFFFFFFFFFFFFFFFFFFFFFF8E
:10028000FFFFFFFFFFFFFFFFFFFFFFFFFFFFFFFF7E
:10029000FFFFFFFFFFFFFFFFFFFFFFFFFFFFFFFF6E
:1002A000FFFFFFFFFFFFFFFFFFFFFFFFFFFFFFFF5E
:1002B000FFFFFFFFFFFFFFFFFFFFFFFFFFFFFFFF4E
:1002C000FFFFFFFFFFFFFFFFFFFFFFFFFFFFFFFF3E
:1002D000FFFFFFFFFFFFFFFFFFFFFFFFFFFFFFFF2E
:1002E000FFFFFFFFFFFFFFFFFFFFFFFFFFFFFFFF1E
:1002F000FFFFFFFFFFFFFFFFFFFFFFFFFFFFFFFF0E
:1003000010B501F0D7FF00F069F800F00FFC0023F2
:10031000304C237001F0F0FDFF2804D101F032FED3
:10032000830704D41BE0022806D10123237000F0C8
:10033000B5FA2378002B03D000F066FC002323706D
:1003400000F0FEFB00F04CF800F004FC11281AD07D
:100350000021214801F02CFE01F0EEFDFEE7012016
:1003600002F021F8642001F04FFB012002F020F898
:10037000FA20000101F048FB00F0ECFB1128DFD16E
:1003800000F036FCDCE700F0F1FB0400002112482D
:1003900001F00EFE0121104801F044FE01210E483B
:1003A00001F04EFE03210C4801F002FE21000A4834
:1003B00001F00CFE012001F0CBFD01F0D3FD0400A3
:1003C000002001F0C5FDA006C00F01F083FD002054
:1003D00010BDC046A8000010004005407047FFFF58
:1003E00010B50121014801F0E1FB10BD00400340C0
:1003F00070B50500080011001A0004AB1B78002B33
:1004000003D0069B00F014FB05E0059B069C1B1B1C
:10041000013300F027FB040002F034F81F21694388
:10042000CE31431C2200FF31034801F0EBFB0121D8
:10043000014801F0BBFB70BD004003401F2358433F
:10044000014BC0187047C046CD01003070B50D009B
:1004500016006A24012805D0041E03D01A2402289D
:1004600000D00A4CC0239B0532002900E01801F09F
:10047000C9FF002809D02100054833002A0001F0F7
:10048000C1FB0121024801F091FB70BD0A0600008A
:100490000040034010B513000C006A21012805D06C
:1004A000011E03D01A21022800D00349220003486C
:1004B00001F080FB10BDC0460A060000004003406A
:1004C000092358430A00010010B5054C9231200061
:1004D00001F098FB0121200001F068FB10BDC0462F
:1004E000004003400048704792000030A22230B51F
:1004F000D3B00D0004005200002101A801F07AFFE2
:10050000002D0BD1FFF7EEFF050000F03BFB0923A8
:10051000434329001A0001A801F064FFA221200032
:1005200001AA490001F06EF8002053B030BDFFFF72
:1005300013B50400002907D100F012FB0190074811
:1005400001F052FD009002E000230193009320008F
:100550006A46082101F056F8002016BD004005400B
:1005600010B5040092B0002905D148226946022046
:10057000FFF790FF02E0002300931193009B002BF4
:1005800004D14022FF2101A801F034FF20006A4677
:10059000482101F037F8002012B010BD13B50B0050
:1005A0001100094A04000192482B05D11A000220CB
:1005B000FFF74CFF00230193200001AA042101F062
:1005C00021F8002016BDC0460D00010037B5074BCD
:1005D00005000C1E019302D100F00AFB01942800D3
:1005E00001AA042101F00EF800203EBD0D0001001B
:1005F0007FB58022124C05000123920020000E00DE
:10060000104900F0C1FD0022FF200F4B01A901930A
:10061000EB0FA842534120000B718A6000F0D9FD16
:10062000002D04D02A003100200000F0DDFD200064
:1006300000F00AFE200000F019FE012004B070BD99
:100640003C0300103C010010E025000037B50023FA
:100650001400082900D0124B01AA0421019300F0D4
:10066000D1FF019B002B19D163792079A1791B025D
:10067000034309041A000B00E179134309061943E7
:1006800063782578A0781B022B4300041A0003002E
:10069000E07813430006184300F080FA00203EBDC6
:1006A0000D00010070B580250D4C6D002900200063
:1006B00001F012FD01F07EF9000A0138E060A56149
:1006C0006369FF3D2B436361200001F00AFD802236
:1006D000636852022B436360024B1A6070BDC046D0
:1006E00000C0004000E100E010B5002805D0012165
:1006F000034A53688B43536001E0FFF7D3FF10BDFB
:1007000000C0004070B5124C80222000114986B014
:1007100018309200183100F0B3FE2600002814D0E3
:10072000340002AD18342900200000F029FE002812
:100730000BD02B78042BF3D101A9200000F0D0FEC0
:100740000100019801F04AF8EAE706B070BDC04622
:100750003C0500103C0300100122044B19681142B3
:1007600003D01A600022024B1A70704700C000408C
:10077000A9000010F0B589B000F0ECFC00F03AFFE1
:10078000404800F039FF80223F4C920001233F494E
:10079000200000F0F9FC3E4B05AD059301232B71C1
:1007A000002329002000AB6000F013FD200000F0C2
:1007B0004BFD2A00374B43CB43C22900200000F0F9
:1007C000FFFC00F0C7F911280BD012281AD100F055
:1007D000C7F9060000F0DCF90100300000F0DCF899
:1007E00012E02D4801F000FC070000F0C5F90600FA
:1007F00000F0C8F9361A00F0B3F93200390000F001
:10080000E7F801E000F0BCF8060001F03BFE310023
:100810000200200000F0E8FC200000F015FD00F0D0
:10082000B1F9002703000290BB4204DC200000F075
:100830001DFD09B0F0BD029BDE1B042E00DD052668
:100840002900200000F0BCFC0196019BF019C01AA1
:10085000002B0DDDFFF7F2FD039001F013FE03996D
:100860000200200000F0C0FC019B013B0193ECE77B
:10087000F343DB171E40200000F0E6FCBF19029B8B
:10088000D2E7C046F10500003C0300103C01001017
:10089000E0250000D42500000040054010B5FFF71A
:1008A00069FF0123054C2370FFF7FCFE2378002B22
:1008B00002D001F007FBF9E710BDC046A900001007
:1008C00070B50600881A0D0001302021140001F0D7
:1008D00091FD30232B702D1B002C0EDD002E0CDD26
:1008E00030000A2101F0F8FD3031295530000A218D
:1008F00001F0F2FD013C0600EEE770BDF7B5040023
:100900000191170077281BDD164B984206DC3C212D
:1009100001F0E2FD07260400134D13E0134B98424B
:1009200007DCE121090101F0D7FD05260400104D87
:1009300008E0104901F0D0FD042604000E4D01E04E
:1009400007260E4D38000722202101F053FD32000A
:100950002900380001F046FD032201992000FFF72D
:10096000AFFFF7BD1F1C0000FF250000FFA2020023
:10097000E826000080510100E32600000726000061
:1009800010B5034C0349200001F05AFD200010BDB2
:10099000AA0000100F26000070B50B4C06000D00D9
:1009A00020000A4901F04CFD2100300029310A22C3
:1009B000FFF786FF22002100A81B40323E31FFF7DF
:1009C0009DFF200070BDC046AA000010392600001F
:1009D000F8B5154C07000D0020001449160001F071
:1009E0002FFD2200210021321F31E81BFFF786FF77
:1009F000210002222F313000FFF762FF2100220088
:100A00002300200035313D323E33012E05D1202414
:100A10000C70732111702E2204E073240C702E21AF
:100A2000117020221A70F8BDAA000010972600004D
:100A300070B50B4C1D002300160022000D33081A60
:100A40000F321900FFF75AFF300021000122FFF793
:100A500037FF2800E11C0222FFF732FF200070BDA3
:100A60003800001070B5134C1D0023001600220042
:100A70001333081A15321900FFF740FF0122210035
:100A80003000FFF71DFF2800A11D0222FFF718FF0D
:100A9000E01D022D08D002220749032D06D0074988
:100AA000012D03D0064901E02A00064901F09AFC15
:100AB000200070BD50000010DD260000D726000089
:100AC000E0260000DA260000F0B5050000240779D2
:100AD0000369013789B0FFB2002B03D00134E4B2BF
:100AE0005B08F9E7AB68104E01932B7B02940093EF
:100AF0002A683B0071683069FFF77AFC2B68002296
:100B0000059319236B4405A91C703069240E5A7093
:100B10009A70DC700F71FFF7D3FC336901333361D6
:100B20002B68736109B0F0BD0801001010B51822E0
:100B300002490020FFF7AEFC10BDC04608010010BE
:100B400010B5182202490020FFF780FC10BDC046F6
:100B500008010010014B18787047C04608010010CA
:100B6000014B58687047C04608010010014B986857
:100B70007047C04608010010014BD8687047C04656
:100B800008010010014B18697047C04608010010A9
:100B9000014B58697047C0460801001030B5124C2F
:100BA0008BB060600D000100104801F029FA0323AA
:100BB000022D02D93C2D02D93C23A36000E0A560A0
:100BC00000236946282201202361FFF763FC684661
:100BD00000F062F91123E0602822694601202370A9
:100BE000FFF734FC0BB030BD080100100040054099
:100BF0001022044B1A7000229A60DA601A615A615E
:100C00005A6070470801001000B58BB0694601209A
:100C10002822FFF73FFC0849684600F07FF90028CA
:100C200002D11222054B1A70282269460120FFF7D3
:100C30000DFC0BB000BDC046C90A00000801001041
:100C400010B50A4C0100200000F012FE0F23200016
:100C5000636300F067FE0224044800F07BFE20423C
:100C6000FAD0024800F087FE10BDC04600C0014027
:100C7000142337B558431D4C241865681C482900B7
:100C800000F006FE1B491A4800F07AFEE1681A4897
:100C900001F00AF864230B22002100931648633BFD
:100CA00000F0EFFF012000F0AFFE2800FFF7C8FFC3
:100CB0000500A068FFF7C4FF2C1A002C00DC0124FB
:100CC0000D48802501F024F8AD000B4801F027F80D
:100CD0002842FAD0084801F035F863100001C01826
:100CE000210001F0F9FB80B23EBDC046F0260000B5
:100CF00000C00140FF0F00000080064010B5194CF5
:100D0000200000F0E9FD2000012100F0A7FD2000F7
:100D1000002100F099FD2000134C012100F0FAFDA4
:100D2000200001220C2101F04CF8200001220D21AD
:100D300001F047F8200001220E2101F042F82000C6
:100D400001220F2101F03DF820000122102101F0C5
:100D500038F801221121200001F033F8034800F097
:100D6000B3FF10BD00C001400040044000800640B9
:100D700070B5164D1648174C00F061FF280000F0C2
:100D8000E4FD280000F0DCFD200000220C2101F031
:100D900018F8200000220D2101F013F82000002295
:100DA0000E2101F00EF8200000220F2101F009F8B9
:100DB00020000022102101F004F80022112120005F
:100DC00000F0FFFF280000F073FD70BD00C001407F
:100DD000008006400040044003207047F8B506003C
:100DE0000F001500FFF744FF0400002D13D123006E
:100DF000143B9D4205DA3000FFF73AFF250004005E
:100E0000F5E728339D42F6DC14225643134A3C8012
:100E10009619307C21E014225643104C3988335DFA
:100E2000A219002B10D1127C0133002A02D0541ECB
:100E30002240F9E743434808181801F04DFB431ED0
:100E400001209840013808E0137C5B0001334343E4
:100E50004808181801F040FB4008F8BDF0260000D3
:100E600014235843054B1818037C0020002B03D093
:100E70005A1E13400130F9E77047C046F0260000C3
:100E800014235843034BC05C013843425841C0B25D
:100E90007047C046F0260000F0B585B00500FFF7AA
:100EA0009BFF00270290FFF729FF2B003C001C331B
:100EB0002E1D0193029B9C4228DA2A78019920007A
:100EC000FFF78CFF002330600093002804D0431EFE
:100ED0001840009B0133F7E72000FFF7C1FF009B9C
:100EE000984207D1009B0134FF18019B043602335E
:100EF0000193DFE733682A78019920000393FFF715
:100F00006DFF039B30608342D7D1EBE7FFF730FFE3
:100F1000012338002B7005B0F0BDFFFFF0B58DB098
:100F200005910390FFF758FF0490FFF7E7FE0023B9
:100F30001C000193049BA34254DD039BA5005D1993
:100F40006B68002B4BD02700039B0C377F00DF1909
:100F50000437012239002000FFF740FF6A680600CD
:100F6000431E904230D09E4207D00122390020001B
:100F7000FFF734FF33000600F5E76B681E4002966A
:100F8000B34221D01A4801F02FF807AE0790200095
:100F90003471FFF765FFB0602000FFF771FF002399
:100FA0008027336130736B68029E3F065E40002EDF
:100FB00008D0374204D00B9707A8059B7E4098477E
:100FC0007F08F4E7029B6B6000226B68002B03D064
:100FD000591E0B400132F9E7019B9B180193013424
:100FE000E4B2A7E7FFF7C4FE01980DB0F0BDC0461C
:100FF0000040054010B5104B1049CA1A8B4209D069
:101000001C78032C01D00133F7E70D498B4202D144
:1010100000200FE0002259780160FF2901D0981CC0
:1010200008E0032AF4DD9A7812020260D9780A43B4
:101030000260181D10BDC0460881054000830540B0
:10104000FF82054010B5054C0221200000F0FEFE95
:10105000A1212000490000F0CAFE10BD008005401B
:10106000F0B5002585B002930AAB40CB03920A7914
:101070001B7804000F000192AB4203D0086801F016
:1010800001FA05000121019BAE1959400323594380
:1010900063687618F618802300209B009E4236DC99
:1010A000A3689E4233DC6B461B7966606375019EC4
:1010B000237D3601DB013343029E22683343E06027
:1010C00022611370029BD61C012B05D16B461B7A43
:1010D00053706B1C937001E055709070039B7618F1
:1010E000032B04D151333370153B2B4005E0039B98
:1010F000062B04D14F3333703B7A737002362A00CB
:101100003968300001F06EF901207519256005B0CD
:10111000F0BDFFFF10B5074C200000F06CFE8823E7
:10112000984381B2200000F062FE0122024B52423D
:101130001A6010BD008005402401001010B50C227B
:101140000249034801F04EF910BDC0462C270000AB
:10115000008105400122084B10B552421A60FFF78A
:1011600071FFFFF7EBFF0549054800F04DFE8022B7
:10117000044B92011A6010BD24010010FF01000011
:101180000080054000E100E070B50D001E00002366
:1011900082600361C3608675084904000C22280040
:1011A00001F020F90C21002E00D002394B1C6360A5
:1011B000012369182160237570BDC0462C270000EB
:1011C00007B50123052201930092023AFFF748FF79
:1011D0000EBD012307B50193023300930422013BA6
:1011E000FFF73EFF0EBDFFFF436870B5D318150033
:1011F0008022040092000020934221DCA2689342E6
:101200001EDCE268667DAA18864201D0FF2A17DC40
:101210006360D0231B06C818E823E2601B019842D4
:1012200006D801002B002268064800F0C3FC03E04A
:101230002A00206801F0D6F8012023685D19256096
:1012400070BDC046004003400369C1689A785218D7
:10125000417D002901D09A7004E09970D970111273
:1012600019715A71002303757047FFFFF8B545687F
:10127000837D06002C00002B03D00B3C032C03DCE9
:101280002DE00D3C032C67DD4021326913780B43C0
:101290001370092332685B1BD318B27D002A11D06A
:1012A000FE2C1CDD0022C1310235FF3110008D42C1
:1012B00057DCB275991C181D220001F097F83368AD
:1012C00002330BE0FE2C0ADC0122191DB275981CBA
:1012D000220001F08BF83368023D023B3360336833
:1012E0005A1C3260FE221A7033685F1B03231D42B2
:1012F00001D09D4304351B4B37601A68756001327D
:1013000011D01A68AA420ED21B6817489B089B008E
:10131000DA59164B1A6000F06EFD8821084381B23D
:10132000114800F064FD2A003900114801F05AF814
:1013300022021049FE2C07DDFF231B041A4023065E
:101340000D4C1C43144304E00C4B086803401A4343
:1013500014000C60012004E0092302685B1BD31811
:10136000B2E7F8BD24010010008005402001001004
:10137000008105400881054003FF0000FF00FFFFDA
:101380000023F7B542684B608B600400C3609A424B
:1013900073D0082510270068206103781D401F4086
:1013A0009C469B06DB0F0B733B005E1EB3419E0009
:1013B0009B1B2E00009575426E4107339B1B9A4282
:1013C0005BDBD31A019346788278C31C002F09D1C6
:1013D000C77812063F043A43831D477900793A43A0
:1013E0000002024300270098B84201D01F78013361
:1013F0009019019DC01985423FDB281A606065463F
:10140000072005402800042D37D801F0DBF8030839
:101410002636280032433A432FD10A7028E0012EA5
:101420002BD1009D581C1B78002D00D0C019013A0B
:10143000542B0CD1513B0B700378DD091DD13F3586
:101440001D40013048608D60521B431910E0552B40
:1014500013D14F3B0B70431C0AE0042000E0052031
:101460004B6008708E6000999B19002900D0DB1931
:101470009B182360E260012000E00020FEBDFFFF1A
:10148000F0B587B0040001A80D001600FFF7B2FD0B
:10149000011E21D0019A114B871800209F421BD8B2
:1014A000B24219DCA660256062600130002A11D0CA
:1014B000280000F097FF666825686368002B06DD4A
:1014C00002A92000FFF75CFF0028F6D100E0012010
:1014D000666025600023E36007B0F0BDFF82054031
:1014E000C3680B60002B03D00368C068181A00E0C3
:1014F00018007047F7B52E4C200000F080FC060065
:10150000200000F071FC256A070020004024ADB2E5
:10151000310000F079FC2C4002D1ED05ED0D15E015
:10152000FFF7F8FDF823FF331D40224B00241B88F2
:10153000032B0BD001A8FFF75DFDA04206D0019B55
:101540001D4A01349B18C0181C4B18602B070BD583
:101550001A4B1A68013207D01B68194A9B081949AF
:1015600012689B005B181A60C1235B001D4201D00A
:10157000FFF7D0FD002C01D0FFF7C4F880235B00FB
:10158000B20709D51E4201D0FB0607D50E4B01203C
:101590001A78002A0AD106E01E4207D00A4B1A78B0
:1015A000002A03D000201870FFF79EF8F7BDC04650
:1015B0000080054008810540007FFABF240100102B
:1015C00020010010008105402801001070B51D00A9
:1015D0003835AB4209D01C78844204D15C68002CB9
:1015E00001D0A04702E00833F3E7014870BDC046D0
:1015F000070001007047FFFF014B18607047C046AD
:101600002C010010F8B50B00050010006A460933E4
:10161000DB08DB00D31A00AF9D4602330A008C1CA6
:101620000100180000F0DEFE6E4601237370054BCA
:1016300035701B68002B02D0694620009847BD46D4
:10164000F8BDC0462C01001030B587B00500142449
:1016500000F0FEFD2200010001A800F0C3FE2800FA
:1016600001AA2100FFF7CEFF002007B030BDFFFF29
:101670007FB5082500212A00060002A800F0BAFE66
:101680000B4B029300F016FD2840041E0DD10121E2
:10169000084800F08BFA084B02941B6802AA290044
:1016A000300001930393FFF7ADFF029804B070BDC3
:1016B0000F00010000400340D40F003013B50400B8
:1016C00008236A460549064800F074FA20006A4675
:1016D0000821FFF797FF002016BDC0469C0F0000B1
:1016E000004003401FB50400684600F02FFB2000B7
:1016F0006A461021FFF786FF002004B010BDFFFFEF
:10170000002337B50500019372B6A0241348E40501
:1017100000F04AFB200000F07DFA80231B02E15814
:101720000F4A0E480A40E250E1580E4A0A40E25081
:101730000A21022200F045FB02220B21074800F09B
:1017400040FB01AA04212800FFF75CFF064B187834
:10175000C0B20028FBD162B63EBDC0460040044086
:10176000FFFBFFFFFFF7FFFF6F000010002307B52F
:10177000042101AA0193FFF745FFFA20400000F081
:1017800043F9BFF34F8F034A034BDA60BFF34F8F28
:10179000FEE7C0460400FA0500ED00E030B50E2477
:1017A00085B0050022000021684600F023FE0123D9
:1017B0006A4669465380938006220B81CA8000F0F6
:1017C00083FC0A236B441880000C58806A4628006A
:1017D0002100FFF717FF002005B030BD13B500282A
:1017E00016D0002916D00C78012814DD8A1C0B4B6A
:1017F000811E3F2C00D90A4B2000FFF7E7FE00288E
:101800000BD0019001AA04212000FFF7FBFE04E0A9
:10181000040000E00C000348F3E713BD7000001063
:10182000000000100D000100030010B50C2201247F
:101830000005000D1B0B19002140914002320843A6
:101840005B081C2AF7D110BD0422036801399343B9
:101850004A425141890019430160704708220368D8
:10186000013993434A425141C9001943016070470D
:1018700070B50C03240B05002000FFF7D5FF010015
:10188000024800F097FAAC6170BDC04600400440C9
:1018900070B50C03240B05002000FFF7C5FF010005
:1018A000024800F087FAEC6170BDC0460040044079
:1018B00070B50025040085622900FFF7D9FF2900D3
:1018C0002000FFF7E5FF8020400200F0BFF8202055
:1018D00000F0E4FB70BDFFFF70B50400202000F0B5
:1018E000D1FB8020400200F0A5F800250F23A5625F
:1018F0006363113325602361054B25622900636210
:101900002000FFF7B5FF29002000FFF7C1FF70BDE1
:10191000FFFF00000222036949001140934319436D
:1019200001617047112203689343103A1343036027
:101930007047222203689343203A134303607047A1
:101940001022036813430360704720220368134387
:101950000360704703230268C16A13405A1E934113
:1019600001221B01114200D013430222114200D078
:101970001343D8B2704740680005000D7047FFFF61
:10198000064B10B5994203DCCB43DB17194000E04E
:1019900019008160FFF7CDFF10BDC046FF0F0000AA
:1019A0000120034B1B6A1B075B0F98407047C04622
:1019B0000080044010B5FFF7F3FF0100014800F07C
:1019C0008BFD10BD00127A0010B50400FFF7F2FF86
:1019D000FA2301009B0008485C4300F07DFD0100F4
:1019E000200000F07CFD02B4E138FF38011C03390F
:1019F000FDDC02BC10BDC04600CA9A3B10B50028F1
:101A000001D0FFF7E1FF10BD70B5FA2504002D01EC
:101A1000AC4205DD0548FFF7D7FF054BE418F7E7B3
:101A2000FA2080006043FFF7E9FF70BD00093D0028
:101A300060F0FFFF0349044ACB6F10401843C867AA
:101A40007047C04604800440FCBF1D000349044A9F
:101A5000CB6F10408343CB677047C046048004407F
:101A6000FCBF1D000F4A10B51368002B19DBC02105
:101A70005B1089055B005B180021101D085A585245
:101A800002314029F9D1084B08483C391950FE244D
:101A900006202401186018590842FCD001235B423B
:101AA000136010BD6C05001000400340E80F0000FB
:101AB000F7B506000F0015000193002D39DD1D4C10
:101AC0002368002B0DDA3F23F1171940C023891931
:101AD000891189019B052160201DC918402200F051
:101AE00081FC23680024F31A3F2B17D840222C00D6
:101AF000D21A954200DD1400019A002A07D00D4A3F
:101B00003978101DC018220000F074FC06E0094A64
:101B10003900101DC018220000F064FC019B36192A
:101B2000002B00D13F192D1B002DC6DDFFF79AFFBA
:101B3000C3E7F7BD6C050010C02010B54003FFF7E8
:101B400079FF042000F08AFA082000F09BFA642054
:101B5000FFF754FF042000F08BFAFFF72BFF084B30
:101B60000849C01800F0B8FC0138002800DC01204A
:101B70000122054B52425861044B1A6010BDC04609
:101B8000D7B80500D8B80500004003406C05001028
:101B900010B5FFF767FF042000F060FA082000F09E
:101BA0007DFAC0204003FFF751FF10BD10B5FFF7CD
:101BB00059FF10BD70B51C00C02315009B050E0019
:101BC0002200C918280000F00DFC0D4B18680028F1
:101BD00014DB191D864206DD301A09184433994278
:101BE0000CD2280001E0801B28182C19844205D94A
:101BF000221A402A00DD402200F0F4FB70BDC046EE
:101C00006C05001010B5080011001A000023FFF742
:101C10004FFF10BD10B54020FFF70CFF10BD0300B3
:101C200010B50C2201240005000D1B0B19002140EA
:101C30009140023208435B081C2AF7D110BD0023F3
:101C400010B5836280200002FFF700FF102000F033
:101C500025FA10BD042203688900114093431943FB
:101C6000016070474022C3688901114093431943C2
:101C7000C16070470722C36889B21343C360016122
:101C8000704770B51D0004001600FFF7E3FF0F2238
:101C900032402900A2612000FFF7E4FF04992000F0
:101CA000FFF7E8FF70BDFFFF70B505000C000800EE
:101CB000FFF7B5FF24030100240B024800F07AF877
:101CC000EC6170BD0040044037B50400102000F006
:101CD000D9F980200002FFF7ADFE0025072325601B
:101CE000A5626363084B2900636164230093633B2F
:101CF0001A002000FFF7C5FF29002000FFF7D4FFDE
:101D0000024B2562636237BDE7030000FFFF00005E
:101D1000032203689343023A134303607047802110
:101D2000036810B50400C06A49001B020B40400262
:101D3000491808401A00030013430322A06810400A
:101D4000184310BD406880B27047FFFF30B589B0BE
:101D500014220021040003A800F04CFBFF2303938E
:101D6000C53B029300F0A6F90025030703D40C48F5
:101D7000FFF70EFF013503A902A80A4B9847002D73
:101D800002D00748FFF7D8FE049B2360059B6360E1
:101D9000069B0193A360079BE36009B030BDC0467A
:101DA00000400340F11FFF1F802010B5C002FFF765
:101DB00041FE10BD0430C36F090109098B43C3679D
:101DC000704770B506000D0014000B2907D9012AD1
:101DD00005D10B0011000C3B9940FFF7EBFF2402EB
:101DE000AD00240AAC5170BD4068C0B27047C9054F
:101DF000C90D816170478069C005C00D7047C06919
:101E0000C005C00D7047FFFF082330B5054CC569FC
:101E100022682B40C905C90D13432360416241620A
:101E200030BDC04630010010030070B5FE22002511
:101E300004000448FC335A6003498561FFF7E4FF5E
:101E4000256070BD00800540FF0100000431016184
:101E50007047FFFFF8B50C4B04000F0015009842C7
:101E600002D190231B011F43084E22003100084875
:101E700000F00CFA0300BB432B433100220004485E
:101E800000F0F5F9F8BDC0460080034034010010B1
:101E90002080034010B51400902212010A4302432F
:101EA00005490648FFF7D6FF0421054A13698B430D
:101EB0001C43146110BDC046FF3FF1FF008003408A
:101EC00000ED00E0002210B511001000FFF7E2FF66
:101ED00030BF10BD10B5040000F082F9012161404F
:101EE000490304220220FFF7D5FF30BF0022110072
:101EF0001000FFF7CFFF10BD10B50B4C0B4A2100AF
:101F00000B4800F0C3F9902380221B01034012010B
:101F1000FF20934206D1074A2100054800F0B6F998
:101F2000C006800F10BDC046340100100080034081
:101F3000208003401880034010B500F051F9802143
:101F4000C9010A000148FFF785FF10BD008003406A
:101F5000802110B5C20309020148FFF77BFF10BDC5
:101F60000080034010B5044A0449054800F08EF98A
:101F7000A023184010BDC046188003403401001053
:101F80002080034010B5044A0449054800F07EF95A
:101F90000723184010BDC0463480034034010010B0
:101FA00020800340802010B5C000FFF743FD10BD26
:101FB000072310B502000B400248034900F057F90F
:101FC00010BDC0462440054038010010020010B585
:101FD0000B021B0A0C320249024800F048F910BDFE
:101FE0003801001024400540020010B5303202498B
:101FF000024800F04BF910BD3801001024400540A4
:1020000070B5040008000D0000F012F922002B004A
:1020100030320249024800F02AF970BD3801001040
:10202000244005400200012310B50B401432024940
:10203000024800F01CF910BD380100102440054092
:102040000200012310B50B4020320249024800F083
:102050000EF910BD38010010244005400F2203493D
:1020600010404B6883434B607047C046008004407B
:102070000F22034910404B68184348607047C04620
:10208000008004408E213F2210B5034C8900635824
:1020900010408343635010BD008004408E213F22D6
:1020A00010B5034C8900635810401843605010BDB0
:1020B000008004408E23034A9B00D058FA3BFF3B2C
:1020C0001840704700800440FD23024A9B00D0580E
:1020D0007047C0460080044010B50800FFF7AAFC16
:1020E00010BD0022436842600132826001324260CA
:1020F0008268002AFCD143607047FFFFBFF34F8F17
:10210000024A034BDA60BFF34F8FFEE70400FA0583
:1021100000ED00E070B51448FFF771FE05001248AD
:10212000FFF762FE81235B0004001D4213D00F48BD
:10213000FFF75AFF0E4B9A68801A01280BDD10201A
:10214000204005D05A78002A02D1DA690132DA61DA
:10215000421E90415870074B074A9C331B689342BC
:1021600001D0FFF7C7F970BD008005400040054071
:10217000B005001000000000F514000010B515486F
:10218000FFF7DAFCE821144C202322000901114852
:10219000FFF710FD2378252B06D0202200212000F8
:1021A00000F028F9252323700C48FFF71DFF636812
:1021B000C31A002B03DCE3680133E36005E0226906
:1021C00001322261A269D318A36101235B426060DE
:1021D000A36010BD00400340B00500100040054062
:1021E00010B50F4C2269E3689B180E4A934216D82B
:1021F0000D48FFF7F9FE63686269C31A9B186060B7
:102200000A486361FFF798FCE82108480901202388
:102210002200FFF7F7FC01210448FFF7C7FC10BDBF
:10222000B00500100F2700000040054000400340AB
:1022300010B504000448FFF7D7FE044B5A68101A83
:1022400004195C6010BDC04600400540B005001098
:1022500001480C307047C046B0050010A42301228D
:102260000168114202D1013B002BF9D17047F8B54A
:102270000D0016001F000400FFF7F0FF2B68200080
:1022800001332B603760FFF7E9FFF8BDF8B50600B2
:102290000C0015000B6801330B603000FFF7DEFF08
:1022A000300027682B68FFF7D9FF286823689F4212
:1022B000F3D1F8BD10B52F48FFF776FDA020C0057B
:1022C000FFF7A8FC102200212A48FFF77AFD082218
:1022D00001212848FFF775FD082202212548FFF754
:1022E00070FD082203212348FFF76BFD082204211B
:1022F0002048FFF766FD082205211E48FFF761FD13
:10230000082206211B48FFF75CFD08220721194817
:10231000FFF757FD082217481100FFF752FD102262
:1023200009211448FFF74DFD134B144A1B689342D3
:1023300002D0134A934206D108220A210D48FFF722
:1023400040FD082205E00A220A481100FFF739FD86
:102350000A220B210748FFF734FD0A48FFF722FE47
:102360000948FFF7E9FB0948FFF75EFD00F026F892
:1023700010BDC04600400440FC02000021436587B8
:102380006587214300400540004003400080054030
:10239000C30707D58023A022C90119408133FF3329
:1023A000D205D150704710B50100FFF7F1FF10BD05
:1023B00010B50021FFF7ECFF10BDFFFF10B50022A4
:1023C00007210748FFF7FDFCA02180228020C905D6
:1023D00012028B5803438B507F38FFF7E9FF10BD83
:1023E0000040044010B500F0B4F810BD10B500F086
:1023F000C6F810BD10B500F0D0F810BD10B5FDF74F
:102400007FFF10BD03000B4330B59B0709D1032AA2
:1024100007D903680C68A34203D104300431043A9D
:10242000F5E70024A24208D0035D651C0C5DA342C1
:1024300001D0181B02E02C00F4E7002030BDFFFFA4
:1024400003000B4330B59B0711D103000B4D0A6805
:102450000B4C141994432C4202D104C30431F6E707
:10246000D1B219700133002907D01212F8E7002306
:10247000CA5CC2540133002AFAD130BD808080800A
:10248000FFFEFEFE032210B5431C104206D00130B1
:10249000411E09780029F8D1C01A18E00C4C0268D6
:1024A0000C4951189143214201D10430F7E7D4B2CD
:1024B000411C002C0AD0FF242402811C224205D09A
:1024C000FF242404C11C224200D0011DC81A10BDE3
:1024D00080808080FFFEFEFE03000B4321D4002994
:1024E00031D00122D207030901E009011209994202
:1024F000FBD9430801E0490052089942FBD900E0AA
:102500004908401A07D35241FAD301461046704792
:1025100049084018F7D29218FAD3401801461046DD
:102520007047CB0F00D04942021000D540425340C3
:1025300008B5FFF7D4FF0CBC521000D34042002A6C
:1025400000D549421847F446002000F001F86047E2
:1025500070478446830708D18B0706D1131F04D325
:1025600004C904C0043BFBD21A1D524205D0891A8B
:10257000801A8B5C83540132FBD1604670478842DD
:1025800007D98B18834204D9013A8B5C8354FBD161
:10259000704700B5FFF7DDFF00BD8446043A09D35C
:1025A000830707D109060B0A19430B0C1943043A98
:1025B00002C0FCD2043203D001700130013AFBD1D9
:1025C000604670478C4671460139095C49008E446B
:1025D00061467047FC25000001000000000000007B
:1025E000746164686572656E63652F64656D6F2ED6
:1025F0006E68732E6E78702E6C6F6700656E006D5E
:10260000696E75746573007365636F6E6473004102
:1026100064686572656E6365206D6F6E69746F7254
:10262000696E6720686173206E6F7420796574200D
:10263000737461727465642E004164686572656EBE
:102640006365206D6F6E69746F72696E6720737455
:102650006172746564206174202020202020202075
:102660002020202065706F636820616E64206C619B
:10267000737465642020202020202020202020202A
:102680002E20416C6C2070696C6C73206172652027
:1026900074616B656E2E004164686572656E63657A
:1026A000206D6F6E69746F72696E672073746172EA
:1026B000746564202020202020202020202020203D
:1026C00061676F2E2020202070696C6C202072655D
:1026D0006D61696E2020007374006E640072640086
:1026E0007468006461797300686F75727300FFFF2E
:1026F0000100000010000000200000002000000089
:1027000007000000010000000400000008000000B5
:1027100008000000070000000000000001000000A9
:1027200002000000020000007F0000000103E80E2C
:0827300046FD0100030000005A
:102738005A000000CD050000550000009D0500006E
:102748005600000061050000570000004D0600001B
:1027580058000000310500005D000000ED04000095
:102768000000000000000000202320202061667483
:1027780065722020202020202020202020200A00F0
:102788002023782028202020202920616674657263
:10279800202020202020202020202020200A000186
:1027A800020000009D170000030000006D170000E4
:1027B800080000000117000009000000E5160000ED
:1027C8000A000000BD1600000C0000007116000091
:0827D8003E000000491600005C
:0400000300000125D3
:00000001FF
