:10000000F01F001045010000410C0000410C0000F1
:10001000410C0000410C0000410C0000410C0000AC
:10002000410C0000410C0000410C0000410C00009C
:10003000410C0000410C0000410C0000410C00008C
:10004000410C0000410C0000410C0000410C00007C
:10005000410C0000410C0000410C0000410C00006C
:10006000410C0000410C0000410C0000410C00005C
:10007000410C00005D0C0000410C0000410C000030
:10008000410C0000410C0000410C0000410C00003C
:10009000D1030000410C0000410C0000410C0000A5
:1000A000410C0000410C0000410C0000410C00001C
:1000B000410C0000410C0000410C0000410C00000C
:1000C000780E00000000001000000000000000108A
:1000D0002002000010B5002304E004680C60043323
:1000E000043004319342F8D310BDC046002303E02E
:1000F00000220260043304308B42F9D37047C046BB
:1001000010B500F0E5FD0C4B07E0186859681C00BD
:100110000C349A68FFF7DEFF2300084A9342F4D3B9
:1001200006E018681C0008345968FFF7DFFF230059
:10013000034A9342F5D310BDC0000000CC0000007C
:10014000D400000010B5FFF7DBFF00F027FE00BE73
:10015000BFF34F8F024A034BDA60BFF34F8FFEE7C6
:100160000400FA0500ED00E0FFFFFFFFFFFFFFFFC7
:10017000FFFFFFFFFFFFFFFFFFFFFFFFFFFFFFFF8F
:10018000FFFFFFFFFFFFFFFFFFFFFFFFFFFFFFFF7F
:10019000FFFFFFFFFFFFFFFFFFFFFFFFFFFFFFFF6F
:1001A000FFFFFFFFFFFFFFFFFFFFFFFFFFFFFFFF5F
:1001B000FFFFFFFFFFFFFFFFFFFFFFFFFFFFFFFF4F
:1001C000FFFFFFFFFFFFFFFFFFFFFFFFFFFFFFFF3F
:1001D000FFFFFFFFFFFFFFFFFFFFFFFFFFFFFFFF2F
:1001E000FFFFFFFFFFFFFFFFFFFFFFFFFFFFFFFF1F
:1001F000FFFFFFFFFFFFFFFFFFFFFFFFFFFFFFFF0F
:10020000FFFFFFFFFFFFFFFFFFFFFFFFFFFFFFFFFE
:10021000FFFFFFFFFFFFFFFFFFFFFFFFFFFFFFFFEE
:10022000FFFFFFFFFFFFFFFFFFFFFFFFFFFFFFFFDE
:10023000FFFFFFFFFFFFFFFFFFFFFFFFFFFFFFFFCE
:10024000FFFFFFFFFFFFFFFFFFFFFFFFFFFFFFFFBE
:10025000FFFFFFFFFFFFFFFFFFFFFFFFFFFFFFFFAE
:10026000FFFFFFFFFFFFFFFFFFFFFFFFFFFFFFFF9E
:10027000FFFFFFFFFFFFFFFFFFFFFFFFFFFFFFFF8E
:10028000FFFFFFFFFFFFFFFFFFFFFFFFFFFFFFFF7E
:10029000FFFFFFFFFFFFFFFFFFFFFFFFFFFFFFFF6E
:1002A000FFFFFFFFFFFFFFFFFFFFFFFFFFFFFFFF5E
:1002B000FFFFFFFFFFFFFFFFFFFFFFFFFFFFFFFF4E
:1002C000FFFFFFFFFFFFFFFFFFFFFFFFFFFFFFFF3E
:1002D000FFFFFFFFFFFFFFFFFFFFFFFFFFFFFFFF2E
:1002E000FFFFFFFFFFFFFFFFFFFFFFFFFFFFFFFF1E
:1002F000FFFFFFFFFFFFFFFFFFFFFFFFFFFFFFFF0E
:100300000022002308E0511C0548C254AA20054AD7
:10031000D05401339BB2CAB2FF2BF4D97047C04608
:10032000000000100401001070B5194D194C002395
:1003300025E021782A784A4017490878072804D808
:100340000726361AFF21314100E0FF210A401AD169
:10035000611C6E1C07280ED96678697871400728E1
:1003600003D90F32101AF032024111420DD1A11CF3
:10037000AE1C01339BB201339BB235000C00FF2B46
:10038000D7D9002002E0012000E0012070BDC04666
:1003900004010010000000100001001010B50B4C0B
:1003A00001220821200000F0BFFA012209212000CB
:1003B00000F0BAFA01220221200000F0B5FA012271
:1003C0000621200000F0B0FA10BDC04600400440F5
:1003D00010B5174B1B78072B14D81649164800F098
:1003E0004BFB002808D0134BDA681B699A421DD3D7
:1003F000104A5268934219D80F4A536908218B4317
:10040000536113E00B490C4800F064FB002808D04E
:10041000084BDA681B699A4208D3064A526893422D
:1004200004D8054A536908218B43536110BDC04667
:1004300000010010040200100000044070B53148B3
:1004400000F06AF900F06EF8FFF7A8FF2E4C2000CC
:1004500000F0A0FB2D4D0026AE7007232B706E70B0
:100460000121200000F064FB2878AB7869782268CD
:10047000FF25AA43024313430B4323602449200072
:1004800000F064FB6268012313436360FFF738FFE9
:10049000204B802252001A611F4A1A601F4A9A603C
:1004A0005E60DE60032323626268013B1343636086
:1004B000626908231343636180225203184B1A6058
:1004C000114BDB68DB07FBD5FFF72EFF002802D0BE
:1004D000012000F0BFF80C4C63680E2213406360EB
:1004E0006368013A13406360200000F077FB6369A2
:1004F000082293436361802149038023084AD15035
:10050000FEE7C04680841E00000004400001001089
:10051000A086010004020010000000100401001079
:1005200000E100E010B5324C200000F0EFF9A0200F
:10053000C00500F0E5F910220021200000F0F4F9D8
:1005400008220121200000F0EFF9082202212000FA
:1005500000F0EAF908220321200000F0E5F9082262
:100560000421200000F0E0F908220521200000F01D
:10057000DBF908220621200000F0D6F90822072125
:10058000200000F0D1F908220821200000F0CCF969
:1005900010220921200000F0C7F9164B1B68164AEB
:1005A000934202D0154A93420BD1114C08220A21E2
:1005B000200000F0B9F908220B21200000F0B4F966
:1005C0000AE00B4C0A220A21200000F0ADF90A22B1
:1005D0000B21200000F0A8F9094800F0EBF90948C8
:1005E00000F016F9084800F0CFF900F03FF810BD10
:1005F00000400440FC0200002143658765872143D9
:10060000004005400040034000800540F0B5002355
:100610001BE002001A41D20716D50D4C9A00165D58
:10062000A41867780A001A4101252A40A478A21A62
:1006300054426241D2B23404A026F605B446644462
:10064000BD40BA40AD002A510133002BE1DDF0BDC1
:10065000740E000010B50100FFF7D8FF10BDC046B2
:1006600010B50021FFF7D2FF10BDC04670B50024C1
:1006700016E0002207210D4800F056F90C49A200AF
:10068000535C8A1855781B04A022D2059446634413
:100690008021090258580122AA4002435A500134CD
:1006A000002CE6DD0120FFF7DBFF70BD00400440B9
:1006B000740E000070B5041E00DC00BE012C08DCC6
:1006C00000F006F9002804D100F012F9002800DC3F
:1006D00000BE802C00DD8024002300E00133641084
:1006E000FCD107494C62086A0E25A8435A002B002A
:1006F000134003430B624C6201234B6270BDC04642
:1007000000800440034B1B6A5B0807221340012052
:10071000984070470080044010B5011E00DC00BE08
:10072000024800F03FFBFFF7C5FF10BD00127A0042
:1007300010B5FFF7E7FF0100014800F033FB10BDE3
:1007400000127A0010B5041E16D00C4B984200D946
:1007500000BEFFF7EDFF0100094800F023FB010098
:10076000FA208000604300F020FBE138FF3802B43B
:10077000011C0339FDDC02BC10BDC04600093D0070
:1007800000CA9A3B002800DA00BEFF2800DDFF20E7
:10079000022801DDFE2318409423014AD0507047FF
:1007A000008004409423044AD358FF2018400228B4
:1007B00001DDFE20184070470080044010B5FFF7AF
:1007C000F1FF01004010034B9C46604400F0EAFA40
:1007D00010BDC04600127A0010B5044980228C5822
:1007E000034B18402043885010BDC0460080044091
:1007F000FCBF1D0010B5044C80216358034A104013
:100800008343635010BDC04600800440FCBF1D0000
:1008100010B5C0204003FFF7DFFF042000F0F0F91F
:10082000082000F001FA6420FFF78CFF042000F09C
:10083000F1F9FFF77DFF084B9C466044074900F043
:10084000B1FA0138002800DC0120054B5861012273
:100850005242044B1A6410BDD7B80500D8B8050041
:10086000004003402002001070B50C0016001D006F
:10087000002900DA00BE002D00DC00BE63198022D2
:100880005201934200DD00BE2A00C0239B05E118FF
:10089000300000F07BFA0D4B196C002915DB8C42FF
:1008A00003DD641A1919300002E0081B30180749EB
:1008B000064B4033994208D27519A84205D22A1A2C
:1008C000402A00DD402200F061FA70BD20020010D5
:1008D000054B1868C0231B031840044B9C4660441A
:1008E000431E9841C0B2704700C003400000F4FFAF
:1008F000024B1B69FF2018407047C04600C00340F0
:1009000010B54020FFF768FF10BDC04610B580202D
:10091000C002FFF761FF10BD802283580901090959
:100920008B4383507047C04670B506000D0014001D
:100930000B2907D9012A05D10B000C3B0121994055
:10094000FFF7EAFF2402240AAD00AC5170BDC04697
:100950004068C0B27047C046C905C90D8161704783
:10096000C069C005C00D704710B5C36908221340A7
:10097000044C226813432360C905C90D41624162DA
:1009800010BDC0461802001070B50400FE2280237E
:100990005B00C250054D00212800FFF7DDFF044930
:1009A0002800FFF7E1FF0023236070BD00800540B1
:1009B000FF01000010B58020C000FFF70DFF10BD43
:1009C00010B5020030320249024800F0CBF910BDE8
:1009D0001C020010244005400B68002B03D04A681D
:1009E0009B5A836001E0034B83604B6802334B608A
:1009F0007047C046FFFF00000B68002B03D04A6819
:100A00009B5C836001E0FF2383604B6801334B6094
:100A10007047C04610B508E083689BB28C68002C14
:100A200000D0A352CB680233CB60C3685B0703D509
:100A3000CA680B699A42EFD310BDC04610B507E0F3
:100A400084688A68002A00D0D454CB680133CB6014
:100A5000C3685B0703D5CB680A699342F0D310BD26
:100A600010B50468034B23400906090C19430160C3
:100A7000026110BDFF00FFFF70B505000C00836927
:100A8000DB071FD40B694A689A4202D1CA689342B5
:100A90001AD021002800FFF7D1FF0AE0210028002A
:100AA000FFF7AAFFAB69DB0710D421002800FFF78E
:100AB000C5FFEB689B070BD5636822699342EDD1B4
:100AC000012006E0002004E0002002E0002000E019
:100AD000012070BD70B505000C008369DB071FD4D1
:100AE0000B694A689A4202D1CA6893421AD021001F
:100AF0002800FFF78FFF0AE021002800FFF76CFFB6
:100B0000AB69DB0710D421002800FFF783FFEB68F7
:100B10009B070BD5636822699342EDD1012006E063
:100B2000002004E0002002E0002000E0012070BD71
:100B3000002904D0436804229343436004E04268E0
:100B400004239A43134343607047C046F0B583B013
:100B500001900F00FFF732FE009002250120404275
:100B600000260DE0741C21006943009800F01DF977
:100B7000874205D2FF2C02D90235002600E026006C
:100B8000B842EFD82A0031000198FFF769FF03B09F
:100B9000F0BDC04610B504000E4B984200D000BE18
:100BA0008020FFF719FEFFF7ADFDFFF7EBFD0120F9
:100BB00000F030F863680422934363602368FB32DB
:100BC0009343F83A1343236003492000FFF7BEFF25
:100BD00010BDC04600000440A086010010B5074BC0
:100BE000984200D000BE43680D221340436080202D
:100BF000FFF700FE0020FFF7C5FD10BD0000044018
:100C0000034A53680F210840834353607047C0462E
:100C100000800440034A53680F2108401843506085
:100C20007047C0460080044010B504498E229200EF
:100C30008B583F24204083438B5010BD00800440DC
:100C400000BEBFF34F8F034A034BDA60BFF34F8FF1
:100C5000FEE7C0460400FA0500ED00E070B5174C51
:100C60002000FFF77DFE06002000FFF771FE102434
:100C7000044023005A1E9341DDB281235B001E42D3
:100C800013D00F48FFF79CFE0E4B9B68C01A01283B
:100C90000BDD002C07D00B4B5B78002B03D1094AEE
:100CA000D3690133D361074B5D709C23064AD25848
:100CB000064B9A4201D0FFF7C3FF70BD008005408C
:100CC000004005406402001000000000410C0000DC
:100CD00070B5194D2800FFF79BFD184C202322000A
:100CE000E82109012800FFF7BFFD2378252B07D055
:100CF000124C20220021200000F04CF82523237004
:100D00000F48FFF75DFE0D4B5B68C31A002B04DC38
:100D10000A4AD3680133D36007E0084A11690131F8
:100D2000116191698C4663449361044B58600122C0
:100D300052429A6070BDC0460040034064020010F9
:100D400000400540002300E006330268D20702D4C9
:100D5000034A9342F8DD0368DB0700D400BE704706
:100D6000CF030000F8B506000C0015000B68013336
:100D70000B603000FFF7E6FF27682B683000FFF7B5
:100D8000E1FF286823689F42F3D1F8BD10B500F059
:100D900046F810BD10B500F058F810BD10B5FFF7BB
:100DA0004DFB10BD03000B4321D4002931D001229B
:100DB000D207030901E0090112099942FBD943084E
:100DC00001E0490052089942FBD900E04908401A65
:100DD00007D35241FAD301461046704749084018DC
:100DE000F7D29218FAD34018014610467047CB0F3D
:100DF00000D04942021000D54042534008B5FFF7E9
:100E0000D4FF0CBC521000D34042002A00D5494206
:100E10001847F446002000F001F860477047844608
:100E2000830708D18B0706D1131F04D304C904C05C
:100E3000043BFBD21A1D524205D0891A801A8B5CE2
:100E400083540132FBD1604670478446043A09D38B
:100E5000830707D109060B0A19430B0C1943043AFF
:100E600002C0FCD2043203D001700130013AFBD140
:080E700060467047000701070E
:0400000300000145B3
:00000001FF
