:10000000F01F0010450100006510000065100000A1
:10001000651000006510000065100000651000000C
:1000200065100000651000006510000065100000FC
:1000300065100000651000006510000065100000EC
:1000400065100000651000006510000065100000DC
:1000500065100000651000006510000065100000CC
:1000600065100000651000006510000065100000BC
:100070006510000081100000651000006510000090
:10008000651000006510000065100000651000009C
:10009000651000006510000065100000651000008C
:1000A000651000006510000065100000651000007C
:1000B000651000006510000065100000651000006C
:1000C000C019000000000010000000000000001037
:1000D0007001000010B5002304E004680C600433D4
:1000E000043004319342F8D310BDC046002303E02E
:1000F00000220260043304308B42F9D37047C046BB
:1001000010B500F0F7FF0C4B07E0186859681C00A9
:100110000C349A68FFF7DEFF2300084A9342F4D3B9
:1001200006E018681C0008345968FFF7DFFF230059
:10013000034A9342F5D310BDC0000000CC0000007C
:10014000D400000010B5FFF7DBFF01F031F800BE6E
:10015000BFF34F8F024A034BDA60BFF34F8FFEE7C6
:100160000400FA0500ED00E0FFFFFFFFFFFFFFFFC7
:10017000FFFFFFFFFFFFFFFFFFFFFFFFFFFFFFFF8F
:10018000FFFFFFFFFFFFFFFFFFFFFFFFFFFFFFFF7F
:10019000FFFFFFFFFFFFFFFFFFFFFFFFFFFFFFFF6F
:1001A000FFFFFFFFFFFFFFFFFFFFFFFFFFFFFFFF5F
:1001B000FFFFFFFFFFFFFFFFFFFFFFFFFFFFFFFF4F
:1001C000FFFFFFFFFFFFFFFFFFFFFFFFFFFFFFFF3F
:1001D000FFFFFFFFFFFFFFFFFFFFFFFFFFFFFFFF2F
:1001E000FFFFFFFFFFFFFFFFFFFFFFFFFFFFFFFF1F
:1001F000FFFFFFFFFFFFFFFFFFFFFFFFFFFFFFFF0F
:10020000FFFFFFFFFFFFFFFFFFFFFFFFFFFFFFFFFE
:10021000FFFFFFFFFFFFFFFFFFFFFFFFFFFFFFFFEE
:10022000FFFFFFFFFFFFFFFFFFFFFFFFFFFFFFFFDE
:10023000FFFFFFFFFFFFFFFFFFFFFFFFFFFFFFFFCE
:10024000FFFFFFFFFFFFFFFFFFFFFFFFFFFFFFFFBE
:10025000FFFFFFFFFFFFFFFFFFFFFFFFFFFFFFFFAE
:10026000FFFFFFFFFFFFFFFFFFFFFFFFFFFFFFFF9E
:10027000FFFFFFFFFFFFFFFFFFFFFFFFFFFFFFFF8E
:10028000FFFFFFFFFFFFFFFFFFFFFFFFFFFFFFFF7E
:10029000FFFFFFFFFFFFFFFFFFFFFFFFFFFFFFFF6E
:1002A000FFFFFFFFFFFFFFFFFFFFFFFFFFFFFFFF5E
:1002B000FFFFFFFFFFFFFFFFFFFFFFFFFFFFFFFF4E
:1002C000FFFFFFFFFFFFFFFFFFFFFFFFFFFFFFFF3E
:1002D000FFFFFFFFFFFFFFFFFFFFFFFFFFFFFFFF2E
:1002E000FFFFFFFFFFFFFFFFFFFFFFFFFFFFFFFF1E
:1002F000FFFFFFFFFFFFFFFFFFFFFFFFFFFFFFFF0E
:1003000010B500F093FC00F057FC00F095F90022C6
:100310000321064800F026FEA023DB058020000212
:100320001A5808210A431A50196210BD00400440AF
:1003300010B51C0000F0EEFB201A44426041C0B230
:1003400010BDC04670B5134CA54405000E0001ACAD
:100350000C220021200000F03CFF0F4B01930123F1
:1003600023718022920004A984A800F07FF901A9DA
:1003700084A800F0A5F93200290084A800F0B2F9A1
:1003800084A800F0EDF984A800F006FA8A239B0007
:100390009D4470BDD8FDFFFF9019000000B5AFB0BF
:1003A000FFF7AEFF0022B6236B441A80012000F055
:1003B000D5FCB4236A460221B6206844FFF7B8FF93
:1003C000002810D00022B4236946CA54FF21684691
:1003D00000F07CFF002802D06946411A00E0B421F9
:1003E0006846FFF7AFFF012000F0BEFCFA20C00016
:1003F00000F018FDB6226A44138842331380D5E713
:1004000010B5FC235B00114A01E001320B00591EBC
:10041000002B02D01478032CF7D1023B00290ED018
:10042000911C54780460FF2C0BD1012B0BDD9378C9
:100430001B020360D1780B430360101D04E0002011
:1004400002E0080000E0002010BDC0460881054021
:1004500010B5054C0221200000F0CEFDA12149007D
:10046000200000F097FD10BD00800540F0B54F461C
:1004700080B482B0060089460092019308AB10CB8D
:100480001B78002802D00268002A00D100BE4A462C
:100490001779002B04D0106800F022FF050000E05F
:1004A00000252A1901237B40DBB25900CB18D21852
:1004B00071688C466244802189008A4238DCB168C8
:1004C0008A4237DC726032680021F16032617775F0
:1004D000317DC9013F010F4301990F431770012975
:1004E00004D15170D41C691C917003E05570D41C68
:1004F00000219170E418009B032B06D15133237027
:10050000153B2B406370023408E0009B062B05D19D
:100510004F3323704B461B7A637002344B46196885
:100520002A00200000F04DFE63193360012002E034
:10053000002000E0002002B004BC9146F0BDC0469F
:1005400010B51300D02212069446614402000248FE
:1005500000F0BAFC10BDC0460040034010B5054C89
:10056000200000F01BFD8823184381B2200000F01A
:1005700011FD10BD0080054010B5074C200000F0B3
:100580000DFD8823984381B2200000F003FD012275
:100590005242024B1A6010BD00800540040000105A
:1005A00010B582B00400430616D5FFF7E5FF174BE0
:1005B0001B68082294431B041B0C032B0CD001A8BE
:1005C000FFF71EFF002807D0019B9C466044104B9C
:1005D0009C4660440F4B186023070DD50D4B1B68DC
:1005E000013309D00B4B1B689B089B000A4A9446B9
:1005F00063440A4A12681A6081235B001C4201D1DD
:10060000230601D5FFF7B8FF02B010BD08810540F1
:10061000007FFABF040000100081054000000010B8
:1006200010B50C220249034800F0CBFD10BDC046B6
:10063000941900000081054010B501225242074B79
:100640001A60FFF705FFFFF7EBFF0549054800F0CB
:10065000ADFC80229201044B1A6010BD0400001012
:10066000FF0100000080054000E100E070B50400DB
:100670000D001E00002801D0002900D100BEAB07EC
:1006800000D000BE0B2A01DD930700D000BEA2609F
:1006900000232361E360A6750C220849280000F0BE
:1006A00090FD002E01D10C2300E00A23ED18013348
:1006B000636025600123237570BDC0469419000056
:1006C00000B583B0002902D00B68002B00D100BE1A
:1006D0000123019304330093043B0322FFF7C6FE7A
:1006E00003B000BD70B504001500002804D00368F5
:1006F000002B01D0002900D100BEE8221201D02336
:100700001B06CB18934201D9002000E0012063684A
:100710005B198022920093421CDCA26893421BDC8E
:10072000E268AA18667D002E01D0FF2A16DC6360FD
:10073000E260002804D02A002068FFF701FF03E0F0
:100740002A00206800F03DFD23689C466544256032
:10075000012004E0002002E0002000E0002070BD45
:10076000002805D00368002B02D00369002B00D1BC
:1007700000BE03699A78C1688C466244417D0029B5
:1007800001D09A7005E000219970D9701112197189
:100790005A71002303757047F8B5041E02D0036830
:1007A000002B00D100BE6668A37D002B02D035006F
:1007B0000B3D01E035000D3D032D07DD2369002BC6
:1007C00000D100BE197840220A431A700920801B0C
:1007D00023689C466044A37D002B11D0FE2D0FDDC5
:1007E000023680239B009E4252DC0023A375811CAD
:1007F00004302A0000F0E9FC2368023323600EE095
:10080000002B0CD1FE2D0ADC023E0133A375011D25
:1008100002302A0000F0D9FC2368023B23602368E1
:100820005A1C2260FE221A7023689F1BB30702D055
:1008300003239E43043627606660164B1B68013312
:100840000CD0144B1B68B34208D2124B1B689B0898
:100850009B00FA58104B1A60FFF780FE32003900F7
:100860000E4800F0AEFCFE2D08DD2A062D02FF2307
:100870001B041D4015430A4B1D4305E0094B1A6834
:10088000094B13402D021D43064B1D60012000E063
:100890000020F8BD04000010000000100081054099
:1008A00003FF000008810540FF00FFFF70B5074D02
:1008B000280000F077FB01002C6AE405E40D280015
:1008C00000F074FB2000FFF76BFE70BD0080054058
:1008D000A023DB05802109025858102202435A50F8
:1008E00000221A647047C046A021C9058022120266
:1008F0008B58102083438B507047C046A023DB05E4
:10090000802109025858202202435A500021802297
:1009100099507047A021C905802212028B582020CF
:1009200083438B507047C046A023DB05186C431EE1
:100930009841C0B27047C0468023A022D205D0584B
:10094000431E9841C0B27047002804D002B4011C75
:100950000339FDDC02BC704710B500240134FFF7F9
:10096000E3FF002801D1632CF8D910BD10B5002099
:10097000FFF7EAFFFFF7B8FFFFF7EEFF0020FFF7F2
:10098000E3FFFFF7C7FF0020FFF7DEFFFFF7B6FF2B
:100990000020FFF7D9FFFFF79BFF10BD10B5002027
:1009A000FFF7D2FFFFF794FF0020FFF7CDFFFFF71F
:1009B000A5FF0020FFF7C8FFFFF796FFFFF7CCFF6A
:1009C0000020FFF7C1FFFFF7A5FF10BD70B50600BF
:1009D0000020FFF7B9FF0024802517E02E4202D047
:1009E000FFF798FF01E0FFF789FF6D080020FFF790
:1009F000ABFFFFF779FFFFF7AFFF0020FFF7A4FF82
:100A0000FFF766FF0020FFF79FFF0134072CE5DDAD
:100A1000FFF780FF0020FFF797FFFFF765FFFFF765
:100A20009BFF0020FFF790FFFFF786FF04000020E8
:100A3000FFF78AFFFFF74CFF0020FFF785FF20003C
:100A400070BDC04670B505000E00002406E0287891
:100A5000FFF7BCFF002803D101350134B442F6D3BF
:100A6000200070BDF8B50700FFF754FF0020FFF726
:100A70006BFF00248025002618E00020FFF764FFAC
:100A8000FFF732FFFFF768FF0020FFF75DFFFFF77A
:100A900053FF002800D02E436D080020FFF754FFBD
:100AA000FFF716FF0020FFF74FFF0134072CE4DDAE
:100AB0000020FFF749FF002F02D0FFF71FFF01E0E2
:100AC000FFF728FF0020FFF73FFFFFF70DFFFFF7BD
:100AD00043FF0020FFF738FFFFF7FAFE0020FFF783
:100AE00033FFFFF717FF3000F8BDC046F8B505002B
:100AF0000E00170000240AE0731E9C4201D2012060
:100B000000E03800FFF7AEFF287001350134B44231
:100B1000F2D3F8BDF0B5474680B405000C0090460E
:100B20001F00FFF723FF01211A48FFF78BFF012861
:100B30000AD1002D0CD0002C0DD021002800FFF789
:100B400081FF0600002508E0002601256D4204E033
:100B50000026002501E0002600254346002B10D08A
:100B6000002F0ED0A6420CD1002D0AD1FFF7FEFEB9
:100B700001210948FFF766FF002239004046FFF7D0
:100B8000B5FFFFF70BFFA64200D13D00280004BCD3
:100B90009046F0BD10000010090000104000C0B2E7
:100BA00001230343024A1370024B18707047C0467A
:100BB000090000101000001010B5A020C00580230F
:100BC0001B02C258120901210A40134C2270C3585B
:100BD0005B090B40114A1370114C0331200000F0E7
:100BE000B3F9104B18600521200000F0ADF90E4B51
:100BF000186010220421200000F0B4F91022052111
:100C0000200000F0AFF9FFF785FEFFF76DFE112021
:100C1000FFF7C4FF10BDC04608000010110000100F
:100C200000400440140000100C00001010B5324CBD
:100C3000200000F083F9A020C00500F079F910220F
:100C40000021200000F08EF908220121200000F090
:100C500089F908220221200000F084F908220321EA
:100C6000200000F07FF908220421200000F07AF92A
:100C700008220521200000F075F908220621200035
:100C800000F070F908220721200000F06BF908221B
:100C90000821200000F066F910220921200000F050
:100CA00061F9164B1B68164A934202D0154A9342CB
:100CB0000BD1114C08220A21200000F053F9082220
:100CC0000B21200000F04EF90AE00B4C0A220A2109
:100CD000200000F047F90A220B21200000F042F921
:100CE000094800F08DF9094800F0C2F8084800F002
:100CF0006DF900F03FF810BD00400440FC02000018
:100D0000214365876587214300400540004003403B
:100D100000800540F0B500231BE002001A41D20715
:100D200016D50D4C9A00165DA41867780A001A4172
:100D300001252A40A478A21A54426241D2B2340456
:100D4000A026F605B4466444BD40BA40AD002A5121
:100D50000133002BE1DDF0BDA019000010B501004A
:100D6000FFF7D8FF10BDC04610B50021FFF7D2FF36
:100D700010BDC04670B5002416E0002207210D48C2
:100D800000F0F0F80C49A200535C8A1855781B0457
:100D9000A022D205944663448021090258580122BA
:100DA000AA4002435A500134002CE6DD0120FFF72F
:100DB000DBFF70BD00400440A0190000034B1B6A1C
:100DC0005B080722134001209840704700800440D0
:100DD00010B5FFF7F3FF0100014800F04DFD10BD15
:100DE00000127A0010B5041E16D00C4B984200D9A0
:100DF00000BEFFF7EDFF0100094800F03DFD0100D6
:100E0000FA208000604300F03AFDE138FF3802B478
:100E1000011C0339FDDC02BC10BDC04600093D00C9
:100E200000CA9A3B10B5040005E00848FFF7DAFF56
:100E3000074B9C466444FA231B019C42F5DCFA20D4
:100E400080006043FFF7CEFF10BDC04600093D00A3
:100E500060F0FFFF10B5044980228C58034B184006
:100E60002043885010BDC04600800440FCBF1D00D8
:100E700010B5C0204003FFF7EDFF042000F0D2F8CA
:100E8000082000F0E3F86420FFF7ACFF042000F036
:100E9000D3F8FFF79DFF084B9C466044074900F0DC
:100EA000EBFC0138002800DC0120054B58610122D1
:100EB0005242044B1A6410BDD7B80500D8B80500DB
:100EC000004003407001001070B50C0016001D00BA
:100ED000002900DA00BE002D00DC00BE631980226C
:100EE0005201934200DD00BE2A00C0239B05E11899
:100EF000300000F066F90D4B196C002915DB8C42AF
:100F000003DD641A1919300002E0081B3018074984
:100F1000064B4033994208D27519A84205D22A1AC5
:100F2000402A00DD402200F04CF970BD7001001035
:100F300010B54020FFF78EFF10BDC04610B58020D1
:100F4000C002FFF787FF10BD890008580002000AA1
:100F50007047C04680228358090109098B4383509A
:100F60007047C04670B506000D0014000B2907D964
:100F7000012A05D10B000C3B01219940FFF7EAFF44
:100F80002402240AAD00AC5170BDC0464068C0B216
:100F90007047C046C905C90D816170478069C005A9
:100FA000C00D7047C069C005C00D704710B5C3695A
:100FB00008221340044C226813432360C905C90D5D
:100FC0004162416210BDC0461800001070B50400B7
:100FD000FE2280235B00C250054D00212800FFF750
:100FE000D9FF04492800FFF7E1FF0023236070BD0B
:100FF00000800540FF010000043101617047C046D8
:1010000010B58020C000FFF725FF10BD10B502000D
:1010100030320249024800F0B7F810BD1C00001041
:1010200024400540034A53680F210840834353601E
:101030007047C04600800440034A53680F210840AF
:10104000184350607047C0460080044010B5044902
:101050008E2292008B583F24204083438B5010BD3A
:101060000080044000BEBFF34F8F034A034BDA6099
:10107000BFF34F8FFEE7C0460400FA0500ED00E025
:1010800070B5174C2000FFF78DFF06002000FFF71A
:101090007DFF1024044023005A1E9341DDB28123BA
:1010A0005B001E4213D00F48FFF7B0FF0E4B9B684A
:1010B000C01A01280BDD002C07D00B4B5B78002BEE
:1010C00003D1094AD3690133D361074B5D709C2377
:1010D000064AD258064B9A4201D0FFF7E7FB70BD93
:1010E0000080054000400540B401001000000000F1
:1010F000AD08000070B5194D2800FFF7B9FE184C77
:1011000020232200E82109012800FFF7DDFE2378D3
:10111000252B07D0124C20220021200000F059F886
:10112000252323700F48FFF771FF0D4B5B68C31A2F
:10113000002B04DC0A4AD3680133D36007E0084A75
:1011400011690131116191698C4663449361044BCB
:101150005860012252429A6070BDC0460040034070
:10116000B401001000400540002300E0063302688F
:10117000D20702D4034A9342F8DD0368DB0700D4A8
:1011800000BE7047CF030000F8B506000C00150044
:101190000B6801330B603000FFF7E6FF27682B6810
:1011A0003000FFF7E1FF286823689F42F3D1F8BDC4
:1011B000002210B51100100000F010F8FFF7EEF853
:1011C00010BD10B500F095FB10BD10B500F0A7FBE9
:1011D00010BD10B500F0B1FB10BDFFFFA02270B52F
:1011E000214C520000212000FFF7F3FFC02000F047
:1011F000E3F91E4DC02200212860FFF7EAFF2B68AB
:101200001B4A1900C0311360183328328B42FAD1BF
:1012100022001849002000F0AFF8802380225B01F3
:10122000D2000021200000F02DF8134D134C2900AE
:101230002200012000F0A0F8802380225B01D20070
:101240000021200000F01EF80D4C29002200022091
:1012500000F092F8802380225B01D2000021200060
:1012600000F010F870BDC0462400001020000010EF
:1012700048000010A4190000A61900004C0000103E
:1012800074000010F0B5C6680124B5071AD0802597
:10129000AD00AA420BD08025ED00AA4204D08025E3
:1012A0006D00AA420ED102E0416A230004E0064F1D
:1012B0005D1E0124BD4205D8002432430161016056
:1012C000C361C2602000F0BDFEFFFF00C9B2037819
:1012D0008B4204D0002B01D00130F8E71800704792
:1012E000032210B5431C104206D00130411E09787C
:1012F0000029F8D1C01A18E00C4C02680C495118AA
:101300009143214201D10430F7E7D4B2411C002CB3
:101310000AD0FF242402811C224205D0FF24240489
:10132000C11C224200D0011DC81A10BD80808080DF
:10133000FFFEFEFE202310B50400C2689A43436AF4
:10134000E2605B6882699A420DD000F04FF8E26873
:10135000074B134010221343626AE3605368A36192
:10136000236993602360E268024B1340E36010BD81
:10137000EFCFFFFFBFBFFFFFF7B50D0001901000DB
:10138000140000F029F92B78722B09D0772B04D0A8
:10139000612B25D10823144A04E00423022201E032
:1013A000002301220220691C03278446042601250C
:1013B00008782B2805D0622807D132432B4301310E
:1013C000F6E760463A430343F9E7E260019A626157
:1013D0001B0706D502220021200000F04FF900E093
:1013E00000242000FEBDC0460280000070B504004D
:1013F000436A056901689A68C068134B0340E3605B
:1014000082230340022B02D0012040421AE08023B5
:101410005B02184016D0914200D211008D4209D1D2
:101420000020636AE2689D60084B25601340A0605D
:10143000E36007E0491B2200280000F009F80028BB
:10144000EED0E1E770BDC046FFFFF7FFFFFFFEFFF4
:10145000F7B5D66801900D0014005769F30205D561
:10146000102338001E4300F081FAA061114B1E4288
:1014700009D0A169380000F082FA8023002811DB2E
:101480000D4B1E40E6602A000199380000F07DFAFD
:1014900043005B08ED1AA3695D190023A56198421A
:1014A00005D08033E2681343E36001235B421800F8
:1014B000FEBDC04610000200EFFFFDFFF7B5314E44
:1014C000C51C3468AD080196002813D0802229007D
:1014D000EB1C002752050A319C4604E02368934226
:1014E00013D02700A468002CF8D10C3000F076F956
:1014F000431C0FD1002043E03E68964217D17E681E
:101500009B1903336360BB68A360A7686368002FFF
:10151000F2D10CE080239B05036045608460002FBE
:1015200002D1019B186000E0B8600C3028E09D42B9
:1015300005DC634503DC80239B0523601EE08B42B2
:1015400010D98022200080219205656022600C3035
:10155000AA005D1B82184905033DA2601160556019
:1015600097600DE0002FBCD19B00C01A00F036F947
:10157000431CBFD080239B05236065602000D4E717
:10158000FEBDC0466401001010B5002812D08023B3
:101590005B0519000C3803608268002A0AD01368C2
:1015A0008B4207D1546843681B1903334360936827
:1015B0008360F1E710BDFFFF10B5FFF77FFF041E4A
:1015C00005D11722034900F0E0F900F0CBF9200023
:1015D00010BDC046A8190000F0B5436AC5688BB0BD
:1015E00004000193AB0728D02B0718D4476906697C
:1015F00000F02AF8380000F0B6F92B0502D53000CB
:10160000FFF7C2FF0F4BAD0DAD059D4207D1202264
:10161000216A02A800F0B6F902A800F0D5F8182255
:101620000021606AFFF7D5FD282200212000FFF786
:10163000D0FD019B0020636201E0012040420BB01D
:10164000F0BDC046000080AD70B5002803D000F0AA
:10165000E5F805000EE0A026040005007600064827
:10166000201800F0DBF8002801D001256D42283455
:10167000B442F4D1280070BD24000010F7B5C3684F
:1016800016000093009A3B4B04000D001A426CD0E8
:101690004769380000F06DF90190002865D1012EEE
:1016A00004D0022E07D0002E5FD124E0200000F0ED
:1016B00065F82D181FE0380000F058F9002805DA09
:1016C0008023E2681343E36001234FE0626A2368EA
:1016D0009168994200D90B00A1695B1821695B1AD6
:1016E000E168890603D55268934200DA1300834209
:1016F00000DA0300ED18002D37DB009B616A9B04C4
:1017000004D523688A689A4200D28B60A3699D42FF
:101710000DDB88682268824200D202002069D61858
:10172000361AB54203DCCF68DE19B54207DB202349
:10173000009A13430022A26062604D6011E0ED1A2E
:10174000009B9B0701D5EF1BA760009BDB0702D521
:10175000121AAA1A62602023009A45199A431300AC
:101760002560054A1340E36001E0022301930198DC
:10177000FEBDC04603001000BFCFF7FFC3689A0745
:1017800005D1212201200F4B40421A6018E020228F
:1017900019030BD5134202D0436A586804E003686A
:1017A000826900699B18181A013809E0134202D0B7
:1017B000436A586804E00368826900699B18181A34
:1017C0007047C0466C01001010B50400FFF788FD9B
:1017D0000100200000F0D0F810BDFFFF70B50C4DE7
:1017E0002B68002B01D10B4B2B600323C41C2E68EC
:1017F0009C433419200000F035F8002802D12C60F9
:10180000300004E00C220120034B40421A6070BDFE
:1018100068010010D40100106C010010C36870B59D
:101820000400032018401AD09B0605D5636A2000E7
:101830005E68FFF77FFD04E02368A2699E182369B4
:10184000F61AE268064B20001340E360FFF7CEFD76
:101850000500002231002000FFF710FF280070BDB6
:10186000FFCFFFFF034B0200181E02D000209A4258
:10187000404170470000000003000B4321D40029C1
:1018800031D00122D207030901E00901120999426E
:10189000FBD9430801E0490052089942FBD900E016
:1018A0004908401A07D35241FAD3014610467047FF
:1018B00049084018F7D29218FAD34018014610464A
:1018C0007047CB0F00D04942021000D54042534030
:1018D00008B5FFF7D4FF0CBC521000D34042002AD9
:1018E00000D549421847F446002000F001F860474F
:1018F00070478446830708D18B0706D1131F04D392
:1019000004C904C0043BFBD21A1D524205D0891AF7
:10191000801A8B5C83540132FBD160467047884249
:1019200007D98B18834204D9013A8B5C8354FBD1CD
:10193000704700B5FFF7DDFF00BD8446043A09D3C8
:10194000830707D109060B0A19430B0C1943043A04
:1019500002C0FCD2043203D001700130013AFBD145
:1019600060467047FEE70120404270470120404238
:1019700070470120404270470120404270470120DB
:101980004042704701204042704710007047FFFFFF
:10199000656E00000103E80E46FD01000300000033
:1019A00000070107720077002A2A2A205F43737913
:1019B000735F616C6C6F63206661696C65640A00BB
:0400000300000145B3
:00000001FF
