:10000000F01F001045010000290E0000290E00001D
:10001000290E0000290E0000290E0000290E000004
:10002000290E0000290E0000290E0000290E0000F4
:10003000290E0000290E0000290E0000290E0000E4
:10004000290E0000290E0000290E0000290E0000D4
:10005000290E0000290E0000290E0000290E0000C4
:10006000290E0000290E0000290E0000290E0000B4
:10007000290E0000450E0000290E0000F1030000CB
:10008000290E0000290E0000290E0000290E000094
:10009000290E0000290E0000290E0000290E000084
:1000A000290E0000290E0000290E0000290E000074
:1000B000290E0000290E0000290E0000290E000064
:1000C000441A000000000010D4040000D404001002
:1000D000A401000010B5002304E004680C600433A0
:1000E000043004319342F8D310BDC046002303E02E
:1000F00000220260043304308B42F9D37047C046BB
:1001000010B500F0D9FE0C4B07E0186859681C00C8
:100110000C349A68FFF7DEFF2300084A9342F4D3B9
:1001200006E018681C0008345968FFF7DFFF230059
:10013000034A9342F5D310BDC0000000CC0000007C
:10014000D400000010B5FFF7DBFF00F013FF00BE86
:10015000BFF34F8F024A034BDA60BFF34F8FFEE7C6
:100160000400FA0500ED00E0FFFFFFFFFFFFFFFFC7
:10017000FFFFFFFFFFFFFFFFFFFFFFFFFFFFFFFF8F
:10018000FFFFFFFFFFFFFFFFFFFFFFFFFFFFFFFF7F
:10019000FFFFFFFFFFFFFFFFFFFFFFFFFFFFFFFF6F
:1001A000FFFFFFFFFFFFFFFFFFFFFFFFFFFFFFFF5F
:1001B000FFFFFFFFFFFFFFFFFFFFFFFFFFFFFFFF4F
:1001C000FFFFFFFFFFFFFFFFFFFFFFFFFFFFFFFF3F
:1001D000FFFFFFFFFFFFFFFFFFFFFFFFFFFFFFFF2F
:1001E000FFFFFFFFFFFFFFFFFFFFFFFFFFFFFFFF1F
:1001F000FFFFFFFFFFFFFFFFFFFFFFFFFFFFFFFF0F
:10020000FFFFFFFFFFFFFFFFFFFFFFFFFFFFFFFFFE
:10021000FFFFFFFFFFFFFFFFFFFFFFFFFFFFFFFFEE
:10022000FFFFFFFFFFFFFFFFFFFFFFFFFFFFFFFFDE
:10023000FFFFFFFFFFFFFFFFFFFFFFFFFFFFFFFFCE
:10024000FFFFFFFFFFFFFFFFFFFFFFFFFFFFFFFFBE
:10025000FFFFFFFFFFFFFFFFFFFFFFFFFFFFFFFFAE
:10026000FFFFFFFFFFFFFFFFFFFFFFFFFFFFFFFF9E
:10027000FFFFFFFFFFFFFFFFFFFFFFFFFFFFFFFF8E
:10028000FFFFFFFFFFFFFFFFFFFFFFFFFFFFFFFF7E
:10029000FFFFFFFFFFFFFFFFFFFFFFFFFFFFFFFF6E
:1002A000FFFFFFFFFFFFFFFFFFFFFFFFFFFFFFFF5E
:1002B000FFFFFFFFFFFFFFFFFFFFFFFFFFFFFFFF4E
:1002C000FFFFFFFFFFFFFFFFFFFFFFFFFFFFFFFF3E
:1002D000FFFFFFFFFFFFFFFFFFFFFFFFFFFFFFFF2E
:1002E000FFFFFFFFFFFFFFFFFFFFFFFFFFFFFFFF1E
:1002F000FFFFFFFFFFFFFFFFFFFFFFFFFFFFFFFF0E
:1003000010B582B0174800F00DFA00F011F9164C44
:1003100001220421200000F00BFD01220521200014
:1003200000F006FD022000F069FD002000F0F6FB61
:100330000E49002000F00CFC0D4A222313700D4BD7
:10034000D3600323136100235360936000930A4B2F
:100350000321002000F042FC80221202074B1A60A9
:1003600002B010BD40420F0000400440A0860100D2
:10037000D8040010D40400108103000000E100E064
:1003800010B50C00002800D000BE052C19D10120AA
:1003900000F066F9104B1A785878000210180F49CF
:1003A00001F041F90E4B5B180E4A53600A00B4325B
:1003B0000D4B9A4202DD0D4B591A00E0B421094B56
:1003C0009960022C07D1074B034ADA6003221A61B5
:1003D000012000F04BF910BDD4040010B50400005A
:1003E00000000010D8040010B4040000B60400009F
:1003F00010B5002000F0C4FB002803D0002000F05E
:10040000D1FB02E0002000F02DFC10BD10B5FFF77D
:1004100077FFFEE710B5FC235B00114A01E00132D3
:100420000B00591E002B02D01478032CF7D1023B8D
:1004300000290ED0911C54780460FF2C0BD1012BA5
:100440000BDD93781B020360D1780B430360101D12
:1004500004E0002002E0080000E0002010BDC046DB
:100460000881054010B5074C200000F07DFC882372
:10047000984381B2200000F073FC01225242024BEB
:100480001A6010BD00800540F404001010B582B061
:100490000400430616D5FFF7E5FF174B1B6808223B
:1004A00094431B041B0C032B0CD001A8FFF7B2FFD5
:1004B000002807D0019B9C466044104B9C4660443A
:1004C0000F4B186023070DD50D4B1B68013309D066
:1004D0000B4B1B689B089B000A4A944663440A4ADC
:1004E00012681A6081235B001C4201D1230601D5EA
:1004F000FFF7B8FF02B010BD08810540007FFABFCA
:10050000F404001000810540F004001070B5074DA0
:10051000280000F02DFC01002C6AE405E40D280001
:1005200000F02AFC2000FFF7B1FF70BD00800540FD
:1005300010B5324C200000F0EDFBA020C00500F00B
:10054000ADF910220021200000F0F2FB0822012169
:10055000200000F0EDFB08220221200000F0E8FB63
:1005600008220321200000F0E3FB082204212000E0
:1005700000F0DEFB08220521200000F0D9FB082254
:100580000621200000F0D4FB08220721200000F003
:10059000CFFB08220821200000F0CAFB102209210D
:1005A000200000F0C5FB164B1B68164A934202D090
:1005B000154A93420BD1114C08220A21200000F069
:1005C000B7FB08220B21200000F0B2FB0AE00B4C25
:1005D0000A220A21200000F0ABFB0A220B21200096
:1005E00000F0A6FB094800F0EDFB094800F0DEF83A
:1005F000084800F0D1FB00F03FF810BD0040044077
:10060000FC020000214365876587214300400540C7
:100610000040034000800540F0B500231BE00200CD
:100620001A41D20716D50D4C9A00165DA4186778AA
:100630000A001A4101252A40A478A21A54426241B4
:10064000D2B23404A026F605B4466444BD40BA4094
:10065000AD002A510133002BE1DDF0BD1C17000075
:1006600010B50100FFF7D8FF10BDC04610B500213E
:10067000FFF7D2FF10BDC04670B5002416E000227F
:1006800007210D4800F054FB0C49A200535C8A1866
:1006900055781B04A022D2059446634480210902A8
:1006A00058580122AA4002435A500134002CE6DD7A
:1006B0000120FFF7DBFF70BD004004401C17000065
:1006C00070B5041E00DC00BE012C08DC00F0CEF882
:1006D000002804D100F0DAF8002800DC00BE802CED
:1006E00000DD8024002300E001336410FCD10749C1
:1006F0004C62086A0E25A8435A002B00134003439E
:100700000B624C6201234B6270BDC0460080044006
:10071000034B1B6A5B080722134001209840704777
:100720000080044010B5011E00DC00BE024800F04D
:1007300077FFFFF7C5FF10BD00127A0010B5FFF775
:10074000E7FF0100014800F06BFF10BD00127A00C6
:1007500010B5041E16D00C4B984200D900BEFFF70E
:10076000EDFF0100094800F05BFF0100FA20800066
:10077000604300F058FFE138FF3802B4011C033930
:10078000FDDC02BC10BDC04600093D0000CA9A3B1A
:1007900010B5044980228C58034B184020438850E0
:1007A00010BDC04600800440FCBF1D0010B5C02035
:1007B0004003FFF7EDFF042000F016FB082000F0D7
:1007C00027FB6420FFF7C4FF042000F017FBFFF7AE
:1007D000B5FF084B9C466044074900F021FF0138F3
:1007E000002800DC0120054B586101225242044BD5
:1007F0001A6410BDD7B80500D8B805000040034002
:100800007806001070B50C0016001D00002900DAF3
:1008100000BE002D00DC00BE63198022520193420D
:1008200000DD00BE2A00C0239B05E118300000F067
:10083000AAFB0D4B196C002915DB8C4203DD641AF1
:100840001919300002E0081B30180749064B4033E5
:10085000994208D27519A84205D22A1A402A00DD09
:10086000402200F090FB70BD78060010054B186820
:10087000C0231B031840044B9C466044431E984110
:10088000C0B2704700C003400000F4FF024B1B6978
:10089000FF2018407047C04600C0034010B54020FC
:1008A000FFF776FF10BDC04610B50C000B34A40056
:1008B0002350012901D1C26006E02030034B9C4641
:1008C0006144890041180A6010BDC046FEFFFF3F29
:1008D00001231A43D2B24840904341424841C0B23A
:1008E0007047C04670B504000D004B0824D0C068A6
:1008F000226BD2B2C0B2FFF7EBFF00281ED1206AF4
:10090000626BD2B2C0B22900FFF7E2FF002817D114
:10091000606AA26BD2B2C0B22900FFF7D9FF0028EB
:1009200010D1A06AE26BD2B2C0B22900FFF7D0FFAB
:10093000002809D0042008E0002006E0012004E09F
:10094000022002E0032000E0FF2070BD01290CD14D
:10095000C300181A8300054AD3181969044B013BD8
:100960000A7D042A01D1002BF9D17047B804001088
:10097000A086010010B54368F8221340582B49D8CF
:100980009B002F4AD3589F463C2321E00B785B0005
:100990008A6854426241134383603C233BE08B6886
:1009A000002B0AD10B69002B02D021235B4201E00E
:1009B00011235B423C2213402DE04B685A1C4A60D5
:1009C0001B7883608B68013B8B603C2323E02C23E6
:1009D000CA68541CCC60846814700A69013A0A61C0
:1009E00000E03C230A69012A15DD0422934312E04A
:1009F0004B68013B4B608B6801338B6001230B75A7
:100A00002B3308E002230B753A3304E003230B7504
:100A1000293300E03C233C225A4002608361DB061C
:100A200002D50B7D022B06D10B7D042B05D10023B3
:100A30000B75002002E0012000E0002010BDC04640
:100A40002017000010B54368F8221340702B0BD01C
:100A500004DC602B08D0682B0BD105E0A82B03D059
:100A6000B02B01D0782B04D18168C9B2FFF73AFFCF
:100A700000E0FF2010BDC04604230B754368F82238
:100A80001340603B682B33D89B00234AD3589F46C2
:100A9000CB685A1CCA6082681A700B69013B0B61F3
:100AA000012B28DC05213C2230E08368012293439E
:100AB0000B700B69012B21DC00213B3226E083689F
:100AC000012293430B704B685A1C4A601B78836069
:100AD0008B68013B8B60002B13DC06213C2215E068
:100AE00000230B750B78DB070ED4022138220DE0B2
:100AF00000213C220AE00521382207E000213822AB
:100B000004E00621382201E0022118223C23534050
:100B1000036082610800704784180000F8B5070080
:100B2000094DC600331A9C002C196068FFF730FE8F
:100B3000F21B93005B596C229A610022A261034B65
:100B4000A36022616261F8BDB80400104D09000085
:100B500070B504000D00FFF7F1FD290000F063FD02
:100B6000064AE3001D1BA900895845080D611B1B9F
:100B700099008B581A69801A586170BDB80400102A
:100B8000C300181A8300064A9B585B68F8221A4073
:100B9000D00F00235F2191425841C0B27047C04638
:100BA000B804001010B504000B48E300191B8A00BC
:100BB000821811691B1B9A001058FFF7DBFE0028F2
:100BC00008D1E200121B9300034AD3189B6802214C
:100BD0002000984710BDC046B8040010F8B50400C6
:100BE0000D0006A90F781D4E800000194019C100A4
:100BF0008A5171184B60002D09D01278E100091B51
:100C00008B00174958583B002900FFF74DFEE200C2
:100C1000121B9300124AD3189A69FF231B021A422F
:100C200010D1E200121B93000D4AD3181B69002B50
:100C300008D1E3001B1B9A00094BD35838229A6154
:100C40000C321A6008350123AB400548E200151B41
:100C5000A90041188A6913438B61F8BDF80400109C
:100C6000B804001070B50400C3001B1A9A00274B8B
:100C7000D0584368F8221340F82B46D0E200121BEC
:100C80009300224AD3185B69002B12D1FFF7DAFEDA
:100C9000FF283AD01E49A3001B191818C000E20013
:100CA000121B9300194AD31842585A610818426817
:100CB000DA60164DE300191B8A00AA1851690878FA
:100CC0001269561EB24102430A701B1B9A0050590A
:100CD000FFF7D2FE002818D0E200121B93000B4A47
:100CE000D3185B691B7D002B06D1E200121B930019
:100CF000064AD31800225A61E200121B9300034AED
:100D0000D318DB68C1B22000984770BDB80400104A
:100D1000F804001010B58020C002FFF739FD10BDA7
:100D200080228358090109098B4383507047C046CC
:100D300070B506000D0014000B2907D9012A05D152
:100D40000B000C3B01219940FFF7EAFF2402240A23
:100D5000AD00AC5170BDC0464068C0B27047C046DF
:100D6000C905C90D816170478069C005C00D704714
:100D7000C069C005C00D704710B5C3690822134093
:100D8000044C226813432360C905C90D41624162C6
:100D900010BDC0462005001070B50400FE2280235F
:100DA0005B00C250054D00212800FFF7D9FF044920
:100DB0002800FFF7E1FF0023236070BD008005409D
:100DC000FF01000010B58020C000FFF7E1FC10BD5E
:100DD00010B5020030320249024800F0B7F810BDE9
:100DE0002405001024400540034A53680F210840A1
:100DF000834353607047C04600800440034A5368F1
:100E00000F210840184350607047C04600800440DE
:100E100010B504498E2292008B583F242040834312
:100E20008B5010BD0080044000BEBFF34F8F034ABB
:100E3000034BDA60BFF34F8FFEE7C0460400FA05AC
:100E400000ED00E070B5174C2000FFF791FF0600A1
:100E50002000FFF781FF1024044023005A1E934115
:100E6000DDB281235B001E4213D00F48FFF7B0FFB5
:100E70000E4B9B68C01A01280BDD002C07D00B4BD2
:100E80005B78002B03D1094AD3690133D361074B47
:100E90005D709C23064AD258064B9A4201D0FFF758
:100EA00035FB70BD0080054000400540BC060010C9
:100EB000000000000D05000070B5194D2800FFF777
:100EC00075FC184C20232200E82109012800FFF7B7
:100ED00099FC2378252B07D0124C202200212000DA
:100EE00000F055F8252323700F48FFF771FF0D4BD5
:100EF0005B68C31A002B04DC0A4AD3680133D36051
:100F000007E0084A11690131116191698C46634417
:100F10009361044B5860012252429A6070BDC046F2
:100F200000400340BC06001000400540002300E0E4
:100F300006330268D20702D4034A9342F8DD0368FD
:100F4000DB0700D400BE7047CF030000F8B50600F1
:100F50000C0015000B6801330B603000FFF7E6FF53
:100F600027682B683000FFF7E1FF286823689F425D
:100F7000F3D1F8BD002210B51100100000F00CF8FC
:100F8000FFF744FA10BD10B500F087FB10BD10B597
:100F900000F099FB10BDFFFFA02270B5214C52005C
:100FA00000212000FFF7F3FFC02000F0D9F91E4D0B
:100FB000C02200212860FFF7EAFF2B681B4A1900B6
:100FC000C0311360183328328B42FAD122001849FD
:100FD000002000F0A5F8802380225B01D2000021D0
:100FE000200000F02DF8134D134C290022000120A1
:100FF00000F096F8802380225B01D20000212000BF
:1010000000F01EF80D4C29002200022000F088F8A4
:10101000802380225B01D2000021200000F010F824
:1010200070BDC0462C0500102805001050050010AA
:10103000281A00002A1A0000540500107C05001030
:10104000F0B5C6680124B5071AD08025AD00AA42C4
:101050000BD08025ED00AA4204D080256D00AA4265
:101060000ED102E0416A230004E0064F5D1E012418
:10107000BD4205D80024324301610160C361C260F2
:101080002000F0BDFEFFFF00032210B5431C1042FC
:1010900006D00130411E09780029F8D1C01A18E0A5
:1010A0000C4C02680C4951189143214201D1043083
:1010B000F7E7D4B2411C002C0AD0FF242402811C83
:1010C000224205D0FF242404C11C224200D0011D6D
:1010D000C81A10BD80808080FFFEFEFE202310B560
:1010E0000400C2689A43436AE2605B6882699A427C
:1010F0000DD000F04FF8E268074B13401022134365
:10110000626AE3605368A361236993602360E268C5
:10111000024B1340E36010BDEFCFFFFFBFBFFFFFE7
:10112000F7B50D0001901000140000F029F92B789C
:10113000722B09D0772B04D0612B25D10823144AB8
:1011400004E00423022201E0002301220220691CA2
:10115000032784460426012508782B2805D0622819
:1011600007D132432B430131F6E760463A4303434C
:10117000F9E7E260019A62611B0706D502220021AD
:10118000200000F04FF900E000242000FEBDC04622
:101190000280000070B50400436A056901689A681E
:1011A000C068134B0340E36082230340022B02D04C
:1011B000012040421AE080235B02184016D0914281
:1011C00000D211008D4209D10020636AE2689D605F
:1011D000084B25601340A060E36007E0491B220034
:1011E000280000F009F80028EED0E1E770BDC04605
:1011F000FFFFF7FFFFFFFEFFF7B5D66801900D0078
:1012000014005769F30205D5102338001E4300F07F
:1012100073FAA061114B1E4209D0A169380000F099
:1012200074FA8023002811DB0D4B1E40E6602A0073
:101230000199380000F06FFA43005B08ED1AA369CA
:101240005D190023A561984205D08033E2681343FD
:10125000E36001235B421800FEBDC046100002009F
:10126000EFFFFDFFF7B5314EC51C3468AD080196A0
:10127000002813D080222900EB1C002752050A31D8
:101280009C4604E02368934213D02700A468002CF6
:10129000F8D10C3000F076F9431C0FD1002043E068
:1012A0003E68964217D17E689B1903336360BB6822
:1012B000A360A7686368002FF2D10CE080239B0530
:1012C000036045608460002F02D1019B186000E03C
:1012D000B8600C3028E09D4205DC634503DC8023C8
:1012E0009B0523601EE08B4210D9802220008021C4
:1012F0009205656022600C30AA005D1B82184905CA
:10130000033DA2601160556097600DE0002FBCD1D5
:101310009B00C01A00F036F9431CBFD080239B0508
:10132000236065602000D4E7FEBDC0466C06001057
:1013300010B5002812D080235B0519000C3803601B
:101340008268002A0AD013688B4207D15468436828
:101350001B190333436093688360F1E710BDFFFFFF
:1013600010B5FFF77FFF041E05D11722034900F0D7
:10137000D2F900F0BDF9200010BDC0462C1A0000C3
:10138000F0B5436AC5688BB004000193AB0728D061
:101390002B0718D44769066900F02AF8380000F0D6
:1013A000A8F92B0502D53000FFF7C2FF0F4BAD0D9A
:1013B000AD059D4207D12022216A02A800F0A8F9BC
:1013C00002A800F0D5F818220021606AFFF7DFFDBF
:1013D000282200212000FFF7DAFD019B0020636234
:1013E00001E0012040420BB0F0BDC046000080ADDE
:1013F00070B5002803D000F0E5F805000EE0A02647
:101400000400050076000648201800F0DBF80028EC
:1014100001D001256D422834B442F4D1280070BDBA
:101420002C050010F7B5C36816000093009A3B4BDB
:1014300004000D001A426CD04769380000F05FF9D3
:101440000190002865D1012E04D0022E07D0002E75
:101450005FD124E0200000F065F82D181FE038006F
:1014600000F04AF9002805DA8023E2681343E360BC
:1014700001234FE0626A23689168994200D90B000A
:10148000A1695B1821695B1AE168890603D5526876
:10149000934200DA1300834200DA0300ED18002DB6
:1014A00037DB009B616A9B0404D523688A689A42F3
:1014B00000D28B60A3699D420DDB8868226882425E
:1014C00000D202002069D618361AB54203DCCF6874
:1014D000DE19B54207DB2023009A13430022A260E5
:1014E00062604D6011E0ED1A009B9B0701D5EF1B78
:1014F000A760009BDB0702D5121AAA1A626020239C
:10150000009A45199A4313002560054A1340E36089
:1015100001E0022301930198FEBDC04603001000C4
:10152000BFCFF7FFC3689A0705D1212201200F4BD7
:1015300040421A6018E0202219030BD5134202D052
:10154000436A586804E00368826900699B18181AA6
:10155000013809E0134202D0436A586804E0036886
:10156000826900699B18181A7047C04674060010FB
:1015700010B50400FFF788FD0100200000F0C2F85C
:1015800010BDFFFF70B50C4D2B68002B01D10B4B2C
:101590002B600323C41C2E689C433419200000F0E8
:1015A00035F8002802D12C60300004E00C22012024
:1015B000034B40421A6070BD70060010DC0600103C
:1015C00074060010C36870B50400032018401AD0D8
:1015D0009B0605D5636A20005E68FFF77FFD04E087
:1015E0002368A2699E182369F61AE268064B200058
:1015F0001340E360FFF7CEFD05000022310020001C
:10160000FFF710FF280070BDFFCFFFFF034B020064
:10161000181E02D000209A4240417047000000008E
:1016200003000B4321D4002931D00122D207030942
:1016300001E0090112099942FBD9430801E0490080
:1016400052089942FBD900E04908401A07D3524199
:10165000FAD301461046704749084018F7D292184D
:10166000FAD34018014610467047CB0F00D04942CC
:10167000021000D54042534008B5FFF7D4FF0CBC20
:10168000521000D34042002A00D549421847F44680
:10169000002000F001F8604770478446830708D1B6
:1016A0008B0706D1131F04D304C904C0043BFBD22B
:1016B0001A1D524205D0891A801A8B5C835401325C
:1016C000FBD1604670478446043A09D3830707D1AB
:1016D00009060B0A19430B0C1943043A02C0FCD249
:1016E000043203D001700130013AFBD160467047EB
:1016F000FEE7012040427047012040427047012030
:1017000040427047012040427047012040427047EC
:1017100001204042704710007047FFFF000701079B
:101720000C0A0000140A0000140A0000140A000049
:10173000140A0000140A0000140A0000140A000031
:101740008C090000140A0000140A0000140A0000AA
:10175000140A0000140A0000140A0000140A000011
:101760008C090000140A0000140A0000140A00008A
:10177000140A0000140A0000140A0000140A0000F1
:101780009E090000140A0000140A0000140A000058
:10179000140A0000140A0000140A0000140A0000D1
:1017A000FC090000140A0000140A0000140A0000DA
:1017B000140A0000140A0000140A0000140A0000B1
:1017C0009E090000140A0000140A0000140A000018
:1017D000140A0000140A0000140A0000140A000091
:1017E000F0090000140A0000140A0000140A0000A6
:1017F000140A0000140A0000140A0000140A000071
:10180000040A0000140A0000140A0000140A000070
:10181000140A0000140A0000140A0000140A000050
:10182000E2090000140A0000140A0000140A000073
:10183000140A0000140A0000140A0000140A000030
:10184000FC090000140A0000140A0000140A000039
:10185000140A0000140A0000140A0000140A000010
:1018600088090000140A0000140A0000140A00008D
:10187000140A0000140A0000140A0000140A0000F0
:10188000CE090000AA0A0000F00A0000F00A0000D9
:10189000F00A0000F00A0000F00A0000F00A000060
:1018A000F00A0000AA0A0000F00A0000F00A000096
:1018B000F00A0000F00A0000F00A0000F00A000040
:1018C000F00A0000AA0A0000F00A0000F00A000076
:1018D000F00A0000F00A0000F00A0000F00A000020
:1018E000F00A0000AA0A0000F00A0000F00A000056
:1018F000F00A0000F00A0000F00A0000F00A000000
:10190000F00A0000900A0000F00A0000F00A00004F
:10191000F00A0000F00A0000F00A0000F00A0000DF
:10192000F00A0000E00A0000F00A0000F00A0000DF
:10193000F00A0000F00A0000F00A0000F00A0000BF
:10194000F00A0000900A0000F00A0000F00A00000F
:10195000F00A0000F00A0000F00A0000F00A00009F
:10196000F00A0000E00A0000F00A0000F00A00009F
:10197000F00A0000F00A0000F00A0000F00A00007F
:10198000F00A0000E00A0000F00A0000F00A00007F
:10199000F00A0000F00A0000F00A0000F00A00005F
:1019A000F00A0000BE0A0000F00A0000F00A000081
:1019B000F00A0000F00A0000F00A0000F00A00003F
:1019C000F00A0000BE0A0000F00A0000F00A000061
:1019D000F00A0000F00A0000F00A0000F00A00001F
:1019E000F00A0000C60A0000F00A0000F00A000039
:1019F000F00A0000F00A0000F00A0000F00A0000FF
:101A0000F00A0000E00A0000F00A0000F00A0000FE
:101A1000F00A0000F00A0000F00A0000F00A0000DE
:101A2000F00A0000E00A0000720077002A2A2A204B
:101A30005F437379735F616C6C6F63206661696C7F
:041A400065640A00CF
:101A44004F7572204E54414720536D617274536533
:101A54006E736F7220706F7274666F6C696F206F33
:101A640066666572732073696E676C652D63686959
:101A74007020736F6C7574696F6E73207468617411
:101A840020636F6D62696E65204E464320636F6EFE
:101A94006E65637469766974792077697468206106
:101AA40075746F6E6F6D6F75732073656E73696E89
:101AB400672C20646174612070726F63657373694D
:101AC4006E672C20616E64206C6F6767696E672E89
:101AD4002054686573652064657669636573206363
:101AE400616E20626520656173696C7920636F6D36
:101AF40062696E65642077697468206F74686572C2
:101B040020636F6D70616E696F6E206368697073B6
:101B14002C207375636820617320726164696F732C
:101B2400206F722073656E736F7220736F6C75749F
:101B3400696F6E732E204E54414720536D61727449
:101B440053656E736F722064657669636573206193
:101B5400726520696465616C20666F7220496E74D9
:101B640065726E6574206F66205468696E677320B1
:101B740028496F54292070726F64756374732E2022
:101B84000A4170706C69636174696F6E73200A4EE8
:101B940054414720536D61727453656E736F7220A4
:101BA40063616E206265207573656420696E2061CF
:101BB40070706C69636174696F6E73206C696B65B6
:101BC40020706572736F6E616C206865616C7468F7
:101BD4002C2070617469656E742061646865726537
:101BE4006E63652C206C6F676973746963732C2052
:101BF4007061636B6167696E672C206167726963EA
:101C0400756C747572652C20696E64757374727961
:101C140020342E302C206F7220616E696D616C202F
:101C240074616767696E672E200A496E7465726E07
:101C34006574206F66205468696E6773200A4E5479
:101C4400414720536D61727453656E736F722069DE
:101C540073206F6E65206F662074686520736D61F4
:101C64006C6C657374206564676520636F6D707553
:101C740074696E67206465766963657320E2809396
:101C840020636F6C6C6563746564206461746120A7
:101C940069732075706C6F6164656420696E746F1C
:101CA4002074686520636C6F7564207669612074A4
:101CB4006865204E464320696E746572666163658B
:101CC4002E204173206D6F737420736D6172747074
:101CD400686F6E6573206861766520616E204E467C
:101CE4004320696E746572666163652C2064617457
:101CF4006120636F6C6C656374696F6E20616E64E0
:101D04002072656164696E672061726520696E7412
:101D14007569746976652077697468206465646997
:101D240063617465642061707073206F6E207468E1
:101D3400652070686F6E652E200A54656D7065723B
:101D440061747572652043616C6962726174696F54
:101D54006E200A4E48533331303020616E64204E79
:101D64004853333135322061726520696E64697677
:101D7400696475616C6C792074656D7065726174E9
:101D84007572652D63616C69627261746564206942
:101D94006E2070726F64756374696F6E20616E6417
:101DA4002049534F2F494543203137303235206382
:101DB400616C6962726174696F6E206365727469C3
:101DC400666963617465732077697468204E49534A
:101DD400542074726163656162696C69747920610D
:101DE400726520617661696C61626C65206F6E203A
:101DF4006E78702E636F6D2E200A54656D70657257
:101E04006174757265204368617261637465726997
:101E14007374696373200A4162736F6C757465200F
:101E24006163637572616379206F6620302E33C2FB
:101E3400B04320696E207468652072616E67652006
:101E44006F66203020746F203430C2B043200A41C2
:101E540062736F6C75746520616363757261637915
:101E6400206F6620302E35C2B04320696E2074681E
:101E7400652072616E6765206F66202D3430207492
:101E84006F2030C2B04320616E6420343020746F00
:101E9400203835C2B043200A54656D706572617490
:101EA40075726520726563616C6962726174696FD1
:101EB4006E206973206E6F74207265717569726526
:101EC4006420666F72206170706C69636174696FFD
:101ED4006E732074686174206E656564206569742E
:101EE4006865722061636375726163792070726FD3
:101EF40066696C652EFFFFFF0000004020000000B3
:101F04004D09000000000000000000000000000077
:041F140000000000C9
:0400000300000145B3
:00000001FF
